:020000040800F2
:10000000B8200020A901000843200008AD1E000808
:1000100041200008150500087928000800000000AC
:10002000000000000000000000000000992100080E
:10003000D10600080000000045200008FD2100084E
:10004000C3010008C3010008C3010008C301000880
:10005000C3010008C3010008C3010008C301000870
:10006000C3010008C3010008C3010008C301000860
:10007000C3010008C3010008C3010008C301000850
:10008000C3010008C3010008C3010008000000000C
:10009000000000000000000000000000C301000894
:1000A000CD220008C3010008C3010008C3010008F5
:1000B000C3010008C3010008C3010008C301000810
:1000C000C3010008C3010008C3010008C301000800
:1000D000C3010008612800086D2800080000000026
:1000E000C3010008C3010008C301000800000000AC
:1000F000000000000000000000000000C301000834
:1001000000000000C3010008C3010008C30100088B
:1001100000000000000000000000000000000000DF
:10012000C3010008C301000819050008C301000845
:10013000C3010008000000000000000000000000F3
:10014000000000000000000000000000C3010008E3
:10015000C3010008C3010008C3010008C30100086F
:10016000C3010008C30100080000000000000000F7
:10017000000000000000000000000000000000007F
:1001800000000000C30100080000000000000000A3
:10019000C3010008DFF80CD000F0AAF900480047BE
:1001A000E9280008B8200020064880470648004794
:1001B000FEE7FEE7FEE7FEE7FEE7FEE7FEE7FEE717
:1001C000FEE7FEE7BD220008950100082DE9F05F7B
:1001D0000546002092469B468846064681464024B6
:1001E0001BE0284641464746224600F0DDF85346CC
:1001F0005A46C01A914110D311461846224600F0C3
:10020000C4F82D1A67EB01084F4622460120002151
:1002100000F0BBF817EB00094E41201EA4F10104C9
:10022000DFDC484631462A464346BDE8F09FD2B25D
:1002300001E000F8012B491EFBD270470022F6E7CF
:1002400010B513460A4604461946FFF7F0FF20464C
:1002500010BD2DE9F04D81EA030404F0004B21F0BC
:10026000004514464FF0000A23F0004150EA050211
:1002700020D054EA01021DD0C5F30A570246C5F347
:100280001303C1F31300C1F30A5640F4801543F47D
:100290008013A7EB0608101BD64608F2FD3873EB57
:1002A000050002D308F1010801E092185B41B8F1A2
:1002B000000F03DA00200146BDE8F08D00204FF466
:1002C0008011064684460EE0171B73EB050705D325
:1002D000121B63EB050306434CEA010C49084FEA85
:1002E000300092185B4150EA0107EDD152EA030059
:1002F00012D082EA040083EA0501084305D0101BEE
:10030000AB4106D20122002306E000224FF0004359
:1003100002E06FF0010253101AEB06004CEB08519B
:1003200010EB0A0041EB0B01BDE8F04D00F083B883
:100330000EB5C10F80EAE0700844CA07002140F200
:1003400033438DE80E000A460B4600F083F803B0F5
:1003500000BD01F0004330B421F0004150EA010239
:1003600006D00A0DA2F56072C1F31301002A02DC67
:1003700030BC00207047440F44EAC104C100E018BB
:1003800030BC00EBC25000F01FB8202A04DB203A3A
:1003900000FA02F1002070479140C2F1200320FAD8
:1003A00003F3194390407047202A04DB203A21FAD6
:1003B00002F00021704721FA02F3D040C2F120027E
:1003C00091400843194670470029A8BF7047401C58
:1003D000490008BF20F00100704710B4B0FA80FC5B
:1003E00000FA0CF050EA010404BF10BC704749B198
:1003F000CCF1200421FA04F411FA0CF118BF012108
:1004000021430843A3EB0C01CB1D4FEA00614FEAE7
:10041000102042BF002010BC704700EBC3501044B6
:100420000029A4BF10BC7047401C490008BF20F041
:10043000010010BC704710B5141E73F1000408DAF7
:10044000401C41F1000192185B411A4301D120F098
:10045000010010BD2DE9F04D92469B4611B1B1FA55
:1004600081F202E0B0FA80F220329046FFF78DFF71
:1004700004460F4640EA0A0041EA0B0153465A4639
:10048000084313D0114653EA010019D0C8F14002C5
:100490005046FFF789FF05460E46504659464246EC
:1004A000FFF773FF084305D0012004E020463946DA
:1004B000BDE8F08D0020054346EAE0762C43374343
:1004C0000A986305E40AA0EB08000022FD0A44EA4A
:1004D00047540A3002D500200146E9E7010510190A
:1004E0006941DDE9084500196941BDE8F04DA2E721
:1004F000064C074D06E0E06840F0010394E8070071
:1005000098471034AC42F6D3FFF748FEE82B0008BA
:10051000082C0008FEE700002DE9F05F00243B48AE
:1005200000F0F0FADFF8E890DFF8E8A04846D9E9F3
:100530000153D0E90321D9E90576DFF8DCE0DFF8E3
:10054000DCC04FF4FA7B00BF1AF80480B8F12C0F1E
:1005500006D10AEB040090F80680B8F15B0F16D0C4
:1005600000208CF80000641CA4B2082CECD3484690
:10057000C9F81860C0E90417C9E90153C9F80C208B
:10058000BDE8F05F0E222349254801F0EDBB90F84D
:100590000180B8F1210F03D0B8F1120F12D022E080
:1005A0008178C27801EB02225A4501DD42EA0E024F
:1005B0000179407901EB0021594501DD41EA0E0145
:1005C000012712E08378C57803EB05255D4501DD41
:1005D00045EA0E050379407903EB00235B4501DD15
:1005E00043EA0E030126012FBDD1012EBBD1A81A6B
:1005F0000C4F801E0C4E5C1A3860A41E0120346023
:1006000000268CF800003746B1E7000054110020A6
:100610001C000020741000200000FFFF00000020DC
:10062000CC100020040000200800002001681823DE
:10063000CAB2103AB2FBF3F2054B6FF30901032A79
:100640009B5CC36500D9091D8165084670470000A1
:10065000C82B000810B5014600208B698A6A4FF04C
:10066000C07453B1B3F5005F15D072B1012A0CD03C
:10067000022A0AD0032A09D104E01AB1012A06D0BD
:10068000022A03D1C96AC90100D5012010BDC96A77
:10069000A142FAD010BD002AF7D0012AF2D0022AD6
:1006A000F3D0032AF3D010BD30B50468256825F4D3
:1006B00080252560046863608368402B036803D04D
:1006C00099600068C26030BD9A600068C16030BD4A
:1006D000704772B6FEE710B590B0044603AA322107
:1006E000684601F0EBFC6946204600F00AF86846CF
:1006F00001F0B1FC401E81B2684601F0CAFC10B0A6
:1007000010BD70B50D4604460188284601F03EFD37
:10071000A178284601F023FDE178284601F01FFD6D
:10072000E278211D284601F01CFD284601F09EFCC0
:1007300001462846BDE8704001F011BD37B58EB0C6
:10074000154604460FAB01220A2100F0D9F869468C
:10075000204600F04FF8040015D19DF804009DF8E4
:100760003C10884202D0072011B030BDBDF9050011
:10077000FFF7DEFD9FED051B53EC112BFFF769FD25
:10078000FFF7E7FD28602046EEE7000000000000CC
:100790000000244037B58EB0154604460FAB012249
:1007A000102100F0ADF86946204600F023F804005F
:1007B00019D19DF804009DF83C10884202D0072012
:1007C00011B030BD9DF80810DDF8050061F31F6021
:1007D000FFF7AEFD9FED051B53EC112BFFF739FD25
:1007E000FFF7B7FD28602046EAE7000000000000A0
:1007F000000024402DE9F0410646002081F8370032
:10080000074605460C46642001F0C8FC63E0B0686A
:1008100001F021FC78B394F8370001071AD5B068CD
:1008200001F09BFC84F8360094F8370040F010008B
:1008300084F837002046FFF74EFF94F836108842C0
:1008400004D001F0B9FC0620BDE8F08101F0B4FC51
:100850000020F9E741070FD5B06801F07EFCE119EF
:100860007F1C0871E078FFB2B84234D194F83700A9
:1008700040F0080010E02EE0810710D5B06801F0CC
:100880006CFCE0702D2803D901F096FC0520DBE715
:1008900094F8370040F0040084F837001BE0C007EC
:1008A0000ED0B06801F059FCA070112803D901F0F6
:1008B00083FC0420C8E794F8370040F00200EBE71F
:1008C00015B1052D0DD005E0B06801F046FC0546D8
:1008D000052800D0002501F07DFC002897D00220DB
:1008E000B2E7B06801F039FC45EA0025A5F5E05013
:1008F0000538EFD1258094F8370040F00100CBE7B0
:1009000070B58EB0044644F61240ADF800008DF884
:1009100002108DF803200021684603E05D5C461854
:10092000491C35719142F9DB6168FFF7EAFE204608
:1009300001F0A3FF0EB070BD2DE9F04116462DED7C
:10094000028B86B00F4680461D46B0EE408A03AA51
:10095000072168460E9C01F0B1FB18EE100A1D49F4
:10096000884202DD9FED1C8A06E018EE100A1B4942
:10097000884201D99FED1A8A3946684601F0EFFB9B
:10098000B2EE040A28EE000ABDEEC00A10EE100A0C
:1009900001B2684601F0F4FB3146684601F0F6FB0F
:1009A0002946684601F0F2FB0DF10D0307220821EC
:1009B0004046FFF7A5FF5CB10022B0EE480A394679
:1009C000404600F00FF806B0BDEC028BBDE8F081A8
:1009D0000020F8E70000344300003443000034C333
:1009E000000034C32DE9F043174E15462DED028B60
:1009F00081B0B0EE408A88468146002442F21077EA
:100A00006A464146484615B1FFF7C4FE01E0FFF7CC
:100A100095FE9DED000A38EE400AF0EEC00A10EE99
:100A2000900AB04205DC002001B0BDEC028BBDE8AD
:100A3000F083641CA4B2BC4201D30120F4E764201B
:100A400001F0D2FBDCE70000CDCC4C3F2DE9F041BA
:100A50000446876D00F0D4FA064694F83500002568
:100A6000022806D08020606584F834500120BDE85B
:100A7000F0812068016821F0160101602068416959
:100A800021F080014161206C08B9A06C20B1206880
:100A9000016821F0080101602068016821F001016E
:100AA00001600CE000F0ACFA801B052807D920207B
:100AB0006065032084F8350084F83450D7E7206857
:100AC0000068C007EED194F85C103F208840B86001
:100AD000012084F8350084F834500020C7E790F8EE
:100AE0003510022903D0802141650120704705217E
:100AF00080F835100068016821F0010101600020D4
:100B0000704700002DE9F84304464FF00009CDF886
:100B1000009063484FF41651A56D0068B0FBF1F7E3
:100B20002E6894F85C10082000FA01F131420FD0D1
:100B300021680A6852070BD50A6822F004020A608D
:100B400094F85C108840A860606D40F0010060651A
:100B500094F85C104FF0010808FA01F0304208D018
:100B600021684969090604D5A860606D40F002005B
:100B7000606594F85C1004208840304208D02168F9
:100B80000968890704D5A860606D40F004006065BD
:100B900094F85C1010208840304218D02168096811
:100BA000090714D5A86020680168490304D50068C6
:100BB000000308D5A16C07E00168C90503D40168EA
:100BC00021F008010160216C09B12046884794F8A2
:100BD0005C1020208840304231D021680968C90665
:100BE0002DD5A86094F8350005282068016806D046
:100BF000490347D5006800031DD4616C1CE021F057
:100C0000160101602068416921F080014161206C7A
:100C100008B9A06C20B12068016821F008010160CA
:100C200094F85C103F208840A86084F8358084F8F0
:100C30003490216D1FE0E16B09B120468847606D5B
:100C400000282BD0606DC00714D0052084F8350033
:100C50002068016821F0010101600098401C0090AB
:100C6000B84203D820680068C007F6D184F8358000
:100C700084F83490E16C002910D001B02046BDE822
:100C8000F04308470168C905D5D4016821F0100177
:100C9000016084F8358084F83490CCE7BDE8F883AF
:100CA000480000202DE9F041044600F0A9F906466D
:100CB0005CB1022084F83500002584F834502068A7
:100CC000016821F0010101600DE00120BDE8F08123
:100CD00000F096F9801B052805D9202060650320C7
:100CE00084F83500F2E720680068C007F0D1226878
:100CF000116820480140D4E901031843D4E90336C0
:100D00003343184363691843A3691843E3691843DD
:100D1000236A18430843616A042903D1D4E90B13F9
:100D200019430843106020684069666A20F0070193
:100D300030460E43012704280CD1A06A0643E06A1E
:100D400040B12046FFF786FC20B14020606584F862
:100D50003570BAE7206846612046FFF767FC94F8D3
:100D60005C203F2191408160656584F835700020EA
:100D7000ACE700003F8010F02DE9F0410446866D9D
:100D800090F83400002501280DD0012084F83400AB
:100D900094F835700020012F07D084F83400022524
:100DA0002846BDE8F0810220FBE7022784F8357071
:100DB00060652046FFF778FC94F85C103F2088407F
:100DC000B0602068016841F016010160206C20B11C
:100DD0002068016841F0080101602068016841F065
:100DE00001010160DCE7000070B5044600F008F97D
:100DF0000546601C02D004480078044400F000F965
:100E0000401BA042FAD370BD3C0000202DE9F84FF2
:100E1000DFF8B8A10022012403254FF00F090AF1E1
:100E2000040BAAF1040E00BF0B6804FA02F633406B
:100E3000B34273D10F7907F00307012F01D0022FBE
:100E400016D187684FEA420805FA08FC27EA0C0722
:100E5000D1F80CC00CFA08FC4CEA070CC0F808C02A
:100E60004768B7430E79C6F3001696403E43466086
:100E70000E79F643B6070DD0C768560005FA06FC92
:100E800027EA0C07D1F808C00CFA06FC4CEA070C5C
:100E9000C0F80CC00E7906F00306022E10D1D60859
:100EA00000EB8608D8F8206057074FEAD76C09FA9C
:100EB0000CF7BE430F6907FA0CF73743C8F82070E8
:100EC00006684FEA420C05FA0CF7BE430F7907F0AB
:100ED000030707FA0CF7374307604E6816F4403FE4
:100EE0006DD03B4E376847F480473760366822F054
:100EF000030706F480460096364E07EB060CDCF836
:100F0000086897073F0F09FA07F826EA0806DFF88E
:100F1000C880404503D14FF000081EE04FE0DFF8E5
:100F2000BC80404502D14FF0010816E0DFF8B080E8
:100F3000404502D14FF002080FE0DFF8A88040459D
:100F400002D14FF0030808E0DFF89C80404502D151
:100F50004FF0040801E04FF0070808FA07F848EAE4
:100F60000608CCF80888DAF800605746D1F804C0C3
:100F70009E435FEACC2C00D51E433E60DBF8006048
:100F80005F46D1F804C09E435FEA8C2C00D51E4317
:100F90003E60DEF800607746D1F804C09E435FEA09
:100FA0008C3C00D51E433E60084F083F3E68D1F898
:100FB00004C09E435FEACC3C00D51E433E60521CF9
:100FC000102AFFF431AFBDE8F88F0000083C014063
:100FD000443802400030014000000240000402405A
:100FE00000080240000C0240001002400069084066
:100FF00000D0012070470AB1816170470904FBE706
:1010000001488068704700003C0000200248816869
:1010100002781144816070473C0000200B4810B5F5
:10102000016841F400710160016841F48061016070
:10103000016841F480710160032000F06FF80F2017
:1010400000F006F800F024F8002010BD003C02403B
:1010500070B50D4D04464FF47A712878B1FBF0F06D
:101060000A490968B1FBF0F000F00CFB48B9102CFC
:1010700007D200222146501E00F030F800206C609C
:1010800070BD012070BD00003C0000204800002021
:101090000A4808B5016841F480410160006800F425
:1010A000804000900548001F016841F080510160B8
:1010B000006800F08050009008BD000044380240F5
:1010C000002809DB00F01F02012191404009800047
:1010D00000F1E020C0F8001170470000F0B40E4BA2
:1010E0001B680C46C3F30223C3F10705042D00D986
:1010F0000425191D072901D2002300E0DB1E01266B
:1011000006FA05F1491E214099409E40761E164080
:101110003143F0BC01F0C8BB0CED00E0064900F023
:10112000070208684FF6FF03184040EA0220034A0E
:1011300010430860704700000CED00E00000FA0565
:101140002DE9F0470E46050065D0DFF81481D8F888
:101150000000F7B200F00700B04207D288F8007034
:10116000D8F8000000F00700B04254D128683D4C88
:10117000810712D5400703D5206840F4E050206075
:101180002878000703D5206840F46040206020687C
:10119000A96820F0F000084320602878C0072DD00F
:1011A000304968680839012812D0022813D0032872
:1011B00011D00968890700292DDA216821F003017F
:1011C00001432160FFF71CFF814641F2883A0EE09F
:1011D00009688903EFE709688901ECE7FFF710FF69
:1011E000A0EB0901514502D90320BDE8F087206832
:1011F000696800F00C00B0EB810FEFD1D8F8001057
:10120000404601F00701B14207D90770006800F0BD
:101210000700B04201D00120E7E72878400705D554
:101220002068E96820F4E05008432060287800072F
:1012300006D52068296920F4604040EAC10020609A
:1012400000F038F82168084AC1F30311515CC84026
:101250000649086006480068FFF7FAFE0020C4E768
:10126000003C024008380240D02B00084800002013
:10127000400000200448054900680968044AC1F399
:101280008221515CC8407047480000200838024065
:10129000E02B00080448054900680968044AC1F3C6
:1012A0004231515CC8407047480000200838024075
:1012B000E02B0008154810B5006810F00C02144827
:1012C00013D01449042A0FD0082A0ED10F4C241F22
:1012D0002268236802F03F025B0207D52068C0F352
:1012E0008810A0FB010106E0084610BD2168C1F38B
:1012F0008811A1FB00010023FEF768FF2168C1F3FC
:101300000141491C4900B0FBF1F010BD0838024012
:101310000024F400001BB7002DE9F84F04006ED044
:101320002078DFF84C93C007A9F104054AD009F1F1
:1013300004000168C1F38101012908D00068C0F3ED
:10134000810002280AD1D9F80000400206D5286899
:10135000800337D560680028E1D033E06068B0F5DD
:10136000803F10D0B0F5A02F286810D020F4803036
:101370002860286820F4802028606068A8B1FFF702
:101380003FFE06460DE0286840F48030F4E740F464
:1013900080202860F7E700BFFFF732FE801B64283B
:1013A00073D828688003F7D50CE0FFF729FE0646BE
:1013B00005E000BFFFF724FE801B6428F0D82868F2
:1013C0008003F7D42078DFF8AC8280074FF0000A62
:1013D0003ED5A748001D016811F00C0F08D0006829
:1013E000C0F3810002280BD1D9F80000400207D4D5
:1013F0002868800716D5E068012800D112E033E1A3
:10140000E068B8B10120C8F80000FFF7F9FD064612
:1014100005E000BFFFF7F4FD801B0228C0D8286854
:101420008007F7D52868216920F0F80040EAC1005C
:1014300028600DE0C8F800A0FFF7E2FD064604E0D2
:10144000FFF7DEFD801B02281FD828688007F7D42D
:101450002078000722D5864F87486169703771B1BF
:1014600001210160FFF7CCFD064604E0FFF7C8FD4F
:10147000801B022809D838688007F7D50EE0C0F82D
:1014800000A0FFF7BDFD064605E082E0FFF7B8FDCE
:10149000801B02287DD838688007F7D42078400761
:1014A00068D5DFF8CCB100270BF13C0BDBF800006E
:1014B000C0000BD4DBF8001041F08051CBF80010D5
:1014C000DBF80000012700F0805000906B4E306880
:1014D000C00510D4306840F480703060FFF790FD94
:1014E000009005E0FFF78CFD0099401A022850D8C3
:1014F0003068C005F6D55E4EA0686C3601280FD066
:101500000528306810D020F001003060306820F0ED
:1015100004003060A068B8B1FFF772FD00900FE0E2
:10152000306840F00100F4E740F004003060F7E775
:10153000FFF766FD0099411A41F28830814266D872
:1015400030688007F4D50EE0FFF75AFD009007E001
:10155000FFF756FD0099411A41F28830814256D872
:1015600030688007F4D42FB1DBF8001021F08051EF
:10157000CBF80010A069C8B33D49091D0968C1F343
:10158000810102294AD00228504607D0C8F86000DD
:1015900000E03CE0FFF734FD04463BE04746C8F876
:1015A0006000FFF72DFD064605E000BFFFF728FDB0
:1015B000801B02282BD828688001F7D4D4E90701C2
:1015C0000843A16A2E4A490802EB0141626A41EAD6
:1015D0008211084394F82C1040EA0161C9F8001008
:1015E00001203866FFF70CFD044606E03EE000BF30
:1015F000FFF706FD001B022809D828688001F7D5EF
:1016000034E000BFFFF7FCFC001B022802D90320D6
:10161000BDE8F88F28688001F4D427E00128F7D0CE
:10162000D9F80000E26900F4800191421CD1226ADD
:1016300000F03F01914217D147F6C071626A014044
:10164000B1EB821F10D1A26A4FF0FF3300F440319A
:1016500003EB5202B1EB024F06D194F82C1000F0CC
:101660007060B0EB016F01D00120D1E70020CFE71F
:101670000438024000004742800E4742007000409C
:101680000000FFFF10B5401EB0F1807F01D30120A4
:1016900010BD4FF0E02460610F21601701F004F9E4
:1016A0000020A06107202061002010BD7047704716
:1016B00010B5040003D094F83D0010B107E00120FC
:1016C00010BD002084F83C00204600F01FF80220E6
:1016D00084F83D00211D206800F006FE012084F8FA
:1016E000460084F83E0084F83F0084F8400084F807
:1016F000410084F8420084F8430084F8440084F8F0
:10170000450084F83D00002010BD000008B50068C9
:101710000B49884212D10B48016841F480310160C5
:101720000068002200F48030009011461820FFF776
:10173000D5FCBDE808401820FFF7C2BC08BD00007A
:10174000004001404438024070B5044690F83C0027
:101750000025012817D0012684F83C60022084F877
:101760003D002068826822F0770222F47F42826086
:101770000868502838D00DDC20284FD005DC90B305
:10178000102811D14AE0022070BD302846D04028F0
:101790000AD13BE060282FD070280DD0B0F5805FD3
:1017A00003D0B0F5005F12D0012584F83D60002021
:1017B00084F83C00284670BDCB68D1E9012120683F
:1017C00000F0DEFD2068816841F0770109E0CB6818
:1017D000D1E90121206800F0D3FD2068816841F43F
:1017E00080418160E1E719E0CA684968206800F03B
:1017F000D9FD5021206806E0CA684968206800F0D9
:10180000E2FD6021206800F0C5FDCEE7CA684968A6
:10181000206800F0C7FD40212068F4E722680146F7
:101820001046F0E7704770B50446006801694FF054
:101830000005C943890715D4C168C943890711D474
:10184000E91E016101202077206880698007204619
:1018500002D0FFF7E7FF04E000F098F8204600F020
:1018600096F8257720680169C943490717D4C168EC
:10187000C943490713D46FF00401016102202077A6
:101880002068806910F4407F204602D0FFF7CAFF2D
:1018900004E000F07BF8204600F079F82577206816
:1018A0000169C943090716D4C168C943090712D49D
:1018B0006FF008010161042020772068C06980076B
:1018C000204602D0FFF7AEFF04E000F05FF82046AC
:1018D00000F05DF8257720680169C943C90617D46F
:1018E000C168C943C90613D46FF010010161082013
:1018F00020772068C06910F4407F204602D0FFF7AF
:1019000091FF04E000F042F8204600F040F825770F
:1019100020680169C943C90708D1C168C943C9071B
:1019200004D1891E0161204600F032F82068016967
:10193000C943090609D4C168C943090605D46FF033
:10194000800101612046FFF7B1FE20680169C943AB
:10195000490609D4C168C943490605D46FF040015E
:101960000161204600F015F820680169C943890625
:101970000BD4C168C943890607D46FF02001016107
:101980002046BDE87040FFF792BE70BD70477047BB
:101990007047704770477047F8B50168044608689B
:1019A000CA684B6910F00F0F4FF0000559D003F0D3
:1019B000010602F49077374365D0C10705D0D10501
:1019C00003D5216C41F001012164410705D5D907F8
:1019D00003D0216C41F002012164810705D5D907AC
:1019E00003D0216C41F004012164010707D502F006
:1019F0002001314303D0216C41F008012164216CA6
:101A000000293AD0800604D5900602D5204600F081
:101A10009CFD20684069216CC0F38010090700D448
:101A200060B3204600F05CFD20684069400621D587
:101A30002068143050E8001F21F0400140E80012F7
:101A4000002AF5D1A06BA8B16C490165A06BFFF726
:101A500046F8002811D0A06B016D01B0BDE8F04040
:101A6000084783060FD593060DD52046BDE8F840FC
:101A700000F06BBD2046FFF78EFFF8BD2046FFF754
:101A80008AFF2564F8BD266B2023012E79D1C60676
:101A900077D5D60675D5086848680090486940062D
:101AA00040D5A16B086840680004000CEAD0A28D04
:101AB0008242E7D9E085C869B0F5807F2DD02068E3
:101AC0000C3050E8001F21F4807140E80012002A19
:101AD000F5D12068143050E8001F21F0010140E8E2
:101AE0000012002AF5D12068143050E8001F21F0C0
:101AF000400140E80012002AF5D184F83E30256309
:101B000020680C3050E8001F21F0100140E800125E
:101B1000002AF5D1A06BFEF799FFA08DE18D401A48
:101B200081B229E0A08DE18D401A81B2E08D0028BC
:101B3000A8D00029A6D020680C3050E8002F22F44D
:101B4000907240E80026002EF5D12068143050E84D
:101B5000002F22F0010240E80026002EF5D184F883
:101B60003E30256320680C3050E8002F22F0100230
:101B700040E80023002BF5D12046FFF70BFFF8BD0E
:101B8000FFE705062BD5150629D594F83D00212839
:101B9000F5D1A068B0F5805F01D12069B0B1206AAD
:101BA000411C2162216800784860E08C401E0004DE
:101BB000000CE084E3D12068C16821F08001C1609D
:101BC0002068C16841F04001C160D8E7206A008800
:101BD000C0F308004860206A801C2062E5E74006E8
:101BE000CDD55006CBD5CA68204622F04002CA6047
:101BF00084F83D3000F059F9C1E70000EB230008FC
:101C000070B5040004D094F83D00002510B106E042
:101C1000012070BD84F83C50204600F023F82420B9
:101C200084F83D002068C16821F40051C16020465D
:101C300000F0ECFC2068016921F49041016120680A
:101C4000416921F02A0141612068C16841F40051D5
:101C5000C1602564202084F83D0084F83E00002007
:101C600070BD0000F0B587B0064614216846FEF747
:101C7000E5FADFF8DCC0306800253649022203238C
:101C80000727354C60453AD132481430D0F800C0AF
:101C90004CF0100CC0F800C0006800F01000059077
:101CA000086840F0010008600868694600F001001B
:101CB000059058028DE82500CDE903372046FFF74F
:101CC000A5F8274C254820604FF00060C4E90105C5
:101CD0004014C4E903506561A561E56125622046B1
:101CE0006562FEF7DFFF08B1FEF7F3FCB463002284
:101CF00011462520A663FFF7F1F9252023E0194EB0
:101D0000B04222D113481030066846F4003606600F
:101D1000006800F400300590086840F00100086099
:101D20000868694600F0010005900C208DE8250048
:101D3000CDE903372046FFF769F800221146262037
:101D4000FFF7CCF92620FFF7BBF907B0F0BD000084
:101D50000010014030380240000002404064024060
:101D6000541100200044004090F83E30202B0ED14A
:101D700059B152B190F83C30012B08D0012380F8C2
:101D80003C300023036300F0C7BC012070470220F1
:101D9000704790F83E30202B0ED159B152B190F8D7
:101DA0003C30012B08D0012380F83C300023036332
:101DB00000F0FCBC012070470220704710B500689D
:101DC000084988420CD1084808498068097800F021
:101DD000AFF9BDE81040012204490548FFF7D9BF1B
:101DE00010BD000000440040681000201C000020CE
:101DF00010110020704700002DE9F843044690F8C8
:101E00003D001F4616460D4620284CD1C5B1BEB137
:101E100094F83C00012846D0012084F83C004FF0A3
:101E20000008C4F84080212084F83D00FFF7E8F85E
:101E3000A6848146E684A068B0F5805F03D004E004
:101E40000120BDE8F883206928B12E465FF0000527
:101E500084F83C800EE00026FAE78021204600F05E
:101E6000C2FCA0B9AEB116F8010B21684860E08C45
:101E7000401EE084E08C4B464FF0000200970028A3
:101E8000EBD14FF04001204600F0ADFC30B1032013
:101E9000D7E735F8020BC0F30800E6E7202084F806
:101EA0003D000020CDE70220CBE77047FEE70000B1
:101EB000094808B5016841F480010160006800220A
:101EC00000F48000009011463A20FFF707F9BDE8C2
:101ED00008403A20FFF7F4B830380240F0B587B038
:101EE00014216846FEF7AAF922480024016841F04F
:101EF00004010160016801F004010591016841F0ED
:101F000080010160016801F080010591016841F0E4
:101F100001010160016801F001010591016841F0D2
:101F2000020101600068144F00F0020048F203064D
:101F30000590002231463846FFF75DF8B01000905A
:101F40004FF404100125CDE9010569460B48FEF761
:101F50005DFF0096CDE90154694638460394FEF7CB
:101F600055FF03208DE8310069460548FEF74EFF16
:101F700007B0F0BD303802400000024000080240C7
:101F8000000402401FB50021104800910191029108
:101F90000D4A0391C0E900214FF6FF72C0E9021219
:101FA00001618161FFF784FB08B1FEF792FB4FF4FA
:101FB0008050009069460548FFF7C6FB002801D015
:101FC000FEF787FB1FBD0000004001408410002089
:101FD0000C4810B50A4901604FF4E131416000211D
:101FE00081600C22C160C0E904128161C161FFF708
:101FF00007FE002803D0BDE81040FEF76ABB10BD05
:1020000000100140CC1000200C4810B50A490160B6
:102010004FF4E1314160002181600C22C160C0E9D0
:1020200004128161C161FFF7EBFD002803D0BDE818
:102030001040FEF74EBB10BD0044004010110020C0
:10204000FEE7FEE7704700B503895B1E00F003F86A
:10205000181A80B200BD8288C1888A4203D90089DB
:10206000511A401A00E0881A80B27047F0B507464E
:10207000FFF7F1FF00240646254606E0A9B23846E0
:1020800000F007F82044C4B26D1CB542F6DB2046D0
:10209000F0BD10B50C460346FFF7DDFFA04201D8A6
:1020A000002010BD9888641C19892044B0FBF1F20F
:1020B00001FB1200196880B2085C10BD02600022AA
:1020C0008280C280491C0181114603E003685A5492
:1020D000491C89B203898B42F8D8704710B5044671
:1020E000FFF7B1FF2189491E89B2884201D1012041
:1020F00010BD002010BD00B5FFF7A5FF08B10020FE
:1021000000BD012000BD10B50446FFF7E7FF08B190
:10211000002010BDA0882189401CB0FBF1F201FB1A
:10212000120081B2A18022680023505C535410BD7C
:1021300030B50D460446FFF7DEFF10B12046FFF72D
:10214000E2FFE0882189401CB0FBF1F201FB1200A4
:1021500080B2E08021680D5430BDFFF7D4BFFFF797
:10216000E7BFF0B515460E460746002405E0315D91
:102170003846FFF7DDFF641CA4B2AC42F7D3F0BDD4
:1021800003B501A90222FFF7ECFF0CBD03B501A9BD
:102190000222FFF7E6FF0CBD7047000001B50449BD
:1021A000009808600348016841F00101016008BD22
:1021B0003800002000400140044900200860044825
:1021C00001684FF6FE721140016070473800002030
:1021D000004001400348006808B10020704701201A
:1021E000704700003800002001B4034900980860DF
:1021F00001B000F005B8000038000020FEF706BF6F
:102200000748016841F00101016006490A68002A97
:10221000FCD101684FF6FE7211400160704700006A
:10222000004001403800002030B593B030216846AE
:10223000FEF704F814210CA8FEF700F81D4800254D
:10224000016841F080510160006800F080501190F9
:102250001948016821F4404141F4004101600068DF
:10226000022400F4404011900120009000040190ED
:102270008001CDE906400C200890A820CDE9090492
:1022800004200B906846FFF747F808B172B6FEE7E6
:102290000CA90F2081E831004FF48050CDE90F05E3
:1022A00002210CA8FEF74CFF002801D072B6FEE711
:1022B00013B030BD40380240007000400248016851
:1022C00041F470010160704788ED00E00448016846
:1022D00009B10168491E01600248FFF7A4BA000075
:1022E0003800002084100020F0B502681D4B1E4C01
:1022F0009F031E4D1E4E984207D0B84205D0A04203
:1023000003D0A84201D0B04204D122F0700C4A6838
:1023100042EA0C02984210D0B8420ED0A0420CD033
:10232000A8420AD0B04208D0124CA04205D0124CAC
:10233000A04202D0114CA04203D122F44074CA68DA
:1023400022434C6922F08002224302608A68C26202
:102350000A688262984201D10969016301214161E1
:10236000F0BD0000000001400004004000080040F3
:10237000000C004000400140004401400048014082
:1023800010B5846842EA032224F47F440A432243BE
:10239000826010BD826822F070020A4342F0070199
:1023A0008160704710B5036A046A24F00104046276
:1023B000846924F0F00444EA021423F00A020A4378
:1023C0008461026210BD10B5036A23F0100303623A
:1023D0008369046A23F4704343EA023224F0A003C1
:1023E00043EA01118261016210BD10B5806B0021CA
:1023F000C185C184FFF7CFFA10BD70B5846B20682A
:10240000406994F83D10C0F3C0100025212904D183
:1024100018B1E584204600F08AF82068406994F8F5
:102420003E10C0F38010222904D118B1E585204662
:1024300000F056F8206C40F0100020642046FFF7B2
:10244000AAFA70BD10B50146806B09680968C90514
:102450002FD40021C18501680C3151E8002F22F4EE
:10246000807241E80023002BF5D10168143151E856
:10247000002F22F0010241E80023002BF5D1016872
:10248000143151E8002F22F0400241E80023002BD4
:10249000F5D1202180F83E10016B012909D1016896
:1024A0000C3151E8002F22F0100241E80023002BEC
:1024B000F5D1016B012902D0FFF780FC10BD818DA1
:1024C000FFF768FA10BD10B5806B016B012902D0CF
:1024D000FFF790FC10BD818D4908FFF75BFA10BD36
:1024E00001680C3151E8002F22F4907241E800237A
:1024F000002BF5D10168143151E8002F22F00102C0
:1025000041E80023002BF5D1016B012909D10168B5
:102510000C3151E8002F22F0100241E80023002B7B
:10252000F5D1202180F83E10002101637047016839
:102530000C3151E8002F22F0C00241E80023002BAB
:10254000F5D1202180F83D10704708B590F83E1075
:10255000222901D0022008BD82684FF480539A429C
:1025600001D1016921B1816A9A421BD04AB10AE0C6
:102570000268816A5268C2F308020A80816A891C73
:1025800008E0026972B10268526802F07F020A70C4
:10259000816A491C8162C18D491E0904090CC185EB
:1025A00003D019E002685268F1E70168CA6822F0B6
:1025B0002002CA600168CA6822F48072CA60016899
:1025C0004A6922F001024A61202180F83E10016B25
:1025D000012903D0FFF7F2FB002008BD00210163B1
:1025E00001680C3151E8002F22F0100241E800236D
:1025F000002BF5D101680A68D20602D50A6849683D
:102600000091818DFFF7C6F9E6E7000070B504463A
:1026100000680169E26821F44051114301612169B8
:10262000A068E26908436169114308432168CA68E8
:1026300049F20C639A430243CA6020684169A26967
:1026400021F440711143416131492068884202D030
:102650003049884202D1FEF71DFE01E0FEF70AFE76
:10266000E2690023192164253226B2F5004F626821
:1026700028D0A0FB0101930F9200FDF7A7FD0146B2
:10268000B0FBF5F06FF01802504301EB800006EB51
:102690000010B0FBF5F000F0F002B1FBF5F002EB3A
:1026A0000012B1FBF5F06FF01803584301EB800006
:1026B00006EB0010B0FBF5F000F00F0021681044AD
:1026C000886070BDA0FB010192185B41FDF77EFDA3
:1026D0000146B0FBF5F00201B1FBF5F06FF0180315
:1026E000584301EB800006EBC000B0FBF5F000F0B2
:1026F000F80002EB4002B1FBF5F0584301EB80001B
:1027000006EBC000B0FBF5F000F00700D6E70000D4
:10271000001001400014014038B581628285002517
:10272000134604460564222084F83E00A26B1C4830
:10273000D063A26B1B481064A26B1B48D064A06BD3
:102740000A4605652168A06B091DFEF715FB206888
:1027500001684068009084F83C50206948B12068C6
:102760000C3050E8001F41F4807140E80012002A4C
:10277000F5D12068143050E8001F41F0010140E815
:102780000012002AF5D12068143050E8001F41F0F3
:10279000400140E80012002AF5D1002038BD0000B9
:1027A00045240008C7240008FB23000881628285B5
:1027B000C28500210164222280F83E2080F83C106E
:1027C000016921B10168CA6842F48072CA60016877
:1027D0004A6942F001024A610068C16841F0200183
:1027E000C160002070472DE9F041984617460E461B
:1027F0000446069D27E0681C25D02DB1FEF700FC9D
:10280000A0EB0800A8421ED920680C3050E8001F39
:1028100021F4D07140E80012002AF5D1206814306C
:1028200050E8001F21F0010140E80012002AF5D114
:10283000202084F83D0084F83E00002084F83C000D
:102840000320BDE8F0812068006836EA000004D06B
:102850000020B842CFD00020F3E70120F9E70000C4
:102860000148FFF799B80000CC1000200148FFF79D
:1028700093B8000010110020FEE710B5044606E0F2
:102880006068FFF740FC0146206800F006F86068C9
:10289000FFF7E1FB0028F3D110BD13B5642301223B
:1028A00001A9FFF7A9FA1CBD0907090E002804DBDE
:1028B00000F1E02080F80014704700F00F0000F1F4
:1028C000E02080F8141D704702E008C8121F08C1FC
:1028D000002AFAD170477047002001E001C1121FA1
:1028E000002AFBD1704700002DED048B82B0DFED94
:1028F000AB8A9FEDAB8A0025FEF790FBFFF794FCB7
:10290000FFF7ECFAFFF7D4FAFFF73CFBFFF760FBA9
:10291000FFF77AFBA44CA3484FF400662060A34A5B
:102920003146A4F11800FFF7C9FBA4F61B0231469B
:1029300002F60F00FFF7C2FBA4F10C00A0600C38F8
:10294000606001229A499748FFF723FA6420FEF756
:102950004BFADFF860924E46D9F8140080F400403C
:10296000C9F8140000242346C822B0EE480A012109
:102970008D480094FDF7E0FF6420FEF735FA002350
:10298000C822B9EE040A022187480094FDF7D4FF5B
:10299000706980F001007061706980F00200706100
:1029A00081490E220C318448FFF7DEF9DFF810A2CE
:1029B000824FBAEE049AAAF114064FF4005B4FF46A
:1029C0007A7802213846FEF711FB40B101213846E2
:1029D000FEF70CFBA8B10A20FEF706FAF1E7022188
:1029E0003846FEF703FB0028F9D00023C822B3EED7
:1029F0000E0A01216C480094FDF79EFFB3EE0E0A0B
:102A000010E001213846FEF7F1FA0028F9D0002342
:102A1000C822BBEE0E0A012163480094FDF78CFF2B
:102A2000BBEE0E0A86ED030A3220FEF7DDF9002325
:102A3000C822BAEE040A02215B480094FDF77CFF2D
:102A400086ED049A5E46DFF87CB15D4F143F38781E
:102A5000002875D0D9F8141081F00101C9F81410BC
:102A60007868032802DA10F1030F23DC00EE100A65
:102A7000B0EE481A0023F8EEC00AB0EE680A32221F
:102A8000012120EE800ADAED000A00EE810A97EDBE
:102A9000031A31EE400A01EE100A434887ED030A9B
:102AA000B8EEC11A70EE810ACAED000A0094FDF773
:102AB00043FF05E0B0EE480A6D1C8AED000AEDB256
:102AC0001E20FEF791F9B868032802DA10F1030F0F
:102AD00023DC00EE100AB0EE481A0023F8EEC00A1C
:102AE000B0EE680A3222022120EE800ADAED010AF5
:102AF00000EE810A97ED041A30EE010A01EE100A89
:102B0000294887ED040AB8EEC11A70EE810ACAEDB1
:102B1000010A0094FDF710FF05E0B0EE480A6D1CB5
:102B20008AED010AEDB2D9F81410022D484608D3F7
:102B300021F4004141614169002521F0020106E0D4
:102B40000AE041F400414161416941F00201416103
:102B50003C700A20FEF748F91420FEF745F931468B
:102B60005F465846FEF742FA00287FF46EAF6420B5
:102B7000FEF73AF931463846FEF738FA0028F9D020
:102B80004046FEF731F931463846FEF72FFA012864
:102B9000F9D04046FEF728F957E70000CDCCCC3CF1
:102BA0000000000010110020681000204C000020E0
:102BB0001C00002000000240CC1000200004024055
:102BC000140000200008024000061016000610162F
:102BD00000000000000000000102030406070809CD
:102BE0000000000001020304082C0008000000207F
:102BF0004C000000C8280008542C00084C0000209D
:102C00006C200000D8280008000000000000000030
:102C100000000000000000000000000000000000B4
:102C200000000000000000000000000000000000A4
:102C30000000000000000000000000000000000094
:102C40000000000001000000100000000000000073
:042C50000024F40068
:040000050800019559
:00000001FF
