:020000040800F2
:1000000000000220AD54000841130008431300080B
:1000100045130008471300084913000800000000BA
:100020000000000000000000000000004B1300086A
:100030004D130008000000004F1300085113000882
:10004000FD540008FD540008FD540008FD5400084C
:10005000FD540008FD540008FD540008FD5400083C
:10006000FD540008FD540008FD540008FD5400082C
:10007000FD540008FD540008FD540008FD5400081C
:10008000FD540008FD540008FD540008FD5400080C
:10009000FD540008FD540008FD540008FD540008FC
:1000A000FD540008FD540008FD540008FD540008EC
:1000B000FD540008FD540008FD540008FD540008DC
:1000C000FD540008FD540008FD540008FD540008CC
:1000D000FD54000859130008FD540008FD540008A1
:1000E00069130008FD540008FD540008FD54000881
:1000F000FD540008FD540008FD540008FD5400089C
:10010000FD540008FD540008FD540008FD5400088B
:10011000FD540008FD540008FD540008FD5400087B
:10012000FD540008FD540008FD540008FD5400086B
:10013000FD5400080000000000000000FD5400080D
:10014000FD540008FD540008FD540008FD5400084B
:10015000FD540008FD540008FD540008FD5400083B
:10016000FD540008FD540008FD540008FD5400082B
:10017000FD540008FD540008FD540008FD5400081B
:10018000FD540008FD540008FD540008FD5400080B
:10019000FD540008FD540008FD540008FD540008FB
:1001A000FD540008FD54000875130008FD540008B4
:1001B000FD540008FD540008FD540008FD540008DB
:1001C000FD540008FD54000800000000000000007D
:1001D0000000000000000000FD54000800000000C6
:1001E000000000000000000000000000000000000F
:1001F0000000000000000000FD540008FD5400084D
:10020000FD540008FD54000800000000FD540008E3
:10021000FD540008FD540008FD540008FD5400087A
:10022000FD540008FD540008FD54000800000000C3
:10023000FD540008FD54000800000000FD540008B3
:10024000FD540008FD540008FD540008FD5400084A
:10025000FD540008FD540008FD540008FD5400083A
:10026000FD540008FD540008FD540008FD5400082A
:10027000FD540008FD540008FD5400080000000073
:10028000FD540008FD54000800000000FD54000863
:1002900000000000FD540008FD540008FD54000853
:0C02A000FD540008FD540008FD54000847
:1002B00010B5054C237833B9044B13B10448AFF3A0
:1002C00000800123237010BD740000200000000096
:1002D000DC65000808B5034B1BB103490348AFF3C5
:1002E000008008BD0000000078000020DC650008E8
:1002F00001F0FF01102A2BDB10F0070F08D010F8D7
:10030000013B013A8B422DD010F0070F42B3F6D1DA
:10031000F0B441EA012141EA014122F007047FF0F3
:1003200000070023F0E80256083C85EA010586EA4A
:10033000010685FA47F5A3FA87F586FA47F6A5FA86
:1003400087F68EB9EED1F0BC01F0FF0102F0070292
:1003500032B110F8013B013A83EA010313B1F8D13D
:100360000020704701387047002D06BF354603381E
:10037000073815F0010F07D1013015F4807F02BF57
:10038000013015F4C03F0130F0BC0138704700BFA8
:1003900053B94AB9002908BF00281CBF4FF0FF31EC
:1003A0004FF0FF3000F074B9ADF1080C6DE904CEE8
:1003B00000F006F8DDF804E0DDE9022304B0704740
:1003C0002DE9F047089D04468E46002B4DD18A4208
:1003D000944669D9B2FA82F252B101FA02F3C2F13B
:1003E000200120FA01F10CFA02FC41EA030E9440CC
:1003F0004FEA1C48210CBEFBF8F61FFA8CF708FBED
:1004000016E341EA034306FB07F199420AD91CEBC4
:10041000030306F1FF3080F01F81994240F21C81F6
:10042000023E63445B1AA4B2B3FBF8F008FB10333E
:1004300044EA034400FB07F7A7420AD91CEB040473
:1004400000F1FF3380F00A81A74240F20781644443
:10045000023840EA0640E41B00261DB1D4400023C8
:10046000C5E900433146BDE8F0878B4209D9002D2C
:1004700000F0EF800026C5E9000130463146BDE8B6
:10048000F087B3FA83F6002E4AD18B4202D3824220
:1004900000F2F980841A61EB030301209E46002DCF
:1004A000E0D0C5E9004EDDE702B9FFDEB2FA82F224
:1004B000002A40F09280A1EB0C014FEA1C471FFA82
:1004C0008CFE0126200CB1FBF7F307FB131140EA69
:1004D00001410EFB03F0884208D91CEB010103F136
:1004E000FF3802D2884200F2CB804346091AA4B2F8
:1004F000B1FBF7F007FB101144EA01440EFB00FECC
:10050000A64508D91CEB040400F1FF3102D2A64530
:1005100000F2BB800846A4EB0E0440EA03409CE7CF
:10052000C6F12007B34022FA07FC4CEA030C20FA7C
:1005300007F401FA06F31C43F9404FEA1C4900FA9C
:1005400006F3B1FBF9F8200C1FFA8CFE09FB181119
:1005500040EA014108FB0EF0884202FA06F20BD98C
:100560001CEB010108F1FF3A80F08880884240F2DC
:100570008580A8F102086144091AA4B2B1FBF9F020
:1005800009FB101144EA014100FB0EFE8E4508D91B
:100590001CEB010100F1FF346CD28E456AD90238A0
:1005A000614440EA0840A0FB0294A1EB0E01A14285
:1005B000C846A64656D353D05DB1B3EB080261EBF3
:1005C0000E0101FA07F722FA06F3F1401F43C5E9CD
:1005D000007100263146BDE8F087C2F12003D84003
:1005E0000CFA02FC21FA03F3914001434FEA1C4745
:1005F0001FFA8CFEB3FBF7F007FB10360B0C43EA37
:10060000064300FB0EF69E4204FA02F408D91CEBE6
:10061000030300F1FF382FD29E422DD902386344E4
:100620009B1B89B2B3FBF7F607FB163341EA034184
:1006300006FB0EF38B4208D91CEB010106F1FF38D3
:1006400016D28B4214D9023E6144C91A46EA0046CA
:1006500038E72E46284605E70646E3E61846F8E65C
:100660004B45A9D2B9EB020864EB0C0E0138A3E7A5
:100670004646EAE7204694E74046D1E7D0467BE786
:10068000023B614432E7304609E76444023842E7FE
:10069000704700BF10B584B0002400940194029408
:1006A000039401F037F901238DF800308DF80140F3
:1006B0004FF01052019213228DF808208DF8094056
:1006C0008DF80A4003228DF80B208DF80C408DF830
:1006D0000D408DF80E308DF80F40684601F038F966
:1006E000042001F025F904B010BD000070B58CB0F5
:1006F00000240794089409940A940B94364BD3F879
:10070000402142F00402C3F84021D3F8402102F016
:1007100004020192019AD3F8402142F08002C3F80A
:100720004021D3F8402102F080020292029AD3F8CD
:10073000402142F00102C3F84021D3F8402102F0E9
:1007400001020392039AD3F8402142F00202C3F857
:100750004021D3F8402102F002020492049AD3F817
:10076000402142F01002C3F84021D3F8402102F0AA
:1007700010020592059AD3F8402142F00802C3F80E
:100780004021D3F8403103F008030693069B134D34
:1007900022460221284602F054FF4FF400530793EB
:1007A0000F4B08930126099607A9284602F044FE3C
:1007B00002230793089609940A9407A9284602F091
:1007C0003BFE03222146282001F04CF8282001F0AE
:1007D0007FF80CB070BD00BF0044025800080258FA
:1007E0000000211172B6FEE708B51548154B0360ED
:1007F0004FF4E133436000238360C36003610C2244
:1008000042618361C36103624362836204F03BFC23
:1008100070B900210A4804F0C3FC58B90021084807
:1008200004F0E3FC40B9064804F09BFC30B908BD75
:10083000FFF7D8FFFFF7D6FFFFF7D4FFFFF7D2FF90
:10084000EC0100200010014010B58EB034220021D0
:1008500001A804F079FE2648264B0360002343607C
:100860008360C3600361436183615022C2612822B7
:1008700002624FF45C7242624FF4027282624FF481
:100880008762C26240F21E22026380F8343080F830
:10089000353080F8363003F0A5F920BB00220192F4
:1008A0004FF44870029003924FF4F07104910223C8
:1008B0000593FF23069307924FF480640894052460
:1008C00009944FF010540A940B900C918DF8343029
:1008D0008DF835308DF8363001A9054803F0FCF964
:1008E00018B90EB010BDFFF77DFFFFF77BFF00BF0B
:1008F000F80000200010005000B58BB000230793D3
:10090000089309930093019302930393049305932F
:1009100006931748174A026040F27752426083609C
:100920006322C2600361836103F0D0FBD0B900236E
:100930000793099307A90E4803F074FDA0B960233B
:100940000093632301930023029304930C226946CE
:10095000074803F035FC48B9054800F015FE0BB018
:100960005DF804FBFFF73EFFFFF73CFFFFF73AFFA0
:10097000A00100200008004008B50948094B0360A9
:100980004FF440334360022383600023C3608361DC
:10099000C36104F0A9FC00B908BDFFF723FF00BF45
:1009A000900000200010005200B5CBB04C22002176
:1009B00037A804F0C9FD202200212FA804F0C4FDAF
:1009C000B822002101A804F0BFFD022002F088FF38
:1009D000002300932E4B9A6942F440429A619B692E
:1009E00003F440430093009B294B9B6913F4005F81
:1009F000FAD0284A936A23F00303936202233793C1
:100A000001223A9240223B924093002241920421DB
:100A10004291232143914493459346930C2347935A
:100A20004892499237A800F0C3FF00282AD13F23FB
:100A30002F93032330930023319332934023339336
:100A400034934FF480623592369307212FA801F03A
:100A5000A3FBC8B9104B019304230A9308220B92FD
:100A600002220C920D920E934FF440630F930023D9
:100A700010931193219301A801F02AFE30B94BB0D5
:100A80005DF804FBFFF7AEFEFFF7ACFEFFF7AAFE32
:100A900000480258004402580100002010B582B0FE
:100AA000FFF7F8FDBFF34F8FBFF36F8F484B002167
:100AB000C3F85012BFF34F8FBFF36F8F5A6942F4E0
:100AC00000325A61BFF34F8FBFF36F8FC3F88410AA
:100AD000BFF34F8FD3F88040C4F34E3000E0184688
:100AE000C4F3C90243F6E07303EA401343EA827396
:100AF0003749C1F860321346013A002BF2D1431E48
:100B00000028ECD1BFF34F8F4B6943F480334B6126
:100B1000BFF34F8FBFF36F8F02F034FFFFF744FF37
:100B2000FFF7E4FDFFF760FEFFF78EFEFFF7E4FE40
:100B3000FFF722FF0C21274803F0E6FB264B632238
:100B40001A6400F00FFB254800F068FE244804F00A
:100B500089FD4FF60C1300934FF4F0734FF4487275
:100B60000021084600F0A9FD02F046FF04461D4B97
:100B700000934FF4F0734FF448720021084600F0E0
:100B8000F0FD02F039FFA1B2411A174804F0E4FC6D
:100B90004FF0FF23009301231A466421084600F01A
:100BA000E0FD0CE0114B588899896FF07F430A22D1
:100BB00009B200B200F0F2FD0A2002F023FF00F0BB
:100BC00037FB0A4B1B78DBB2012BEBD0F4E700BFFD
:100BD00000ED00E0A001002000080040FC650008D6
:100BE00008660008FF8080FF0C6600087C02002079
:100BF0002DE9F0478AB000250595069507950895DB
:100C00000995364BD3F8402142F01002C3F8402139
:100C1000D3F8402102F010020192019AD3F840214A
:100C200042F01002C3F84021D3F8402102F0100234
:100C30000292029AD3F8402142F01002C3F84021F8
:100C4000D3F8402102F010020392039AD3F8402116
:100C500042F01002C3F84021D3F8403103F01003F2
:100C60000493049B4FF0200ACDF814A0112306939F
:100C70001B4C05A9204602F0DFFB4FF04009CDF8E0
:100C8000149005A9204602F0D7FB01260696079688
:100C90004FF01008CDF8148005A9204602F0CCFBD7
:100CA0000827059705A9204602F0C6FB32465146A3
:100CB000204602F0C6FC32464946204602F0C1FCFE
:100CC0002A464146204602F0BCFC324639462046C0
:100CD00002F0B7FC0AB0BDE8F08700BF004402583C
:100CE0000010025803460138B3B182B00EE0BDF8DF
:100CF00006309BB201339BB2ADF80630BDF806302A
:100D00009BB2032BF3D9034601381BB10023ADF886
:100D10000630F3E702B070477047000000B587B0B7
:100D200000230193029303930493059301230293F9
:100D300003931023019301A9024802F07DFB07B041
:100D40005DF804FB0010025800B587B00023019342
:100D500002930393049305931023019301A903487D
:100D600002F06AFB07B05DF804FB00BF00100258F8
:100D700010B50F4C01224021204602F062FC0122F6
:100D80002021204602F05DFC1420FFF7ABFF00227B
:100D90004021204602F055FC1420FFF7A3FF00225B
:100DA0002021204602F04DFC1420FFF79BFF10BDD0
:100DB0000010025810B5114C00222021204602F0EC
:100DC00040FC1420FFF78EFF00224021204602F055
:100DD00038FC1420FFF786FF01222021204602F074
:100DE00030FC1420FFF77EFF01224021204602F054
:100DF00028FC1420FFF776FF10BD00BF001002583A
:100E000010B5134C00222021204602F01AFC1420B9
:100E1000FFF768FF00224021204602F012FC142058
:100E2000FFF760FF01222021204602F00AFC142077
:100E3000FFF758FF00222021204602F002FC012289
:100E40004021204602F0FDFB1420FFF74BFF10BDB0
:100E50000010025810B5114C00222021204602F04B
:100E6000F0FB1420FFF73EFF01224021204602F054
:100E7000E8FB1420FFF736FF01222021204602F074
:100E8000E0FB1420FFF72EFF00222021204602F075
:100E9000D8FB1420FFF726FF10BD00BF001002583A
:100EA00010B5154C01224021204602F0CAFB142047
:100EB000FFF718FF01222021204602F0C2FB142078
:100EC000FFF710FF4021204602F0B4FB48B100229A
:100ED0002021204602F0B5FB1420FFF703FF00207D
:100EE00010BD00222021044802F0ABFB1420FFF7C4
:100EF000F9FE0120F4E700BF0010025870B5054666
:100F000000241BE001224021164802F09AFB142025
:100F1000FFF7E8FE134E01222021304602F091FB3C
:100F20001420FFF7DFFE00222021304602F089FB6B
:100F3000072C0ED06D00EDB20134E4B2072C0ED8B0
:100F400015F0800FDED100224021064802F079FB27
:100F5000DDE701224021304602F073FBEAE7FFF7AC
:100F60009FFF70BD00100258F8B5074600252C46BB
:100F70001BE06400E4B2124E01222021304602F050
:100F800060FB1420FFF7AEFE4021304602F052FB1A
:100F900000F00100044300222021304602F051FB02
:100FA0001420FFF79FFE0135EDB2072DE1D9012F87
:100FB00003D0FFF74FFF2046F8BDFFF721FFFAE708
:100FC0000010025810B5FFF7A9FE134C00221021A3
:100FD000204602F036FB01220821204602F031FBB8
:100FE00042F21070FFF77EFE00220821204602F038
:100FF00028FB0A48FFF776FE01220821204602F06E
:1010000020FB0748FFF76EFEFFF79EFE44F62060C8
:10101000FFF768FE10BD00BF00100258F049020043
:101020003057050010B50446FFF7A2FEBA20FFF7BF
:1010300065FF012801D0002010BD200AFFF75EFFE8
:101040000128F8D1E0B2FFF759FFF4E738B50446BC
:101050000D46FFF78DFE2046FFF7E4FF18B1FFF7BE
:10106000A9FE002038BD2846FFF748FFF7E7F8B58E
:1010700004460D461746FFF77BFE2046FFF7D2FFDA
:1010800020B10126FFF796FE3046F8BD0646FFF771
:101090006FFEBB20FFF732FF012811D00126F1E7D8
:1010A0000020FFF761FF38550134E4B2AC4209D2A9
:1010B0006B1E9C42F4D00120FFF756FF3855F3E732
:1010C0003446F3E7FFF776FEDCE7000030B589B081
:1010D0000023039304930593069307931E4BD3F8C1
:1010E000402142F01002C3F84021D3F8402102F021
:1010F00010020192019AD3F8402142F01002C3F885
:101100004021D3F8403103F010030293029B0223E5
:10111000059310230393114C03A9204602F08CF988
:101120000825039503A9204602F086F94FF47A605A
:10113000FFF7D8FD2946204602F07CFA012801D1AC
:1011400009B030BD1021204602F074FA0128F7D012
:10115000034B01221A70F3E70044025800100258B2
:101160007802002000B585B000238DF80330FFF72A
:10117000ADFFFFF73DFDFFF725FF01AA0B2148F268
:101180004010FFF774FF0DF10302012148F2470000
:10119000FFF76DFF9DF80430392B06D01E4804F090
:1011A00061FA012005B05DF804FB01A91B4804F0B9
:1011B000D3F99DF809109DF8083003EB0121184878
:1011C00004F0CAF99DF80B109DF80A309DF80D0047
:1011D0009DF80C2002EB002203EB0121114804F0E2
:1011E000BBF99DF80310104804F0B6F99DF80B20E8
:1011F0009DF80A3003EB0223B3F5806F04D0B3F5FA
:10120000487F05D00020CDE7084B01221A70F9E78E
:10121000064B00221A70F5E7706600081066000899
:10122000246600083866000850660008780200202E
:1012300000B58DB001AA2A2148F24E10FFF717FF22
:10124000002148F24E10FFF701FF9DF8043003F033
:101250000F03394A537053781BB15378DBB2052B17
:1012600059D9354B00221A700DB05DF804FB0132DC
:10127000D2B2314B5B78DBB293424ED9D30003F14B
:101280003501694411F82C0C03F13401694411F85B
:101290002CCC4CEA002C2849101D01EB4000A0F892
:1012A00004C003F13300684410F82C0C32336B4453
:1012B00013F82C3C43EA002301EB42014B801F4B07
:1012C0001B78DBB2012BD2D11B49101D01EB400072
:1012D00083889BB207EE103AB8EEC77B9FED126B86
:1012E00027EE067BBCEEC77B17EE103A9BB28380DD
:1012F00001EB42014B889BB207EE103AB8EEC77B78
:101300009FED0B6B27EE067BBCEEC77B17EE103A0A
:101310009BB24B80ABE70022ABE7074B01221A7070
:10132000A2E700BFAFF300809A9999999999E93F94
:10133000F6285C8FC2F5E83F7C020020780200208E
:10134000FEE7FEE7FEE7FEE7FEE7704770477047FF
:1013500008B502F045FB08BD08B5024803F0D0F817
:1013600008BD00BFEC01002008B54FF4005002F0AA
:101370006FF908BD08B5024803F0FAFF08BD00BFC9
:101380009000002000B583B0094BD3F8542142F0FF
:101390000202C3F85421D3F8543103F0020301933D
:1013A000019B052000F04CFA03B05DF804FB00BF80
:1013B0000044025802680F4B9A4200D0704700B5B3
:1013C00083B00D4BD3F8342142F01002C3F834211E
:1013D000D3F8343103F010030193019B002211462E
:1013E0005A2000F03FFA5A2000F072FA03B05DF87C
:1013F00004FB00BF00100052004402582DE9F041E8
:101400008CB000230793089309930A930B93026807
:10141000494B9A4202D00CB0BDE8F081474BD3F85B
:10142000442142F00802C3F84421D3F8442102F0D9
:1014300008020192019AD3F8402142F00402C3F855
:101440004021D3F8402102F004020292029AD3F81C
:10145000402142F00102C3F84021D3F8402102F0BC
:1014600001020392039AD3F8402142F00202C3F82A
:101470004021D3F8402102F002020492049AD3F8EA
:10148000402142F01002C3F84021D3F8402102F07D
:1014900010020592059AD3F8402142F00802C3F8E1
:1014A0004021D3F8403103F008030693069BC12383
:1014B00007930225089503240A940E260B9607A984
:1014C0001F4801F0B9FFE823079308950027099703
:1014D0000A940B9607A91B4801F0AEFF07940895E4
:1014E00009970A9409230B93DFF8648007A9404603
:1014F00001F0A2FF4FF478430793089509970A94E7
:101500000B9607A9104801F097FF4FF470630793FB
:10151000089509970A940B9607A9404601F08CFF9D
:101520004FF481630793089509970A940B9607A9CE
:10153000064801F081FF6EE7001000500044025899
:10154000000802580000025800100258000C02580F
:101550000004025802680A4B9A4200D0704782B0D9
:10156000084BD3F8482142F00402C3F84821D3F8CD
:10157000483103F004030193019B02B0704700BFA0
:10158000000800400044025800B587B000230193D2
:10159000029303930493059302680F4B9A4202D07F
:1015A00007B05DF804FB0D4BD3F8402142F0080270
:1015B000C3F84021D3F8403103F008030093009BA7
:1015C0004FF40043019302230293059301A90448B9
:1015D00001F032FFE4E700BF000800400044025879
:1015E000000C025810B588B00023039304930593B0
:1015F00006930793026803F1804303F588339A4208
:1016000001D008B010BD164BD3F8502142F01002A3
:10161000C3F85021D3F8502102F010020192019A30
:10162000D3F8402142F00102C3F84021D3F8403101
:1016300003F001030293029B4FF4C063039302245F
:1016400004940723079303A9064801F0F5FE2246F8
:101650000021252000F006F9252000F039F9D0E717
:10166000004402580000025830B40E4C256825F0A2
:10167000010525604FF440352560029DA563E063B8
:101680002364039B636392B242EA0142626423686B
:1016900043F001032360034B1B6813F0010FFAD1E1
:1016A00030BC7047001000524FF4487303FB010038
:1016B000400000F11050028070472DE9F8430646C3
:1016C000884617469946BDF8205090420BD927E02E
:1016D0002A4621463046FFF7E7FF0134A4B24C45C5
:1016E000F6D90136B6B2BE422CD8C84501D34C4615
:1016F00008E04446F3E72A4621463046FFF7D4FF88
:101700000134A4B24445F6D9EBE72A4621463846CF
:10171000FFF7CAFF0134A4B24C45F6D90137BFB276
:10172000B7420FD8C84501D34C4608E04446F3E71A
:101730002A4621463846FFF7B7FF0134A4B2444594
:10174000F6D9EBE7BDE8F883C0F30F2303F4784341
:10175000C0F34F1202F4FC62C0F3C40013431843F9
:101760007047F0B583B006460C4617461D460898EC
:10177000FFF7EAFF4FF4C86101FB04F404F11054D1
:101780000135022301930090C7F54873AAB2394688
:1017900004EB4600FFF768FF03B0F0BD2DE9F04F02
:1017A00083B007460E4615469A46831A002B04DD81
:1017B0000FFA83F9A6EB050B22E04FF00009F9E7D9
:1017C000013424B2AB199C4216DAA8EB0703A21B22
:1017D00002FB02F203FB032305FB05F29342EFDC5D
:1017E000CDF800A001231A46A1B21FFA89F0FFF735
:1017F000B8FFE5E70024E5E709F101090FFA89F9E7
:10180000C8467B19994505DABBF1000FF2DD741B60
:1018100024B2D7E703B0BDE8F08F000038B5054625
:1018200000244FF47A7301222919044803F085FB40
:1018300001342B5D002BF4D138BD00BFEC0100203A
:101840000649CB6823F4E0631B041B0C000200F480
:10185000E0600343024A1A43CA60704700ED00E0AB
:101860000000FA0500B5174BDB68C3F30223C3F190
:10187000070CBCF1040F28BF4FF0040C03F1040E59
:10188000BEF1060F14D9033B4FF0FF3E0EFA0CFCDD
:1018900021EA0C0199400EFA03F322EA03031943EB
:1018A000002807DB0901C9B2074B19545DF804FB96
:1018B0000023E9E700F00F000901C9B2034B1954F6
:1018C000F4E700BF00ED00E000E400E014ED00E00C
:1018D000002807DB00F01F02400901239340024A61
:1018E00042F82030704700BF00E100E00138B0F15D
:1018F000807F0BD24FF0E0235861054AF02182F837
:1019000023100020986107221A6170470120704758
:1019100000ED00E0BFF35F8F044B5A6A22F480327F
:101920005A620022C3F89420704700BF00ED00E027
:1019300040F00100054BC3F894005A6A42F480322B
:101940005A62BFF34F8FBFF36F8F704700ED00E017
:101950004278164BC3F898200378FBB14368134ACA
:10196000C2F89C30017BC37A1B0643EA0173817A7B
:1019700043EAC143417B43EA8143817B43EA4143DC
:10198000C17B43EA0143417A43EA0123017A43EAF6
:10199000410301780B43C2F8A0307047034B00228B
:1019A000C3F89C20C3F8A020704700BF00ED00E002
:1019B000002800F0D88238B50446036813F0010F00
:1019C00029D09A4A136903F03803926A102B19D070
:1019D000182B13D06368B3F5803F43D0002B58D148
:1019E000924B1A6822F480321A601A6822F480122C
:1019F0001A601A6822F480221A6038E002F00302AA
:101A0000022AE7D1894B1B6813F4003F03D06368B7
:101A1000002B00F0AA82236813F0020F00F08C80E4
:101A2000824A1369926A13F0380374D0182B6FD06E
:101A3000E368002B00F0AD807C490A6822F01902AF
:101A400013430B6001F0D8FF0546784B1B6813F079
:101A5000040F40F0958001F0CFFF401B0228F4D91D
:101A6000032089E2714A136843F48033136063688A
:101A7000002B3ED001F0C0FF05466C4B1B6813F4F1
:101A8000003FC8D101F0B8FF401B6428F5D90320FE
:101A900072E2B3F5A02F10D0B3F5A81F1BD0634B93
:101AA0001A6822F480321A601A6822F480221A60BE
:101AB0001A6822F480121A60D9E75C4B1A6842F463
:101AC00080221A601A6822F480121A601A6842F49E
:101AD00080321A60CBE7554B1A6842F480221A60B4
:101AE0001A6842F480121A601A6842F480321A604E
:101AF000BDE701F081FF05464C4B1B6813F4003F26
:101B000089D001F079FF401B6428F5D9032033E226
:101B100012F0030F8CD1454B1B6813F0040F03D058
:101B2000E368002B00F02382404A536823F0FE4311
:101B3000216943EA01635360236813F0100F51D009
:101B40003A4A136903F03803926A082B39D0182BEC
:101B500033D0E369002B6BD0344A136843F0800321
:101B6000136001F049FF0546304B1B6813F4807F7A
:101B700053D101F041FF401B0228F5D90320FBE1BE
:101B80002A4A536823F0FE43216943EA0163536004
:101B9000D2E7264A136823F00103136001F02CFFFB
:101BA0000546224B1B6813F0040FC5D001F024FF3B
:101BB000401B0228F5D90320DEE102F00302012ACE
:101BC000C7D11A4B1B6813F4807F03D0E369802BC5
:101BD00040F0CF81154AD36823F07C53216A43EA51
:101BE0000163D360236813F0080F49D06369002BA9
:101BF00032D00E4A536F43F00103536701F0FCFEED
:101C000005460A4B5B6F13F0020F39D101F0F4FE69
:101C1000401B0228F5D90320AEE1044AD36823F023
:101C20007C53216A43EA0163D360DBE70044025836
:101C3000874A136823F08003136001F0DDFE054638
:101C4000834B1B6813F4807FCCD001F0D5FE401B82
:101C50000228F5D903208FE17D4A536F23F0010359
:101C6000536701F0C9FE0546794B5B6F13F0020F15
:101C700006D001F0C1FE401B0228F5D903207BE10C
:101C8000236813F0200F29D0A3699BB1704A136811
:101C900043F48053136001F0AFFE05466C4B1B68A4
:101CA00013F4005F1AD101F0A7FE401B0228F5D9FA
:101CB000032061E1664A136823F48053136001F046
:101CC0009BFE0546624B1B6813F4005F06D001F0D3
:101CD00093FE401B0228F5D903204DE1236813F041
:101CE000040F22D1636A002B00F04581584A126923
:101CF00002F03802182A00F00D81022B00F09480C7
:101D0000534A136823F08073136001F075FE044694
:101D10004F4B1B6813F0007F00F0FA8001F06CFE5F
:101D2000001B0228F4D9032026E14A4A136843F431
:101D30008073136001F060FE0546464B1B6813F488
:101D4000807F06D101F058FE401B6428F5D903209E
:101D500012E1A368012B0ED033BB3D4B1A6F22F06A
:101D600001021A671A6F22F080021A671A6F22F0B6
:101D700004021A6704E0364A136F43F00103136745
:101D8000A368002B3ED001F037FE0546304B1B6F99
:101D900013F0020FA6D101F02FFE401B41F2883351
:101DA0009842F3D90320E7E0052B0FD0852B1BD0F9
:101DB000274B1A6F22F001021A671A6F22F00402F1
:101DC0001A671A6F22F080021A67D9E7204B1A6F40
:101DD00042F004021A671A6F22F080021A671A6F23
:101DE00042F001021A67CBE7194B1A6F42F0040266
:101DF0001A671A6F42F080021A671A6F42F00102E6
:101E00001A67BDE701F0F8FD0546114B1B6F13F093
:101E1000020F3FF467AF01F0EFFD401B41F2883342
:101E20009842F2D90320A7E0094A136823F080738F
:101E3000136001F0E1FD0546054B1B6813F0007FC0
:101E40000AD001F0D9FD401B0228F5D9032093E008
:101E500000440258004802584F4B996A4F4A0A40C2
:101E6000A16AE06A41EA00110A439A62226B013AD0
:101E7000C2F30802616B0139490289B20A43A16BBE
:101E80000139090401F4FE010A43E16B0139090635
:101E900001F0FE410A431A63DA6A22F00102DA62B3
:101EA000596B3F4A0A40A16C42EAC1025A63DA6A9E
:101EB00022F00C02216C0A43DA62DA6A22F0020292
:101EC000616C0A43DA62DA6A42F48032DA62DA6A10
:101ED00042F40032DA62DA6A42F48022DA62DA6AC2
:101EE00042F00102DA621A6842F080721A6001F070
:101EF00083FD0446284B1B6813F0007F06D101F0D8
:101F00007BFD001B0228F5D9032035E0002033E0DB
:101F1000002031E020498A6A086B012B2DD002F0A5
:101F20000303A16A8B422AD1C2F30512E36A9A42E3
:101F300027D1C0F30802236B013B9A4223D1C0F39F
:101F40004622636B013B9A421FD1C0F30642A36B4A
:101F5000013B9A421BD1C0F30660E36B013B984200
:101F600017D1002008E001207047012004E0012083
:101F700002E0012000E0002038BD0120FCE7012044
:101F8000FAE70120F8E70120F6E70120F4E7012055
:101F9000F2E70120F0E700BF004402580CFCFFFF0D
:101FA0000700FFFF744B1B6903F03803102B00F090
:101FB000DE80182B10D00BB1704870476E4B1B6839
:101FC00013F0200F00F0D5806B4B1868C0F3C100F0
:101FD0006B4B23FA00F0704710B4674A916A01F026
:101FE0000301946AC4F30510D36A03F0010C536B28
:101FF000C3F3CC030CFB03F307EE903AF8EE677AD9
:1020000014F47C7F00F09380012965D0022900F050
:102010009180E1B107EE100AF8EE476A9FED596A28
:1020200086EE267A544B1B6BC3F3080306EE903AF8
:10203000F8EE666A9FED546A67EE867A76EEA77AC6
:10204000F7EE006A77EEA67A27EE277A60E013684B
:1020500013F0200F23D011461268C2F3C102484B7F
:10206000D34007EE103AF8EE476A07EE100AB8EED2
:10207000476A86EE867A0B6BC3F3080306EE903A46
:10208000F8EE666A9FED406A67EE867A76EEA77A8A
:10209000F7EE006A77EEA67A27EE277A38E007EEA9
:1020A000100AF8EE476A9FED396A86EE267A324BBF
:1020B0001B6BC3F3080306EE903AF8EE666A9FEDD9
:1020C000326A67EE867A76EEA77AF7EE006A77EEE6
:1020D000A67A27EE277A1BE007EE100AF8EE476A89
:1020E0009FED286A86EE267A234B1B6BC3F3080309
:1020F00006EE903AF8EE666A9FED236A67EE867AFE
:1021000076EEA77AF7EE006A77EEA67A27EE277AC0
:10211000194B1B6BC3F34623013307EE903AF8EEDD
:10212000677AC7EE276AFCEEE67A17EE900A5DF84A
:10213000044B704707EE100AF8EE476A9FED146AE9
:1021400086EE267A0C4B1B6BC3F3080306EE903A1F
:10215000F8EE666A9FED0C6A67EE867A76EEA77AED
:10216000F7EE006A77EEA67A27EE277AD0E70948DD
:1021700070470348704700BF0044025800093D0003
:102180000090D0030024744A000000390024744CED
:10219000001BB74B00366E01002800F0328170B58D
:1021A0000D4604469B4B1B6803F00F038B420BD27A
:1021B000984A136823F00F030B431360136803F06E
:1021C0000F038B4240F01F81236813F0040F0CD0E3
:1021D0002269914B9B6903F070039A4205D98E499D
:1021E0008B6923F070031A438A61236813F0080F88
:1021F0000CD06269884BDB6903F070039A4205D901
:102200008549CB6923F070031A43CA61236813F030
:10221000100F0CD0A269804BDB6903F4E0639A4293
:1022200005D97D49CB6923F4E0631A43CA61236869
:1022300013F0200F0CD0E269774B1B6A03F0700398
:102240009A4205D974490B6A23F070031A430A6253
:10225000236813F0020F0CD0E2686F4B9B6903F008
:102260000F039A4205D96C498B6923F00F031A4377
:102270008A61236813F0010F41D0674A936923F400
:102280007063A1680B4393616368022B0AD0032B30
:1022900027D0012B2CD0604A126812F0040F06D10F
:1022A0000120ADE0126812F4003F00F0AE805A4900
:1022B0000A6922F0070213430B6101F09DFB0646F9
:1022C000554B1B6903F038036268B3EBC20F16D09D
:1022D00001F092FB801B41F288339842F0D9032031
:1022E0008EE04D4A126812F0007FE0D1012087E0B5
:1022F000494A126812F4807FD9D1012080E0236816
:1023000013F0020F0CD0E268434B9B6903F00F03FC
:102310009A4205D240498B6923F00F031A438A6120
:102320003C4B1B6803F00F03AB420AD9394A1368D0
:1023300023F00F032B431360136803F00F03AB422A
:1023400065D1236813F0040F0CD02269324B9B69CE
:1023500003F070039A4205D22F498B6923F0700372
:102360001A438A61236813F0080F0CD062692A4B64
:10237000DB6903F070039A4205D22749CB6923F049
:1023800070031A43CA61236813F0100F0CD0A269BE
:10239000214BDB6903F4E0639A4205D21E49CB6905
:1023A00023F4E0631A43CA61236813F0200F0CD0B2
:1023B000E269194B1B6A03F070039A4205D2164971
:1023C0000B6A23F070031A430A62FFF7EBFD124910
:1023D0008B69C3F30323114AD35C03F01F03D84076
:1023E0008B6903F00F03D35C03F01F0320FA03F3A0
:1023F0000B4A13600B4B18600B4B186801F09AFAEC
:1024000070BD012070470120FAE70120F8E70120A4
:10241000F6E700BF0020005200440258A4660008FE
:102420000C000020080000200400002008B5FFF781
:10243000B9FD0B4A9369C3F303230A49CB5C03F04C
:102440001F0320FA03F3926902F00F02885C00F088
:102450001F0023FA00F0044A1060044A136008BD0C
:1024600000440258A46600080C0000200800002068
:1024700008B5FFF7DBFF054BDB69C3F30213044A22
:10248000D35C03F01F03D84008BD00BF00440258CE
:10249000A466000808B5FFF7C9FF054BDB69C3F365
:1024A0000223044AD35C03F01F03D84008BD00BFD9
:1024B00000440258A4660008404B9B6A03F00303E3
:1024C000032B79D070B505460E463C4A136823F0BD
:1024D0008063136001F090FA0446384B1B6813F0D8
:1024E000006F06D001F088FA031B022BF5D90320F8
:1024F00070BD324B9A6A22F47C32296842EA01327A
:102500009A626A68013AC2F30802A968013949026D
:1025100089B20A43E9680139090401F4FE010A435A
:1025200029690139090601F0FE410A439A63DA6A12
:1025300022F0C00269690A43DA62DA6A22F02002F4
:10254000A9690A43DA62DA6A22F01002DA62D96B08
:102550001B4A0A40E96942EAC102DA63DA6A42F0D8
:102560001002DA62C6B91A46DB6A43F40023D3626A
:10257000124A136843F08063136001F03DFA044689
:102580000E4B1B6813F0006F14D101F035FA001BDD
:102590000228F5D90320ABE7012E05D0074AD36AFC
:1025A00043F40013D362E3E7044AD36A43F480138D
:1025B000D362DDE700209BE701207047004402580A
:1025C0000700FFFF404B9B6A03F00303032B79D006
:1025D00070B505460E463C4A136823F080531360DD
:1025E00001F00AFA0446384B1B6813F0005F06D06E
:1025F00001F002FA031B022BF5D9032070BD324B08
:102600009A6A22F07C72296842EA01529A626A68E8
:10261000013AC2F30802A9680139490289B20A43A2
:10262000E9680139090401F4FE010A432969013905
:10263000090601F0FE410A431A64DA6A22F4406294
:1026400069690A43DA62DA6A22F40072A9690A4304
:10265000DA62DA6A22F48072DA62596C1B4A0A4042
:10266000E96942EAC1025A64DA6A42F48072DA62C3
:10267000C6B91A46DB6A43F48003D362124A136870
:1026800043F08053136001F0B7F904460E4B1B680A
:1026900013F0005F14D101F0AFF9001B0228F5D947
:1026A0000320ABE7012E05D0074AD36A43F08073BD
:1026B000D362E3E7044AD36A43F40003D362DDE75D
:1026C00000209BE701207047004402580700FFFFED
:1026D000F8B50446036813F0006F30D0836EB3F58D
:1026E000001F26D00ED8EBB1B3F5801F07D1022111
:1026F0000430FFF7E1FE054645B12E4621E00126F4
:1027000035461EE0B3F5401F09D10025994A136DE7
:1027100023F44013A16E0B431365002611E001263C
:1027200035460EE0934AD36A43F40033D362002562
:10273000ECE702212430FFF745FF0546DCE70026E1
:102740003546236813F4807F26D0636D042B1FD891
:10275000DFE803F0031117080800864AD36A43F440
:102760000033D362BDB9834A136D23F00703616D53
:102770000B43136510E00021201DFFF79DFE054669
:10278000F0E7002104F12400FFF71CFF0546E9E70C
:102790000126354600E02E46236813F4007F1DD045
:1027A000A36D802B39D00BD88BB3402B05D10021E2
:1027B000201DFFF781FE054608E0012635460DE0A5
:1027C000B3F5807F02D0B3F5A07F1BD165BB694A0A
:1027D000136D23F4E073A16D0B431365236813F4A9
:1027E000806F35D0E36DB3F5806F57D021D8002BC3
:1027F0004ED0B3F5007F19D10021201DFFF75CFEFC
:1028000005461CE0C02BE1D001263546E6E7594AD3
:10281000D36A43F40033D362D8E7002104F12400E3
:10282000FFF7D0FE0546D1E72E46D7E7012635460D
:102830000EE0B3F5006F02D0B3F5206F22D1002D6A
:1028400033D14C4A136D23F46063E16D0B43136580
:10285000236813F0007F31D0A36C202B41D029D8FE
:1028600033B1102B23D1434AD36A43F40033D362EC
:10287000002D3CD13F4AD36C23F03003A16C0B43B5
:10288000D3641BE0B3F5C06FD9D001263546DFE72E
:10289000384AD36A43F40033D362D0E7002104F10D
:1028A0002400FFF78FFE0546C9E72E46D0E7012634
:1028B000354603E0302BDBD001263546236813F480
:1028C000805F39D0236EB3F5005F2DD014D82BB3C1
:1028D000B3F5805F0DD10021201DFFF7EDFD05460A
:1028E00010E00221201DFFF7E7FD0546C0E72E4658
:1028F000E4E7012635461FE0B3F5405F02D0B3F5AB
:10290000804F08D1BDB91B4A136D23F4E043216EFB
:102910000B43136510E0012635460DE0154AD36AD6
:1029200043F40033D362EDE7002104F12400FFF704
:1029300049FE0546E6E72E46236813F4005F26D0DD
:10294000636EB3F5003F37D016D83BB1B3F5803F87
:102950000DD10121201DFFF7AFFD05469DBB054AA6
:10296000136D23F4E023616E0B4313650FE0012622
:1029700035460CE000440258B3F5802FEED0B3F595
:10298000A02FEBD0B3F5403FE8D0012635462368B1
:1029900013F4804F25D0D4F8AC30B3F1005F4CD0A5
:1029A00016D8002B3CD0B3F1805F0ED10121201D41
:1029B000FFF782FD054633E0012104F12400FFF713
:1029C00001FE0546CAE72E46E1E70126354608E046
:1029D000B3F1A04F24D01DD9B3F1C04F20D00126B0
:1029E0003546236813F4004F09D0636FB3F1805F5D
:1029F0002CD0B3F1005F37D06BB301263546236886
:102A000013F0807F45D0636C032B6DD8DFE803F0B3
:102A100039346639B3F1405F02D0B3F1804F09D148
:102A200095B98C4A936D23F0E043D4F8AC100B4376
:102A30009365D6E701263546D3E7012104F124004A
:102A4000FFF7C0FD0546EBE72E46CAE7814AD36A89
:102A500043F40033D3626DB97E4A136D23F04053C3
:102A6000616F0B431365CAE70121201DFFF724FDA9
:102A70000546F0E72E46C2E7764AD36A43F40033B0
:102A8000D362A5BB734AD36C23F00303616C0B4381
:102A9000D364236813F4800F2BD1236813F0010F44
:102AA00000F0A380D4F88030282B00F29C80DFE86F
:102AB00003F0899A9A9A9A9A9A9A849A9A9A9A9ADE
:102AC0009A9A939A9A9A9A9A9A9A899A9A9A9A9A7E
:102AD0009A9A899A9A9A9A9A9A9A89000221201D1A
:102AE000FFF7EAFC0546CCE701263546D1E72E463E
:102AF000CFE7594A136843F48073136000F07CFFFA
:102B00000746554B1B6813F4807F05D100F074FF16
:102B1000C01B6428F5D90325002D4AD14D4B1B6FEE
:102B2000D4F8B020534013F4407F0CD0494B1A6FB7
:102B300022F44072196F41F480311967196F21F442
:102B4000803119671A67D4F8B030B3F5807F15D09B
:102B50008DBBD4F8B03003F44072B2F5407F1ED084
:102B60003C4A136923F47C5313613A490B6FD4F840
:102B7000B020C2F30B0213430B678EE700F03CFF5B
:102B80000746344B1B6F13F0020FE1D100F034FF06
:102B9000C01B41F288339842F3D90325D8E72D486A
:102BA000026922F47C522D4901EA13131343036195
:102BB000DBE72E4671E72E466FE70121201DFFF768
:102BC0007BFC0546EDB9234A536D23F03803D4F856
:102BD00080100B43536508E0012104F12400FFF746
:102BE000F1FC0546EEE701263546236813F0020F97
:102BF00016D0E36F052B27D8DFE803F00A051F0A7C
:102C00000A0A2E46F1E70121201DFFF755FC054673
:102C1000EDB9104A536D23F00703E16F0B43536581
:102C2000236813F0040F29D0D4F89830052B4AD824
:102C3000DFE803F01B16421B1B1B012104F12400DB
:102C4000FFF7C0FC0546E3E701263546E8E72E46D8
:102C5000E6E700BF0044025800480258CFFFFF00DB
:102C60000121201DFFF728FC05467DBBA94A936D75
:102C700023F00703D4F898100B439365236813F0EF
:102C8000200F33D0D4F89430B3F1005F4CD022D869
:102C90003BB1B3F1805F1BD10021201DFFF70CFC7D
:102CA0000546002D47D19B4A536D23F0E043D4F8ED
:102CB00094100B43536519E0012104F12400FFF740
:102CC00081FC0546D1E701263546D7E72E46D5E7F4
:102CD000012635460AE0B3F1804FE2D0B3F1A04FB0
:102CE000DFD0B3F1405FDCD001263546236813F016
:102CF000400F30D0D4F8A030B3F5006F4BD01FD8C0
:102D00003BB1B3F5806F18D10021201DFFF7D4FB34
:102D10000546002D46D17F4A936D23F4E053D4F845
:102D2000A0100B43936516E0022104F12400FFF785
:102D300049FC0546B5E72E46D8E7012635460AE0A8
:102D4000B3F5805FE5D0B3F5A05FE2D0B3F5406F97
:102D5000DFD001263546236813F0800F32D0D4F837
:102D6000A430B3F5804F00F0A28020D83BB1B3F57A
:102D7000005F19D10021201DFFF79EFB0546002DA5
:102D800040F09C80634A936D23F46043D4F8A41010
:102D90000B43936516E0022104F12400FFF712FCB7
:102DA0000546B6E72E46D6E7012635460AE0B3F5D6
:102DB000004FE4D0B3F5204FE1D0B3F5C04FDED0E3
:102DC00001263546236813F0080F0CD0D4F888305C
:102DD000B3F5805F74D04F4A536D23F44053D4F859
:102DE00088100B435365236813F0100F0CD0D4F8F0
:102DF0009C30B3F5807F6CD0464A936D23F44073CA
:102E0000D4F89C100B439365236813F4002F0BD068
:102E1000D4F8A830B3F5803F73D0B3F5003F66D047
:102E2000002B5FD001263546236813F4802F0CD089
:102E3000D4F88C30B3F5001F7DD0B3F5401F70D0AF
:102E4000B3F5801F68D001263546236813F4803F10
:102E500008D0E36C002B77D0B3F5803F00F0828080
:102E600001263546236813F0005F40F08380236815
:102E700013F4003F00F08B80D4F88430B3F5807FEA
:102E800000F0BD8040F28080B3F5007F03D0B3F541
:102E9000407F40F0B280002D40F0B7801D4A536D56
:102EA00023F44073D4F884100B4353656FE0022180
:102EB00004F12400FFF786FB054660E72E4681E714
:102EC000022104F12400FFF77DFB002883D00126B6
:102ED00081E7022104F12400FFF774FB00288BD066
:102EE000012689E70021201DFFF7E6FA05467DB996
:102EF000084A936D23F44033D4F8A8100B4393652C
:102F000092E7022104F12400FFF75CFB0546EEE79F
:102F10002E4689E700440258414AD36A43F40033FD
:102F2000D3627DB93E4A536D23F44013D4F88C101C
:102F30000B43536589E7012104F12400FFF742FBAD
:102F40000546EEE72E4680E7354AD36A43F4003360
:102F5000D3626DB9324AD36C23F48033E16C0B43F6
:102F6000D3647FE70221201DFFF7A6FA0546F0E7AC
:102F70002E4677E7022104F12400FFF723FB002807
:102F80003FF475AF012672E7002B84D00126236839
:102F900013F4801F06D0224A136D23F00043A16F63
:102FA0000B431365236813F4001F06D01C4A136DEE
:102FB00023F08073E16E0B431365236813F4006FF5
:102FC00006D0174A936D23F00063216F0B4393657E
:102FD000236813F0804F09D0114B1A6922F4004284
:102FE0001A611A69D4F8B4100A431A612368002BD5
:102FF0000DDB06B101263046F8BD0126C7E7084AB9
:10300000D36A43F40033D36245E72E46BFE7044A50
:10301000D36C23F04053216D0B43D364E9E700BF29
:103020000044025808B5FFF701FA054B1B6AC3F3C9
:103030000213044AD35C03F01F03D84008BD00BF4D
:1030400000440258A466000810B5774A916A946A51
:10305000C4F3053ED36AC3F3001CD36BC3F3CC03A4
:103060000CFB03F314F47C3F00F0D88001F0030163
:1030700007EE903AF8EE677A012965D0022900F050
:10308000B080E1B107EE10EAB8EE477A9FED676ACB
:10309000C6EE076A644B9B6BC3F3080307EE103A56
:1030A000B8EE477A9FED626A67EE867A77EE277A06
:1030B000B7EE007A77EE877A66EEA76A60E013686B
:1030C00013F0200F23D011461268C2F3C102594BEE
:1030D000D34007EE103AB8EE477A06EE90EAB8EE23
:1030E000666AC7EE066A8B6BC3F3080307EE103AF5
:1030F000B8EE477A9FED4E6A67EE867A77EE277ACA
:10310000B7EE007A77EE877A66EEA76A38E007EEC8
:1031100010EAB8EE477A9FED486AC6EE076A424B5E
:103120009B6BC3F3080307EE103AB8EE477A9FEDA6
:10313000406A67EE867A77EE277AB7EE007A77EE06
:10314000877A66EEA76A1BE007EE10EAB8EE477AC8
:103150009FED366AC6EE076A334B9B6BC3F30803D9
:1031600007EE103AB8EE477A9FED316A67EE867A3D
:1031700077EE277AB7EE007A77EE877A66EEA76A5F
:10318000294A936BC3F3462307EE103AB8EE477A09
:10319000B7EE006A37EE067AC6EE877AFCEEE77A7B
:1031A000C0ED007A936BC3F3064307EE103AB8EE16
:1031B000477A37EE067AC6EE877AFCEEE77AC0EDFC
:1031C000017A936BC3F3066307EE903AF8EE677AE1
:1031D00077EE867A86EEA77ABCEEC77A80ED027A21
:1031E00010BD07EE10EAB8EE477A9FED146AC6EEFE
:1031F000076A0D4B9B6BC3F3080307EE103AB8EE5A
:10320000477A9FED0B6A67EE867A77EE277AB7EEFC
:10321000007A77EE877A66EEA76AB1E7002303604B
:1032200043608360DCE700BF004402580024744A16
:10323000000000390090D0030024744C001BB74BF1
:1032400010B5774A916A946AC4F3055ED36AC3F3F2
:10325000002C536CC3F3CC030CFB03F314F07C7F02
:1032600000F0D88001F0030107EE903AF8EE677A9B
:10327000012965D0022900F0B080E1B107EE10EA23
:10328000B8EE477A9FED676AC6EE076A644B1B6C1F
:10329000C3F3080307EE103AB8EE477A9FED626A6F
:1032A00067EE867A77EE277AB7EE007A77EE877A3E
:1032B00066EEA76A60E0136813F0200F23D0114672
:1032C0001268C2F3C102594BD34007EE103AB8EE70
:1032D000477A06EE90EAB8EE666AC7EE066A0B6CAD
:1032E000C3F3080307EE103AB8EE477A9FED4E6A33
:1032F00067EE867A77EE277AB7EE007A77EE877AEE
:1033000066EEA76A38E007EE10EAB8EE477A9FED5E
:10331000486AC6EE076A424B1B6CC3F3080307EE0C
:10332000103AB8EE477A9FED406A67EE867A77EEFC
:10333000277AB7EE007A77EE877A66EEA76A1BE007
:1033400007EE10EAB8EE477A9FED366AC6EE076AD6
:10335000334B1B6CC3F3080307EE103AB8EE477A01
:103360009FED316A67EE867A77EE277AB7EE007ABC
:1033700077EE877A66EEA76A294A136CC3F3462371
:1033800007EE103AB8EE477AB7EE006A37EE067AE3
:10339000C6EE877AFCEEE77AC0ED007A136CC3F3D1
:1033A000064307EE103AB8EE477A37EE067AC6EED5
:1033B000877AFCEEE77AC0ED017A136CC3F30663FB
:1033C00007EE903AF8EE677A77EE867A86EEA77A7D
:1033D000BCEEC77A80ED027A10BD07EE10EAB8EEB7
:1033E000477A9FED146AC6EE076A0D4B1B6CC3F358
:1033F000080307EE103AB8EE477A9FED0B6A67EEC6
:10340000867A77EE277AB7EE007A77EE877A66EEDD
:10341000A76AB1E70023036043608360DCE700BF75
:10342000004402580024744A000000390090D00380
:103430000024744C001BB74BF0B583B0002340E070
:10344000092400E00024B44044EA0C040235764E1E
:1034500046F825404FF0B044D4F88050D44325EAD4
:1034600002064F6817F4803F01D042EA05064FF08C
:10347000B045C5F88060D5F8845004EA05064F6869
:1034800017F4003F01D042EA05064FF0B045C5F8F9
:1034900084602D6804EA05064F6817F4801F01D088
:1034A00042EA05064FF0B0452E606D682C404E682C
:1034B00016F4001F01D042EA05044FF0B0425460F8
:1034C00001330A6832FA03F400F0AB804FF0010CCC
:1034D0000CFA03FC1CEA0202F2D04C68651E112CA7
:1034E00018BF012D01D9122C13D185685E00032469
:1034F000B44025EA0405CC68B4402C438460446899
:1035000024EA0C0C4C68C4F300149C4044EA0C04FC
:103510004460C6684FEA430C032505FA0CF5EC43FA
:1035200026EA050E8D6805FA0CF545EA0E05C5601C
:103530004D68122D18BF022D12D1DE08083650F842
:10354000267003F007054FEA850E0F2505FA0EF5E4
:1035500027EA05070D6905FA0EF53D4340F82650A8
:10356000056825404C6804F0030404FA0CF42C436D
:1035700004604C6814F0805FA2D02C4CD4F85451F5
:1035800045F00205C4F85451D4F8544104F0020443
:103590000194019C9D08AE1C234C54F8267003F046
:1035A0000304A6000F24B44027EA040C204CA042D8
:1035B0003FF448AF04F58064A04222D004F5806453
:1035C000A04220D004F58064A0421ED004F580649F
:1035D000A0421CD004F58064A0421AD004F5806497
:1035E000A04218D004F58064A04216D004F580648F
:1035F000A04214D004F58064A0423FF421AF0A2415
:1036000021E701241FE702241DE703241BE704240C
:1036100019E7052417E7062415E7072413E708240C
:1036200011E703B0F0BD00BF000400580044025889
:10363000000002580369194201D0012070470020A0
:1036400070470AB181617047090481617047704712
:1036500008B54FF0B043D3F88830034200D108BD1D
:103660004FF0B043C3F88800FFF7F1FFF7E7000021
:10367000002800F0298108B5024690F83530DBB209
:10368000022B03D080234365012008BD03689048C6
:1036900090498B4218BF83420CBF0121002166D0A4
:1036A0003030834263D01830834260D01830834278
:1036B0005DD0183083425AD01830834257D018302A
:1036C000834254D000F55670834250D01830834264
:1036D0004DD0183083424AD01830834247D018303A
:1036E000834244D01830834241D0183083423ED0C8
:1036F000183083423BD0196821F00E01196013681D
:10370000A0F5956073498B4218BF83426AD0724915
:103710008B4267D018318B4264D018318B4261D014
:1037200018318B425ED018318B425BD018318B42FE
:1037300058D001F556718B4254D018318B4251D07C
:1037400018318B424ED018318B424BD018318B42FE
:1037500048D018318B4245D018318B4242D01831B5
:103760008B423FD0196821F0010119603EE004202E
:1037700082F8350081BB584A93422DD018329342CB
:103780002AD01832934227D01832934224D01832CC
:10379000934221D0183293421ED002F556729342C2
:1037A0001AD01832934217D01832934214D01832DC
:1037B000934211D0183293420ED0183293420BD05C
:1037C0001832934208D01832934205D01A6822F07A
:1037D00001021A60002058E71A6822F001021A60FC
:1037E000002052E7196821F0010119601368384878
:1037F00038498B4218BF834242D018318B423FD0A8
:1038000018318B423CD018318B4239D018318B4261
:1038100036D018318B4233D018318B4230D001F57D
:1038200056718B422CD018318B4229D018318B42E3
:1038300026D018318B4223D018318B4220D018313A
:103840008B421DD018318B421AD018318B4217D0C1
:1038500022498B4214D014318B4211D014318B4247
:103860000ED014318B420BD014318B4208D014315E
:103870008B4205D014318B4202D014318B4217D1C8
:10388000116E0B6823F480730B60906DD36D03F0A1
:103890001F0101238B404360536E916E5960D36EBC
:1038A00033B1196821F480711960136F516F596039
:1038B000002382F83430012382F83530136D2BB1A8
:1038C000104698470020E0E6012070470020DCE623
:1038D00010000240280002404000024008540258F4
:1038E000134BDB6813F0040F07D1114BDB6803F0B7
:1038F000070383421AD00120704710B50C4AD368E1
:1039000023F007031843D06000F076F80446084B14
:103910005B6813F4005F07D100F06EF8001BB0F590
:103920007A7FF4D9012000E0002010BD002070470C
:1039300000480258104B1B780BB90120704710B596
:1039400004464FF47A70B0FBF3F30C4A1068B0FBF6
:10395000F3F0FDF7CBFF68B90F2C01D901200AE085
:10396000002221464FF0FF30FDF77CFF044B1C6026
:10397000002000E0012010BD000000200800002011
:103980000400002010B50320FDF75AFFFEF70AFBE4
:103990000F498B69C3F303230E4AD35C03F01F0363
:1039A000D8408B6903F00F03D35C03F01F0320FAA8
:1039B00003F3094A1360094B18600020FFF7BAFFB0
:1039C00010B10124204610BD0446FDF7DBFCF9E7E9
:1039D00000440258A46600080C00002008000020E3
:1039E000034B1B78034A11680B441360704700BFF8
:1039F0000000002094020020014B1868704700BFAF
:103A00009402002038B50446FFF7F6FF0546B4F1EE
:103A1000FF3F02D0044B1B781C44FFF7EDFF401B17
:103A2000A042FAD338BD00BF00000020F0B54D68B9
:103A30000468E368C3F30B431D444FEAC21C04EB64
:103A4000C214D4F8883003F47043C4F888300B688B
:103A50000468E668C6F30B463344013304EBC21432
:103A600043EA0543C4F88830CD680468E368C3F3CB
:103A70000A031D4404EBC21EDEF88C3003F47043CD
:103A8000CEF88C308B680468E668C6F30A0E73447F
:103A9000013304EBC21443EA0543C4F88C300368D5
:103AA00003EBC213D3F8944024F00704C3F8944006
:103AB000036803EBC2130C69C3F8944091F83170AA
:103AC00091F832608D69046804EBC21404F1840E2D
:103AD000D4F89C300024CEF8184091F8303043EAF6
:103AE000072343EA0643066806EBC21E43EA056362
:103AF000CEF89C300EF1840E036803EBC213D3F8AA
:103B0000985025F0FF05C3F89850036803EBC213E3
:103B10004D69C3F89850036803EBC213D3F8A06053
:103B20002E4D3540C3F8A0500D6A036803EBC21355
:103B3000CE693543C3F8A050036803EBC213D3F832
:103B4000AC50C3F8AC40036803EBC2124B6AC2F836
:103B5000AC300B696BB1012B39D0022B18BF042B91
:103B600037D0032B37D0072B01D0012502E00225E7
:103B700000E0042502686244D2F8B04004F0E0247A
:103B8000C2F8B0408A6A05FB02F44B680A689B1AC7
:103B900005FB03F307330268624443EA0443C2F8B7
:103BA000B03003686344D3F8B4400D4A2240C3F8F0
:103BB000B42003686344CA6AC3F8B42003689C4411
:103BC000DCF8843043F00103CCF88430F0BD0325E9
:103BD000D0E70225CEE70225CCE700BFF8F8FFFFCB
:103BE00000F8FFFF002872D038B5044690F8A130E5
:103BF000002B67D0022384F8A1302268936923F058
:103C00007043936121688A696368A0680343E06830
:103C100003432069034313438B6121688A682D4B5A
:103C20001A408A6020688268A169656941EA054195
:103C30000A4382602168CA681A40CA602068C26864
:103C4000216AE56941EA05410A43C26021680A69BF
:103C50001A400A6120680269A16A656A41EA054161
:103C60000A43026121684A6913404B61E06A216896
:103C70004B69226B42EA004213434B6194F83500D2
:103C800094F836301B042168CA6A02F07F42CA6287
:103C90002168CA6A43EA002394F8340003431343BB
:103CA000CB622268536B43F0060353632268936927
:103CB00043F0010393610020C4F8A400012384F8B9
:103CC000A13038BD80F8A030FDF798FB92E70120C5
:103CD000704700BF00F800F0F8B590F8A030012B55
:103CE0002CD004460D461646012780F8A07002230A
:103CF00080F8A1304FF0340C0CFB020C0CF1380CA6
:103D00008E46BEE80F00ACE80F00BEE80F00ACE83E
:103D10000F00BEE80F00ACE80F00DEF80030CCF872
:103D20000030324629462046FFF780FE23685F6256
:103D300084F8A170002084F8A000F8BD0220FCE700
:103D4000F0B4036A23F001030362036A46688469DE
:103D50001F4A22400D68154323F002038C68234359
:103D60001C4A1D4CA04218BF90420CBF01220022E9
:103D70000CD004F58044A04214BF00240124174F46
:103D8000B84203D014B9164CA04205D123F0080361
:103D9000CC68234323F004035AB9124A904214BF5B
:103DA000002201220D4CA04203D012B90C4A9042CD
:103DB00007D126F4407C4A6942EA0C0C8E6946EA37
:103DC0000C06466085614A6842630362F0BC704736
:103DD0008CFFFEFF00000140000401400040014054
:103DE000004801400044014070B4036A23F480732A
:103DF0000362036A4568C26922F073020E681643C3
:103E000023F400738A6843EA0223164A164CA04240
:103E100018BF90420CBF0122002206D123F4006398
:103E2000CC6843EA042323F480635AB90F4A9042D2
:103E300014BF002201220E4CA04203D012B90D4A39
:103E4000904207D125F4405C4A694CEA021C8D6916
:103E50004CEA05154560C6614A68C263036270BCDE
:103E6000704700BF000001400004014000440140D1
:103E7000004001400048014070B4036A23F48053BD
:103E80000362036A4468C26922F4E6420D6842EAAA
:103E9000052223F400538D6843EA05330F4E104D7D
:103EA000A84218BFB0420DD005F58045A84214BF06
:103EB0000025012506F58046B04203D015B9094D0D
:103EC000A84204D124F480444D6944EA8514446036
:103ED000C2614A680264036270BC7047000001401E
:103EE000000401400048014070B4036A23F48033A9
:103EF0000362036A4268446D24F0700C0C6844EA63
:103F00000C0623F400338C6843EA04430F4D104C35
:103F1000A04218BFA8420DD004F58044A04214BFAF
:103F20000024012405F58045A84203D014B9094CAA
:103F3000A04204D122F480324C6942EA0422426059
:103F400046654A688265036270BC704700000140A4
:103F5000000401400048014070B4036A23F4801358
:103F60000362036A4468426D22F4E0420D6842EA4B
:103F7000052223F400138D6843EA05530F4E104DBC
:103F8000A84218BFB0420DD005F58045A84214BF25
:103F90000025012506F58046B04203D015B9094D2C
:103FA000A84204D124F400344D6944EA85244460D5
:103FB00042654A68C265036270BC704700000140F8
:103FC000000401400048014030B50368394A90427E
:103FD00014BF4FF0000E4FF0010EB0F1804F14BF30
:103FE00072464EF00102AAB9334CA04214BF00241D
:103FF0000124324DA8420DD064B904F1804404F587
:104000008234A04214BF0024012405F50065A842B3
:1040100000D01CB123F070034C68234312BB264A26
:10402000904214BF00220122244CA0421AD0CAB9E7
:1040300002F1804202F58232904214BF0022012236
:1040400004F50064A0420DD062B91D4A904214BF2D
:104050000022012204F59A34A04203D012B9194A71
:10406000904204D123F4407CCB6843EA0C0323F054
:1040700080034A69134303608A68C2620A688262E5
:10408000114A904214BF73464EF0010363B90C4BC2
:10409000984214BF0023012302F57052904203D0CE
:1040A00013B9084B984201D10B69036301234361A3
:1040B00030BD00BF00000140000800400004004087
:1040C00000440140004801400004014060B310B5C5
:1040D000044690F83D3013B3022384F83D30214666
:1040E00051F8040BFFF770FF012384F8483084F87F
:1040F0003E3084F83F3084F8403084F8413084F812
:10410000423084F8433084F8443084F8453084F8F1
:10411000463084F8473084F83D30002010BD80F8E8
:104120003C30FDF717FAD7E70120704770B4036AF7
:1041300023F010030362036A456884691A4A224027
:104140000E6842EA062623F020038A6843EA021337
:10415000164A174CA04218BF90420CBF0122002201
:1041600006D123F08003CC6843EA041323F0400314
:104170005AB9104A904214BF002201220E4CA042AC
:1041800003D012B90D4A904207D125F4406C4A6918
:104190004CEA820C8D694CEA8505456086614A6867
:1041A0008263036270BC7047FF8CFFFE0000014019
:1041B000000401400044014000400140004801402B
:1041C00038B590F83C30012B00F08C8004460D4649
:1041D000012380F83C30142A1ED8DFE802F00B1DC2
:1041E0001D1D211D1D1D351D1D1D481D1D1D5C1D79
:1041F0001D1D6F000068FFF7A3FD2268936943F05F
:10420000080393612268936923F004039361226891
:10421000936929690B439361002084F83C0038BD01
:104220000068FFF783FF2268936943F4006393619A
:104230002268936923F480639361226893692969F2
:1042400043EA01239361E7E70068FFF7CDFD2268A9
:10425000D36943F00803D3612268D36923F00403D0
:10426000D3612268D36929690B43D361D4E700681D
:10427000FFF702FE2268D36943F40063D36122682A
:10428000D36923F48063D3612268D369296943EA3F
:104290000123D361C0E70068FFF726FE2268536D53
:1042A00043F0080353652268536D23F004035365FC
:1042B0002268536D29690B435365ADE70068FFF72A
:1042C0004BFE2268536D43F4006353652268536DBF
:1042D00023F4806353652268536D296943EA0123FF
:1042E000536599E702209AE701F01F01012303FAC1
:1042F00001FC036A23EA0C030362036A02FA01F178
:104300000B4303627047000010B5044608460029BD
:1043100037D194F83E30DBB2013B18BF0123002BAC
:1043200076D1002858D1022384F83E30012201467C
:104330002068FFF7D9FF23683749384A934218BFEE
:104340008B420BD002F57052934207D002F5806287
:10435000934203D002F58062934203D15A6C42F437
:1043600000425A64226891682D4B0B40062B18BFFF
:10437000B3F5803F4ED0136843F001031360002073
:1043800047E004290CD0082911D00C2916D0102997
:104390001BD094F84330DBB2013B18BF0123BEE7CA
:1043A00094F83F30DBB2013B18BF0123B7E794F824
:1043B0004030DBB2013B18BF0123B0E794F8413035
:1043C000DBB2013B18BF0123A9E794F84230DBB20E
:1043D000013B18BF0123A2E7042809D008280BD00D
:1043E0000C280DD010280FD0022384F843309DE70D
:1043F000022384F83F3099E7022384F8403095E7A0
:10440000022384F8413091E7022384F842308DE79B
:10441000012010BD0020FCE7000001400004014025
:104420000700010090F83C30012B41D070B401230B
:1044300080F83C30022380F83D3003685A689C685D
:104440001C4E1D4DAB4218BFB34203D122F4700283
:104450004D682A4322F070020D682A435A600368AF
:10446000144AB3F1804F18BF934213D0A2F57C4297
:1044700093420FD002F5806293420BD002F5806226
:10448000934207D002F57842934203D0A2F56C42E2
:10449000934204D124F080048A6814439C60012371
:1044A00080F83D30002380F83C30184670BC7047DF
:1044B00002207047000001400004014002681368B8
:1044C00023F49073136002689168044B0B4093606F
:1044D0002023C0F884300023C3667047FEFFFFEF3F
:1044E000704708B501680A6822F040020A6020227D
:1044F000C0F8802000220267FFF7F2FF08BD704776
:1045000070B504460168CB690D68886840F60F02F3
:104510001A4008D113F0200F05D015F0200F30D12C
:1045200010F0805F2DD12AB16D4A02402FD16D4E1F
:1045300035422CD113F4801F03D010F4800F40F0CB
:10454000B48013F0800F07D015F0800F40F0B480D6
:1045500010F4000F40F0B08013F0400F03D015F0BE
:10456000400F40F0B08013F4000F03D015F0804FDF
:1045700040F0AD8013F0807F02D0002DC0F2AB8000
:1045800070BDE36E002BFBD020469847F8E713F090
:10459000010F09D015F4807F06D001260E62D4F8F1
:1045A00088103143C4F8881013F0020F0BD010F0BC
:1045B000010F08D0216802260E62D4F8881041F05D
:1045C0000401C4F8881013F0040F0BD010F0010F91
:1045D00008D0216804260E62D4F8881041F0020148
:1045E000C4F8881013F0080F0BD015F0200F00D17D
:1045F0003AB1226808211162D4F888200A43C4F82D
:10460000882013F4006F0CD015F0806F09D0226859
:104610004FF400611162D4F8882042F02002C4F8FF
:104620008820D4F88820002AAAD013F0200F09D0BF
:1046300015F0200F02D110F0805F03D0E36E0BB1B4
:1046400020469847D4F8882023689B6813F0400FD1
:1046500002D112F0280F21D02046FFF72FFF236848
:104660009A6812F0400F15D09A6822F040029A60C2
:10467000A36F5BB11C4A1A65A06FFEF7F9FF002813
:104680003FF47EAFA06F036D984779E72046FFF7B0
:1046900036FF75E72046FFF732FF71E72046FFF748
:1046A0002EFF0023C4F888306AE74FF480130B62B2
:1046B000204600F053FD63E7236F002B3FF460AF0B
:1046C000204698475CE72046FFF70BFF58E7204657
:1046D00000F046FD54E7204600F041FD50E700BFE2
:1046E0000100001020010004ED46000808B5806BB1
:1046F0000023A0F85E30A0F85630FFF700FF08BD99
:1047000070B586B004460168836802691343426944
:104710001343C2691343426E13430868904A024030
:104720001A430A602268536823F44053E1680B433C
:104730005360A16922688B4B9A4201D0236A1943C6
:104740009068894B03400B4393602268D36A23F03F
:104750000F03616A0B43D3622268844B9A4229D0CB
:10476000834B9A4200F09480824B9A4200F0AA80D8
:10477000814B9A4200F0C080804B9A4200F0D68074
:104780007F4B9A4200F008817E4B9A4200F02D81C7
:104790007D4B9A4200F040817C4B9A4200F053815D
:1047A0007B4B9A4200F078816E4B9A4200F09D81DB
:1047B000802333E0774B5B6D03F03803282B65D8FB
:1047C000DFE813F029006400640064006400640002
:1047D00064006400AB016400640064006400640071
:1047E000640064002B0064006400640064006400E2
:1047F000640064005E00640064006400640064009F
:10480000640064006000640064006400640064008C
:10481000640064006200012300E0082351498A42D9
:1048200000F09481E069B0F5004F00F00A82202B7F
:1048300000F26282202B00F2AC82DFE813F07902F2
:104840007F02AA02AA028202AA02AA02AA0287027E
:10485000AA02AA02AA02AA02AA02AA02AA028C0216
:10486000AA02AA02AA02AA02AA02AA02AA02AA02E8
:10487000AA02AA02AA02AA02AA02AA02AA029802EA
:104880001023CBE72023C9E74023C7E78023C5E7F0
:10489000404B5B6D03F00703052B11D8DFE813F0E5
:1048A00006003F0108000A000C000E000023B5E7D7
:1048B0000823B3E71023B1E72023AFE74023ADE798
:1048C0008023ABE7334B5B6D03F00703052B11D857
:1048D000DFE813F00600270108000A000C000E00B4
:1048E00000239BE7082399E7102397E7202395E708
:1048F000402393E7802391E7264B5B6D03F007038A
:10490000052B11D8DFE813F006000F0108000A009C
:104910000C000E00002381E708237FE710237DE7CA
:1049200020237BE7402379E7802377E7194B5B6DF2
:1049300003F00703052B11D8DFE813F00600F7009A
:1049400008000A000C000E00002367E7082365E753
:10495000102363E7202361E740235FE780235DE7BF
:10496000F369FFCF000C0058FFF4FF110010014065
:104970000044004000480040004C0040005000400F
:104980000014014000780040007C00400018014005
:10499000001C014000440258694B5B6D03F0380372
:1049A000282B20D8DFE803F0151F1F1F1F1F1F1F14
:1049B000C31F1F1F1F1F1F1F171F1F1F1F1F1F1F6B
:1049C000191F1F1F1F1F1F1F1B1F1F1F1F1F1F1F01
:1049D0001D00012322E7082320E710231EE72023E0
:1049E0001CE740231AE7802318E7554B5B6D03F063
:1049F0000703052B0ED8DFE803F0039C0507090B1E
:104A000000230BE7082309E7102307E7202305E726
:104A1000402303E7802301E7494B5B6D03F0070365
:104A2000052B0ED8DFE803F003870507090B0023E9
:104A3000F4E60823F2E61023F0E62023EEE6402316
:104A4000ECE68023EAE63E4B5B6D03F03803282B4F
:104A500020D8DFE803F0151F1F1F1F1F1F1F721F25
:104A60001F1F1F1F1F1F171F1F1F1F1F1F1F191F64
:104A70001F1F1F1F1F1F1B1F1F1F1F1F1F1F1D006B
:104A80000123CBE60823C9E61023C7E62023C5E6A9
:104A90004023C3E68023C1E6294B5B6D03F0380356
:104AA000282B20D8DFE803F0151F1F1F1F1F1F1F13
:104AB0004E1F1F1F1F1F1F1F171F1F1F1F1F1F1FDF
:104AC000191F1F1F1F1F1F1F1B1F1F1F1F1F1F1F00
:104AD0001D000123A2E60823A0E610239EE6202362
:104AE0009CE640239AE6802398E603F50E339B6DFF
:104AF00003F00703052B0ED8DFE803F003260507B4
:104B0000090B02238AE6082388E6102386E6202381
:104B100084E6402382E6802380E604237EE60423A5
:104B20007CE604237AE6042378E6042376E604236D
:104B300074E6042372E6042370E604236EE600BFE5
:104B400000440258042369E6042367E6202B27D893
:104B5000022BC0F01081023B1E2B00F20E81DFE819
:104B600013F050000C0156000C010C010C015B000D
:104B70000C010C010C010C010C010C010C0160007A
:104B80000C010C010C010C010C010C010C010C01BD
:104B90000C010C010C010C010C010C010C016C004E
:104BA000402B2CD14FF40040626A804B33F8122026
:104BB000B0FBF2F3656805EB4501994200F2DF8036
:104BC000B3EB053F00F2DD80002633463146FBF7AC
:104BD000DFFB090241EA106100026B08C0182A4697
:104BE000334641F10001FBF7D3FBA0F54072704B57
:104BF0009A4200F2C8802368D8603046CAE001209B
:104C0000C8E0FEF70FFA0028CED10020C2E003A8CA
:104C1000FEF71AFA0498F6E76846FEF711FB0198CA
:104C2000F1E7644B1B6813F0200F08D0614B1B6841
:104C3000C3F3C1036048D840E5E76048B4E75E4885
:104C4000B2E7202B15D8202B00F29F80DFE803F07D
:104C500031379D9D3A9D9D9D3F9D9D9D9D9D9D9D17
:104C6000449D9D9D9D9D9D9D9D9D9D9D9D9D9D9DCD
:104C70005000402B1BD1626A4C4B33F81230B0FB12
:104C8000F3F06268530803EB4000B0FBF2F080B22F
:104C9000A0F110024FF6EF739A4278D820F00F037C
:104CA000C0F3420018432368D860002072E001205E
:104CB00070E0FDF7DDFB0028DDD100206AE0FDF7A4
:104CC000E9FBF8E703A8FEF7BFF90498F3E76846A5
:104CD000FEF7B6FA0198EEE7364B1B6813F0200F8B
:104CE00008D0344B1B68C3F3C1033348D840E2E714
:104CF0003248C0E73048BEE7402B17D14FF40040A0
:104D0000626A2A4B33F81230B0FBF3F0636800EBB1
:104D10005300B0FBF3F080B2A0F110024FF6EF7336
:104D20009A4241D82368D860002033E0012031E066
:104D3000FDF79EFB0028E3D100202BE0FDF7AAFB46
:104D4000F8E703A8FEF780F90498F3E76846FEF752
:104D500077FA0198EEE7174B1B6813F0200F08D085
:104D6000144B1B68C3F3C1031348D840E2E7134850
:104D7000C6E71148C4E701200CE001200AE0012049
:104D800008E0012006E0012004E0012002E001200B
:104D900000E001200123A4F86A30A4F86830002361
:104DA000E366236706B070BD0120F3E78066000864
:104DB000FFFC0F00004402580090D00300093D00A2
:104DC000836A13F0010F06D00268536823F400339E
:104DD000C16A0B435360836A13F0020F06D0026866
:104DE000536823F48033016B0B435360836A13F0E1
:104DF000040F06D00268536823F48023416B0B43F1
:104E00005360836A13F0080F06D00268536823F4D6
:104E10000043816B0B435360836A13F0100F06D07D
:104E20000268936823F48053C16B0B439360836AD9
:104E300013F0200F06D00268936823F40053016C2E
:104E40000B439360836A13F0400F0AD002685368E3
:104E500023F48013416C0B435360436CB3F5801F04
:104E60000BD0836A13F0800F06D00268536823F4D6
:104E70000023C16C0B43536070470268536823F4EE
:104E8000C003816C0B435360EBE72DE9F843054603
:104E90000F4616469946DDF820802C68E46937EA0B
:104EA00004030CBF4FF0010C4FF0000CB44541D18E
:104EB000B8F1FF3FF1D0FEF79FFDA0EB09004045A0
:104EC00024D8B8F1000F21D02B681A6812F0040F13
:104ED000E3D0DA6912F4006FDFD04FF400621A6297
:104EE0002A68136823F4D07313602A68936823F048
:104EF000010393602023C5F88030C5F88430C5F8DD
:104F00008830002385F87C30032014E02A68136879
:104F100023F4D07313602A68936823F0010393602D
:104F20002023C5F88030C5F88430002385F87C3014
:104F3000032000E00020BDE8F8832DE9F04182B0B5
:104F40001E46D0F88030202B58D104460D4690469E
:104F5000002A18BF002955D090F87C30012B53D07F
:104F6000012380F87C300023C0F888302123C0F86A
:104F70008030FEF741FD0746A4F85480A4F856801F
:104F8000A368B3F5805F05D04FF00008002384F8D4
:104F90007C3012E0236913B14FF00008F6E7A84611
:104FA0000025F3E715F8012B23689A62B4F8562020
:104FB00092B2013A92B2A4F85620B4F856309BB29D
:104FC00083B100963B46002280212046FFF75DFF1B
:104FD000E0B9002DE6D138F8023B2268C3F308039C
:104FE0009362E3E700963B46002240212046FFF70C
:104FF0004CFF68B92023C4F8803000E0022002B0E2
:10500000BDE8F0810120FAE70220F8E70320F6E787
:105010000320F4E730B583B004460023C0F888309D
:10502000FEF7EAFC05462268126812F0080F0ED15E
:1050300023681B6813F0040F17D12023C4F88030B5
:10504000C4F88430002084F87C0003B030BD6FF0D9
:105050007E430093034600224FF400112046FFF7E1
:1050600014FF0028E4D00320EFE76FF07E430093A5
:105070002B4600224FF480012046FFF706FF002850
:10508000DBD00320E1E778B310B50446D0F88030D8
:105090000BB32423C4F880302268136823F0010383
:1050A00013602046FFF72CFB012813D0A36ABBB97D
:1050B0002268536823F4904353602268936823F076
:1050C0002A0393602268136843F0010313602046AB
:1050D000FFF7A0FF10BD80F87C30FCF783FAD8E71B
:1050E0002046FFF76DFEE3E70120704784B00346DA
:1050F000184A92E8030004AA02E9030016496A4626
:1051000003C982E803005A6E32B90122A3F86A206B
:10511000A3F8682004B0704719688A68C2F3426235
:10512000886804A901EB507010F8081C090110F8F8
:10513000100C91FBF0F1A3F86A1010326A4412F8D7
:10514000081C090112F8102C91FBF2F2A3F8682058
:10515000E0E700BFF46500089866000870477047F4
:10516000704790F87C30012B18D0012380F87C30F8
:105170002423C0F8803003681A68196821F00101FF
:10518000196022F000520023436601680A60202261
:10519000C0F8802080F87C301846704702207047A5
:1051A00038B590F87C30012B1DD00446012380F8DF
:1051B0007C302423C0F8803003681D681A6822F010
:1051C00001021A600268936823F0604319439160FA
:1051D000FFF78CFF23681D602023C4F88030002077
:1051E00084F87C0038BD0220FCE738B590F87C30AC
:1051F000012B1DD00446012380F87C302423C0F805
:10520000803003681D681A6822F001021A60026883
:10521000936823F0606319439160FFF767FF236889
:105220001D602023C4F88030002084F87C0038BD45
:105230000220FCE7244AD2F8883043F47003C2F815
:105240008830224B1B6803F00F03022B06D81F4A3D
:10525000136823F00F0343F0030313601C4B1A6819
:1052600042F001021A6000221A611968194A0A40C4
:105270001A60164B1B6813F00C0F06D0134A136804
:1052800023F00F0343F003031360114B00229A61D4
:10529000DA611A62104999621049D962104919639A
:1052A0005A639963DA6319645A64196821F4802196
:1052B00019601A660B4B43F2D2021A60024B4FF090
:1052C00000629A60704700BF00ED00E000200052CD
:1052D000004402587FEDF6EA000202020000FF01DE
:1052E0008002010100400052002837D010B504466A
:1052F00090F86130002B2CD0022384F861302168B3
:105300000A68174B13406268E069024313430B605D
:1053100021684A6B134B1340A268A06902431343F0
:105320004B632268116C104B0B40E1680B43136414
:1053300021684B6B23F4401320696269520542EAED
:10534000005213434B6300206066012384F86130F0
:1053500010BD80F86030FCF72DF8CDE701207047D4
:10536000BFFFF8FFF8FEFFFF0000FFFF7047704728
:1053700070B5044603685D681E6815F0010F16D00D
:1053800016F4807F13D01A6822F480721A60436E7C
:1053900043F001034366036801229A60042380F806
:1053A0006130002380F86030436A03B1984715F0FC
:1053B000200F18D016F4005F15D02268136823F46C
:1053C00000531360236820229A60636E43F0020347
:1053D0006366042384F86130002384F86030636AD4
:1053E0000BB12046984715F0080F18D016F4006F3F
:1053F00015D02268136823F4006313602368082221
:105400009A60636E43F004036366042384F861309A
:10541000002384F86030636A0BB12046984715F08A
:10542000040F02D016F4806F20D115F0020F16D0B1
:1054300016F4007F13D02268136823F400731360FE
:10544000236802229A60636E6366012384F86130E8
:10545000002384F86030236A0BB12046984715F08A
:10546000100F02D016F4805F0CD170BD2268136853
:1054700023F480631360236804229A602046FFF7B8
:1054800075FFD2E72268136823F480531360236802
:1054900010229A60636E6366012384F861300023F2
:1054A00084F860302046FFF762FFDEE7DFF834D093
:1054B000FFF7C0FE002103E00B4B5B584350043163
:1054C0000A480B4B42189A42F6D30A4A02E00023DC
:1054D00042F8043B084B9A42F9D300F011F8FBF76D
:1054E000DDFA7047000002205C6700080000002021
:1054F0007400002074000020AC020020FEE70000D1
:1055000070B50D4D0D4C641BA4100026A64209D1A8
:105510000B4D0C4C01F062F8641BA4100026A6424F
:1055200005D170BD55F8043B98470136EEE755F8B4
:10553000043B98470136F2E75467000854670008B7
:10554000546700085867000802440346934200D19C
:10555000704703F8011BF9E70FB40A4B13B51C6839
:1055600024B1A36913B9204600F05EFA05AB049A92
:10557000A1680193204600F067FC02B0BDE810402E
:1055800004B070471000002070B50E46054618B1F3
:1055900083690BB900F048FAAB69AC6813B92846C7
:1055A00000F042FA2C4B9C4220D16C68636EDB0702
:1055B00005D4A389980502D4A06D00F0D3FAA3897D
:1055C00019071DD52369DBB1013EA36816F8011F39
:1055D000013BA36039BB002B38DA22460A2128465A
:1055E00000F048F8013011D00A2511E01B4B9C4215
:1055F00001D1AC68DAE71A4B9C4208BFEC68D5E7EA
:105600002146284600F088F80028DDD04FF0FF350D
:10561000636EDA0705D4A3899B0502D4A06D00F060
:10562000A2FA284670BD002B04DAA2699A4206DC71
:105630000A2904D023685A1C22601970C5E7224643
:10564000284600F017F80130BFD1DFE723680A25AC
:105650005A1C22601D70DBE7D8660008F866000857
:10566000B8660008024B01461868FFF78DBF00BFFF
:1056700010000020F8B50E461446054618B183699F
:105680000BB900F0D1F9214B9C422BD16C68A36976
:10569000A360A3891A072FD523696BB323692068F8
:1056A000C01A6369F6B28342374604DC21462846B5
:1056B00000F026F930BBA368013BA36023685A1CA5
:1056C00022601E7063690130834204D0A389DB0726
:1056D00006D50A2E04D12146284600F011F988B9D2
:1056E0003846F8BD0A4B9C4201D1AC68CFE7094B64
:1056F0009C4208BFEC68CAE72146284600F00CF837
:105700000028CBD04FF0FF37EAE700BFD86600088B
:10571000F8660008B8660008324B70B51D6806468A
:105720000C4625B1AB6913B9284600F07DF92E4B24
:105730009C420FD16C68A389B4F90C2019072CD4B2
:10574000DD0611D40923336042F04003A3814FF0FA
:10575000FF303EE0254B9C4201D1AC68EBE7244B87
:105760009C4208BFEC68E6E7580712D5616B41B16F
:1057700004F14403994202D0304600F05BFA002362
:105780006363A38923F02403A38100236360236957
:105790002360A38943F00803A38123694BB9A3893C
:1057A00003F42073B3F5007F03D02146304600F0A8
:1057B00001FAA089B4F90C2010F001030AD00023EB
:1057C000A36063695B42A361236943B910F0800061
:1057D000BAD170BD810758BF6369A360F4E70020A8
:1057E000F7E700BF10000020D8660008F866000840
:1057F000B86600088A892DE9F041054610070C4675
:1058000058D44B68002B05DC0B6C002B02DC00200D
:10581000BDE8F081E66A002EF9D0002312F4805230
:105820002F682B6032D0606DA3895A0705D5636855
:10583000C01A636B0BB1236CC01A00230246E66AE0
:10584000216A2846B047431CA38906D129681D292F
:105850002CD82A4ACA40D60728D500226260D9042B
:105860002269226004D5421C01D12B6803B960650E
:10587000616B2F600029CAD004F14403994202D021
:10588000284600F0D7F900206063C1E7216A0123B0
:105890002846B047411CC7D12B68002BC4D01D2B14
:1058A00001D0162B01D12F60B1E7A38943F040034B
:1058B000A381ADE70F69002FA9D093070E6808BF39
:1058C0004B690F6018BF0023A6EB07088B60B8F187
:1058D000000F9CDD216AA66A43463A462846B04737
:1058E000002806DCA38943F04003A3814FF0FF307A
:1058F0008EE70744A8EB0008E9E700BF010040205D
:1059000038B50B6905460C4613B90025284638BD45
:1059100018B183690BB900F087F8144B9C421BD176
:105920006C68B4F90C30002BEFD0626ED00704D451
:10593000990502D4A06D00F015F928462146FFF71D
:1059400059FF636EDA070546E0D4A3899B05DDD4D1
:10595000A06D00F008F9D9E7054B9C4201D1AC6875
:10596000DFE7044B9C4208BFEC68DAE7D866000822
:10597000F8660008B8660008002310B50446C0E9C0
:105980000033C0E90433836081814366C28183614F
:10599000194608225C30FFF7D7FD054B6362054BC3
:1059A000A362054BE362054B2462236310BD00BF75
:1059B000F1630008136400084B6400086F6400087A
:1059C000014900F0AFB800BF0159000870B5682266
:1059D0004D1E55430E4605F1740100F097F904463B
:1059E00040B10021C0E900160C30A06005F168024A
:1059F000FFF7AAFD204670BD014800F0B3B800BF14
:105A000099020020014800F0AEB800BF99020020C2
:105A1000014800F0A7B800BF9A020020014800F03A
:105A2000A2B800BF9A02002010B50446FFF7F0FFAD
:105A3000A3691BB1BDE81040FFF7F0BFC4E9123302
:105A40002365134B134A1B68A262A34204BF0123C0
:105A5000A361204600F020F86060204600F01CF8AA
:105A6000A060204600F018F80022E0600421606881
:105A7000FFF782FFA06801220921FFF77DFFE068A0
:105A800002221221FFF778FF0123A361D2E700BFB2
:105A9000B4660008C1590008F8B50746FFF7ACFF27
:105AA0001E4B1E68B36913B93046FFF7BDFF483679
:105AB000D6E90134013B03D533680BB33668F7E709
:105AC000B4F90C50D5B9164BE36004F15800656683
:105AD00000F047F8FFF796FFC4E90155C4E9045503
