:020000040800F2
:10000000901601246D0300082F450008AF42000838
:100010002D4500089D040008B150000800000000B4
:10002000000000000000000000000000AD02000819
:10003000D1060008000000000903000899470008E5
:100040008703000887030008870300088703000868
:100050008703000887030008870300088703000858
:10006000870300088703000887030008A10400082D
:10007000AD04000887030008870300088703000811
:100080008703000887030008870300088703000828
:100090008703000887030008870300088703000818
:1000A0008703000887030008870300088703000808
:1000B00087030008870300088703000887030008F8
:1000C00087030008870300088703000887030008E8
:1000D00087030008870300088703000887030008D8
:1000E000870300088703000800000000870300085A
:1000F00087030008870300088703000887030008B8
:1001000087030008870300088703000887030008A7
:100110008703000887030008870300087D4900085B
:100120008703000887030008870300088703000887
:1001300087030008D5060008870300088703000826
:1001400000000000000000000000000000000000AF
:100150008703000887030008870300088703000857
:100160008703000887030008870300088703000847
:100170008703000887030008870300088703000837
:1001800087030008870300084D4A0008870300081A
:100190008703000887030008870300088703000817
:1001A0008703000887030008870300088703000807
:1001B00087030008870300088703000887030008F7
:1001C00087030008870300088703000887030008E7
:1001D00087030008870300088703000887030008D7
:1001E00087030008870300088703000887030008C7
:1001F00087030008870300088703000887030008B7
:1002000087030008870300088703000887030008A6
:100210008703000887030008870300088703000896
:100220008703000887030008870300080000000018
:100230008703000887030008000000008703000808
:100240008703000887030008870300088703000866
:100250008703000887030008870300088703000856
:100260008703000887030008870300088703000846
:1002700087030008870300088703000800000000C8
:1002800087030008870300088703000800000000B8
:100290000000000087030008DFF80CD000F0ECF845
:1002A00000480047F5500008901601242C4B1968AF
:1002B0000868B0E8F04F80F30988BFF36F8F4FF004
:1002C000000080F3118870470000000008480068B3
:1002D000006880F308884FF0000080F3148862B64D
:1002E00061B6BFF34F8FBFF36F8F00DF00BF00BF5A
:1002F00008ED00E0DFF80C00016841F470010160D6
:10030000704700BF88ED00E0EFF30980BFF36F8F07
:10031000134B1A681EF0100F08BF20ED108A20E959
:10032000F04F106009B44FF0500080F31188BFF314
:100330004F8FBFF36F8F05F0CBFA4FF0000080F3C3
:10034000118809BC19680868B0E8F04F1EF0100F5A
:1003500008BFB0EC108A80F30988BFF36F8F704735
:1003600028000024EFF3058070470000064880470E
:1003700006480047FEE7FEE7FEE7FEE7FEE7FEE78A
:10038000FEE7FEE7FEE7FEE7A14800089902000845
:100390002DE9F05F0546002092469B4688460646BA
:1003A000814640241BE0284641464746224600F04D
:1003B00053F853465A46C01A914110D31146184675
:1003C000224600F03AF82D1A67EB01084F46224604
:1003D0000120002100F031F817EB00094E41201EEA
:1003E000A4F10104DFDC484631462A464346BDE815
:1003F000F09F40EA01039B0703D009E008C9121FE0
:1004000008C0042AFAD203E011F8013B00F8013BCE
:10041000521EF9D27047D2B201E000F8012B491EFA
:10042000FBD270470022F6E710B513460A46044691
:100430001946FFF7F0FF204610BD202A04DB203AC2
:1004400000FA02F1002070479140C2F1200320FA27
:1004500003F3194390407047202A04DB203A21FA25
:1004600002F00021704721FA02F3D040C2F12002CD
:100470009140084319467047064C074D06E0E06876
:1004800040F0010394E8070098471034AC42F6D3DB
:10049000FFF706FF185D0008385D0008FEE7000062
:1004A000014800F0ABBD000060040024014800F0EA
:1004B000A5BD0000D8040024294A016891423AD021
:1004C000274A1832914236D0254A3032914232D0F2
:1004D000234A483291422ED0214A603291422AD09A
:1004E0001F4A7832914226D01D4A9032914222D042
:1004F0001B4AA83291421ED01A4A91421BD0194A77
:100500001832914217D0174A3032914213D0154A0F
:10051000483291420FD0134A603291420BD0114AB7
:100520007832914207D00F4A9032914203D00D4A5F
:10053000A832914211D1CAB21823103AB2FBF3F299
:100540006FF30901032A02F00703074AD25CC26570
:1005500000D9091D81650846704721F0FF01F9E7C0
:100560001000024010040240B45C000830B5224A7A
:10057000012301689142CAB21BD01F4C1434A1421E
:1005800017D01D4C2834A14213D01B4C3C34A1423F
:100590000FD0194C5034A1420BD0174C6434A142F7
:1005A00007D0154C7834A14203D0134C8C34A142AF
:1005B0000CD11421114C083AB2FBF1F10F4A8032F0
:1005C00001F01F0504EB8101AB4010E00C4D182435
:1005D000103A0D44B2FBF4F1A82D00D80831094AB5
:1005E00001F01F0402EB8101064AA3408032603013
:1005F00080E80E0030BD0000085402580058025830
:10060000F0FBFDBF0008024010B50279531E072B16
:100610002DD8174C0168A1421BD0154C1434A142AF
:1006200017D0134C2834A14213D0114C3C34A142B2
:100630000FD00F4C5034A1420BD00D4C6434A1426A
:1006400007D00B4C7834A14203D0094C8C34A14222
:1006500003D10849074C443102E00749064C4431B4
:1006600004EB8202C0E91B2101219940416710BDC2
:1006700008540258FC580258FC08024010B583691F
:100680004FF0C074826A0146002053B1B3F5005F99
:1006900015D072B1012A0CD0022A0AD0032A09D13E
:1006A00004E01AB1012A06D0022A03D1C96AC9019D
:1006B00000D5012010BDC96AA142FAD010BD002AA0
:1006C000F7D0012AF2D0022AF3D0032AF3D010BDCA
:1006D00070470000014801F0E9B900001C03002444
:1006E00070B5A2B0064600244FF4C36001258DF812
:1006F0000F5002238DF81D4069038DF80E500994A8
:100700008DF81F400D9020208DF804508DF8325048
:1007100042028DF8605006914FF040518DF83840FC
:1007200002948DF861408DF81C408DF828408DF8BA
:1007300062408DF80C400B948DF81E500F948DF88C
:10074000115012948DF840408DF831408DF81240D0
:1007500014948DF856401790304616938DF820501B
:1007600005928DF854408DF830408DF8105000916E
:1007700069468DF80D408DF8554011948DF84C5018
:1007800000F074F81B9568058DF871404FF4067100
:100790008DF8685019948DF880408DF870401F9046
:1007A0008DF878401D9030468DF88140219119A92F
:1007B00000F002F822B070BDF0B5026847F6020EF4
:1007C000274E4DF2010702F58052264DD1F800C0A8
:1007D0001368254C23EA0E0343EA0C0313600B79DC
:1007E000026891F80CE002F58052D1F808C01B03B2
:1007F00043EACE3343EA0C03D2F804C02CEA070CD8
:100800004CEA030CC2F804C002684F7B02F5805228
:100810000B6A43EA0747D2F8003133403B43C2F842
:10082000003102680B7D02F5805291F81DC00F69FE
:10083000D2F804611B0143EA0C332E403B431E43B4
:10084000C2F8046100680B7F00F580508A69D0F817
:10085000081142EAC37221401143C0F80811F0BDEB
:1008600000C0FEFFEFEFC0FFFFFFC07FF0B50B79C8
:100870000C7B0F688A68DB064D7B43EAC4533A431E
:100880008E7B1A43CF7B91F810C042EA855242EA30
:100890004652BCF1000F42EA07537CD000224C7C48
:1008A000002C43EAC24278D000238E7C0D7F42EABE
:1008B00043428F7FD1E9053442EA06424E7F1A4314
:1008C000224342EA0532002F42EAC62466D00022C3
:1008D000CD7F91F8203044EA8222002B42EA452263
:1008E0007ED0002504684B6A42EA052291F8287000
:1008F000464D1A43CE6A236842EA071232432B4020
:100900001343236091F83C2091F8383091F830502F
:1009100091F83140520642EA036291F8326042EAAD
:10092000854242EA4444BEB300220368384E4F6B0E
:1009300044EA02425C683A4340F20F1534401443E3
:100940005C60036891F840604C6CDA6844EA062405
:10095000AA432243DA6091F854300A6D91F84C4072
:1009600042EA4302ECB300240368B1F848504FF662
:100970000D76E7011C6F47EA05452A4334401443CE
:100980001C67026891F8563091F8555052F8904F14
:1009900043EA450303E02BE032E02BE02CE024F0B7
:1009A00003041C43146002688C6DD2F8003D23F0F0
:1009B00072032343C2F8003D91F86020CC6D1AB356
:1009C0005FF00003026891F8615091F8621044EA08
:1009D0008310D2F8303D2C0144EAC101084301E004
:1009E0000CE00FE023F07B010143C2F8301DF0BDA5
:1009F000012254E7012358E7012269E7012571E745
:100A0000012292E70124AFE70123DBE783800400A2
:100A10000080F8C072B6FEE72DE9F84F044601F0F9
:100A20008FFB00903CB194F83500022806D080215D
:100A300061650020E4E00120BDE8F88FC74DC74E96
:100A4000C649183520683036DFF81483DFF8149370
:100A50008842DFF814A3DFF814B32ED0A8422CD0BC
:100A6000B0422AD0404528D0484526D0504524D011
:100A7000584522D0BD4A183290421ED0BC4A9042FE
:100A80001BD0BB4A1832904217D0B94A303290423C
:100A900013D0B74A483290420FD0B54A60329042E4
:100AA0000BD0B34A7832904207D0B14A903290428C
:100AB00003D0AF4AA832904209D1026822F01E0248
:100AC00002602068426922F08002426103E002680D
:100AD00022F00E02026027688F4238464DD0A842AD
:100AE0004BD0B04249D0404547D0484545D050450D
:100AF00043D0584541D09D4A183290423DD09C4A3F
:100B000090423AD09A4A1832904236D0984A3032BF
:100B1000904232D0964A483290422ED0944A603267
:100B200090422AD0924A7832904226D0904A90320F
:100B3000904222D08E4AA83290421ED08D4A9042D6
:100B40001BD08C4A1432904217D08A4A28329042E5
:100B500013D0884A3C3290420FD0864A503290429D
:100B60000BD0844A6432904207D0824A7832904255
:100B700003D0804A8C32974204D1206E026822F45E
:100B80008072026075492068884228D0A84226D029
:100B9000B04224D0404522D0484520D050451ED0F8
:100BA00058451CD071491831884218D07049884284
:100BB00015D06F491831884211D06D4930318842C3
:100BC0000DD06B494831884209D06949603188426B
:100BD00005D067497831884201D065499031016874
:100BE00021F0010101600EE001F0AAFA0099401A1B
:100BF000052808D9202262650321002084F83510D9
:100C000084F8340017E73868C007EDD1534A012152
:100C1000206890422ED0A8422CD0B0422AD0404525
:100C200028D0484526D0504524D0584522D04F4B97
:100C3000183398421ED04E4B98421BD04C4B183361
:100C4000984217D04A4B3033984213D0484B483320
:100C500098420FD0464B603398420BD0444B7833C8
:100C6000984207D0424B9033984203D0404BA83370
:100C7000984208D194F85C703F23A06D07F01F07DD
:100C8000BB40836007E094F85C30A06D03F01F0365
:100C900001FA03F34360206890424DD0A8424BD044
:100CA000B04249D0404547D0484545D0504543D053
:100CB000584541D02D4A183290423DD02C4A90429E
:100CC0003AD02B4A1832904236D0294A30329042DC
:100CD00032D0274A483290422ED0254A6032904284
:100CE0002AD0234A7832904226D0214A903290422C
:100CF00022D01F4AA83290421ED01E4A90421BD0DA
:100D00001C4A1432904217D01A4A2832904213D00B
:100D1000184A3C3290420FD0164A503290420BD0C3
:100D2000144A6432904207D0124A7832904203D07B
:100D3000104A8C3290420BD1D4E919024260E06E25
:100D400030B1026822F480720260D4E91C02426071
:100D5000002084F8351084F834006DE6100002405D
:100D6000580002407000024088000240A00002408B
:100D700010040240085402582DE9F05F28B190F8A1
:100D80003510022904D0802141650120BDE8F09F83
:100D9000904C904B0168183C18338E4ADFF83C9217
:100DA000A1428D4CDFF838E28E4FDFF83CB2DFF81D
:100DB0003CA28F4D8F4E31D091422FD099422DD0F1
:100DC000A1422BD0494529D0714527D0B94225D021
:100DD000DFF810C20CF1180C61451FD0DFF808C213
:100DE000ACF1600C614519D0DFF8FCC1ACF1480CE6
:100DF000614513D0DFF8F0C1ACF1300C61450DD086
:100E0000DFF8E4C1ACF1180C614507D0594505D0B5
:100E1000514503D0A94201D0B1422CD1DFF8B4C171
:100E20004FF0040880F83580ACF1180C61451DD0F6
:100E300091421BD0994219D0A14217D0494515D0F3
:100E4000714513D0B94211D06648183081420DD097
:100E500065486038814209D063484838814205D0EE
:100E600061483038814201D05F481838086820F066
:100E700001000860ABE0D1F800C02CF00E08DFF8EC
:100E800054C1C1F80080ACF1180C0168614527D04D
:100E9000914225D0994223D0A14221D049451FD06B
:100EA00071451DD0B9421BD0DFF838C10CF1180CC8
:100EB000614515D0DFF830C1ACF1600C61450FD051
:100EC000DFF824C1ACF1480C614509D0DFF818C146
:100ED000ACF1300C614503D0DFF80CC1ACF1180C5B
:100EE000D1F800C02CF0010CC1F800C0DFF8E4809C
:100EF0004FF0010C0168A8F11808414546D0914215
:100F000044D0994242D0A14240D049453ED071459B
:100F10003CD0B9423AD0334A1832914236D0324AA4
:100F2000603A914232D0304A483A91422ED02E4A0D
:100F3000303A91422AD02C4A183A914226D059454B
:100F400024D0514522D0A94220D0B1421ED02A4AF5
:100F500091421BD0284A1432914217D0264A283297
:100F6000914213D0244A3C3291420FD0224A50324F
:100F700091420BD0204A6432914207D01E4A783207
:100F8000914203D01C4A8C32914218D1016E0A68FA
:100F900022F480720A6090F85C20816D02F01F02DA
:100FA0000CFA02F24A60D0E919124A60C16E31B1FE
:100FB0000A6822F480720A60D0E91C124A6000229A
:100FC000016D80F835C080F8342001B188470020D9
:100FD000DCE6000028000240580002407000024099
:100FE00088000240A00002407004024088040240D1
:100FF000A0040240B8040240085402582DE9FC5FE6
:101000000446F74E0020DFF8D88300904FF41652C4
:10101000F44808F11808A56DDFF8C493DFF8C0A301
:10102000016809F1300920680AF1480AB1FBF2F1C0
:10103000B04201912F68D5F800C0DFF8ACB335D0CD
:101040004146884232D0484530D050452ED0584590
:101050002CD0E5491831884228D0E3493031884204
:1010600024D0E1494831884220D0E04988421DD04F
:10107000DE491831884219D0DC493031884215D018
:10108000DA494831884211D0DFF860E30EF1600E92
:1010900070450BD0D54A7832904207D0D34B90336D
:1010A000984203D0D149A83188427DD194F85C2080
:1010B000082102F01F0201FA02F23A424AD0B0427D
:1010C00032D0404530D048452ED050452CD05845E0
:1010D0002AD0C54A1832904226D0C34A30329042B4
:1010E00022D0C14A483290421ED0C04A90421BD002
:1010F000BE4A1832904217D0BC4A3032904213D0C8
:10110000BA4A483290420FD0B84A603290420BD06F
:10111000B64A7832904207D0B44A9032904203D017
:10112000B24AA832904203D1026802F0040202E0FF
:10113000026802F008026AB1026822F0040202604A
:1011400094F85C0000F01F008140A960606D40F0E1
:101150000100606594F85C00012100F01F008140EF
:10116000394240D02068B04234D0404532D0484562
:1011700030D050452ED058452CD09B4A1832904242
:1011800028D0994A3032904224D0974A483290422F
:1011900020D0964A90421DD0944A1832904219D0DD
:1011A000924A3032904200E0AFE113D08F4A483289
:1011B00090420FD08D4A603290420BD08B4A7832E9
:1011C000904207D0894A9032904203D0874AA83291
:1011D00090427DD1406910F0800F04D0A960606D0D
:1011E00040F00200606594F85C00042100F01F00EC
:1011F000814039423ED02068B04232D0404530D0A4
:1012000048452ED050452CD058452AD0764A183221
:10121000904226D0744A3032904222D0724A4832EC
:1012200090421ED0714A90421BD0704A18329042B0
:1012300017D06E4A3032904213D06C4A48329042F6
:101240000FD06A4A603290420BD0684A783290429E
:1012500007D0664A9032904203D0644AA832904246
:101260004ED1006810F0020F04D0A960606D40F00C
:101270000400606594F85C00102100F01F008140BC
:10128000394258D02068B04234D0404532D0484529
:1012900030D050452ED058452CD0534A1832904269
:1012A00028D0514A3032904224D04F4A483290429E
:1012B00020D04E4A90421DD04C4A1832904219D04C
:1012C0004A4A3032904215D0484A4832904200E0B3
:1012D00014E00FD0454A603290420BD0434A783236
:1012E000904207D0414A9032904203D03F4AA83200
:1012F000904207D1006800F0080006E0006872E73D
:101300000068B7E7006800F00400A0B1A960206899
:101310000168490304D50068000308D5A16C07E003
:101320000168C90503D4016821F008010160216C3E
:1013300009B12046884794F85C00202100F01F0086
:101340008140394279D02068B04232D0404530D017
:1013500048452ED050452CD058452AD0224A183224
:10136000904226D0204A3032904222D01E4A483243
:1013700090421ED01D4A90421BD01C4A1832904207
:1013800017D01A4A3032904213D0184A483290424D
:101390000FD0164A603290420BD0144A78329042F5
:1013A00007D0124A9032904203D0104AA83290429D
:1013B00003D1006800F0100002E0006800F00200B5
:1013C000B0B3A96094F835000428206801680FD0F4
:1013D00049037ED5006800032BD4616C2AE000002D
:1013E000100002402000002470000240100402405F
:1013F00021F0160101602068416921F080014161FE
:10140000206C08B9A06C20B12068016821F00801A7
:10141000016094F85C303F21012003F01F0300229B
:101420009940A96084F8350084F83420216D65E086
:1014300003E0E16B09B120468847606D00287DD04C
:10144000606DC00759D02068042184F83510B0427F
:101450002BD0404529D0484527D0504525D0584568
:1014600023D09D49884220D09B49183188421CD006
:1014700099493031884218D09849884215D0974907
:101480001831884211D09549303188420DD09349A6
:101490004831884209D091496031884205D08F494E
:1014A0007831884201D08D499031016821F00101E5
:1014B000016020680099019A491C0091914202D86C
:1014C0000168C907F6D10068C00710D003200FE0FB
:1014D000FFE70168C905ACD403680121002223F0AD
:1014E0001003036084F8351084F83420A1E701204C
:1014F00084F83500002084F83400E16C00291DD008
:1015000002B02046BDE8F05F0847754988421DD00B
:1015100073491431884219D071492831884215D055
:101520006F493C31884211D06D49503188420DD00D
:101530006B496431884209D0694900E084E0783120
:10154000884203D066498C3188427DD194F85C8012
:101550000427016808F01F0807FA08F717EA0C0FBC
:10156000009746D04F0744D500980F04686003D514
:10157000C8033CD4A16CC1E7880638D42068B042C7
:101580002DD055496039884229D0484527D050454B
:1015900025D0584523D05049884220D04E49183193
:1015A00088421CD04C493031884218D04B4988427F
:1015B00015D04A491831884211D048493031884203
:1015C0000DD046494831884209D0704507D0904235
:1015D00005D0984203D04149A831884203D101681F
:1015E00021F0080102E0016821F004010160216C92
:1015F00084E7022707FA08F717EA0C0F00974ED086
:101600008F074CD500980F04686003D5C80344D4F5
:10161000616C73E7880640D42068B0422FD02E4911
:10162000603988422BD0484529D0504527D05845AD
:1016300025D02949884222D02749183188421ED016
:1016400025493031884200E044E018D023498842DF
:1016500015D022491831884211D0204930318842B2
:101660000DD01E494831884209D0704507D09042BC
:1016700005D0984203D01949A831884203D10168A6
:1016800021F0140102E0016821F00A01016001214A
:1016900084F83510002084F83400E16B2EE708222E
:1016A00002FA08F212EA0C0F14D0090712D50168E9
:1016B00021F00E01016094F85C100120002201F07D
:1016C0001F0100FA01F16960606584F8350084F853
:1016D000342012E7BDE8FC9F88000240100402405D
:1016E000085402582DE9F05F044600F029FD002C53
:1016F00007467DD0E34E022120684FF00308DFF853
:1017000088934FF00005DFF884A3B042DFF880B380
:1017100034D0DC4A1832904230D048452ED0504563
:101720002CD058452AD0DA4A1832904226D0D84ACE
:101730003032904222D0D64A483290421ED0D54A0A
:1017400090421BD0D34A1832904217D0D14A30323F
:10175000904213D0CF4A483290420FD0CD4A6032E7
:1017600090420BD0CB4A7832904207D0C94A90328F
:10177000904203D0C74AA83290427DD184F83510F8
:10178000B04284F834502ED0BE49183188422AD055
:10179000484528D0504526D0584524D0BC4918315A
:1017A000884220D0BA49303188421CD0B8494831EB
:1017B000884218D0B749884215D0B64918318842B6
:1017C00011D0B449303188420DD0B24948318842F5
:1017D00009D0B0496031884205D0AE49783188429D
:1017E00001D0AC499031016821F00101016008E0AD
:1017F00027E100BF00F0A4FCC01B052801D920216F
:101800001CE120680068C007F4D104F108002168D9
:10181000D4E9053C8E4685C809681043D4E90728F9
:101820001F43636A38439C4F40EA0C001043394021
:1018300040EA0800042B40EA010003D1D4E90B126E
:1018400011430843954909686FF30F01B1F1005F37
:101850000FD36168A1F12902052A08D9163A032A93
:1018600005D9083A012A02D94F39032901D840F491
:101870008010CEF8000000E023E02068676A40692D
:10188000042F20F0070047EA00070DD1D4E90A0130
:10189000074349B12046FEF7F1FE28B140206065BC
:1018A000012184F83510CCE0206847612046FEF71E
:1018B00003FE94F85C203F2102F01F0291408160FA
:1018C00054E0774A90421BD0754B1433984217D09E
:1018D000734B2833984213D0714B3C3398420FD04E
:1018E0006F4B503398420BD06D4B6433984207D006
:1018F0006B4B7833984203D0694B8C3398427DD13F
:1019000084F8351084F83450664B0168A26801EA07
:10191000030E402A73D0802A72D00022D4E90378C3
:10192000D4E9053142EAD70242EAD8085C4AD4E950
:10193000077C48EAD30848EAD10141EAD70152427C
:1019400041EA1C11142341EA0E0101602068104491
:10195000B0FBF3F08000E0652046FEF7ADFD94F8A3
:101960005C20012102F01F02914041602068B042DA
:1019700057D044491831884253D0484551D050453A
:101980004FD058454DD042491831884249D040493E
:101990003031884245D03E494831884241D03D49A6
:1019A00088423ED03B49183188423AD039493031DB
:1019B000884236D037494831884232D03549603183
:1019C00088422ED03349783188422AD0314990312B
:1019D000884226D02F49A831884222D030498842F7
:1019E0001FD02F49143188421BD02D4928318842FD
:1019F00017D02B493C31884213D002E01DE017E09C
:101A000018E02749503188420BD02549643188427B
:101A100007D023497831884203D021498C3188424C
:101A200029D12046FEF7A2FDA06880280CD00CE04A
:101A3000102273E74FF4804270E74021616584F81B
:101A400035800120BDE8F09F6560216E2079086037
:101A5000D4E9190141606068401E072808D8204673
:101A6000FEF7D2FDE06E0560D4E91C01416002E0A2
:101A7000E566256765670120656584F83500002007
:101A8000E0E7000010000240400002405800024021
:101A900070000240100402403F8010FE0010005C05
:101AA000085402580F00FEFF7047704770B5044697
:101AB000006800F58050D0F8601149060AD5D0F8CA
:101AC0003411490606D548F24001C0F8601120469D
:101AD00000F0D5F9206800F58050D0F86011C907F2
:101AE0000AD0D0F83411C90706D048F20101C0F875
:101AF0006011204600F000FA2068E02600F58050D2
:101B0000D0F8601149042AD5D0F83411490426D5FB
:101B1000D4F8881041F00801C4F88810D0F860119A
:101B2000C9040FD5D0F8601141F202121140C4F877
:101B30008C10D0F8341121F44041C0F83411C4F8AD
:101B4000846009E0D0F860214FF4CD4102F4CD4229
:101B5000C4F88C20C0F860112046FFF7A6FF21686A
:101B60000025D1F8B400420401D4800410D5D4F883
:101B7000880040F01000C4F88800D1F8B800C4F81C
:101B80009000C4F884602046FFF78FFFC4F890509F
:101B90002068D0F8B010C9060AD5D0F8C00000F00F
:101BA0006000C4F89400204600F068F9C4F894502E
:101BB0002068D0F8B01089060AD5D0F8C00000F02F
:101BC0000F00C4F898002046FFF76EFFC4F8985045
:101BD0004FF0B040D0F8A810490206D54FF480016C
:101BE000C0F8A810204600F088F970BDF8B50400D0
:101BF00003D0D4F8840010B107E00120F8BD232001
:101C0000C4F88400204600F0C5F85F48016841F040
:101C100002010160006800F002000090207A08B123
:101C20004FF4000001F004FF58492068096800F5EE
:101C30008050016841F00101016000F081FAE02666
:101C400005464FF4FA7706E000F07AFA401BB842F6
:101C500001D9042023E0206800F580500068C00707
:101C6000F2D1204600F00CF901F03EFB484A216811
:101C7000B0FBF2F0401EC1F8DC002046FEF730FD5C
:101C8000206800F58050D0F8001121F4E01141F4F3
:101C90000021C0F800116169880705D00120C4F84F
:101CA0008800C4F88460A8E7206847F6FE7300F552
:101CB0008050D0F808219A4342EA4101C0F8081147
:101CC00000210846E26800EB400504EB800302EBCC
:101CD000C502116051609160D160401C04289A6176
:101CE000F0D3A1620323206800F58050C0F82C31A6
:101CF0002068E26800F58050C0F814212068E2688E
:101D000000F58050C0F820215FF00002206902EB4E
:101D1000420604EB820500EBC60001604160816071
:101D2000C160521C0161042A4161A864EED3E165DF
:101D30002166A166E166A165206800F58050C0F8C3
:101D400030312068226900F58050C0F81C212268DB
:101D5000206902F580524830C2F828011022D4E9E7
:101D600000308088C3F80003D4E900300578D0F84B
:101D7000010045EA0020C3F80403C4F88810C4F841
:101D800084200020F8BD0000F444025804040058E8
:101D900040420F0070B586B0044614216846FEF735
:101DA00041FB3149206888425CD13048016841F4E8
:101DB00000410160016801F400410591016841F4AE
:101DC00080310160016801F480310591016841F4BE
:101DD00000310160006800F40030059023480830AD
:101DE000016841F004010160016801F004010591FE
:101DF000016841F001010160016801F001010591F4
:101E0000016841F002010160006800240B26694668
:101E100000F0020005903220009002251448CDE920
:101E20000154CDE9034600F069F886200090CDE921
:101E3000015410486946CDE9034600F05FF84FF4BD
:101E400060500090CDE901540B486946CDE9034646
:101E500000F054F8002205213D2000F061FA3D20F9
:101E600000F050FA06B070BD00800240D84402581D
:101E700000080258000002580004025870477047DA
:101E800070B505460068D0F8000220F4706401F0D7
:101E90002BFA1149114A0144914202D244F40074D0
:101EA00016E00F4A0F4902448A4202D244F44074B9
:101EB0000EE00D4A0D4902448A4209D30C4A0D49ED
:101EC0001044884202D244F4807401E044F48064F7
:101ED0002868C0F8004270BD00D3CEFEC0E1E40027
:101EE00040F1E9FD40787D0100796CFC005A620206
:101EF000001F0AFA80F0FA02704770472DE9F84F88
:101F000003247D4D00234FF001094FF0B04B4FF0FB
:101F10000F0AE9E009FA03F73A4076D00E7906F0A5
:101F20000306012E01D0022E18D1D0F808C04FEAC6
:101F3000430ECE6804FA0EF82CEA080C06FA0EF6E8
:101F400046EA0C068660D0F804C00E792CEA070C2D
:101F5000C6F300169E4046EA0C0646600E79F6432C
:101F6000B6070BD0C6684FEA43088F6804FA08FC2E
:101F700026EA0C0607FA08F73743C7600E7906F021
:101F80000306022E12D1DE080F694FEA437C00EBF4
:101F90008606B646366A4FEADC6C0AFA0CF807FA8F
:101FA0000CF726EA08063743CEF820700F7906684A
:101FB0004FEA430807F0030704FA08FC07FA08F79A
:101FC00026EA0C06374307604E6816F4403F1CD0E3
:101FD0004A4E376847F00207376036689F0706F0B9
:101FE0000206009623F0030606F1B046B6463F0F00
:101FF000D6F80864DFF808810AFA07FC404526EAAB
:102000000C0603D14FF0000C41E06CE0DFF8F4C0A7
:10201000604502D14FF0010C39E0DFF8ECC06045BB
:1020200002D14FF0020C32E0DFF8E0C0604502D18F
:102030004FF0030C2BE0DFF8D8C0604502D14FF021
:10204000040C24E0DFF8CCC0604502D14FF0050C51
:102050001DE0DFF8C4C0604502D14FF0060C16E069
:10206000DFF8B8C0604502D14FF0070C0FE0DFF891
:10207000B0C0604502D14FF0080C08E0DFF8A4C002
:10208000604502D14FF0090C01E04FF00A0C0CFA48
:1020900007FC4CEA060CCEF808C44F68DBF8006079
:1020A000FF0226EA020600D516435F46CBF8006021
:1020B000D1F804C0DBF804605FEA8C2C26EA020643
:1020C00000D516437E606E684F6826EA0206BF039D
:1020D00000D516436E602E684F6826EA0206FF039D
:1020E00000D516432E605B1C0A6832FA03F67FF4B3
:1020F00011AFBDE8F88F000080000058F44402588A
:10210000000002580004025800080258000C02584F
:10211000001002580014025800180258001C0258FF
:1021200000200258002402580AB181617047090456
:10213000FBE7000001480068000C70470010005CDD
:10214000014880687047000014000024024881683C
:10215000027811448160704714000024032010B5F8
:1021600000F0FEF801F006F90F4A104914681368F0
:10217000C4F3032203F00F038A5CC95C02F01F0260
:1021800001F01F01D0400A4A20FA01F1116009490B
:1021900008600F2000F010F808B1012010BD00F019
:1021A0009FF8002010BD000018440258E45C0008AD
:1021B000240000242000002410B5102804468AB012
:1021C0002CD200220146372000F0AAF8372000F078
:1021D00099F8174804601748016841F02001016030
:1021E000006809A900F020000890684601F04EF848
:1021F0000598B0B101F09AF840000F4900220F4C49
:10220000B0FBF1F10E4840F2E7330460C0E903325D
:10221000491EC0E9011201F018FC28B101200AB0E2
:1022200010BD01F083F8E8E7054801F041FCF6E74E
:1022300018000024E844025840420F0000140040F7
:1022400050050024F0B5154C4378211D0A1D23606C
:102250000378F3B143680B60057BC67A817A437BD0
:102260002D07847B45EA0665C77B90F809C0067A8E
:1022700090F800E045EAC14040EA834040EA44402B
:1022800040EA074040EA0C2040EA460040EA0E00DF
:1022900001E0002008601060F0BD000098ED00E053
:1022A000BFF35F8F044800210368034A23F480339F
:1022B000036070321160704724ED00E0074A40F07F
:1022C0000100064970321060086840F480300860F0
:1022D000BFF34F8FBFF36F8F7047000024ED00E016
:1022E000074882B0016841F00201016000680022E5
:1022F0000F2100F002000090901E02B000F010B814
:10230000F4440258002809DB410900F01F0289004B
:10231000012001F1E0219040C1F800017047000068
:102320000E4BF0B41B680D46C3F30223C3F107063E
:10233000042E00D90426191D072901D2002300E02C
:10234000DB1E012404FA06F19C40491E2940641E4C
:10235000994014402143F0BC02F0ABBE0CED00E00C
:10236000064900F0070210B54FF6FF040868044B59
:10237000204040EA02201843086010BD0CED00E048
:102380000000FA05134970B50A68D243520705D513
:10239000096801F00701814213D118E00A6822F0B0
:1023A000070202430A60FFF7CBFE0A4D4FF47A762C
:1023B0000446083D07E000BFFFF7C2FE001BB04225
:1023C00001D9012070BD2868C0438004F4D40020E6
:1023D00070BD00000C48025810B500F085FF05499B
:1023E0000968054AC1F30211515C01F01F01C840A0
:1023F00010BD000020440258E45C0008494930B593
:10240000484C0B1D0A68143409681D68246802F0E2
:102410000303C5F30012C1F30531C4F3CC04002952
:1024200014FB02F200EE102AF8EE400A75D03F4A83
:102430009FED3D1AB7EE000A6BB1DFED3D1A012B9F
:1024400001D0022B64D002EE101A1168F8EE422A75
:1024500081EEA22A21E0334C283C23689B0612D54A
:10246000344B246801EE901A1168C4F3C104F8EEED
:10247000612AE34001EE903AC1F30801F8EE611AD7
:1024800081EEA22A0BE001EE901ADFED2B2A00BFAD
:10249000F8EE611A116882EEA12AC1F3080101EE7B
:1024A000901A1168F8EE611A40EE811A71EE800AF6
:1024B00062EE200AC1F3462101EE101AB8EE411A6D
:1024C00031EE001AC0EE811ABCEEE11A80ED001A5E
:1024D0001168C1F3064101EE101AB8EE411A31EE4F
:1024E000001AC0EE811ABCEEE11A80ED011A1168E3
:1024F000C1F3066101EE101AB8EE411A31EE000A7E
:1025000080EE801ABCEEC10A80ED020A30BD04E004
:1025100001EE901ADFED092ABAE70021016041605F
:102520008160F3E72844025800000039384402581B
:102530000024744A0090D0030024744C20BCBE4B8D
:10254000494930B5484C0B1D0A681C3409681D68A0
:10255000246802F00303C5F30022C1F30551C4F35C
:10256000CC04002914FB02F200EE102AF8EE400A17
:1025700075D03F4A9FED3D1AB7EE000A6BB1DFED13
:102580003D1A012B01D0022B64D002EE101A116803
:10259000F8EE422A81EEA22A21E0334C283C23683F
:1025A0009B0612D5344B246801EE901A1168C4F3CF
:1025B000C104F8EE612AE34001EE903AC1F308014C
:1025C000F8EE611A81EEA22A0BE001EE901ADFED1F
:1025D0002B2A00BFF8EE611A116882EEA12AC1F31E
:1025E000080101EE901A1168F8EE611A40EE811AA6
:1025F00071EE800A62EE200AC1F3462101EE101A44
:10260000B8EE411A31EE001AC0EE811ABCEEE11AA2
:1026100080ED001A1168C1F3064101EE101AB8EE00
:10262000411A31EE001AC0EE811ABCEEE11A80EDBB
:10263000011A1168C1F3066101EE101AB8EE411AD1
:1026400031EE000A80EE801ABCEEC10A80ED020A6B
:1026500030BD04E001EE901ADFED092ABAE700214F
:10266000016041608160F3E72844025800000039AE
:10267000404402580024744A0090D0030024744C53
:1026800020BCBE4B2DE9FE4F0546DFF8E48350F831
:10269000081B0024F64FC943019005F12800264687
:1026A00008F12408009008011DD4A86E50B1B0F5BF
:1026B000801F0CD0B0F5001F0ED0B0F5401F1ED00B
:1026C00001240FE0386840F40030386017E00198CA
:1026D000022101F02DFF03E00098022101F0B8FF74
:1026E00004000CD026462888C043C00523D4A86D1A
:1026F00005281ED2DFE800F00C11161B1B00AA6E85
:10270000D8F8001021F440111143C8F80010EAE78E
:10271000386840F40030386009E00198002101F089
:1027200007FF03E00098002101F092FF044674B116
:1027300000E0012426462888C043800528D4E86D9F
:1027400080281ED00CDC90B140280ED114E0AA6D78
:10275000D8F8001021F007011143C8F80010EAE78B
:10276000C02813D0B0F5807F10D001240FE0386866
:1027700040F40030386009E00198002101F0D8FEF3
:1027800003E00098002101F063FF04469CB1264657
:102790002888DFF8DC92C04309F12C0940052CD4CD
:1027A000D5F8A800B0F5800F20D00DDCA0B1B0F5B1
:1027B000001F0FD115E0EA6DD8F8001021F4E07188
:1027C0001143C8F80010E3E7B0F5C00F13D0B0F51F
:1027D000000F10D001240FE0386840F4003038605A
:1027E00009E00198002101F0A3FE03E00098002118
:1027F00001F02EFF04467CB126462888C043000520
:102800002DD4D5F8AC00B0F1007F21D00EDCA8B1FA
:10281000B0F1807F10D116E0D5F8A820D9F80010CB
:1028200021F460011143C9F80010E6E7B0F1407FE0
:1028300013D0B0F1806F10D001240FE0386840F45D
:102840000030386009E00198002101F071FE03E0DA
:102850000098002101F0FCFE044674B12646286869
:10286000C04380011FD4E86CD8B110280FD02028B5
:1028700012D0302815D0012414E0D5F8AC20D9F8B6
:10288000001021F0E0611143C9F80010E7E7386853
:1028900040F40030386004E00198022101F048FE65
:1028A000044674B126462888C043C0042BD4286E41
:1028B000B0F5005F20D00DDCA0B1B0F5805F0FD186
:1028C00015E06B48EA6C2030016821F030011143BB
:1028D0000160E8E7B0F5405F13D0B0F5804F10D04D
:1028E00001240FE0386840F40030386009E00198B6
:1028F000002101F01DFE03E00098002101F0A8FE78
:1029000004468CB126462888C043800429D4686ECA
:10291000B0F5403F23D010DC08B3B0F5803F14D0B1
:10292000B0F5003F0FD115E02A6ED8F8001021F461
:10293000E0411143C8F80010E5E7B0F5802F0ED054
:10294000B0F5A02F0BD001240AE00198012101F07D
:10295000EFFD03E00098012101F07AFE044694B1F6
:1029600026462888C04340042AD4D5F8B000B0F1E8
:10297000405F23D010DC08B3B0F1805F14D0B0F119
:10298000005F0FD115E06A6ED8F8001021F4E02145
:102990001143C8F80010E4E7B0F1804F0ED0B0F159
:1029A000A04F0BD001240AE00198012101F0C0FDE5
:1029B00003E00098012101F04BFE044674B1264665
:1029C0002888C04300041FD4286FD8B1B0F1805FBD
:1029D0000ED0B0F1005F10D0012414E0D5F8B02083
:1029E000D9F8001021F0E0411143C9F80010E7E7E1
:1029F000386840F40030386004E00198012101F0AB
:102A000097FD044674B126462868C043C0011ED411
:102A1000A86CD0B101280ED0022811D0032814D000
:102A2000012413E02A6FD8F8001021F0405111431F
:102A3000C8F80010E8E7386840F40030386004E077
:102A40000198022101F074FD0446ACB126462868C5
:102A5000DFF81CB0C043ABF11C0B400252D4054858
:102A6000016841F480710160FFF76AFB824611E062
:102A70002C44025800480258FA48AA6C016821F018
:102A8000030111430160E2E7FFF75AFBA0EB0A00E4
:102A9000642835D8F4480068C005F5D58CBBDFF84C
:102AA000C4A3B5F8B4100AF1240ADAF8000001F45E
:102AB000407100F44070884211D0DAF80010DAF862
:102AC000002021F4407142F48032CAF80020DAF884
:102AD000002022F48032CAF80020CAF80010D5F88D
:102AE000B400B0F5807F1AD1FFF72AFB029012E004
:102AF000FFF726FB0299411A41F2883081420AD938
:102B0000032426462878DFF85CA3C0430AF1080AAC
:102B1000C00721D03CE0DAF800008007E8D5D5F8FE
:102B2000B410C1F30120032858460DD0016821F4E8
:102B30007C510160B5F8B420DAF80010C2F30B0242
:102B40001143CAF80010DDE7C84A036802EA11120F
:102B500023F47C511143ECE7E86F182816D005DC0C
:102B6000A0B1082808D0102804D10AE020280DD0F0
:102B700028280BD001240AE00198012101F0D8FC9B
:102B800003E00098012101F063FD044664B126468C
:102B90002878C04380071ED4A86F062819D2DFE822
:102BA00000F0160C11161616EA6FDAF8001021F074
:102BB00038011143CAF80010EAE70198012101F039
:102BC000B7FC03E00098012101F042FD04467CB10E
:102BD00000E0012426462878C04340071FD4D5F8DA
:102BE0009400062819D2DFE800F0160C111616160C
:102BF000AA6FDAF8001021F007011143CAF800109B
:102C0000E9E70198012101F093FC03E0009801211C
:102C100001F01EFD0446A4B100E0012426462878F8
:102C2000C04380062BD4D5F89000B0F1405F24D08B
:102C300011DC10B3B0F1805F15D0B0F1005F10D19E
:102C400016E0D5F89420D9F8001021F007011143BF
:102C5000C9F80010E3E7B0F1804F0ED0B0F1A04FFB
:102C60000BD001240AE00198002101F061FC03E08F
:102C70000098022101F0ECFC044694B12646287825
:102C8000C04340062BD4D5F89C00B0F5406F24D04B
:102C900011DC10B3B0F5806F15D0B0F5006F10D116
:102CA00016E0D5F89020DAF8001021F0E041114349
:102CB000CAF80010E3E7B0F5805F0ED0B0F5A05F72
:102CC0000BD001240AE00198002101F031FC03E05F
:102CD0000098022101F0BCFC044694B126462878F5
:102CE000C04300062BD4D5F8A000B0F5C04F24D0C7
:102CF00011DC10B3B0F5005F15D0B0F5804F10D1E6
:102D000016E0D5F89C20D9F8001021F4E0511143C9
:102D1000C9F80010E3E7B0F5004F0ED0B0F5204F32
:102D20000BD001240AE00198002101F001FC03E02E
:102D30000098022101F08CFC044654B12646287804
:102D4000C04300071ED4D5F88400B0F5805F0AD0D8
:102D50000FE0D5F8A020D9F8001021F4604111430C
:102D6000C9F80010EBE70098022101F071FC00B1F6
:102D70000126D5F88420DAF8001021F440511143DF
:102D8000CAF800102878C043C00613D4D5F89800BC
:102D9000B0F5807F05D10098022101F059FC00B107
:102DA0000126D5F89820D9F8001021F4407111437C
:102DB000C9F800102868C043000316D4D5F8A40051
:102DC00038B1B0F5803F09D0B0F5003F0BD00124F9
:102DD0000AE00198002101F0ABFB03E0009802211A
:102DE00001F036FC04468CB126462868C0434003F7
:102DF00022D4D5F88800B0F5801F11D0B0F5001F9F
:102E000013D0B0F5401F15D0012414E0D5F8A4204C
:102E1000D9F8001021F440311143C9F80010E4E75B
:102E2000386840F40030386004E00098012101F077
:102E30000FFC04465CB126462868C043C00323D477
:102E4000286DA8B1B0F5803F17D001241BE0D5F85C
:102E50008820DAF8001021F440111143CAF800105C
:102E6000EAE700004C44025800480258CFFFFF0038
:102E7000386840F40030386004E00198022101F025
:102E800057FB0446E4B126462868C043800005D4B9
:102E90000098022101F0DCFB00B101262868C04344
:102EA00080031BD4D5F88000B0B1B0F5807F0FD07F
:102EB000B0F5007F10D0B0F5407F0DD001240CE0BC
:102EC0005A482A6D016821F4803111430160DBE723
:102ED000386840F400303860ECB326462868C043B8
:102EE000C00207D46A6FD8F8001021F000411143E6
:102EF000C8F800102868C043C00008D4D5F8B8202E
:102F0000DBF8001021F480411143CBF80010286851
:102F1000C043800207D4EA6ED8F8001021F0807117
:102F20001143C8F800102868C04340000CD4DBF8F7
:102F3000001021F40041CBF80010DBF80010D5F8A8
:102F4000BC201143CBF800102868C04308D4374890
:102F50006A6D016800E018E021F040511143016002
:102F60002868C043000208D4D5F88C20DAF8001095
:102F700021F440011143CAF8001028790024C0430D
:102F800000F0010020430AD00FE0D5F88020DAF8E5
:102F9000001021F440711143CAF800109EE7019817
:102FA000002101F0C5FA00B106462879C04300F0BF
:102FB0000200204305D10198012101F0B9FA00B1C6
:102FC00006462879C04300F00400204305D101984B
:102FD000022101F0ADFA00B106462879C04300F0A5
:102FE0000800204305D10098002101F031FB00B119
:102FF00006462879C04300F01000204305D1009810
:10300000012101F025FB00B106462879C04300F0FC
:103010002000044304D10098022101F019FB00B9FB
:1030200016B10120BDE8FE8F0020FBE74C4402589A
:103030002DE9F05F04000F467ED0DFF83882D8F823
:10304000000000F00F00B8420CD2D8F8001021F0B8
:103050000F013943C8F80010D8F8000000F00F0045
:10306000B84269D12078844D40070AD52069296883
:1030700001F07001884204D9296821F070010143F0
:10308000296020787C4E361D00070AD560693168BA
:1030900001F07001884204D9316821F070010143C8
:1030A00031602078C0060AD5A069316801F4E0617A
:1030B000884204D9316821F4E0610143316020780D
:1030C000DFF8B4B180060BF1080B0CD5E169584666
:1030D000DBF8002002F07002914204D9026822F06D
:1030E00070020A430260207880070AD5E0682968E8
:1030F00001F00F01884204D9296821F00F01014332
:1031000029602078C0073ED05B49A268286818393A
:1031100020F47060104328606068022818D00328EB
:1031200019D00968012819D0490700294ADADFF8BF
:1031300048A1AAF1080A00E044E0DAF8002022F0F1
:1031400007020243CAF80020FEF7FAFF814612E0A8
:1031500009688903E9E709688901E6E7C905E4E741
:10316000FEF7EEFFA0EB090141F28830814202D95F
:103170000320BDE8F09F6168DAF8000000F0380035
:10318000B0EBC10FECD1207880070AD5E068296840
:1031900001F00F01884204D2296821F00F01014398
:1031A0002960D8F80010404601F00F01B9420BD950
:1031B000016821F00F0139430160006800F00F0041
:1031C000B84201D00120D4E7207840070AD5206911
:1031D000296801F07001884204D2296821F0700149
:1031E00001432960207800070AD56069316801F041
:1031F0007001884204D2316821F0700101433160CE
:103200002078C0060AD5A069316801F4E0618842DF
:1032100004D2316821F4E0610143316020788006F6
:103220000CD5E1695846DBF8002002F070029142AB
:1032300004D2026822F070020A43026000F09AF899
:103240000E492A682B68C2F3032203F00F038A5C3D
:10325000C95C02F01F0201F01F01D040084A20FAA9
:1032600001F111600749086007480068BDE8F05F98
:10327000FEF7A2BF0020005218440258E45C000888
:1032800024000024200000241800002470B5144CF1
:103290003F220260124A24680832131D114D04F0C7
:1032A0000704446016681C1D06F470668660166884
:1032B00006F00F06C660126802F0700202611A681A
:1032C00002F0700242611A6802F4E06282612268D0
:1032D00002F07002C261286800F00F00086070BD43
:1032E000104402580020005230B500F043F80B4A59
:1032F0000B490C4B15681468C5F3032204F00F0446
:103300008A5C095D02F01F0201F01F01D040064AED
:1033100020FA01F119601060084630BD18440258C7
:10332000E45C0008240000242000002400B5FFF71E
:10333000DBFF05490968054AC1F30211515C01F040
:103340001F01C84000BD00001C440258E45C000896
:1033500000B5FFF7C9FF05490968054AC1F3022115
:10336000515C01F01F01C84000BD00001C44025820
:10337000E45C0008454970B545480968434B103B7B
:1033800011F0380208D00111082A03D0102A0BD0FE
:10339000182A0BD0084670BD19688906FBD5196834
:1033A000C1F3C101C84070BD3A4870BD3749374DBF
:1033B00018310C1D24350A68096826682D6802F04A
:1033C000030406F00102C1F30511C5F3CC0515FB9A
:1033D00002F200EE102AB8EE400AE9B32F4ADFED00
:1033E0002E0AB7EE001A6CB1DFED2D1A012C01D0B8
:1033F000022C43D002EE101A1068F8EE422A81EE39
:10340000A22A1EE01C68A40611D51B6801EE901AC2
:103410001168C3F3C103F8EE612AD84001EE900AA7
:10342000C1F30800F8EE611A81EEA22A0BE001EE6A
:10343000901ADFED1C2A00BFF8EE611A106882EEC8
:10344000A12AC0F3080001EE900AF8EE611A40EEDE
:10345000201A31EE810A00E015E022EE000A106821
:10346000C0F34620401C00EE900AF8EE600A80EEA1
:10347000201ABCEEC10A10EE100A70BD01EE901ABF
:10348000DFED092AD8E7002070BD00001044025883
:103490000090D00340787D0100000039304402588C
:1034A0000024744A0024744C20BCBE4B2DE9F05F0C
:1034B00004007DD0FF4F2078FE4D1837DFF8F493DD
:1034C000103DC00748D0D9F80000396800F0380036
:1034D000102815D0182803D101F0030002280FD0BE
:1034E0006068B0F5803F12D010B1B0F5A02F18D0B1
:1034F000286820F480302860286820F4802009E0C3
:103500002868800328D560680028D2D024E0286885
:1035100040F480302860606888B1FEF711FE0646EE
:1035200009E0286840F480202860F0E7FEF708FEF4
:10353000801B64286FD828688003F7D50CE0FEF75D
:10354000FFFD064605E000BFFEF7FAFD801B64287C
:10355000F0D828688003F7D4207841F20308D54ECC
:103560000C3E800769D5D9F80000396810F03800A2
:103570000ED0182801D188070AD0E06890B32968D6
:1035800021F0190101432960FEF7DAFD824631E09E
:103590002868400702D5E06800288AD0E1682868DA
:1035A00020F0190008432860FEF7CAFD824607E0B4
:1035B000DFE000BFFEF7C4FDA0EB0A000228B9D887
:1035C00028684007F6D500BFFEF7B4FD40451BD87C
:1035D0002069402812D0316821F47C3141EA003062
:1035E00030602AE018E000BFFEF7AAFDA0EB0A0059
:1035F00002289FD828684007F6D5E5E7306820F410
:103600007C3040F40030EBE7207C316821F0FE4153
:1036100041EA0060E4E70DE1286820F0010028603D
:10362000FEF78EFD824605E0FEF78AFDA0EB0A005C
:1036300002288DD828684007F6D42078C0065DD5CA
:10364000D9F80000DFF86CB2396800F03800ABF14F
:10365000040B082810D0182803D101F0030001281A
:103660000AD0E0690028286838D040F0800028603F
:10367000FEF766FD824623E02868C00523D5E06991
:10368000802876D11FE0206A202821D0316821F0DF
:10369000F84141EA8060306030E000BF94F82010CB
:1036A000DBF8002022F07C5242EA0161CBF80010E6
:1036B00024E000BFFEF744FDA0EB0A00022898D8E2
:1036C0002868C005F6D5FEF735FD4045E6D8DAE7AF
:1036D000306820F0F84040F08040DCE720F08000C7
:1036E0002860FEF72DFD064605E000BFFEF728FD29
:1036F000801B02289DD82868C005F7D420780007D1
:1037000029D56C486169643000298046016811D070
:1037100041F001010160FEF713FD064605E000BF20
:10372000FEF70EFD801B0228C9D8D8F800008007DC
:10373000F6D510E021F001010160FEF701FD06461B
:1037400005E000BFFEF7FCFC801B022872D8D8F809
:1037500000008007F6D42078800623D5A0690028D1
:10376000286810D040F480502860FEF7E9FC064637
:1037700005E036E1FEF7E4FC801B02285AD82868F1
:103780008004F7D50EE020F480502860FEF7D8FCC6
:10379000064604E0FEF7D4FC801B02284AD82868BD
:1037A0008004F7D4207840074FD5DFF80C81D8F893
:1037B000001041F48071C8F80010FEF7C1FC064605
:1037C00005E000BFFEF7BCFC801B642832D8D8F8A7
:1037D0000000C005F6D5374EA068603601280AD033
:1037E00008B1052813D0306820F00100306030683F
:1037F00020F0040002E0306840F001003060A06872
:1038000041F2883A90B1FEF79BFC80460AE03068AE
:1038100040F004003060EEE7FEF792FCA0EB0801F8
:10382000514507D830688007F6D50EE0FEF788FCD2
:10383000804607E084E000BFFEF782FCA0EB0801B1
:1038400051457DD830688007F6D4606AB0B3DFF8A0
:103850006480D9F8001008F120084FF6F87B08F1D1
:103860000409C1F3C2010329A8F1040A69D002289E
:10387000286820F08070286003D0FEF761FC0446C1
:1038800084E0FEF75DFC064605E000BFFEF758FC4D
:10389000801B022877D828688001F7D4E26A40F2BA
:1038A000F331386854F8283F884340EA021018433F
:1038B000386004E01044025800480258B5E0217B0B
:1038C000434622894FF4FE0C208A4FF0FE474902FE
:1038D000267D521E401EA1F50071C2F308088AB26F
:1038E000761E0CEA004042EA08020243504607EA0C
:1038F00006610A431A60DAF8002022F00102CAF8D1
:103900000020D9F80020266A22EA0B0242EAC60209
:10391000C9F80020DAF80010A26921F00C01114367
:10392000CAF800100168E26921F002011143016048
:10393000016841F480310160016841F4003101E027
:1039400021E027E00160016841F480210160016805
:1039500041F001010160286840F080702860FEF7A6
:10396000EFFB044605E000BFFEF7EAFB001B022860
:1039700009D828688001F7D557E000BFFEF7E0FBC3
:10398000001B022802D90320BDE8F09F28688001AF
:10399000F4D44AE039680128D8F8000021D0A26A9E
:1039A00001F0030393421CD1E26AC1F305118A427C
:1039B00017D1216BC0F30802491E8A4211D1616BF5
:1039C000C0F34622491E91420BD1A16BC0F30642BF
:1039D000491E914205D1E16BC0F30660491E814248
:1039E00001D00120D0E7A16C4E46D9F80000C0F309
:1039F000CC00814219D0DAF80000554620F00100D1
:103A0000CAF80000FEF79CFB4FEA0007FEF798FBA0
:103A1000B842FBD0A26C306820EA0B0040EAC2003A
:103A20003060286840F0010028600020ACE700000A
:103A300003490A6822F4600202430A6070470000EA
:103A40000404005870477047704710B5040003D055
:103A500094F83D0010B107E0012010BD002084F86B
:103A60003C00204600F022F8022084F83D00206847
:103A7000211D00F089FF012084F8480084F83E00F1
:103A800084F83F0084F8400084F8410084F8420044
:103A900084F8430084F8440084F8450084F8460024
:103AA00084F8470084F83D00002010BD70470000F6
:103AB00090F83D10012901D001207047174A0221DA
:103AC00080F83D100168CB6843F00103CB600068CB
:103AD000904214D0B0F1804F11D0114988420ED0DD
:103AE000104988420BD01049884208D00F498842BB
:103AF00005D00F49884202D00E49884207D181681B
:103B00000D4A1140062906D0B1F5803F03D0016867
:103B100041F00101016000207047000000000140F9
:103B20000004004000080040000C00400004014078
:103B3000001800400040014007000100704770B5C8
:103B40000446006800250169C943890715D4C16886
:103B5000C943890711D4EA1E026101212177206837
:103B600080698007204602D0FFF7E8FF04E000F0FC
:103B7000A7F8204600F0A5F8257720680169C94319
:103B8000490717D4C168C943490713D402216FF00C
:103B90000402026121772068806910F4407F20468A
:103BA00002D0FFF7CBFF04E000F08AF8204600F0D7
:103BB00088F8257720680169C943090716D4C168C8
:103BC000C943090712D404216FF00802026121776A
:103BD0002068C0698007204602D0FFF7AFFF04E0ED
:103BE00000F06EF8204600F06CF825772068016937
:103BF000C943C90617D4C168C943C90613D40821EB
:103C00006FF01002026121772068C06910F4407FD4
:103C1000204602D0FFF792FF04E000F051F8204662
:103C200000F04FF8257720680169C943C90708D11A
:103C3000C168C943C90704D1891E0161204600F04B
:103C400041F820680169C943090609D4C168C9431C
:103C5000090605D46FF0800101612046FFF7F3FEED
:103C600020680169C943C90509D4C168C943090667
:103C700005D46FF4807101612046FFF7E3FE2068F0
:103C80000169C943490609D4C168C943490605D435
:103C90006FF040010161204600F01EF820680169C4
:103CA000C94389060BD4C168C943890607D46FF09C
:103CB000200101612046BDE87040FFF7C5BE70BD20
:103CC0007047704700680349884201D1FEF73EBA49
:103CD0007047000000140040704730B590F8841021
:103CE000012918D0012280F884202421C0F88810EE
:103CF0000022202401680B680D6823F0005325F092
:103D000001050D60426601680B60C0F8884080F8CC
:103D10008420104630BD022030BD7047704770B51A
:103D2000044690F8840001281DD0012284F88420E4
:103D30002420C4F8880020680568026822F0010287
:103D400002602068826822F060620A438260204636
:103D500000F082FE2268202100201560C4F888103F
:103D600084F8840070BD022070BD70B5044690F8E0
:103D7000840001281DD0012284F884202420C4F866
:103D8000880020680568026822F00102026020684D
:103D9000826822F060420A438260204600F05CFEA6
:103DA0002268202100201560C4F8881084F884005F
:103DB00070BD022070BD7047704770472DE9F0411B
:103DC00007680025044640F60F030226F8693968A3
:103DD000BA6818420AD183067ED501F0200302F0AA
:103DE000805C53EA0C0377D0616F74E1CF4BDFF84E
:103DF00040C3134001EA0C0C53EA0C0C6CD05FEA90
:103E0000C07C0CD05FEAC15C09D54FF0010CC7F84B
:103E100020C0D4F8907047F00107C4F8907087076D
:103E200009D5D70707D027683E62D4F8906046F0DE
:103E30000406C4F8906046070AD5D60708D027685C
:103E400004263E62D4F8906046F00206C4F8906002
:103E500006070CD501F020061E4308D0266808236B
:103E60003362D4F8903043F00803C4F8903003056F
:103E70000BD54B0109D526684FF400633362D4F8A3
:103E8000903043F02003C4F89030D4F89030002BE9
:103E90003DD0800609D501F0200002F08051084392
:103EA00003D0616F09B1204688472168D4F890009B
:103EB0008968490602D410F0280F2AD0204600F065
:103EC000B1FE2068806840061ED52068083050E8A2
:103ED000001F21F0400100E021E040E80012002A2C
:103EE000F3D1D4F8800078B192490165D4F880000C
:103EF000FCF742FF00280AD0D4F88000016D00E0F2
:103F00002046BDE8F04108472046FFF756FFBDE8D0
:103F1000F0812046FFF751FFC4F89050F7E7D4F83E
:103F20006CC02023BCF1010F7ED15FEAC06C7BD551
:103F30005FEAC16C78D5102038622068806840063E
:103F400073D5D4F880107C4A0868904234D07A4AFD
:103F50001832904230D0784A303290422CD0764A93
:103F60004832904228D0744A6032904224D0724A3B
:103F70007832904220D0704A903290421CD06E4AE3
:103F8000A832904218D06D4A904215D06B4A183230
:103F9000904211D0694A303290420DD0674A48327F
:103FA000904209D0654A6032904205D0634A783227
:103FB000904201D0614A903240680004000CA6D0C3
:103FC000B4F85C208242A2D9A4F85E00C869B0F5BA
:103FD000807F2FD0216851E8000F20F4807041E8E5
:103FE0000002002AF6D12068083050E8001F21F0B6
:103FF000010140E80012002AF5D12068083050E89D
:10400000001F21F0400140E80012002AF5D1C4F859
:104010008C30E566216851E8000F20F0100041E87F
:104020000002002AF6D101E040E00BE0D4F8800065
:10403000FCF7F2FC2667B4F85C00B4F85E10401A96
:1040400081B22FE0B4F85C00B4F85E10B4F85E20E2
:10405000401A81B2002AB2D00029B0D0226852E8BA
:10406000000F20F4907042E80007002FF6D1344F83
:10407000206800F1080050E8002F02EA070240E83B
:10408000002CBCF1000FF3D1C4F88C30E5666567F5
:10409000206850E8002F22F0100240E80023002B97
:1040A000F6D126672046FFF738FE30E7C60209D56D
:1040B000560207D54FF4801038622046BDE8F04123
:1040C000FFF77ABE06060AD501F0800602F4000268
:1040D000164304D0A16F00297FF412AF17E7420600
:1040E00011D54A060FD52046026852E8001F21F07C
:1040F000400142E80014002CF6D1C0F888308567F2
:1041000000F0D4F803E7020206D54A0004D52046A1
:10411000BDE8F041FFF74FBEC001C6D50029C4DAA3
:104120002046BDE8F041FFF7F9BD00000100001096
:10413000200100040F4C000810000240100402404F
:10414000FEFFFFEF10B5040003D0D4F8880010B1D3
:1041500007E0012010BD002084F88400204600F014
:1041600027F82420C4F888002068016821F00101A4
:104170000160204600F080FD0128EBD0A06A10B15C
:10418000204600F08BFC2068416821F4904141609A
:104190002068816821F02A0181602068016841F06F
:1041A000010101602046BDE8104000F0DBBC0000CA
:1041B0002DE9F041B6B00746142130A8FCF732F9DA
:1041C000C0216846FCF72EF93349386888425FD130
:1041D00000201E9002210446CDE900106846FEF73B
:1041E00051FA08B1FCF716FC2C48016841F08041F7
:1041F0000160006800F08040359028480838016868
:1042000041F010010160006830AB022100F01000A5
:1042100035904FF4C070072283E81300204830A97E
:10422000CDE93342FDF76AFE1E4E4F221E494FF480
:104230008068304686E81600C6E903487461B461B8
:10424000F46134627462FDF74DFA08B1FCF7E2FBE9
:10425000144D5022144940237835C7F88060183136
:10426000B763284685E81E016C61AC61EC612C6285
:104270006C62FDF737FA08B1FCF7CCFBFD67002252
:104280000521AF635220FEF74BF85220FEF73AF8B3
:1042900036B0BDE8F081000000780040E8440258E4
:1042A0000010025860040024100002407047FEE72E
:1042B0007FB500240094019402940394FDF7F0FF6D
:1042C00007218DF808108DF80C4001258DF8094064
:1042D00003228DF80D4017488DF800508DF80A40E4
:1042E0008DF80E408DF80140019068468DF80B2046
:1042F0008DF80F50FDF7A6FF0F480D218DF80150E6
:10430000019068468DF808108DF80E50FDF79AFF61
:1043100002208DF8010012228DF808204FF0105174
:10432000684601918DF80A50FDF78CFF0420FDF7D7
:10433000C5FF7FBD00000430004004300D4808B5C3
:10434000016841F00101016000680022052100F0D0
:10435000010000900B20FDF7E3FF0B20FDF7D2FFDB
:10436000002205210C20FDF7DBFFBDE808400C20F2
:10437000FDF7C8BFD844025816498023164870B5C7
:10438000134A00240A60E1250470012643704FF4AB
:10439000C0628570C4700471447148600F480E7229
:1043A000C8600F48C1E904020846FDF71FFC08B1C8
:1043B000FCF730FB074838213838FCF733F805485C
:1043C00021224FF4403138380260C0E9044170BD09
:1043D000008002401C0300240C0000246000043014
:1043E0000000043010B596B011491C226846FCF755
:1043F00000F80021684600F0E4FE0E4C1C220C4937
:104400001C31206007A8FBF7F4FF002107A800F08B
:10441000D8FE07491C2260600EA83831FBF7E9FF7F
:1044200000210EA800F0CDFEA06016B010BD000067
:10443000605C00080000002410B586B014216846B6
:10444000FBF7F0FF1D48016841F0100101600168B1
:1044500001F010010591016841F0800101600168DF
:1044600001F080010591016841F0040101600168DB
:1044700001F004010591016841F00101016001684A
:1044800001F001010591016841F00201016000683D
:1044900000220B4C082100F0020005902046FDF799
:1044A00043FE00210820009001222046CDE9012191
:1044B00003916946FDF722FD06B010BDE0440258A5
:1044C000001002581848002110B5164C0C224FF469
:1044D000E1330460C0E90131C160C0E904128161C7
:1044E000C161016241628162FFF72CFE08B1FCF7F5
:1044F00091FA0D480021FFF738FC08B1FCF78AFA61
:1045000009480021FFF70BFC08B1FCF783FA0648C5
:10451000FFF7E3FB002803D0BDE81040FCF77ABAB0
:1045200010BD000000780040CC030024FEE7FEE749
:104530002DE9F047454D044689464FF0000A2868AA
:10454000C04380070AD0414E283E306820F080608A
:104550003060FDF7F5FD0746B04608E00120BDE8F4
:10456000F08700BFFDF7ECFDC01B022867D8D8F824
:1045700000000001F6D4206829684FF4FE0721F4FA
:104580007C313E0241EA00302860207AA389B4F8E9
:1045900004C040022D4D2D495B1E227CACF1010C64
:1045A0001035091DA0F5007080B2521ECCF3080C26
:1045B00007EA034340EA0C00184306EA026210438C
:1045C00028600868626920F0C000104308600A682B
:1045D000A06922F0200202430A60281D0A6822F026
:1045E00010020A6002684FF6F873E4699A4342EADF
:1045F000C40202600868B9F1000F40F010020A60BE
:1046000011D00868B9F1010F11D040F40010086012
:10461000D8F80000444640F08060C8F80000FDF77C
:104620008FFD05460DE0086840F40020EFE740F4F8
:104630008010ECE7FDF784FD401B022801D9032020
:104640008DE720680001F5D5504688E728440258D8
:104650002DE9F047454D044689464FF0000A286889
:10466000C04380070AD0414E283E306820F0805079
:104670003060FDF765FD0746B04608E00120BDE863
:10468000F08700BFFDF75CFDC01B022867D8D8F893
:1046900000008000F6D4208829684FF4FE0721F03E
:1046A0007C713E0241EA00502860207AA389B4F868
:1046B00004C040022D4D2D495B1E227CACF1010C43
:1046C0001835091DA0F5007080B2521ECCF3080CFD
:1046D00007EA034340EA0C00184306EA026210436B
:1046E00028600868626920F44060104308600A6826
:1046F000A06922F4007202430A60281D0A6822F4AD
:1047000080720A6002684FF6F873E4699A4342EADD
:10471000C40202600868B9F1000F40F480720A60B8
:1047200011D00868B9F1010F11D040F08070086015
:10473000D8F80000444640F08050C8F80000FDF76B
:10474000FFFC05460DE0086840F48000EFE740F408
:104750000000ECE7FDF7F4FC401B022801D9032020
:104760008DE720688000F5D5504688E72844025838
:10477000044C606980F008006061642000F015FD61
:10478000F7E7000000100258012000F00EFDFBE7E3
:10479000012000F00AFDFBE7502010B580F31188DE
:1047A000BFF34F8FBFF36F8F01F092F918B1044937
:1047B0004FF080500860002080F3118810BD000089
:1047C00004ED00E070B59CB04C216846FBF72AFE72
:1047D000202113A8FBF726FE0220FDF7D3FD2D496B
:1047E00000242D480A6822F001020A600A68026863
:1047F00042F440420260026802F440421B920268A6
:104800009204FCD5254A136843F002031360126832
:1048100002F002021B92026842F440420260026807
:104820000A6842F001020A60096801F001011B9167
:1048300001688904FCD50DF1280C0220099005219E
:10484000C0228CE80700C3030F9008250D900126B5
:104850000E90CDE91054CDE9006368461294FEF73E
:1048600025FE08B172B6FEE740201A903F210301F1
:10487000CDE916500322CDE9180313AB13A883E842
:1048800016000421FEF7D4FB002801D072B6FEE723
:104890001CB070BD2C04005818480258F44402584B
:1048A0002C48F0B52C4A016841F470010160106891
:1048B00000F00F00072804D2106820F00F00C01D80
:1048C000106026490020254C10340B68244D43F01D
:1048D00001030B6020600B682B400B60136803F032
:1048E0000F03072B04D9136823F00F03DB1D13609C
:1048F0001A4C1C4A18341C4B261D371D2060174CBF
:104900001A4D28343060261D3860371D23603B1D4A
:1049100035601C1D3A60251D2E1D1860331D226058
:104920002860326018600A680C4B114C22F4802217
:1049300060330A60186020686FF30F00B0F1005F09
:1049400003D20C490120C1F8080143F2D2000A4900
:104950000860F0BD88ED00E00020005200440258DD
:104960007FEDF6EA80020101000202020000FF0171
:104970000010005C00800051004000520148FFF729
:10498000DEB80000500500242DE9F047274B4FF01A
:10499000804A274D02689842264E274F274C09D05F
:1049A000504507D0A84205D0B04203D0B84201D04C
:1049B000A04205D1D1F804C022F070024CEA0202F4
:1049C000DFF87CC0DFF87C809842DFF87C900FD065
:1049D00050450DD0A8420BD0B04209D0B84207D004
:1049E000A04205D0604503D0404501D0484503D1E1
:1049F000CD6822F440722A434D6922F080022A4396
:104A0000026098428A68C2620A68826207D0A04245
:104A100005D0604503D0404501D0484501D1096922
:104A2000016301214161BDE8F08700000000014001
:104A30000004004000080040000C00400004014059
:104A40000040014000440140004801400148FFF798
:104A5000B5B90000CC03002430B5416EB9B101688E
:104A60000D4B03F108048A688968C2F34262490F5A
:104A70005D5C615C2D01B5FBF1F1A0F86A10995CF9
:104A8000A25C0901B1FBF2F1A0F8681030BD012170
:104A9000A0F86A10F8E70000D45C000890F828102D
:104AA000C90706D00168C36A4A6822F400321A4373
:104AB0004A6090F82810890706D50168036B4A6898
:104AC00022F480321A434A6090F82810490706D52C
:104AD0000168436B4A6822F480221A434A6090F8C6
:104AE0002810090706D50168836B4A6822F4004242
:104AF0001A434A6090F82810C90606D50168C36BAE
:104B00008A6822F480521A438A6090F82810890635
:104B100006D50168036C8A6822F400521A438A6041
:104B200090F82810490611D50168436C4A6822F4B0
:104B300080121A434A60416CB1F5801F06D10168AA
:104B4000836C4A6822F4C0021A434A6090F8281025
:104B5000090606D50168C26C486820F4002010439D
:104B6000486070472DE9F84300250446C0F890508E
:104B7000FDF7E6FA8046206820266FF07E47006841
:104B8000000713D50022434631042046009700F069
:104B900049FA58B1216851E8000F20F0800041E83F
:104BA0000002002AF6D1C4F8886021E0206800687D
:104BB000400722D5002243464FF48001204600974B
:104BC00000F030FAC8B1206850E8001F21F490715D
:104BD00040E80012002AF6D12068083050E8001F93
:104BE00021F0010140E80012002AF5D1C4F88C60E0
:104BF000032084F88450BDE8F883C4F88860C4F8C2
:104C00008C60E5662567002084F88450F3E710B5D2
:104C1000806B0021A0F85E10A0F85610FFF7CDF8C9
:104C200010BD000010B5026852E8001F21F4907119
:104C300042E80013002BF6D10E4B0268083252E80E
:104C4000001F194042E80014002CF6D1C16E012962
:104C500008D1026852E8001F21F0100142E8001359
:104C6000002BF6D100212022C0F88C20C1664167BC
:104C700010BD0000FEFFFFEF2DE9F0430446806801
:104C8000D84E87B0D84B2168D4E90427D4F81CC08B
:104C900010430A68002547EA0C07384332400243B4
:104CA0000A602068E268416821F440511143416084
:104CB0002268A1699A4201D0206A01439768DFF80F
:104CC0002CC3CB4ECB4807EA0C070F4397602168F3
:104CD000676ACA6A22F00F023A43CA622268B24285
:104CE0000ED1006800F03800182873D047DCB8B344
:104CF000082879D010286FD178E028287ED17BE071
:104D0000BD498A4209D1006800F00700062875D223
:104D1000DFE800F0546A6C6E7072B8498A4209D1BB
:104D2000006800F00700062868D2DFE800F0475D61
:104D30005F616365B2498A4209D1006800F00700EB
:104D400006285BD2DFE800F03A5052545658AD497D
:104D50008A420BD1006800F0070006284ED200E01E
:104D600010E0DFE800F02B4143454749A6498A425D
:104D70000AD1006800F03800182839D0B7DD2028A3
:104D8000BBD13CE001203AE0A0498A4209D1006849
:104D900000F00700062831D2DFE800F01026282AAC
:104DA0002C2E9B498A420BD1006800F00700062890
:104DB00024D2DFE800F003191B1D1F2100201EE094
:104DC0009A421BD18B48001D006800F0070006289E
:104DD00014D202E00CE007E010E0DFE800F0030589
:104DE00007090B0D02200AE0042008E0082006E075
:104DF000102004E0202002E0402000E080208549CF
:104E0000DFF814829A42854A4FF400434FEA211793
:104E10004FF000064ED110281AD006DC022809D027
:104E200004280BD008287CD10DE020283ED0402853
:104E300077D13DE0FDF7D0FA014610E06846FDF776
:104E4000DDFA01990BE003A8FDF77AFB049906E06F
:104E50001068800605D51068C0F3C100C140002964
:104E600070D0606A676838F8102007EB4703B1FB21
:104E7000F2F0834255D8B0EB073F52D800230846E2
:104E80001946FBF785FA02467808130E120243EA28
:104E9000012110183A4671410023FBF779FA604A64
:104EA000A0F5407191423CD821688FE03946D8E79F
:104EB0001946D6E7D4F81CC04FF6EF799C4546D189
:104EC000082819D005DC58B101280CD0042875D168
:104ED0000DE0102815D0202835D040286ED134E0C0
:104EE000FEF724FA01E0FEF733FA014610E06846C7
:104EF000FDF784FA01990BE003A8FDF721FB049963
:104F000006E01068800604D51068C0F3C100C140F7
:104F1000C1B1636A606838F81330B1FBF3F149003E
:104F200000E04BE001EB5001B1FBF0F0A0F110010B
:104F3000494543D84FF6F0732168C0F34202184048
:104F4000104343E043E03946E3E71946E1E7082828
:104F500019D005DC58B101280CD004282ED10DE061
:104F6000102815D020282BD0402827D12AE0FEF782
:104F7000DDF901E0FEF7ECF9014610E06846FDF7C7
:104F80003DFA01990BE003A8FDF7DAFA049906E06F
:104F90001068800604D51068C0F3C100C140B1B1EB
:104FA000636A606838F81330B1FBF3F101EB50012C
:104FB000B1FBF0F0A0F11001494505D9012506E04B
:104FC0003946EDE71946EBE7216880B2C860012059
:104FD000A4F86A00A4F8680028466667A66707B0C8
:104FE000BDE8F083F369FFCF000C0058FFF4FF1118
:104FF0000010014054440258004400400048004062
:10500000004C004000500040001401400078004077
:10501000007C00400090D003BC5C000800440258B3
:10502000FFFC0F002DE9F047994617460E4604464F
:10503000089D4FF000082FE0681C2DD0FDF780F888
:10504000A0EB0900A84214D89DB120680168490767
:1050500022D5C169C94309070DD408250562204638
:10506000FFF7E0FDC4F89050012084F88480BDE88B
:10507000F0870320FBE7C069C04300050CD421681A
:105080004FF4006008622046FFF7CCFD2021C4F8F1
:10509000901084F88480ECE72068C06936EA00004C
:1050A00004D00020B842C7D00020E0E70120F9E793
:1050B000FEE7090700284FEA116104DB00F1E02058
:1050C00080F80014704700F00F0000F1E02080F835
:1050D000141D704702E008C8121F08C1002AFAD147
:1050E00070477047002001E001C1121F002AFBD168
:1050F00070470000274B00201968890311D4BFF3C3
:105100004F8FBFF36F8F24490860BFF34F8FBFF3FA
:105110006F8F196841F400311960BFF34F8FBFF3EF
:105120006F8F1968C90322D41A4970310860BFF320
:105130004F8F081F43F6FF740068174D1035C0F3FA
:105140004E31C0F3C90204EA4116104646EA8077A0
:105150002F60401EFAD2491EF5D2BFF34F8F186858
:1051600040F480301860BFF34F8FBFF36F8FFCF7B0
:10517000F5FFFFF79DF8FFF725FBFFF75DF9FFF758
:10518000DDF8FFF79FF9FFF7F7F8FFF72BF900F0CD
:1051900013F8FEE714ED00E050EF00E0842801462C
:1051A0004FF0000000D0C81C704710B500B90120B6
:1051B00000F02AFB002010BD10B500F04BFB0020D2
:1051C00010BD7FB50D4641690446B0F9080081B1B4
:1051D000A16971B1FFF7E2FFD4E905122B468DE812
:1051E00007002269D4E9001000F047FC039004B0E6
:1051F00070BDFFF7D3FF03A92B46CDE90001228A3A
:10520000D4E9001092B200F00BFC012801D000207C
:10521000EDE70398EBE700002DE9F041184C0F464D
:105220000546E6682068001D00F024FA38B92268B7
:105230000121206992F82C20914088432061681C4C
:1052400007D137B12168BDE8F0410E48091D00F0D3
:1052500057BA20683544B5424560216805D2A06B35
:10526000091DBDE8F04100F033BA606B091D00F084
:105270002FFAA06A854200D2A562BDE8F081000045
:1052800028000024780600242DE9F041054600F0AE
:1052900043FA2E4C2E4FA068401CA060206810B12D
:1052A000606940B32DE02560A068012829D100265F
:1052B00006EB860007EB800000F0FCF9761C072E59
:1052C000F6D323488C3000F0F5F92148A03000F0E7
:1052D000F1F91F48B43000F0EDF91D48C83000F076
:1052E000E9F91B48DC3000F0E5F919488C306063BF
:1052F0001430A06305E0E86A2168C96A814200D8D9
:1053000025600120616A491C6162E96A226988405E
:105310001043206101EB8100291D07EB800000F0A4
:10532000EFF900F019FA606900280CD02068E96AEA
:10533000C06A884207D207494FF080500860BFF327
:105340004F8FBFF36F8FBDE8F0810000280000246D
:105350009C05002404ED00E010B5044690F85100CF
:1053600058B101280CD002280FD0502080F31188AA
:10537000BFF34F8FBFF36F8FFEE7206B00F000FA93
:105380002046BDE8104000F0FBB910BD10484FF6B4
:10539000FF7110B5420705D00D4AC01D20F007006F
:1053A000821A891A0B4C002301440839A4F118020F
:1053B00021F00701C4E900030C1A11604B600B6077
:1053C000C0E9001494604FF000415460516110BD79
:1053D0008C0600247C000024144E4FF08058144C9E
:1053E000DFF85090A6F1C80712E000BF00F094F972
:1053F000F068C568281D00F03DF9A068401EA06057
:105400006068401E606000F0A7F92846FFF7A4FF1F
:1054100060680028EAD138680128F9D9C9F8008005
:10542000BFF34F8FBFF36F8FF2E7000064060024D5
:105430002800002404ED00E02DE9F0479A4681465B
:105440006FF00303DDE9098403EB8202089E206B01
:10545000104420F00707780707D0502080F3118808
:10546000BFF34F8FBFF36F8FFEE74FF0000561B1C1
:10547000002023180A5C83F834200A5C12B1401C17
:105480001028F6D384F8435001E084F83450072EF6
:1054900000D30626E662201DC4E9116500F015F967
:1054A00004F1180000F011F9E564C6F10700A061ED
:1054B00084F850505246246149463846646200F0F0
:1054C000C1F8B8F1000F206001D0C8F80040BDE875
:1054D000F087000030B5114900E011460A688242A9
:1054E000FBD34B685C18844203D1446808462344CC
:1054F0004B6043681D18954209D1084C183C24683C
:10550000A24209D052681A4442600A6812680260D6
:10551000814200D0086030BD0460F9E77C000024BF
:105520000648416B096829B1416BC968C968496877
:10553000816270474FF0FF31FAE700002800002435
:1055400008484068401C4FF0500080F3118804D098
:10555000BFF34F8FBFF36F8FFEE7BFF34F8FBFF3E4
:105560006F8FFEE7840000242DE9F04100270446F8
:1055700000F0A6F9324E306808B9FFF707FF7069EE
:1055800004424ED1C4B3083460070ED004F00700C3
:10559000C0F108000444600707D0502080F3118850
:1055A000BFF34F8FBFF36F8FFEE72CB37068844259
:1055B00037D82348183001460D6801E028460D46CB
:1055C0006968A14202D229680029F7D131688D4269
:1055D00027D007682968016008376868011B10290F
:1055E0000FD92819420708D0502080F31188BFF343
:1055F0004F8FBFF36F8FFEE713E041606C60FFF7E2
:1056000069FF69687068401A7060B268904200D2A1
:10561000B060002072691143C5E90001F068401CC8
:10562000F06000F0BBFA780707D0502080F31188B3
:10563000BFF34F8FBFF36F8FFEE73846BDE8F081B1
:105640006400002470B5041F094E231F4FF08075BD
:1056500021F0010125601C1F1960A0F120010B1F22
:10566000266044380A606FF002051D6070BD0000BE
:1056700041550008D0E9013201699A60D0E901235F
:105680005A604A68824201D182684A6000220261FF
:105690000868401E086008687047000010B5044C98
:1056A0008023046004F154000860136010BD000002
:1056B000900000244FF0FF3300F108010022C0E900
:1056C00001130260C16001617047002101617047F0
:1056D00030B50B685A1C02D000F1080202E00269E2
:1056E00004E02246546825689D42FAD953684B600D
:1056F00099608A60516008610168491C016030BD91
:1057000042684A6093688B60936859609160086151
:105710000168491C01607047502080F31188BFF375
:105720004F8FBFF36F8F0A494868401C48600128BB
:105730000CD10848006810F0FF0F07D0502080F30C
:105740001188BFF34F8FBFF36F8FFEE770470000E4
:105750008400002404ED00E00849486828B1401E98
:10576000486001D180F311887047502080F3118880
:10577000BFF34F8FBFF36F8FFEE70000840000245C
:1057800070B500282AD0164DA0F108046168686938
:10579000014207D1502080F31188BFF34F8FBFF330
:1057A0006F8FFEE722683AB1502080F31188BFF373
:1057B0004F8FBFF36F8FFEE78143616000F080F889
:1057C00060686968084468602046FFF783FE2869BE
:1057D000401C2861BDE8704000F0E0B970BD0000D9
:1057E000640000244FF0E020002101614FF47A7240
:1057F0008161072303490968B1FBF2F1491E416148
:105800000361704720000024020010B514D00F4837
:10581000006B38B1502080F31188BFF34F8FBFF376
:105820006F8FFEE700F04CF800211046FFF7F4FC04
:1058300000F0B4F9002807D105494FF08050086006
:10584000BFF34F8FBFF36F8F10BD000028000024FF
:1058500004ED00E010B586B0002405AA04A9039465
:1058600003A80494FFF71AFFDDE903010094002365
:10587000CDE9011010480EA1059A00F0FEF80F497D
:105880000028C86211D0502080F31188BFF34F8FD9
:10589000BFF36F8F01224FF0FF3088624A61CC6006
:1058A00006B0BDE8104000F041B806B010BD0000E1
:1058B00049444C4500000000D9530008280000244A
:1058C0000248016B491C0163704700002800002456
:1058D0001448016B11B10121C16170470021C16100
:1058E00011490269B2FA82F2C2F11F0202EB82028E
:1058F00051F822306BB101EB820101F108034A68D3
:1059000052684A609A4201D152684A60D168016087
:105910007047502080F31188BFF34F8FBFF36F8F14
:10592000FEE70000280000249C05002437481CB531
:10593000374902688A4207D1502080F31188BFF3AB
:105940004F8FBFF36F8FFEE731490068491E8842D1
:1059500007D1502080F31188BFF34F8FBFF36F8FB3
:10596000FEE72C49FF200A780192087008788DF82C
:1059700000009DF800209DF8000002F0F002824235
:1059800007D0502080F31188BFF34F8FBFF36F8F84
:10599000FEE79DF8002007201F4C02F05002227005
:1059A000A06005E09DF8002052008DF80020401E08
:1059B0009DF800201206F5D40328A06007D05020DF
:1059C00080F31188BFF34F8FBFF36F8FFEE74FF463
:1059D0004070A060019808700C482030016841F4C4
:1059E00070010160016841F070410160FFF7FAFE4B
:1059F00000206060FAF77EFC0848016841F04041F1
:105A00000160FAF763FC00201CBD000000ED00E01F
:105A100071C20F4100E400E08400002434EF00E094
:105A20002DE9FF5F994616468A4683469000DDE9D8
:105A30000E87FFF799FD05001CD05420FFF794FD59
:105A4000040014D00020256384F851004B46CDE9B2
:105A50000087CDE90240324651465846FFF7ECFC3C
:105A60002046FFF711FC012004B0BDE8F09F284656
:105A7000FFF786FE4FF0FF30F6E7F0B585B0DDE9C1
:105A80000B740A9DA7B1DCB154262763022684F863
:105A90005160002703970DF1100C0095CDE901C46A
:105AA000FFF7CAFC2046FFF7EFFB049805B0F0BDF6
:105AB000502080F31188BFF34F8FBFF36F8FFEE745
:105AC000502080F31188BFF34F8FBFF36F8FFEE735
:105AD0002DE9F0412F4C206B002728B1A069401C14
