:020000040800F2
:1000000010180020D1100008D1020008D302000807
:10001000D7020008DB020008DF0200080000000031
:10002000000000000000000000000000E3020008E3
:10003000E502000800000000E7020008E9020008ED
:10004000EB100008EB100008EB100008EB100008A4
:10005000EB100008EB100008EB100008EB10000894
:10006000EB100008EB100008EB100008EB10000884
:10007000EB100008EB100008EB100008EB10000874
:10008000EB100008EB100008EB100008EB10000864
:10009000EB100008EB100008EB100008EB10000854
:1000A000EB100008EB100008EB100008EB10000844
:1000B000EB100008EB100008EB100008EB10000834
:1000C000EB100008EB100008EB100008EB10000824
:1000D000EB100008EB100008EB100008EB10000814
:1000E000EB100008EB100008EB100008EB10000804
:1000F000EB100008EB100008EB100008EB100008F4
:10010000EB10000865310008EB100008EB10000848
:10011000EB100008EB100008EB100008EB100008D3
:10012000EB100008EB100008EB100008EB100008C3
:1001300000F002F800F05AF80AA090E8000C82449F
:100140008344AAF10107DA4501D100F04FF8AFF27C
:10015000090EBAE80F0013F0010F18BFFB1A43F0A5
:1001600001031847204D0000404D00000A444FF0A5
:10017000000C10F8013B13F0070408BF10F8014B06
:100180001D1108BF10F8015B641E05D010F8016B4B
:10019000641E01F8016BF9D113F0080F1EBF10F8AF
:1001A000014BAD1C0C1B09D16D1E58BF01F801CBD2
:1001B000FAD505E014F8016B01F8016B6D1EF9D555
:1001C0009142D6D37047000000230024002500266A
:1001D000103A28BF78C1FBD8520728BF30C148BFAA
:1001E0000B6070471FB51FBD10B510BD03F0A5FE15
:1001F0001146FFF7F7FF00F028F803F0C3FE03B441
:10020000FFF7F2FF03BC03F0CBFE000038B5044655
:10021000204603F058FC0546ADB96A4610211F4838
:1002200003F095FC1D480068002805DB01231B4AEC
:100230000221002001F0C5F8BDF8000018B91848E7
:100240000068002038BD0120FCE70EB500F060FF1B
:1002500001F00FF8FF2001F07CF8002001F079F8A0
:1002600001F0BFFF20B90FA1684603F0A7FD03E02E
:100270000FA1684603F0A2FD01236A46002108464B
:1002800001F09FF84FF4FA7000F07FFF0C4803F084
:1002900047FB0CA0FFF7BAFF00200EBDEC040020C6
:1002A000840121425446204361726420206F6B0018
:1002B00054462043617264204572726F72000000E0
:1002C000C00400202F6361742E7478740000000055
:1002D000704700BFFEE700BFFEE700BFFEE700BFBC
:1002E000FEE7704770477047704700000CB500206C
:1002F000019000906C48006840F480306A490860C2
:1003000000BF6948006800F4003000900198401C6C
:100310000190009818B90198B0F5A06FF1D162482A
:10032000006800F4003010B10120009001E00020CE
:1003300000900098012843D15C48006840F010000C
:100340005A4908600846006820F003000860084623
:10035000006840F002000860534840685249486015
:100360000846406848600846406840F4806048603D
:100370000846406820F47C1048600846406840F415
:10038000E81048600846006840F08070086000BFD0
:100390004548006800F000700028F9D042484068E5
:1003A00020F00300404948600846406840F00200E1
:1003B000486000BF3C48406800F00C000828F9D1B4
:1003C0000CBD10B5FFF792FF10BD10B536480068A0
:1003D00040F001003449086008464068344908404C
:1003E0003149486008460068324908402E49086093
:1003F0000846006820F4802008600846406820F421
:10040000FE0048604FF41F008860FFF7DAFF4FF0EE
:1004100000602949086010BD10B5002100200022AD
:10042000214B5B6803F00C0121B1042906D0082997
:1004300028D107E0214B224C236027E01F4B204CA2
:10044000236023E0184B5B6803F47010164B5B6865
:1004500003F48032022303EB904022B9194B43434B
:10046000174C23600DE0104B5B6803F4003323B19D
:10047000144B4343124C236003E0104B4343104C96
:10048000236003E00D4B0E4C236000BF00BF064B02
:100490005B68C3F303130C4CE15C094B1B68CB4056
:1004A000074C236010BD00000010024000200240F5
:1004B0000000FFF8FFFFF6FE08ED00E000127A00F2
:1004C0000000002000093D000400002031490143E4
:1004D000314A1160704770B5002100230F22C478A3
:1004E00004B32D4C246804F4E064C4F5E064210AEC
:1004F000C1F10403CA40447804FA03F1847814403B
:1005000021430901254C0678A155047804F01F0504
:100510000124AC4005786D11AD0005F1E025C5F86A
:10052000004109E0047804F01F050124AC401C4D93
:100530000678761145F8264070BD1A4A0A400243F3
:10054000154B1B1F1A60704739B1134A121D1268F0
:100550000243114B1B1D1A6006E00F4A121D126860
:1005600082430D4B1B1D1A607047042808D14FF0C1
:10057000E021096941F004014FF0E022116107E038
:100580004FF0E021096921F004014FF0E0221161F0
:10059000704700000000FA050CED00E000E400E008
:1005A00080E100E080FFFF1F10B50446CC48844284
:1005B00008D10121042000F02DFB0021042000F0CF
:1005C00029FB46E0C748844208D10121082000F0F9
:1005D00021FB0021082000F01DFB3AE0C2488442C4
:1005E00008D10121102000F015FB0021102000F09F
:1005F00011FB2EE0BD48844208D10121202000F0EB
:1006000009FB0021202000F005FB22E0B8488442CD
:1006100008D10121402000F0FDFA0021402000F027
:10062000F9FA16E0B348844208D10121802000F095
:10063000F1FA0021802000F0EDFA0AE0AE48844291
:1006400007D10121801500F0E5FA0021A01500F086
:10065000E1FA10BD10B50121084600F0DBFA0021D7
:10066000012000F0D7FA10BD2DE9F0410246002527
:100670000026002000230024002791F803C00CF07E
:100680000F0591F803C00CF0100CBCF1000F03D063
:1006900091F802C04CEA050591F800C0BCF1000FCA
:1006A00031D0146800202BE04FF0010C0CFA00F35D
:1006B000B1F800C00CEA03069E4220D183004FF03F
:1006C0000F0C0CFA03F7BC4305FA03FC4CEA0404D4
:1006D00091F803C0BCF1280F06D14FF0010C0CFAC1
:1006E00000FCC2F814C00AE091F803C0BCF1480F46
:1006F00005D14FF0010C0CFA00FCC2F810C0401CF0
:100700000828D1D31460B1F800C0BCF1FF0F34DD6C
:10071000546800202EE000F1080C4FF0010808FAA0
:100720000CF3B1F800C00CEA03069E4221D183000D
:100730004FF00F0C0CFA03F7BC4305FA03FC4CEA2C
:10074000040491F803C0BCF1280F05D100F1080C96
:1007500008FA0CF8C2F8148091F803C0BCF1480FF5
:1007600007D100F1080C4FF0010808FA0CF8C2F8A4
:100770001080401C0828CED35460BDE8F0814FF6AD
:10078000FF710180022181700421C170704702460F
:10079000002093680B400BB1012000E0002070475F
:1007A0000146886880B2704702460020D3680B403B
:1007B0000BB1012000E0002070470146C86880B2FC
:1007C000704701617047416170470AB1016100E003
:1007D00041617047C16070474FF480320A438261C3
:1007E0008161826182698269704702460020434BC1
:1007F00018684FF68073184040EA021008433F4BD8
:10080000186070473E49C8617047F0B50A4600233A
:1008100000240021002500F00046B6F1004F02D16F
:10082000364EF16901E0354E7168C0F3034583B27D
:1008300000F44016B6F5401F08D121F070612F4E2C
:10084000766826F070662D4F7E6012E000F4801608
:10085000B6F5801F06D1032606FA05F4A14341F040
:10086000706106E0460D360103FA06F6B14341F029
:10087000706122B1460D360103FA06F6314300F0ED
:100880000046B6F1004F02D11C4EF16101E01B4E53
:100890007160F0BD30B500228B071C0F0F2303FAE7
:1008A00004F2164B08338C1053F824309343134C46
:1008B00008348D1044F8253023468C1053F824302A
:1008C0008C07240F00FA04F423430C4C08348D10D9
:1008D00044F8253030BD0A49DC310860704700001B
:1008E00000080140000C01400010014000140140CC
:1008F00000180140001C01400020014000000140A0
:1009000000002042DF48006840F00100DD49086037
:1009100008464068DC490840DA49486008460068F3
:10092000DA490840D74908600846006820F480206A
:1009300008600846406820F4FE0048604FF41F003D
:1009400088607047CF49096821F48031CD4A116031
:100950001146096821F480211160B0F5803F03D071
:10096000B0F5802F0ED106E0C649096841F4803108
:10097000C44A116007E0C349096841F4A021C14A93
:10098000116000E000BF00BF704710B501460022B3
:10099000002300204A11012A02D1BA4C236806E044
:1009A000022A02D1B74C236A01E0B64C636A01F017
:1009B0001F02012494401C400CB1012000E00020E3
:1009C00010BD38B5002000900024002500BF312064
:1009D000FFF7DBFF05460098401C00900098B0F53B
:1009E000A06F01D0002DF2D03120FFF7CEFF08B16B
:1009F000012400E00024204638BD01460020A14A21
:100A0000106820F0F80040EAC10010607047A0496B
:100A100008607047024600209A4B586820F47C100A
:100A200042EA01031843974B58607047984908669B
:100A3000704701460020934A506820F003000843A5
:100A4000506070478F48406800F00C0070470146C6
:100A500000208C4A506820F0F00008435060704736
:100A600001460020874A506820F4E0600843506047
:100A7000704701460020834A506820F4605040EAE5
:100A8000C1005060704729B17E4A527A02437D4BC3
:100A90005A7204E07B4A527A82437A4B5A72704708
:100AA0007B49D8310860704701460020754A50687C
:100AB00020F440400843506070470021714A2032C2
:100AC0001170704A82F82010012802D004280AD13F
:100AD00004E001216B4A2032117005E00521694ACA
:100AE0002032117000E000BF00BF70476949086004
:100AF00070476449096A0143624A11627047654957
:100B000044390860704730B50021002200240023DA
:100B10005C4D6D6805F00C0121B1042905D0082950
:100B200023D105E05C4D056022E05B4D05601FE0D0
:100B3000544D6D6805F47012524D6D6805F48034A3
:100B4000022505EB92421CB9544D554305600BE05C
:100B50004C4D6D6805F400351DB1504D5543056091
:100B600002E04D4D5543056002E04B4D056000BF6E
:100B700000BF444D6D6805F0F0010909484D6B5CFC
:100B80000568DD4045603F4D6D6805F4E061090A88
:100B9000434D6B5C4568DD4085603A4D6D6805F4FA
:100BA0006051C90A3E4D6B5C4568DD40C560354DFE
:100BB0006D6805F44041890B3A4D6B5CC568B5FB27
:100BC000F3F5056130BD29B12E4A526902432D4B20
:100BD0005A6104E02B4A526982432A4B5A6170479A
:100BE00029B1284A92690243264B9A6104E0254ABA
:100BF00092698243234B9A61704729B1214AD26995
:100C00000243204BDA6104E01E4AD26982431D4B45
:100C1000DA61704729B11B4AD2680243194BDA6086
:100C200004E0184AD2688243164BDA60704729B153
:100C3000144A12690243134B1A6104E0114A126903
:100C40008243104B1A61704712494039086070475F
:100C50000F49C86470470B49C87170470948406A1A
:100C600040F0807007494862704701460020054AFD
:100C700092680A400AB1012000E000207047014953
:100C800088727047001002400000FFF8FFFFF6FE78
:100C9000000042428004424200127A0000093D00F6
:100CA000140000202400002000206F4908604860E4
:100CB0008860C86048628862C8626C4888630020A7
:100CC000C86370470021684A516847F6FF62914344
:100CD000027D83681A4343681A43C3681A43036852
:100CE0001A4303691A4311435F4A51607047002158
:100CF0000175016041608160C160016170475C49BC
:100D0000086070475849096821F00301564A11608C
:100D1000114609680143116070475348006800F0AC
:100D20000300704729B1504AD26B02434E4BDA633D
:100D300004E04D4AD26B82434B4BDA6370474D4916
:100D4000086070470021484B02689A601A46D168D3
:100D50006FF30A01D0E901231A43C3681A430369F8
:100D60001A431143404AD16070470021016041603D
:100D70008160C160016170473B480069C0B2704743
:100D800008B5014600200090374814300844009010
:100D90000098006808BD0021334B02685A6242681F
:100DA0009A621A46D16A21F0F701D0E902231A4368
:100DB00003691A4343691A4311432B4AD1627047AE
:100DC0004FF0FF310160002141608160C16001612D
:100DD000416170472448006B7047234880300068A9
:100DE000704721498031086070471F48806C704708
:100DF00020491431086070471E4918310860704757
:100E00001C491C31086070471A492031086070473E
:100E10001949086070471849091D08607047012189
:100E20008143154A08321160704713490C3108603C
:100E30007047014600200C4A526B0A400AB101205B
:100E400000E0002070470849886370470146002091
:100E5000054A526B0A400AB1012000E000207047A9
:100E6000014988637047000000800140FF07C0000F
:100E7000A00030428C053042AC01304201684FF690
:100E8000FE72114001600021016041608160C1601B
:100E90008D49884208D18C490839496841F00F01D1
:100EA000894A083A51608AE087491431884208D15A
:100EB00085490839496841F0F001834A083A516090
:100EC0007DE081492831884208D17F490839496845
:100ED00041F470617C4A083A516070E07A493C31D3
:100EE000884208D178490839496841F47041764A06
:100EF000083A516063E074495031884208D1724920
:100F00000839496841F470216F4A083A516056E047
:100F10006D496431884208D16B490839496841F408
:100F20007001694A083A516049E06749783188425E
:100F300008D165490839496841F07061624A083A48
:100F400051603CE06149884206D1011F096841F0C7
:100F50000F01021F116032E05C491431884208D150
:100F60005A49091F096841F0F001584A121F1160DF
:100F700025E056492831884208D15449091F09689B
:100F800041F47061514A121F116018E04F493C3121
:100F9000884208D14D49091F096841F470414B4A04
:100FA000121F11600BE049495031884207D147496F
:100FB000091F096841F47021444A121F11607047EB
:100FC00010B50022026847F6F0739A430C6A8B68EA
:100FD00023430C6923434C6923438C692343CC6925
:100FE00023434C6A23438C6A23431A430260CB6831
:100FF00043600B6883604B68C36010BD00210160D3
:1010000041608160C160016141618161C1610162D2
:1010100041628162704721B1026842F001020260C0
:1010200004E002684FF6FE731A40026070471AB17E
:1010300003680B43036002E003688B43036070475F
:10104000416070470146486880B270470146002001
:10105000002201F080531BB11C4B083B1A6802E0D0
:10106000194B083B1A6802EA01030BB1012000E0AA
:101070000020704700F0805119B11449091F086021
:1010800002E01149083948607047014600200022FB
:1010900001F080531BB10D4B083B1A6802E00A4B6C
:1010A000083B1A6802EA01030BB1012000E00020AE
:1010B000704700F0805119B10449091F086002E02F
:1010C000014908394860704708000240080402409E
:1010D0000948804709480047FEE7FEE7FEE7FEE7CC
:1010E000FEE7FEE7FEE7FEE7FEE7FEE70448054908
:1010F000054A064B70470000CB0300083101000889
:1011000010120020101800201014002010140020CD
:1011100010B56FF00400FFF728FA2E4800682E493A
:10112000B0FBF1F02D4908700846007800EB400153
:10113000C1EBC0104FF6FF7101EAC00028490880DA
:1011400010BD0146254A12784A434FF0E0235A6108
:1011500000229A611A46126942F001021A6100BF28
:101160004FF0E022106900F001021AB100F4803261
:10117000002AF5D04FF0E022126922F001024FF070
:10118000E0231A6100229A6170470146144A1288CE
:101190004A434FF0E0235A6100229A611A461269CD
:1011A00042F001021A6100BF4FF0E022106900F026
:1011B00001021AB100F48032002AF5D04FF0E0228B
:1011C000126922F001024FF0E0231A6100229A61B5
:1011D000704700000000002000127A002800002064
:1011E0002A00002070B5044600F0C7F9204600F040
:1011F000E7F900F02CFA054600F0D4F9284670BD56
:1012000010B57820FFF7EEFF08B9012010BD00F0FF
:10121000C9F90020FAE770B505460C4600F0ADF9B3
:10122000782000F0CDF900F012FA00B110E0284665
:1012300000F0C6F900F00BFA00B109E0204600F01A
:10124000BFF900F004FA00B102E000F0ABF900BF12
:1012500000F0A8F970BD10B5044621460020FFF744
:10126000DAFF10BD10B5044621464020FFF7D3FF3A
:1012700010BD10B500F02FFA4FF47A70FFF785FF1C
:10128000AE20FFF7E8FF2020FFF7E5FF1020FFF773
:10129000E2FFB020FFF7DFFFC820FFF7DCFF0020F0
:1012A000FFF7D9FF1020FFF7D6FF4020FFF7D3FF4D
:1012B0008120FFF7D0FFFF20FFF7CDFFA120FFF730
:1012C000CAFFA620FFF7C7FFA820FFF7C4FF3F20F3
:1012D000FFF7C1FFA420FFF7BEFFD320FFF7BBFF3E
:1012E0000020FFF7B8FFD520FFF7B5FFF020FFF78C
:1012F000B2FFD920FFF7AFFF2220FFF7ACFFDA20C3
:10130000FFF7A9FF1220FFF7A6FFDB20FFF7A3FFDF
:101310002020FFF7A0FF8D20FFF79DFF1420FFF78F
:101320009AFFAF20FFF797FF10BD70B504460D463A
:1013300005F1B001C8B2FFF78EFF102141EA141089
:10134000FFF789FF04F00F0141F00100FFF783FF71
:1013500070BD70B50646002415E004F1B001C8B2B6
:10136000FFF779FF0020FFF776FF1020FFF773FFEC
:10137000002504E03046FFF775FF681CC5B2802DDC
:10138000F8DB601CC4B2082CE7DB70BD10B5002090
:10139000FFF7DFFF10BD10B58D20FFF75CFF1420B5
:1013A000FFF759FFAF20FFF756FF10BD10B58D2096
:1013B000FFF751FF1020FFF74EFFAE20FFF74BFF66
:1013C00010BD2DE9F0470646894617469A464FF06C
:1013D000000800240025BAF1010F03D0BAF1020F72
:1013E0005ED125E020E0785D203800F0FF087E2EF9
:1013F00004DD002609F1010000F0FF0949463046EE
:10140000FFF793FF002409E008EB4801574A02EB7D
:101410004101085DFFF726FF601CC4B2062CF3DB18
:10142000B01DC6B2681CC5B2785D0028DBD137E0BC
:1014300032E0785D203800F0FF08782E04DD0026C9
:1014400009F1010000F0FF0949463046FFF76DFF42
:10145000002407E004EB0811454A505CFFF702FF47
:10146000601CC4B2082CF5DB09F10100C1B23046A2
:10147000FFF75BFF002408E004EB081108313C4A49
:10148000505CFFF7EFFE601CC4B2082CF4DB06F1E1
:101490000800C6B2681CC5B2785D0028C9D100BF7B
:1014A00000BFBDE8F0872DE9F04180460E461746A3
:1014B00000247D0131464046FFF737FF00BF06E0BC
:1014C0002C49485DFFF7CEFE6D1C601CC4B2102C89
:1014D000F6DB701CC1B24046FFF727FF002406E090
:1014E0002449485DFFF7BEFE6D1C601CC4B2102C81
:1014F000F6DBBDE8F0812DE9F05F06460F46904629
:101500001C46DDF828A04FF0000BE11704EB5171E9
:10151000C910A4EBC10131B92046E11704EB5171A8
:10152000C1F3C70506E02046E11704EB5171C9106D
:10153000491CCDB23D4614E029463046FFF7F5FE82
:10154000B1460AE059460BF1010B1AF80100FFF70A
:1015500089FE09F1010000F0FF09C145F2DB681CBA
:10156000C5B2A542E8DBBDE8F09F0000AE3F000831
:10157000D64100082C000020704710B501206049BA
:10158000086002200860FFF7F7FF01205C49091D91
:101590000860FFF7F1FF02205949091D0860FFF7B5
:1015A000EBFF10BD10B501205549091D0860022050
:1015B000091F0860FFF7E0FF01205149086010BDD6
:1015C00070B50446002520E004F0800018B1012029
:1015D0004B49086003E001204949091D0860FFF7F5
:1015E000CBFF022046490860FFF7C6FF02204449AE
:1015F000091D0860072D02D10120091F086060063F
:10160000040EFFF7B9FF681CC5B2082DDCDB70BD06
:1016100070B50024002516E06006040E022038494B
:101620000860FFF7A9FF36480838006800F001009D
:1016300008B1601CC4B202203149091D0860FFF7DF
:101640009BFF681CC5B2082DE6DB204670BD10B5B7
:1016500001202B490860FFF78FFF0220284908600E
:10166000FFF78AFF26480838006800F0010008B13B
:10167000012400E0002402202149091D0860FFF731
:101680007BFF204610BD10B501201D49091D0860D3
:10169000FFF772FF02201A490860FFF76DFF022072
:1016A0001749091D0860FFF767FF0120144908600A
:1016B00010BD10B5012012490860FFF75DFF022040
:1016C0000F490860FFF758FF02200D49091D086007
:1016D000FFF752FF10BD08B501210420FFF780FA83
:1016E0000320ADF800008DF8020014208DF80300EF
:1016F000694603481038FEF7B7FFFFF753FF08BDF0
:101700001008014001460020012900D011B9FE4B0C
:10171000197000E0262070470146FC4A506820F00E
:10172000FF0008435060704770B5044605E0F74875
:10173000456B05F0450000B100E0F8E700BF04206C
:10174000FFF777FB20B10420FFF77DFB032070BD7E
:101750000120FFF76EFB20B10120FFF774FB012091
:10176000F5E7EA480069A04201D01020EFE740F217
:10177000FF50E64988630846406908210840C0B226
:10178000E5E72DE9FC4107460D4600260024002030
:10179000009001900820DE49086010204860402039
:1017A00088600020C8604FF4806008610846FFF739
:1017B000C9FA1020FFF7B8FF044614B12046BDE86F
:1017C000FC81D44800880004D14908603720486073
:1017D000402088600020C8604FF48060086108469F
:1017E000FFF7B0FA3720FFF79FFF04460CB1204601
:1017F000E5E74FF0FF30C849086008204860302016
:1018000088600220C8600020086101204861084605
:10181000FFF7C1FA0020BE4908603320486040202D
:1018200088600020C8604FF4806008610846FFF7B8
:1018300089FA3320FFF778FF04460CB12046BEE753
:101840000CE04FF40010FFF7F4FA38B1FFF7C5FAD7
:101850004DF82600761C022E00D306E0AB48406B04
:1018600040F22A6108400028EBD000BF0820FFF7B3
:10187000E0FA20B10820FFF7E6FA04209FE70220F3
:10188000FFF7D7FA20B10220FFF7DDFA022096E732
:101890002020FFF7CEFA20B12020FFF7D4FA06204F
:1018A0008DE74FF40070FFF7C4FA28B14FF40070D1
:1018B000FFF7C9FA072082E740F2FF50FFF7C3FAAB
:1018C00000980006009901F47F4140EA0120009948
:1018D00001F47F0140EA1120009940EA116068603C
:1018E00001980006019901F47F4140EA0120019925
:1018F00001F47F0140EA1120019940EA116028605B
:1019000020465CE77CB5054600240020009001904D
:1019100000260DB1022600E000267C48406900F058
:10192000007008B10E207CBD7A49098888B26946EA
:10193000FFF727FF04460CB12046F4E7019800F4B6
:10194000802060B373480088000471490860372024
:101950004860402088600020C8604FF480600861C3
:101960000846FFF7EFF93720FFF7DEFE04460CB11B
:101970002046D8E766480660062065494860402052
:1019800088600020C8604FF4806008610846FFF757
:10199000D9F90620FFF7C8FE04462046C3E72520F4
:1019A000C1E770B5044600255C480078032801D1E2
:1019B000272070BD5948007838B158480078012870
:1019C00003D056480078022818D1022C01D32720D2
:1019D000EFE7E0B2FFF796FF05467DB94B48406858
:1019E00020F4C0504949486008464068A1B240EA26
:1019F000C120464948600846406848602846D8E704
:101A000010B5044642480460072041494860402020
:101A100088600020C8604FF4806008610846FFF7C6
:101A200091F90720FFF780FE10BDF0B501460020B8
:101A300000223A4B1B7881F85630364B1B88A1F8B0
:101A40005430374B1B681A0E93090B70C2F3830393
:101A50004B7002F003038B70314B1B68C3F30742DA
:101A6000CA702F4B1B88C3F307220A712C4B1A78BC
:101A70004A715B681A0E1301CB80294B5B68C3F374
:101A80000742CB8843EA1213CB8002F00F030B729C
:101A9000234B9B88C3F30722D3094B72C2F38013F5
:101AA0008B72C2F34013CB72C2F300130B7300238B
:101AB0004B731A4B1B783BB1184B1B78012B03D08F
:101AC000164B1B78032B5ED193071B0D0B61144B38
:101AD0001A790B6943EA82030B61114B9B681A0E5A
:101AE0000B6943EA92130B61C2F3C2030B7502F058
:101AF00007034B750A4B9B68C3F3074253098B7569
:101B0000C2F38203CB750DE0B404002000800140D5
:101B1000080D0020B00400201C0D0020AC040020A3
:101B2000340D002093075B0F0B76F74B1B89C3F333
:101B300007220B7E43EAD2130B760B695B1C002451
:101B4000C1E912340B7E9B1C012404FA03F3DC1759
:101B5000D1E91256A5FB037C06FB03C305FB043346
:101B6000C1E912730C7A0123A3400B650024D1E96B
:101B700012650B6DA6FB037C05FB03C306FB043358
:101B8000C1E912732EE0E14B1B78022B2AD1DE4B08
:101B90001A7993069B0A0B61DB4B9B681A0E0B6943
:101BA00043EA02230B61D84B9B68C3F307420B69DE
:101BB00013430B61D44B1B89C3F307220B695B1CD6
:101BC0004FF40074A3FB04464FF480630025A4FB8C
:101BD000037C06FB03C304FB0533C1E912734FF416
:101BE00000730B65C2F3801301F8193F93065B0E77
:101BF0004B70C54B1A7A4B7843EAD2134B7002F004
:101C00007F038B70C04BDB681A0ED309CB70C2F315
:101C100041130B71C2F382034B7193071B0F8B713E
:101C2000B94BDB68C3F307428B7943EA92138B719C
:101C3000C2F34013CB7100230B7202F001034B720D
:101C4000B14B9B89C3F30722D3098B72C2F3801374
:101C5000CB72C2F340130B73C2F300134B73C2F386
:101C600081038B7302F00303CB73A74B1A7B5308DA
:101C70000B7401234B74A64B1B681A0ECA741939D6
:101C8000A34B1B68C3F307421402CC85A04B1B88EF
:101C9000C3F30722CB8D1343CB859D4B1A781406D3
:101CA0000C635B681A0E0B6B43EA02440C63984B9F
:101CB0005B68C3F307420B6B43EA02240C63944B4B
:101CC0009B88C3F307220B6B13430B63904B1A796A
:101CD00034235A548E4B9B681A0E35235A548C4B1E
:101CE0009B68C3F3074214068C63894B1B89C3F3BB
:101CF00007228B6B43EA02448C63854B1A7A8B6B09
:101D000043EA02248C63824BDB681A0E8B6B13430D
:101D10008B637F4BDB68C3F307423C235B5C43EA86
:101D200012143C235C5413071C0DCC87784B9B8901
:101D3000C3F30722CB8F1343CB87754B1A7B540811
:101D400040235C54012441235C54F0BD70B500264F
:101D50004FF4803505E06F48446B04F0450000B156
:101D600003E0281EA5F10105F5D100BF15B104F06F
:101D7000040028B103260420FFF765F8304670BD43
:101D80000120FFF756F818B101260120FFF75BF894
:101D900040F2FF50FFF757F83046F0E72DE9F041E9
:101DA00005460E464FF0000805E05A48476B07F01D
:101DB000450000B100E0F8E700BF0420FFF739F864
:101DC00028B10420FFF73FF80320BDE8F08101208F
:101DD000FFF72FF820B10120FFF735F80120F4E7D5
:101DE0004C480069A84201D01020EEE740F2FF50B5
:101DF000FFF729F84748446904F4604018B9200CFB
:101E000030804046E1E704F4005008B11320DCE7DD
:101E100004F4804008B11020D7E704F4004008B172
:101E20000F20D2E74046D0E738B5002401200090CB
:101E3000FEF773FF08B9252038BD34480078042820
:101E400021D000203449086002204860C02088600A
:101E50000020C8604FF4806008610846FEF772FFFA
:101E6000FFF774FF04460CB12046E5E729484069B6
:101E7000274908602748806948602648C06988600B
:101E80002448006AC8602148007858B11F4800788B
:101E9000012807D01D480078062803D01B48007889
:101EA000022816D100201C49086003204860402009
:101EB00088600020C8604FF4806008610846FEF723
:101EC00041FF69460320FFF769FF04460CB1204635
:101ED000B2E70E480078032820D1BDF800000004C6
:101EE0000D49086003204860402088600020C860D9
:101EF0004FF4806008610846FEF724FFFFF726FFD5
:101F000004465CB1204697E7340D0020AC04002065
:101F1000440D002000800140080D0020FE4800789C
:101F2000042827D0BDF80000FC490860BDF8000077
:101F30000004FB49086009204860C0208860002038
:101F4000C8604FF4806008610846FEF7FBFEFFF7AB
:101F5000FDFE04460CB120466EE7F2484069F249A6
:101F60000860F04880694860EE48C0698860ED48C4
:101F7000006AC86000205FE710B505E0E948446BDF
:101F800004F0450000B100E0F8E700BF0420FEF7D0
:101F900050FF20B10420FEF756FF032010BD40F291
:101FA000FF50FEF750FF0020F8E770B500264FF411
:101FB000803505E0DB48446B04F0450000B103E0E8
:101FC000281EA5F10105F5D100BF15B104F00400EC
:101FD00028B103260420FEF736FF304670BD04F01A
:101FE000400018B100264020FEF72DFF3046F5E7EF
:101FF00070B500254FF4803404E08020FEF719FF0F
:1020000000B103E0201EA4F10104F6D100BF0CB919
:10201000032070BD40F2FF50FEF715FF2846F8E799
:102020002DE9F0470027002400260025A046A14600
:10203000B220BE4908750020086048608860C8600A
:1020400008610846FEF73EFE0320FEF75BFE012016
:10205000FEF755FE00BF12E00020B149086048605D
:102060008860C8604FF4806008610846FEF76AFE29
:10207000FFF7BEFF044604B903E0781CC7B24A2F3D
:10208000EADB00BF14B12046BDE8F0874FF4D570FD
:10209000A349086008204860402088600020C8608C
:1020A0004FF4806008610846FEF74CFEFFF77DFFA5
:1020B000044624B90120984908704FF08049002057
:1020C0009749086037204860402088600020C86039
:1020D0004FF4806008610846FEF734FE3720FFF7B2
:1020E00023FB0446002C4BD134E000208C490860CF
:1020F00037204860402088600020C8604FF480602E
:1021000008610846FEF71EFE3720FFF70DFB044668
:102110000CB12046B8E7864849EA000080490860CB
:1021200029204860402088600020C8604FF480600B
:1021300008610846FEF706FEFFF71EFF04460CB1D5
:102140002046A1E777484669012080EAD67080F0F2
:1021500001086D1CB8F1000F03D14FF6FF708542E6
:10216000C3D34FF6FF70854202D31B2420468BE772
:1021700006F08040061E32D00220674908702EE02B
:102180001CE06C4866490860012048604020886077
:102190000020C8604FF4806008610846FEF7D2FD59
:1021A000FFF7EAFE04460CB120466DE75D4846693C
:1021B000012080EAD67080F001086D1CB8F1000F94
:1021C00003D14FF6FF708542DBD34FF6FF70854297
:1021D00002D31B24204657E703204F4908702046AE
:1021E00052E77CB50025002401213020FEF7F8FCE1
:1021F000012140F20240FEF7E6FC4FF4F850ADF842
:10220000000018208DF8030003208DF802006946B5
:102210004948FEF729FA0420ADF8000018208DF88F
:10222000030003208DF8020069464448FEF71CFABB
:102230008020ADF8000048208DF8030003208DF8C1
:10224000020069463D48FEF70FFAFEF72DFD3120EA
:102250008DF8040000208DF805008DF8060001209F
:102260008DF8070001A8FEF736F9FFF7D9FE0446FE
:1022700014B9FFF7D9FD04461CB93148FFF7D5FB67
:10228000044634B92E49B1F854100804FFF7B8FBDE
:1022900004461CB90120FFF784FB04461CB11E480C
:1022A0000078032812D1264890F8560020B124481F
:1022B00090F85600012801D10A2500E0042528469F
:1022C000FFF72AFA0020FFF71DFA044620467CBDDE
:1022D00010B50020FEF716FD002010BD70B58CB0C3
:1022E00006460C46154601210220FEF76CFC1548F7
:1022F000FEF7C4FD00211348FEF78DFE094880302B
:10230000019002960395A00804900020059080207B
:1023100006908000079017E0AC040020B004002075
:10232000080D002000800140340D0020F00C00203A
:10233000000010800080FF80001001400014014068
:10234000580D0020440402408000089000200990AD
:102350004FF400500A9000200B9001A9F748FEF7B7
:102360002FFE0021F548FEF756FE0CB070BD014669
:10237000002002E04910421CD0B20129FAD1704776
:102380002DE9F84F8146174698460A9C4FF0000AFF
:10239000D3464D464FF0FF36B9F1000F02D126204B
:1023A000BDE8F88F0020E649C862E64800780228B8
:1023B00005D10402780A40EAC8574FEA682800208D
:1023C000E14988604860401E0860012048610020A3
:1023D000C86008610846FEF7DEFCD948406900F095
:1023E000007008B10E20DBE7002C21DDB4F5006F92
:1023F0001EDC601E2040D8B92046FFF7B8FF0090D1
:10240000D24804601020D1494860402088600020F4
:10241000C8604FF4806008610846FEF793FC102006
:10242000FFF782F98246BAF1000F03D05046B7E7B2
:102430002620B5E700980001C3498860084644603B
:102440004FF0FF300860012048610220C860002082
:1024500008610846FEF79FFCBC4807601120BB4995
:102460004860402088600020C8604FF480600861A8
:102470000846FEF767FC1120FFF756F98246BAF1CD
:10248000000F01D050468BE7B1480078002856D1A4
:1024900018E04FF40040FEF7CCFC78B14FF0000B91
:1024A00006E0A7488030006845F82B000BF1010BCF
:1024B000BBF1080FF5D32035A64E03E00EB904207A
:1024C0006EE7761E9E48406B40F22A610840002865
:1024D000DFD00820FEF7ADFC20B10820FEF7B3FCEA
:1024E00004205DE70220FEF7A4FC20B10220FEF7E5
:1024F000AAFC022054E72020FEF79BFC20B12020FC
:10250000FEF7A1FC06204BE74FF40070FEF791FCAC
:1025100028B14FF40070FEF796FC072040E703E077
:10252000FEF75BFC28602D1D4FF40010FEF781FCC8
:102530000028F5D140F2FF50FEF785FC32E08448D8
:10254000007801282ED1002221464846FFF7C6FE1A
:1025500000208149087081490870814908707848D5
:10256000C06B40F22A3108437549C8630120FEF769
:10257000E6FB00E0761E71484438006800F4005025
:1025800038B97748007820B97348007808B9002E28
:10259000F0D10EB9042003E76F48007810B16E48FF
:1025A00090F800A05046FBE62DE9FF5F17469846DD
:1025B000DDE90E464FF00009CA464FF0FF35694984
:1025C0000098086000205E49C8625E4800780228D2
:1025D00005D10402780A40EAC8574FEA682800206B
:1025E000594988604860401E086001204861002009
:1025F000C86008610846FEF7CEFB5148406900F00C
:10260000007018B10E2004B0BDE8F09F002C21DD51
:10261000B4F5006F1EDC601E2040D8B92046FFF7DD
:10262000A6FE83464948046010204849486040207F
:1026300088600020C8604FF4806008610846FEF79B
:1026400081FB1020FFF770F88146B9F1000F03D02D
:102650004846D8E72620D6E7012E6ED906FB04F0BF
:10266000B0F1007F01D32620CDE74FEA0B103649A9
:10267000886006FB04F048604FF0FF3008600120DE
:1026800048610220C860002008610846FEF783FB0D
:102690002E48076012202D494860402088600020A5
:1026A000C8604FF4806008610846FEF74BFB1220BB
:1026B000FFF73AF88146B9F1000F01D04846A2E78A
:1026C0002348007800287DD11EE04FF40040FEF73B
:1026D000B0FBA8B14FF0000A08E01948803000684C
:1026E0002049096841F82A000AF1010ABAF1080FE5
:1026F000F3D31C48006820301A490860154D03E0E8
:102700000DB904207FE76D1E0D48406B40F22A3161
:1027100008400028D9D00820FEF78BFB20B1082004
:10272000FEF791FB04206EE70220FEF782FBD8B192
:102730000220FEF788FB022065E7A2E04404024085
:1027400000800140AC0400201C0D0020080D00207A
:10275000B4040020FFFF7F00B6040020B504002071
:10276000B7040020B80400202020FEF762FB20B14F
:102770002020FEF768FB062045E74FF40070FEF7C7
:1027800058FB28B14FF40070FEF75DFB07203AE7D5
:1027900009E0FEF722FBF84909680860F64800687E
:1027A000001DF54908604FF40010FEF742FB0028B9
:1027B000EFD14FF48070FEF73CFB20B3EF48007878
:1027C00048B100E024E0ED480078012803D0EB4850
:1027D0000078022817D10020E94908600C204860E1
:1027E000402088600020C8604FF48060086108467F
:1027F000FEF7A8FA0C20FEF797FF8146B9F1000F0B
:1028000001D04846FFE640F2FF50FEF71CFB38E0DF
:10281000DC480078012834D106FB04F1002200983E
:10282000FFF75CFD0020D84908700120D7490870E7
:102830000020D7490870D748C06B40F22A310843BE
:10284000D449C8630846C06A40F00800C86200E086
:102850006D1ED148006800F4005008B9002DF7D172
:102860000DB90420CFE600BFC948007818B9C648A2
:1028700000780028F8D0C448007810B1C24890F819
:1028800000904846BFE61CB5044600200190009029
:10289000C24800880004BA4908600D204860402002
:1028A00088600020C8604FF4806008610846FEF729
:1028B00049FAB848406B009002E0B648406B00907F
:1028C000009800F045000028F7D00120FEF7B1FA8B
:1028D00020B10120FEF7B7FA01201CBD0420FEF74D
:1028E000A8FA20B10420FEF7AEFA0320F5E7A948C4
:1028F00000690D2801D01020EFE740F2FF50FEF7ED
:10290000A2FAA448406901900198C0F343202070C6
:102910000020E2E72DE9FF5F86B017469846149D38
:1029200000260020059004900024814603908246F2
:1029300002900195DDF818B0DDF818B0BBF1000F7A
:1029400003D126200AB0BDE8F09F00209149C8625B
:10295000934988604860401E08600120486100205B
:10296000C86008610846FEF716FA8A48406900F018
:10297000007008B10E20E5E780480078022805D1F4
:102980000502780A40EAC8574FEA6828002D1FDD83
:10299000B5F5006F1CDC681E2840C8B92846FFF753
:1029A000E6FC059076480560102075494860402097
:1029B00088600020C8604FF4806008610846FEF718
:1029C000C1F91020FEF7B0FE06461EB13046B9E749
:1029D0002620B7E7714800880004694908600D2087
:1029E0004860402088600020C8604FF48060086123
:1029F0000846FEF7A7F90D20FEF796FE06460EB133
:102A000030469FE76348406903904FF0FF341BE076
:102A1000641E624800880004594908600D2048601F
:102A2000402088600020C8604FF48060086108463C
:102A3000FEF788F90D20FEF777FE06460EB1304608
:102A400080E7544840690390039800F4807008B907
:102A5000002CDDD10CB9292074E749480760182003
:102A600047494860402088600020C8604FF480607B
:102A700008610846FEF766F91820FEF755FE06467F
:102A80000EB130465EE7002040490870059800010D
:102A900043498860084645604FF0FF3008600120D8
:102AA00048610020C86008610846FEF774F94FF0DD
:102AB000FF343448007800285DD143E04FF4804073
:102AC000FEF7B7F9C8B30198A0EB0900202821D27E
:102AD0000198A0EB090000F0030020B90198A0EBD9
:102AE0000900800804E00198A0EB09008008401C60
:102AF00002904FF0000A09E0DBF80000FEF771F9E0
:102B00000AF1010A0BF1040B09F10409029882454C
:102B1000F2D30FE04FF0000A05E05BF82A00FEF761
:102B200060F90AF1010ABAF1080FF6D30BF1200B94
:102B300009F120096FF0404404E0FFE70CB90420DC
:102B400000E7641E1348406B40F21A6108400028F9
:102B5000B4D00820FEF76DF920B10820FEF773F914
:102B60000420EFE60220FEF764F9D8B10220FEF758
:102B70006AF90220E6E62EE0B8040020AC0400204A
:102B8000080D0020B4040020B6040020B504002085
:102B9000B70400200080014000040240B00400207F
:102BA0001C0D00201020FEF744F920B11020FEF784
:102BB0004AF90520C6E64FF40070FEF73AF928B14D
:102BC0004FF40070FEF73FF90720BBE640F2FF50DC
:102BD000FA4988633EE0FA48007801283AD1102289
:102BE00029460698FFF77AFB0020F6490870F64957
:102BF0000870F6490870F148C06B40F21A3108437A
:102C0000EE49C8630846C06A40F00800C86200E0A8
:102C1000641EEF48006800F4005008B9002CF7D19A
:102C20001CB9FFF7DEFA04208CE64FF0FF3400E019
:102C3000641EE648007820B9E248007808B9002C04
:102C4000F6D10CB904207DE6DE48007810B1DD48ED
:102C5000007877E640F2FF50FEF7F5F804A8FFF79A
:102C600012FE064603E004A8FFF70DFE06463EB935
:102C70009DF810000728F6D09DF810000628F2D025
:102C800030465FE62DE9FF5F84B0DDE9124700269C
:102C9000002003900290002580468146019007FBAA
:102CA00004FBDDF810A0DDF810A0BAF1000F03D18D
:102CB000262008B0BDE8F09F0020C049C862C54981
:102CC00088604860401E0860012048610020C8609C
:102CD00008610846FEF75FF8B848406900F00070E8
:102CE00008B10E20E5E7BC480078022808D10402AC
:102CF000DDE90601400A40EAC1504912CDE906016A
:102D0000002C1FDDB4F5006F1CDC601E2040C8B92C
:102D10002046FFF72CFB0390B04804601020AF4919
:102D20004860402088600020C8604FF480600861DF
:102D30000846FEF707F81020FEF7F6FC06461EB11F
:102D40003046B6E72620B4E7012F7CD907FB04F014
:102D5000B0F1007F01D32620ABE79F48007838B15F
:102D60009D480078012803D09B48007802282DD187
:102D70009B4800880004994908603720486040203B
:102D800088600020C8604FF4806008610846FDF745
:102D9000D9FF3720FEF7C8FC06460EB1304688E75B
:102DA0008E48076017208D494860402088600020C9
:102DB000C8604FF4806008610846FDF7C3FF172024
:102DC000FEF7B2FC06460EB1304672E7834906981C
:102DD000086019204860402088600020C8604FF4D7
:102DE000806008610846FDF7ADFF1920FEF79CFCE6
:102DF00006460EB130465CE70398000175498860CD
:102E000007FB04F048604FF0FF3008600120486184
:102E10000020C86008610846FDF7BDFF68480078DB
:102E2000002870D1451E41E06448406B00F48040AA
:102E3000B8B3ABEB0800202820D2ABEB080000F0C1
:102E4000030028B900E0E2E0ABEB0800800803E0F3
:102E5000ABEB08008008401C01904FF0000909E02E
:102E6000DAF80000FDF7BDFF09F101090AF1040AD3
:102E700008F1040801988145F2D30FE04FF00009F2
:102E800005E05AF82900FDF7ACFF09F10109B9F195
:102E9000080FF6D30AF1200A08F120086FF0404528
:102EA00004E0FFE70DB9042003E76D1E4348406BC3
:102EB00040F21A3108400028B6D00820FDF7B9FFCB
:102EC00020B10820FDF7BFFF0420F2E60220FDF745
:102ED000B0FF20B10220FDF7B6FF0220E9E6102086
:102EE000FDF7A7FF20B11020FDF7ADFF0520E0E6BC
:102EF0004FF40070FDF79DFF30B14FF40070FDF707
:102F0000A2FF0720D5E62AE04FF48070FDF791FF7D
:102F100000B33148007838B12F480078012803D039
:102F20002D480078022815D100202C4908600C207B
:102F30004860402088600020C8604FF480600861CD
:102F40000846FDF7FFFE0C20FEF7EEFB06460EB12D
:102F50003046AEE640F2FF50FDF775FF57E01848E7
:102F60000078012853D107FB04F110220498FFF7E1
:102F7000B5F900201349087001201349087000209A
:102F8000124908700D48C06B40F21A3108430B49D2
:102F9000C8630846C06A40F00800C8624FF0FF35B9
:102FA00000E06D1E0A48006800F4005008B9002DCA
:102FB000F7D1BDB9FFF715F904207AE6008001408A
:102FC000B4040020B6040020B5040020B70400209B
:102FD000000402401C0D0020AC040020080D00205D
:102FE000B00400204FF0FF3500E06D1EC2480078AD
:102FF00020B9C248007808B9002DF6D10DB90420D7
:1030000057E6BE48007810B1BC48007851E640F25F
:10301000FF50FDF718FF02A8FFF735FC064603E056
:1030200002A8FFF730FC06463EB99DF808000728C5
:10303000F6D09DF808000628F2D0304639E610B5E3
:10304000AF48406B00F4807070B3AE480078012840
:1030500014D10020AC4908600C20486040208860F2
:103060000020C8604FF4806008610846FDF76AFEE2
:103070000C20FEF759FBA149087002E000209F498F
:1030800008709F48806B40F480709D4988630846B3
:10309000C06B4CF23A3188439949C8630120964984
:1030A00008709648007810BD0220FDF7C2FE68B196
:1030B0000220FDF7C8FE9248C06B4CF23A318843BB
:1030C0008F49C86302208D490870ECE70820FDF79E
:1030D000B0FE68B10820FDF7B6FE8948C06B4CF21F
:1030E0003A3188438649C863042084490870DAE786
:1030F0002020FDF79EFE68B12020FDF7A4FE804849
:10310000C06B4CF23A3188437D49C86306207B4945
:103110000870C8E71020FDF78CFE68B11020FDF79D
:1031200092FE7748C06B4CF23A3188437449C863C9
:10313000052072490870B6E74FF40070FDF779FE7C
:1031400070B14FF40070FDF77EFE6D48C06B4CF21D
:103150003A3188436A49C863072068490870A2E782
:103160000020A0E710B5FFF76AFF10BD70B5044658
:10317000002514B92625284670BD6448008800043F
:10318000614908600D204860402088600020C860C8
:103190004FF4806008610846FDF7D4FD0D20FEF76E
:1031A000C3FA05460DB12846E6E755484069206058
:1031B0002846E1E708B5002000906846FFF7D6FFF3
:1031C00008B1FF2008BD0098C0F34320FAE72DE9BD
:1031D000FE4F83460C46914600200290002625466D
:1031E0002C46700240EAD5566D020BF00300F0B198
:1031F0004FF0000A18E04FF4007000904FEA4A20A8
:10320000471946EBE0733A464148FFF7B9F8029098
:103210004FF400723E49584600F0E4FD0BF5007B88
:103220000AF1010000F0FF0ACA45E4DB16E0B9F13B
:10323000010F09D14FF400702A46334600905846DA
:10324000FFF79EF8029009E04FF400702A463346DB
:10325000CDE900095846FFF7A7F902900298BDE8AA
:10326000FE8F2DE9FE4F81460C46924600200290CB
:10327000002625462C46700240EAD5566D0209F01C
:103280000300F0B14FF0000B18E04FF40072494614
:103290001F4800F0A7FD4FF4007000904FEA4B204C
:1032A000471946EBE0733A461948FFF733FB0290A3
:1032B00009F500790BF1010000F0FF0BD345E4DBC9
:1032C00016E0BAF1010F09D14FF400702A463346D7
:1032D00000904846FFF71EFB029009E04FF4007093
:1032E0002A463346CDE9000A4846FFF7CBFC029058
:1032F0000298BDE8FE8F0000B7040020B60400204D
:1033000000800140B5040020080D0020B00400201A
:10331000B00D002010B5FEF764FF0446204610BD36
:103320002DE9F0470446884616461F464FF001092E
:10333000012241461C48FFF74AFF8246BAF1000FBE
:103340000DD1002508E03046711C8EB21649085C8C
:1033500004F8010B681C85B2BD42F4DB02E048466C
:10336000BDE8F0874FF000094846F9E770B504461C
:103370000E4600250CB9032070BD012231462046BF
:10338000FFF76FFF054607E0FEF72BFF01223146EE
:103390002046FFF766FF0546002DF5D10DB9002048
:1033A000EAE70120E8E70000B00F002030B503464F
:1033B00001E003F8011B141EA2F10102F9D130BD96
:1033C000F0B503461C460D46002000BF161EA2F1B4
:1033D000010207D014F8017B15F801CBA7EB0C060E
:1033E000301EF3D0F0BD2DE9F8430546FE480668CF
:1033F000022D02D3B068A84202D80120BDE8F883AC
:103400003078012804D0022846D0032820D160E07B
:10341000ACB2204604EBD07104EB61018CB22046C3
:10342000E11704EBD1514912A4EB41211FFA81F8B5
:10343000E11704EBD1514C1240F2FF10804508D047
:10344000F0680119022342466846FFF769FFA8B1F8
:1034500066E0F0680119012340F2FF126846FFF7A9
:103460005FFF00B15CE0F0682044411C01230022B2
:103470000DF10100FFF754FF00B151E09DF800008D
:103480009DF8011040EA012705F0010008B138114C
:10349000B4E7C7F30B00B1E71FFA85F94FEAE9700B
:1034A00009EB10600012A9EB00204FF6FF7303EA4E
:1034B0004002F06800EB152102236846FFF730FF59
:1034C00000B12DE09DF800009DF8011040EA0120B8
:1034D00094E71FFA85F94FEAE97009EB5060C011D3
:1034E000A9EBC0104FF6FF7303EA8002F06800EB0F
:1034F000D51104236846FFF713FF00B110E09DF8D3
:10350000030000069DF8021040EA01409DF80110FA
:1035100040EA01209DF80010084320F070406DE75C
:1035200000BF01206AE70146AF480268891E906823
:10353000801E884201D8002070479378506901FBB3
:103540000300F9E770B50546A74806680020288003
:10355000AC68012C02D0B068A04201D8012070BD37
:103560001CB93078032800D13469EC601CB12046C6
:10357000FFF7D9FF00E0306928610020EFE72DE96F
:10358000F0410446984807682088401C85B20DB178
:10359000206910B90320BDE8F081E91705EB11712E
:1035A0000911A5EB011119BB2069401C2061E068DD
:1035B00020B9B888A8421BDC0320ECE7E91705EB2B
:1035C0001171BA78521E02EA211189B9E068FFF739
:1035D0000AFF0646012E01D80120DCE7B868B04298
:1035E00001D80320D7E7E6603046FFF79CFF206153
:1035F00025800020CFE72DE9F04104460D46204606
:10360000FFF7A0FF064616B13046BDE8F08100BFC7
:103610002788F81707EB10700011A7EB00104FF682
:10362000FF7303EA4012202328462169FFF778FE42
:1036300008B1012000E00020064606B117E095F829
:103640000080B8F1000F01D1032610E0E87A00F005
:10365000080030B90B2228466168FFF7B1FE00B9B7
:1036600005E02046FFF78BFF0646002ED0D000BFB6
:103670003046CAE72DE9F04704460D4603262DE003
:10368000B4F800804FEAE87008EB10700011A8EB66
:1036900000104FF6FF7303EA4012202328462169E9
:1036A000FFF73EFE08B1012000E00020064606B10B
:1036B00017E02F780FB9032613E0E87A00F03F09EE
:1036C000E52F05D02E2F03D009F0080000B908E03F
:1036D0002046FFF754FF064606B102E020690028A5
:1036E000CED100BF0EB1002020613046BDE8F0878A
:1036F0002DE9F05F07460D467E680B2220213046FB
:10370000FFF754FE0020824681464FF00808D5F8A6
:1037100000B000BF4846411C01F0FF091BF8004003
:10372000202C01DD2F2C00D11CE02E2C01D0C24515
:103730000ADBB8F1080F01D12E2C00D012E04FF0B7
:10374000080A4FF00B08E5E700BF612C04DB7A2C78
:1037500002DCA4F12000C4B25046411C01F0FF0A73
:103760003454D7E700BF0BEB09002860202C01DCA4
:10377000012000E00020F0720020BDE8F09FF0B5CD
:103780000546134603F109022E69002E3DD00020A4
:103790000AE00C5C202C00D108E0052C00D1E524C7
:1037A00002F8014B461CF0B20828F2DB00BF0E7A8B
:1037B000202E0FD02E2602F8016B082007E00C5CAB
:1037C000202C00D105E002F8014B461CF0B20B287A
:1037D000F5DB00BFCE7A1E72CE7F37068E7F47EABA
:1037E00006474E7F02E00000BC04002047EA0626A0
:1037F0000F7F3E431E600F7E4E7E47EA06269E8068
:103800008F7DCE7D47EA0626DE8000261670F0BD4D
:10381000F7B505460C4602E00298401C029002985B
:1038200000782028F8D0029800782F2802D102983A
:10383000401C02900020A86002980078202806DC36
:103840002846FFF77FFE0646002020702BE000BFD1
:1038500002A92846FFF74CFF064606B122E02146A2
:103860002846FFF7C8FE064636B1032E03D1686826
:10387000C07A00B9042615E06868C07A00B111E08A
:10388000E07A00F0100008B904260BE0A17EE07E8B
:1038900041EA0021227D607D42EA002041EA0040A9
:1038A000A860D5E700BF3046FEBD70B504460D46A2
:1038B00002234FF4FF7229462046FFF731FD08B17D
:1038C000032070BD2078617840EA01204AF6552136
:1038D000884201D00220F4E70223362229462046FE
:1038E000FFF71EFD48B92078617840EA012044F2D4
:1038F0004611884201D10020E3E7022352222946E3
:103900002046FFF70DFD48B92078617840EA012094
:1039100044F24611884201D10020D2E70120D0E7CD
:103920002DE9F04389B004460020FE49086014B92F
:1039300009B0BDE8F083FFF7EDFC00F0010008B12D
:103940000220F5E74FF0000841466846FFF7ADFF5B
:103950000546012D20D110234FF4DF724146684601
:10396000FFF7DEFC08B1032516E09DF8040098B1CE
:103970009DF80B0001069DF80A0041EA00419DF800
:10398000090041EA00209DF8081040EA010841467C
:103990006846FFF78AFF0546032D01D10120C7E7DE
:1039A0000DB10720C4E724230D2241466846FFF7E6
:1039B000B7FC08B10120BBE79DF809109DF80A008B
:1039C00041EA002676B99DF81A0001069DF8190013
:1039D00041EA00419DF8180041EA00209DF81710C7
:1039E00040EA01069DF8030046439DF801109DF84A
:1039F000020041EA00204044E0609DF80000A07011
:103A00009DF804109DF8050041EA0020A0809DF873
:103A100006109DF8070041EA0029B9F1000F0ED108
:103A20009DF8160001069DF8150041EA00419DF839
:103A3000140041EA00209DF8131040EA01099DF8A6
:103A400001209DF8021042EA0121A9EB0101891B26
:103A5000A088C21700EB1272A1EB2211A278B1FB71
:103A6000F2F18F1CA760022540F6F770874200D262
:103A700001254FF6F770874200D303252570032DEB
:103A80000FD19DF8220001069DF8210041EA004176
:103A90009DF8200041EA00209DF81F100843206196
:103AA00002E0E06830442061A088C11700EB11718A
:103AB000E268324402EB2111616100206070994894
:103AC0000460002034E770B590B00646954804685D
:103AD00014B9062010B070BD0020607008A80C90CA
:103AE000324669460BA8FFF793FE05460DB12846FE
:103AF000F0E79DF8000020B19DF80B0000F01000E9
:103B000008B10320E6E79DF81A109DF81B0041EA72
:103B100000219DF814209DF8150042EA002041EA9A
:103B2000004020629DF81F0001069DF81E0041EA3A
:103B300000419DF81D0041EA00209DF81C1008433B
:103B4000E0610020A061012060700020C2E72DE943
:103B5000FE4F81460D461746CDF800907148046827
:103B60000020388014B90620BDE8FE8F607800F090
:103B7000010008B90520F7E7D4E90610A0EB010B16
:103B80005D4501D91FFA8BF54BE0208BC0F308008F
:103B900008BBA078401EA16900EA5120C0B2019084
:103BA000019868B9A06908B9206A02E0606AFFF765
:103BB0001AFC02900298012800D836E00298606250
:103BC000606AFFF7B0FC8046B8F1000F00D12CE02E
:103BD00001984044A062208BC0F30800C0F5007635
:103BE000AE4200DD2E46238BC3F30802A16AB9F171
:103BF000000F01D1002300E0009B18463346FFF779
:103C00008FFB8246BAF1000F00D00EE0A06930446D
:103C1000A061009830440090A81B85B238883044D9
:103C20003880002DB1D100209EE700206070012077
:103C30009AE72DE9F04705463A48046814B906208A
:103C4000BDE8F087607800F0010008B90520F7E7CB
:103C5000E069A84200D2E569D4F818800020A0618C
:103C6000002D3CD0A0784702B8F1000F11D0681E9B
:103C7000B0FBF7F1A8F10100B0FBF7F0814208D3E7
:103C8000A8F10100791E8843A061A0692D1A666A17
:103C900001E0266A66620EE03046FFF7A4FB0646A6
:103CA000012E02D9A068B04200D81AE06662A0696D
:103CB0003844A061ED1BBD42EED8A0692844A06144
:103CC0003046FFF730FC8146B9F1000F00D108E023
:103CD000A078401EA16900EA51204844A06200205B
:103CE000AEE7002060700120AAE7F0B58BB0054672
:103CF0000E460C4807680FB906242CE008A8686037
:103D0000324669462846FFF783FD044604BB9DF80A
:103D10000000C0B19DF80B0000F0100090B19DF8BC
:103D20001A1001E0BC0400209DF81B0041EA0021AC
:103D30009DF814209DF8150042EA002041EA004059
:103D4000A86000E004241CB92846FFF7FBFB0446EA
:103D5000032C00D1042420460BB0F0BDF0B58BB08D
:103D600005460E46144807680FB9062420E008A847
:103D7000686026B92846FFF7E5FB044618E0694667
:103D80002846FFF777FC0446032C02D10020286167
:103D900000246CB9324669462846FFF7F0FC2846F5
:103DA000FFF7EDFB0446032C02D10020286100241C
:103DB00020460BB0F0BD0000BC0400200FB41CB5C1
:103DC000074B06AA7B4469460090059800F057F817
:103DD0000020694600F066F81CBC5DF814FB00008A
:103DE000DD000000032A40F2308010F0030C00F0E8
:103DF000158011F8013BBCF1020F624498BF11F825
:103E000001CB00F8013B38BF11F8013BA2F10402DD
:103E100098BF00F801CB38BF00F8013B11F0030355
:103E200000F04580083AC0F0088051F8043B083A99
:103E300051F804CBA0E80810F5E7121D5CBF51F85B
:103E4000043B40F8043BAFF30080D20724BF11F8D5
:103E5000013B11F801CB48BF11F8012B24BF00F83A
:103E6000013B00F801CB48BF00F8012B70477047B9
:103E70007047704701694A1C02610878704700B5B5
:103E80008FB0CDE901310021059105497944CDE993
:103E900003101146684600F03CF80FB000BD00006A
:103EA000E5FFFFFF0A6802F8010B0A60704710B5D2
:103EB000203AC0F00B80B1E81850203AA0E8185022
:103EC000B1E81850A0E81850BFF4F5AF5FEA027CE3
:103ED00024BFB1E81850A0E8185044BF18C918C052
:103EE000BDE810405FEA827C24BF51F8043B40F8F3
:103EF000043B08BF7047D20728BF31F8023B48BFD8
:103F000011F8012B28BF20F8023B48BF00F8012B15
:103F100070472DE9F04106460024D6E90170F568A6
:103F20008046304603E04146B847641C3046A84707
:103F30000028F8D12046BDE8F081754600F02CF845
:103F4000AE4605006946534620F00700854618B086
:103F500020B5FDF7CBF8BDE820404FF000064FF04C
:103F600000074FF000084FF0000B21F00701AC46AE
:103F7000ACE8C009ACE8C009ACE8C009ACE8C009CD
:103F80008D46704710B50446AFF300802046BDE86B
:103F90001040FCF734B9000000487047B011002011
:103FA00001491820ABBEFEE7260002007047000062
:103FB000000000000000002F0000000007000700C4
:103FC00000147F147F1400242A7F2A1200626408E0
:103FD000132300364955225000000503000000005D
:103FE0001C224100000041221C000014083E08145D
:103FF0000008083E0808000000A06000000808084B
:104000000808000060600000002010080402003E64
:104010005149453E0000427F4000004261514946FF
:10402000002141454B31001814127F1000274545EF
:104030004539003C4A494930000171090503003601
:104040004949493600064949291E00003636000014
:104050000000563600000008142241000014141419
:104060001414000041221408000201510906003214
:104070004959513E007C1211127C007F4949493652
:10408000003E41414122007F4141221C007F4949BD
:104090004941007F09090901003E4149497A007FF1
:1040A0000808087F0000417F4100002040413F0197
:1040B000007F08142241007F40404040007F020CF6
:1040C000027F007F0408107F003E4141413E007F97
:1040D00009090906003E4151215E007F0919294660
:1040E0000046494949310001017F0101003F40403C
:1040F000403F001F2040201F003F4038403F0063EA
:10410000140814630007087008070061514945430B
:1041100000007F41410000552A552A5500004141C9
:104120007F000004020102040040404040400000C3
:1041300001020400002054545478007F484444385D
:1041400000384444442000384444487F00385454E4
:10415000541800087E0901020018A4A4A47C007F62
:10416000080404780000447D4000004080847D0005
:10417000007F102844000000417F4000007C0418AC
:104180000478007C0804047800384444443800FC77
:10419000242424180018242418FC007C0804040893
:1041A00000485454542000043F444020003C404008
:1041B000207C001C2040201C003C4030403C00443F
:1041C00028102844001CA0A0A07C004464544C4447
:1041D0001414141414140000000000000000000067
:1041E000000000000000000000F8000000000000D7
:1041F00000333000000000100C06100C0600000018
:1042000000000000000040C07840C0784000043F3B
:1042100004043F040400007088FC0830000000180B
:1042200020FF211E0000F008F000E018000000212F
:104230001C031E211E0000F00888700000001E21D3
:1042400023241927211010160E0000000000000082
:10425000000000000000000000E018040200000060
:1042600000071820400000020418E0000000004091
:10427000201807000000404080F08040400002020B
:10428000010F01020200000000F000000000010127
:10429000011F01010100000000000000000080B0CB
:1042A000700000000000000000000000000000019D
:1042B00001010101010100000000000000000030C8
:1042C0003000000000000000000080601804006062
:1042D00018060100000000E010080810E000000FC0
:1042E000102020100F00001010F800000000002027
:1042F000203F20200000007008080888700000306F
:104300002824222130000030088888483000001816
:10431000202020110E000000C02010F8000000072F
:104320000424243F240000F80888880808000019A5
:10433000212020110E0000E0108888180000000FD6
:10434000112020110E0000380808C83808000000AD
:10435000003F000000000070880808887000001C02
:10436000222121221C0000E010080810E0000000BB
:10437000312222110F00000000C0C0000000000028
:10438000003030000000000000800000000000004D
:104390008060000000000000804020100800000144
:1043A0000204081020004040404040404000040407
:1043B00004040404040000081020408000000020D1
:1043C000100804020100007048080808F00000000E
:1043D000003036010000C030C828E810E00007189F
:1043E000272423140B000000C038E0000000203C0C
:1043F00023020227382008F8888888700000203FB0
:10440000202020110E00C0300808080838000718C6
:1044100020202010080008F808080810E000203FBD
:10442000202020100F0008F88888E8081000203F9E
:1044300020202320180008F88888E8081000203F72
:10444000200003000000C0300808083800000718EA
:104450002020221E020008F808000008F808203F6B
:10446000210101213F20000808F808080000002071
:10447000203F2020000000000808F8080800C08045
:1044800080807F00000008F888C028180800203FBE
:1044900020012638200008F8080000000000203F16
:1044A00020202020300008F8F800F8F80800203F0D
:1044B000003F003F200008F830C00008F808203F07
:1044C000200007183F00E01008080810E0000F1057
:1044D000202020100F0008F808080808F000203FEE
:1044E000210101010000E01008080810E0000F1889
:1044F000242438504F0008F8888888887000203FAE
:104500002000030C302000708808080838000038AC
:10451000202121221C00180808F8080818000000B3
:10452000203F2000000008F808000008F808001FDD
:10453000202020201F000878880000C838080000CC
:1045400007380E010000F80800F80008F800033CE6
:104550000700073C030008186880806818082030AE
:104560002C03032C30200838C800C838080000008D
:10457000203F2000000010080808C8380800203834
:10458000262120201800000000FE02020200000088
:10459000007F40404000000C30C0000000000000E0
:1045A00000010638C00000020202FE0000000040C8
:1045B00040407F00000000000402020204000000EE
:1045C00000000000000000000000000000008080EB
:1045D00080808080808000020204000000000000D3
:1045E00000000000000000008080808000000019B2
:1045F000242222223F2008F8008080000000003F93
:10460000112020110E000000008080800000000EAC
:10461000112020201100000000808088F800000E8A
:10462000112020103F200000808080800000001FAB
:10463000222222221300008080F08888881800201F
:10464000203F202000000000808080808000006BE0
:1046500094949493600008F8008080800000203FCC
:10466000210000203F2000809898000000000020DA
:10467000203F20200000000000809898000000C02B
:104680008080807F000008F8000080808000203F4C
:1046900024022D302000000808F80000000000204F
:1046A000203F202000008080808080808000203F8C
:1046B00020003F20003F8080008080800000203F5D
:1046C000210000203F200000808080800000001F2B
:1046D000202020201F00808000808000000080FFBC
:1046E000A12020110E000000008080808000000EBC
:1046F000112020A0FF80808080008080800020200A
:104700003F21200001000000808080808000003375
:10471000242424241900008080E080800000000010
:10472000001F202000008080000000808000001F0B
:10473000202020103F2080808000008080800001A9
:104740000E300806010080800080008080800F30DD
:104750000C030C300F00008080008080800000205F
:10476000312E0E312000808080000080808080818A
:104770008E701806010000808080808080000021FB
:10478000302C2221300000000000807C020200005A
:104790000000003F404000000000FF00000000005B
:1047A0000000FF0000000002027C800000000040CA
:1047B000403F000000000006010102020404000066
:1047C000000000000000320100710040FFFFFFFF09
:1047D000FFFFFFFFFFFFFFFFFFFFFFFFFFFFFFFFE9
:1047E000FFFFFFFFFFFFFFFFFFFFFFFFFFFFFFFFD9
:1047F000FFFFFFFFFFFFFFFFFFFFFFFFFFFFFFFFC9
:10480000FFFFFFFFFFFFFFFFFFFFFFFFFFFFFFFFB8
:10481000FFFFFFFFFFFFFFFFFFFFFFFFFFFF7FFF28
:10482000FFFFFFFFFFFFFFFFFFFFFFFFFFFFFFFF98
:10483000FFFFFFFFFFFFFFFFFFFFFFFFFFFFFFFF88
:10484000FFFFFFFFFFFFFFFFFFFFFFFFFFFF7FFFF8
:10485000FFFFFFFFFFFFEEFFFFFFFFFFFFFFFFFF79
:10486000FFFFFFFFFFFFFFFFFFFFFFFFFFFFEF1F48
:104870003F8F030B1B990BFBFBFFFFFFFFFFFFFFAE
:10488000FFFFFFFFF7F7FFFFFFFFFFFFFFFFFFFE49
:10489000FDFFFFFFFFFFFFFFFFFFFFFFFFFFFFFF2A
:1048A000FFFFFFFFFFFFFFFFFFFFFFFFFFFFFFFF18
:1048B000FFF7FFEFFFFFF3F7F7EBFFFFFFFFF7E275
:1048C000F7FFFFFFFFFFFFFFFFFFFFFFFFFFFFFF00
:1048D000FFFFFFFFFFFDFFFFFFF7FBF7FFFFFF7F7E
:1048E0003EC0100001450073FFFFFFFFFFFFFFFF09
:1048F000FFFFFFFFFFFFFFFFFFFFFFFFFFFFFFF7D0
:10490000FFFFDFFFFFFFFFFFFFFFFFFFDFFFFFFFF7
:10491000FFFFFFFFFFFFFFFFFFFFFFFFFFFFFFFFA7
:10492000FFFFFFFFFFFFFFFFFFFFFFFFFFFFFFCFC7
:10493000C7FFFFFFFFFFFFFFFFFFFFFFFFFFFFFFBF
:10494000FFFFFFFFFFFFFFFFFFFFFFFFFFFFFFFF77
:10495000FFFCF88000E0E0FFFFFFFFFFFFFFFFFF2D
:10496000FFFFFFFFFFFFFFFFFFFFFFFFFFFFFFFF57
:10497000FFFFFFFFFFFFFFFFFFFFFFFFFFFFFFFF47
:10498000FFFFFFFFFFFFFFFFFFFFFFFFFFFFFFFF37
:10499000FFFFFFFFFFFFFFFFFFFFFFFFFFFFFFFF27
:1049A000FFFFFFFFFFFFFFFFFFFFFFFFFFFFFFFF17
:1049B000FFFFFFFFFFFFFFFFFFFFFFFFFFFFFFFF07
:1049C000FFFFEF7BFF9EFF7F5DDFFFFFEFFFFFFF3E
:1049D000DFFFFFFBFFFFFFFFFFFFFFFFFFFFFFFF0B
:1049E000FFFFFFFFFFFFFFFFFFFFFFCFFFFFFFFF07
:1049F000FFFFFFFFFFFFFFFFFFFFFFFFFFFFFFFFC7
:104A0000FFFFFFFFFFFFFFFFFFFFFFFFFFFFFFFDB8
:104A1000FFFFFFFFFFFFFFFFFFFFFFFFFFFFFFFFA6
:104A2000FFFFFFFFFFFFFFFFFFFFFFFF7FFFFFFF16
:104A3000FFFF7F00C0F8FEC120FEFFFFFFFFFFFF6A
:104A4000FEEFFFFFFFFFFFFFFFFFFFFFFFFFFFFF87
:104A5000FFFFFFFFFFFFFFFFFFFFFFFFFFFFFFFF66
:104A6000FFFFFFFFFFFFFFFFFFFFFFFFFFFFFFFF56
:104A7000FFFFFFFFFFFFFFFFFFFFFFFFFFFFFFFF46
:104A8000FFFFFFFFFFFFFFFFFFFFAF4F6F4F7F6F86
:104A90000F6FFFFFFFFFFFFFFFFFFFFFF7FFFFFFAE
:104AA000FFFFFFFFFEE31FFFFF00FCFFFFFFFFFF15
:104AB000FFFDFFFFF7FFFFFFFFFFFFFFFFFF7FBFD0
:104AC0005F1F7F1F1F1F7F1F1F7F1FFF1F1FBF1F16
:104AD0003F1FFFFFFFFFFFFFFFFFFFFFFFFFFFFF86
:104AE000FFFFFFFFFFFFFFFFFFFFFFFFFFFFFFFFD6
:104AF000FFFFFFFFFFFFFFFFFFFFFFFCFFFEF8FFD1
:104B0000FFFCFFFFFFFFFFFFFFFFFFFFFFFFFFFFB8
:104B1000FFFFFFFFFFFFFFF807DFC6BFFFFFFFFF3D
:104B2000FFFFFFFFFFFFFFFFFFFFFFFFFFFFFFFF95
:104B3000FFFFFCFEFFFEFEFFFFFCFEFEFFFCFCFE97
:104B4000FCFCFCFFFFFFFFFFFFFFFFFFFFFFFFFF7E
:104B5000FFFFFFFF00000000000000000000000059
:104B60000000000000000000000000000000000045
:104B70000000000000000000000000000000000035
:104B80000000000000000000000000000000000025
:104B90000000000000000000000000000000000015
:104BA0000000000000000000000000000000000005
:104BB0000000808000000000FFFF06040C0C0808C5
:104BC00008181818101010101030200E7EEEAC4887
:104BD00090500080800000000000000000000000F5
:104BE00000000000000000000000000000000000C5
:104BF00000000000000000000000000000000000B5
:104C0000000080C0E0A0984CC42EBEFEFE7F0000D5
:104C10000000002020202020713100000000FFFF54
:104C2000B8181818181030303030303030202020AC
:104C3000606060614C3AFACCE862E2F25526584C6A
:104C40006008320E0601F0190B0243DF20BBDB2E99
:104C50001E3489040138FB380403CFFBBEFEECFC94
:104C6000F8A8E030749A397313B3E7FDFEFDFEFF38
:104C7000FF3F0740404040C0C0C0C0C0C0C00000AF
:104C800000000000FFFF7FF8F0E0E060E0E0E0E01F
:104C9000E0C0C0C0C0C0C0C0C0C0C0C0C0C7FFFF6F
:104CA0003F3E191078FCFEFEFEEEECFCF88080071B
:104CB000070600010D869F8581C0F0F8F9FCFCFC19
:104CC000FEFDFDFFF8F0327F7EFDFBF3EF7FBEFFC0
:104CD000FFFFFFFF3F07008080808080808083C3CC
:104CE000C3C3C3C3C3C0C00000C0FFFFFEFFFFF0CB
:104CF000C080808080808080808080808080808074
:104D000000280F87C3EFFEFEBCFACE0480410100ED
:104D10000001001F1FFFFEFE3F1F1F0B0100034786
:104D200044804001C1819DFDC1F1FCF8FCFCFEBF47
:104D3000FF7FBF7F7FFFFFFFFF80000000000000BC
:104D400000010787878787878F8F8FCFCF0000FF6E
:104D5000FFFFFFFFFFFFFFFF430303030303030303
:104D60000303030303033FFFD7EFFFD7F1CBC38256
:104D7000E080C090C0C0F0F8F8FCFEFFFFFFFFFC31
:104D8000FCF8F8F0F0F0D098E8C1E1F147FBF7BF8C
:104D9000FFEFFEDFFFFFFFFFFCFAF3CF87F7FFF720
:104DA00041010101010101010FFFFFFFFFFFFFFFB3
:104DB000FFFFFF00E0FFFFFF070F0F0000000000F4
:104DC00000000000000000000000000000F0FDFFF7
:104DD000FFFFFFFFFFFFFFFEFFFFFFFFFFFFFCFEE8
:104DE000FFFFFFFFFEFFFFFFFFFFFFFFFFFFFFFFD4
:104DF000FFFFFFFEFDFFFFFFFFFFFFFFFFFFFFFFC6
:104E0000FFFFFFFFFFFF7F7C786000004060FFFF37
:104E1000FFFFFFFFFFFFFFFFFFE0FFFFFFFF0000BF
:104E20000000000000000000000000000000000082
:104E300000000001FFFFFFFFFFFFFFFF1F070F073D
:104E40000F0F1F3FFFFFFFFFFFFFFFFFFFFF7F3F32
:104E50003F1F3F3FFFFFFFFFFFFFFFFFFFFFFFFF82
:104E6000FFFFFFFFFFFFFFFFFFFFFFF70000000056
:104E7000000000000000000000000001010100012E
:104E80000101FFFFA44E000800000020C004000044
:104E90006C01000848500008C004002050130000B6
:104EA000C80100081184A24A04680901020304062B
:104EB0000708090C691055020406082CFE9292039B
:104EC0001117424AD26A46C0100940C444443F24E4
:104ED00024241440807F420133C03822FF34402014
:104EE00018100880814020100C031008030C1020BB
:104EF000408080172424A4FEA3223B22CC24211529
:104F0000080601FF2B01040115FF020202180C1014
:104F10001010FF109008888888FF041208201004E1
:104F200044827F01808040432C1028468180100AF3
:104F300003050911FF118905C312E012F072F80789
:104F40003D4428FF11AA44700B8301384482929299
:104F50007401831E7C44C7017D01990539B3219AF0
:104F60000102818A010B013669419949FA0101A1C7
:104F70002A4001212A6D01212A6001791501642A44
:104F8000DB010915072ADA01212AD801212AC001EB
:104F90000915072A800101352A06010918071CE6B0
:104FA0006620076A86157A861C2A8601180A808080
:104FB0008686068686C0C00C0E1C0606D030764D4E
:104FC0002907013113601C12FE1301021009C418D5
:104FD00020029E63B20E1DFF8181FFF24440300F1C
:104FE00012FF180923EAAABFAAEA033F0B012DBC4E
:104FF000808080080115240E0C082A010131490423
:105000001D81808081021901B91706110101090C67
:105010000E0A14C0012178081E21404050215E086C
:10502000012A4DFFFFC1C10409232D881580FCF31F
:10503000EFF3FC80FF80EEEEEEF5FBFF9CBEB6B614
:08504000883A29BC8100000040
:0400000508000131BD
:00000001FF
