:020000040800F2
:100000000804002001010008F1040008AF04000802
:10001000ED04000849010008350700080000000051
:10002000000000000000000000000000E5050008DE
:100030004D01000800000000C1050008D1060008BD
:100040001B0100081B0100081B0100081B01000820
:100050001B0100081B01000851010008A90100084C
:100060001B0100081B0100081B0100081B01000800
:100070001B0100081B0100081B0100081B010008F0
:100080001B0100081B0100081B0100081B010008E0
:100090001B0100081B0100081B0100081B010008D0
:1000A0001B0100081B0100081B0100081B010008C0
:1000B0001B0100081B0100081B0100081B010008B0
:1000C0001B0100081B0100081B0100081B010008A0
:1000D0001B0100081B0100081B0100081B01000890
:1000E0001B0100081B0100081B010008DFF80CD0F1
:1000F00000F018F8004800477707000808040020BF
:100100000648804706480047FEE7FEE7FEE7FEE7B1
:10011000FEE7FEE7FEE7FEE7FEE7FEE7D50600089E
:10012000ED000008064C074D06E0E06840F00103D2
:1001300094E8070098471034AC42F6D3FFF7DAFF93
:1001400084070008A407000800BFFEE7704700000E
:1001500010B5012000F05AF800B3142000F0FBFAAB
:10016000012000F053F8B0B100200D4908600EE006
:100170000C48C06880F400500A49C8604FF47A7097
:1001800000F0E9FA06480068401C05490860044888
:1001900000680528ECDD012000F032F810BD0000F9
:1001A000000000200010014010B5022000F02EF8E1
:1001B00000B3142000F0CFFA022000F027F8B0B10D
:1001C00000200D4908600EE00C48C06880F4005023
:1001D0000A49C8604FF47A7000F0BDFA064800681A
:1001E000401C05490860044800680528ECDD022031
:1001F00000F006F810BD00000000002000100140D3
:1002000001490860704700001404014001460020C5
:100210000022074B1B6803EA0102054B14331B68DD
:100220000B4013B10AB1012000E00020704700002C
:1002300000040140002123498279002A3AD00A466D
:10024000126803689A430B461A600A1D1268036815
:100250009A430B1D1A60027911440A6803681A4315
:100260000A60184A0832126803689A43154B08332B
:100270001A601A1D126803689A43124B0C331A60F5
:100280004279102A0ED11A1F126803681A430D4BC7
:1002900008331A601A1D126803681A43094B0C339D
:1002A0001A600DE00749427911440A6803681A434D
:1002B0000A6005E0027911440A6803689A430A60FB
:1002C00070470000000401400EB500F012F9012152
:1002D000042000F077F90120ADF8080004208DF823
:1002E0000B0002A91A4800F055F80121042000F083
:1002F00069F91020ADF8080004208DF80B0002A960
:10030000134800F047F80021084600F023F80120C8
:10031000009000208DF8040008208DF805000120D1
:100320008DF806006846FFF785FF0421002000F0E5
:1003300011F80220009000208DF8040008208DF8AC
:10034000050001208DF806006846FFF773FF0EBD1B
:100350000008014030B500228B071C0F0F2303FA61
:1003600004F20B4B8C1053F824309343084C8D103F
:1003700044F8253023468C1053F824308C07240F82
:1003800000FA04F42343024C8D1044F8253030BDAC
:10039000080001402DE9F04102460025002600201A
:1003A00000230024002791F803C00CF00F0591F8FA
:1003B00003C00CF0100CBCF1000F03D091F802C088
:1003C0004CEA050591F800C0BCF1000F31D014686B
:1003D00000202BE04FF0010C0CFA00F3B1F800C044
:1003E0000CEA03069E4220D183004FF00F0C0CFA5A
:1003F00003F7BC4305FA03FC4CEA040491F803C07C
:10040000BCF1280F06D14FF0010C0CFA00FCC2F829
:1004100014C00AE091F803C0BCF1480F05D14FF0B9
:10042000010C0CFA00FCC2F810C0401C0828D1D303
:100430001460B1F800C0BCF1FF0F34DD5468002037
:100440002EE000F1080C4FF0010808FA0CF3B1F8A7
:1004500000C00CEA03069E4221D183004FF00F0C2E
:100460000CFA03F7BC4305FA03FC4CEA040491F8C8
:1004700003C0BCF1280F05D100F1080C08FA0CF8F4
:10048000C2F8148091F803C0BCF1480F07D100F105
:10049000080C4FF0010808FA0CF8C2F81080401C54
:1004A0000828CED35460BDE8F0814161704700BF99
:1004B000FEE7000008B50121102000F083F84FF49A
:1004C0000050ADF8000010208DF8030003208DF8D7
:1004D000020069460448FFF75DFF4FF400510248EF
:1004E000FFF7E3FF08BD00000010014000BFFEE77A
:1004F000704708B54FF4C06000F058F806208DF83A
:10050000000001208DF801008DF802008DF8030035
:10051000684600F013F84FF4C06000F047F8082078
:100520008DF8000002208DF801008DF802000120F6
:100530008DF80300684600F001F808BD70B5002191
:1005400000230F22C47804B3154C246804F4E0643B
:10055000C4F5E064210AC1F10403CA40447804FAF6
:1005600003F184781440214309010E4C0678A1550B
:10057000047804F01F050124AC4005786D11AD002E
:1005800005F1E025C5F8004109E0047804F01F05F5
:100590000124AC40044D0678761145F8264070BD24
:1005A0000CED00E000E400E080E100E002490143DE
:1005B000024A1160704700000000FA050CED00E0EF
:1005C0007047000029B1064A92690243044B9A61C0
:1005D00004E0034A92698243014B9A61704700002C
:1005E00000100240704710B500F002F810BD000086
:1005F0000CB50020019000903348006840F4803032
:100600003149086000BF3048006800F400300090B5
:100610000198401C0190009818B90198B0F5A06F9E
:10062000F1D12948006800F4003010B10120009099
:1006300001E0002000900098012843D12348006881
:1006400040F01000214908600846006820F00300CF
:1006500008600846006840F0020008601A484068D8
:10066000194948600846406848600846406840F4B8
:10067000806048600846406820F47C104860084666
:10068000406840F4E81048600846006840F0807018
:10069000086000BF0C48006800F000700028F9D026
:1006A0000948406820F00300074948600846406850
:1006B00040F00200486000BF0348406800F00C00B2
:1006C0000828F9D10CBD00000010024000200240B3
:1006D0007047000010B51348006840F00100114950
:1006E000086008464068104908400E4948600846BE
:1006F00000680E4908400B4908600846006820F46D
:10070000802008600846406820F4FE0048604FF4EE
:100710001F008860FFF767FF4FF000600449086022
:1007200010BD0000001002400000FFF8FFFFF6FEC1
:1007300008ED00E000BFFEE702E008C8121F08C194
:10074000002AFAD170477047002001E001C1121F52
:10075000002AFBD17047002107E04FF47A7100BFF7
:100760000A1EA1F1010399B2FAD1021EA0F1010300
:1007700098B2F2D17047FFF79DFEFFF7A5FD00BFCD
:10078000FEE70000A40700080000002004000000AD
:1007900038070008A807000804000020040400002F
:0807A0004807000800000000FA
:04000005080000ED02
:00000001FF
