:020000040800F2
:10000000100400200101000831030008EF0200087D
:100010002D030008CB010008650600080000000061
:10002000000000000000000000000000FD030008C8
:10003000CF01000800000000B9030008E90400082F
:100040001B0100081B0100081B0100081B01000820
:100050001B0100081B0100081B0100081B01000810
:100060001B0100081B0100081B0100081B01000800
:100070001B0100081B0100081B0100081B010008F0
:100080001B0100081B0100081B0100081B010008E0
:100090001B0100081B0100081B0100081B010008D0
:1000A0001B0100081B0100081B0100081B010008C0
:1000B0004D0500081B0100081B0100081B0100087A
:1000C0001B0100081B0100081B0100081B010008A0
:1000D0001B0100081B0100081B0100081B01000890
:1000E0001B0100081B0100081B010008DFF80CD0F1
:1000F00000F018F8004800477507000810040020B9
:100100000648804706480047FEE7FEE7FEE7FEE7B1
:10011000FEE7FEE7FEE7FEE7FEE7FEE7ED04000888
:10012000ED000008064C074D06E0E06840F00103D2
:1001300094E8070098471034AC42F6D3FFF7DAFF93
:100140009C070008BC0700080EB50121084600F016
:1001500035F940F2F310ADF804004720ADF8000087
:100160000020ADF80600ADF802008DF808006946E1
:100170004FF0804000F024FA0121880700F0F3F9E5
:1001800001221146900700F011FA0121880700F0C2
:10019000F0F90EBD10B500F003F8FFF7D5FF10BD64
:1001A00008B54FF4E06000F0FDF81C208DF8000069
:1001B00000208DF8010003208DF8020001208DF849
:1001C0000300684600F0B6F808BD00BFFEE77047C0
:1001D0002DE9F041024600250026002000230024DE
:1001E000002791F803C00CF00F0591F803C00CF044
:1001F000100CBCF1000F03D091F802C04CEA0505C9
:1002000091F800C0BCF1000F31D0146800202BE041
:100210004FF0010C0CFA00F3B1F800C00CEA030631
:100220009E4220D183004FF00F0C0CFA03F7BC4321
:1002300005FA03FC4CEA040491F803C0BCF1280F52
:1002400006D14FF0010C0CFA00FCC2F814C00AE011
:1002500091F803C0BCF1480F05D14FF0010C0CFA26
:1002600000FCC2F810C0401C0828D1D31460B1F8BB
:1002700000C0BCF1FF0F34DD546800202EE000F117
:10028000080C4FF0010808FA0CF3B1F800C00CEAB2
:1002900003069E4221D183004FF00F0C0CFA03F7A6
:1002A000BC4305FA03FC4CEA040491F803C0BCF11A
:1002B000280F05D100F1080C08FA0CF8C2F81480D8
:1002C00091F803C0BCF1480F07D100F1080C4FF0C2
:1002D000010808FA0CF8C2F81080401C0828CED398
:1002E0005460BDE8F081416170470161704700BF13
:1002F000FEE7000008B50121102000F06FF84FF470
:100300000050ADF8000010208DF8030003208DF898
:10031000020069460448FFF75BFF4FF400510248B2
:10032000FFF7E1FF08BD00000010014000BFFEE73D
:100330007047000070B5002100230F22C47804B379
:10034000154C246804F4E064C4F5E064210AC1F1AA
:100350000403CA40447804FA03F18478144021432A
:1003600009010E4C0678A155047804F01F050124FC
:10037000AC4005786D11AD0005F1E025C5F80041F0
:1003800009E0047804F01F050124AC40044D067810
:10039000761145F8264070BD0CED00E000E400E069
:1003A00080E100E002490143024A11607047000009
:1003B0000000FA050CED00E07047000029B1064A84
:1003C000D2690243044BDA6104E0034AD2698243F2
:1003D000014BDA61704700000010024029B1064A63
:1003E00092690243044B9A6104E0034A9269824392
:1003F000014B9A617047000000100240704710B531
:1004000000F002F810BD00000CB500200190009033
:100410003348006840F480303149086000BF3048FC
:10042000006800F4003000900198401C0190009892
:1004300018B90198B0F5A06FF1D12948006800F40F
:10044000003010B10120009001E0002000900098E1
:10045000012843D12348006840F01000214908607A
:100460000846006820F0030008600846006840F075
:10047000020008601A484068194948600846406808
:1004800048600846406840F480604860084640681C
:1004900020F47C1048600846406840F4E81048604A
:1004A0000846006840F08070086000BF0C48006893
:1004B00000F000700028F9D00948406820F00300DF
:1004C000074948600846406840F00200486000BFA5
:1004D0000348406800F00C000828F9D10CBD00006A
:1004E00000100240002002407047000010B5134881
:1004F000006840F001001149086008464068104952
:1005000008400E494860084600680E4908400B49FB
:1005100008600846006820F48020086008464068AB
:1005200020F4FE0048604FF41F008860FFF767FF6B
:100530004FF000600449086010BD00000010024048
:100540000000FFF8FFFFF6FE08ED00E010B5012106
:10055000880700F01AF828B100F096F80121880702
:1005600000F004F810BDCA4302827047CA430282F9
:10057000704721B1028842F00102028004E0028843
:100580004FF6FE731A400280704730B502460020D5
:1005900000230024158A05EA0103958905EA010470
:1005A00013B10CB1012000E0002030BD1AB18389E5
:1005B0000B43838102E083898B4383817047000072
:1005C000002202881D4B98420ED01D4B98420BD042
:1005D000B0F1804F08D01B4B984205D01A4B98427F
:1005E00002D01A4B984204D14FF68F731A404B88B1
:1005F0001A43174B984207D0164B984204D04FF637
:10060000FF431A40CB881A4302808B8883850B886E
:1006100003850A4B98420BD0094B984208D00E4BE9
:10062000984205D00D4B984202D00D4B984201D113
:100630000B7A03860123838270470000002C01405F
:10064000003401400004004000080040000C00405D
:1006500000100040001400400040014000440140F0
:100660000048014000BFFEE702E008C8121F08C1B1
:10067000002AFAD170477047002001E001C1121F23
:10068000002AFBD17047000010B536480068A0B3BF
:10069000354800683549096888420ADD4FF4005141
:1006A0003348FFF722FE31480068401C2F4908609C
:1006B00009E04FF400512E48FFF715FE2B48006863
:1006C000401C2A49086029480068322807D126487A
:1006D0000068401C24490860002024490860224822
:1006E000006832283DD100201E49086001201E49C3
:1006F000086000201D49086033E0FFE71A480068E1
:100700001A49096888420ADD4FF400511848FFF77A
:10071000EAFD16480068401C1449086009E04FF4DF
:1007200000511348FFF7E1FD10480068401C0F49D5
:1007300008600E480068322807D10B480068401C4A
:100740000949086000200949086007480068322804
:1007500007D10120034908600349086000200349CC
:10076000086010BD080000200400002000000020E8
:10077000001001400020064908600120054908607A
:1007800005490860FFF7B6FDFFF704FD00BFFEE76F
:10079000000000200800002004000020BC07000822
:1007A000000000200C00000068060008C8070008D0
:1007B0000C0000200404000078060008000000007F
:0807C000000000000000000031
:04000005080000ED02
:00000001FF
