:0200000490006A
:10000000F87B0124AD020090773E0090D53C009033
:10001000753E009057090090B95400900000000010
:10002000000000000000000000000000DF4C009015
:100030005909009000000000793E0090E14C0090CA
:10004000C7020090C7020090C7020090C70200904C
:10005000C7020090C7020090C7020090C70200903C
:10006000C7020090C70200905B090090C702009091
:10007000C7020090C7020090C7020090C70200901C
:10008000C7020090C7020090C7020090C70200900C
:10009000C7020090C7020090C7020090C7020090FC
:1000A000C7020090C7020090C7020090C7020090EC
:1000B000C7020090C7020090C7020090C7020090DC
:1000C000C7020090C7020090C7020090C7020090CC
:1000D000C7020090C7020090C7020090C7020090BC
:1000E000C7020090C702009000000000C702009005
:1000F000C7020090C7020090C7020090C70200909C
:10010000C7020090BD400090C7020090C702009057
:10011000914E0090C7020090C7020090C702009065
:10012000C7020090C7020090C7020090C70200906B
:10013000C7020090C7020090C7020090C70200905B
:1001400000000000000000000000000000000000AF
:10015000C7020090C7020090C7020090C70200903B
:10016000C7020090C7020090C7020090C70200902B
:10017000C7020090C7020090C7020090C70200901B
:10018000C7020090C7020090C7020090C70200900B
:10019000C7020090C7020090C7020090C7020090FB
:1001A000C7020090C7020090C7020090C7020090EB
:1001B000C7020090C7020090C7020090C7020090DB
:1001C000C7020090C7020090C7020090C7020090CB
:1001D000C7020090C7020090C7020090C7020090BB
:1001E000C7020090C7020090C7020090C7020090AB
:1001F000C7020090C7020090C7020090C70200909B
:10020000C7020090C7020090C7020090C70200908A
:10021000C7020090C7020090C7020090C70200907A
:10022000C7020090C7020090C702009000000000C3
:10023000C7020090C702009000000000C7020090B3
:10024000C7020090C7020090C7020090C70200904A
:10025000C7020090C7020090C7020090C70200903A
:10026000C7020090C7020090C7020090C70200902A
:10027000C7020090C7020090C70200900000000073
:10028000C7020090C7020090C70200900000000063
:1002900000000000C7020090DFF80CD000F05AFA0E
:1002A00000480047BD7E0090F87B01240648804747
:1002B00006480047FEE7FEE7FEE7FEE7FEE7FEE74B
:1002C000FEE7FEE7FEE7FEE7AD4D009099020090E5
:1002D0002DE9F05F0546002092469B46884606467B
:1002E000814640241BE0284641464746224600F00E
:1002F00069F853465A46C01A914110D31146184620
:10030000224600F050F82D1A67EB01084F462246AE
:100310000120002100F047F817EB00094E41201E94
:10032000A4F10104DFDC484631462A464346BDE8D5
:10033000F09F40EA01039B0703D009E008C9121FA0
:1003400008C0042AFAD203E011F8013B00F8013B8F
:10035000521EF9D27047D2B201E000F8012B491EBB
:10036000FBD270470022F6E710B513460A46044652
:100370001946FFF7F0FF204610BD30B50B46014689
:1003800000202022012409E021FA02F59D4205D334
:1003900003FA02F5491B04FA02F52844151EA2F1DE
:1003A0000102F1DC30BD202A04DB203A00FA02F120
:1003B000002070479140C2F1200320FA03F3194353
:1003C00090407047202A04DB203A21FA02F00021F5
:1003D000704721FA02F3D040C2F120029140084355
:1003E000194670472DE9FE4F804681EA0300C00F91
:1003F0000C46009021F0004123F00045B8EB0200CC
:10040000A94105D24046214690461C460B4602466D
:1004100023F00040104347D0270DC7F30A00C3F371
:100420000A510290401A019040286BDAC3F313007E
:1004300040F4801B0098924620B10023D2EB030ABF
:1004400063EB0B0B01985946C0F140025046FFF791
:10045000AAFF06460D4650465946019A00F08CF90F
:1004600010EB08006141002487EA115284EAE77327
:100470001A4340D0009A62B3019A012A4FEA075208
:1004800015DC001B61EB02014FF0004202EA07524B
:10049000CDE90042001C41F5801132462B4600F0A8
:1004A0008CF903B0BDE8F08F40462146F9E7001B08
:1004B00061EB0201001C41F5801300185B4120181C
:1004C000A2F5001747EB030140EAD570B6196D415C
:1004D00011E06D084FEA360645EAC0754FEA07524B
:1004E000001B61EB0201001C41F5801149084FEA35
:1004F00030000019514132462B4603B0BDE8F04FA1
:1005000000F04CB90098012240000023D0EB020219
:1005100063EBE073009821464FEAE074B8EB00000B
:1005200061EB0401E9E783F000435BE781F0004100
:1005300058E72DE9FE4F81EA030404F0004421F05E
:10054000004100944FF0000B23F0004350EA0104F7
:100550005ED052EA03045BD0C3F30A54C1F30A55D8
:100560002C44A4F2F3340194A0FB0254C1F3130110
:1005700041F48011C3F3130343F4801301FB0244DD
:1005800000FB034E840A970A44EA815447EA8357E2
:10059000A4FB076802958D0A05FB07854FEA932C9B
:1005A00004FB0C542705029D4FEA065847EA16370C
:1005B000B5EB08056EEB070C870E920E47EA811724
:1005C00042EA8312A7FB0201B6EB0B0164EB0004C5
:1005D0002B0D43EA0C335E1844EB1C50DA465146AF
:1005E000E7FB0201C5F313044FEA0B3343EA14534C
:1005F0004FEA0432019C43EA0603A4F10C0402947E
:10060000009CCDE900B400F0D8F803B0BDE8F08F4D
:1006100000200146F9E72DE9F04D81EA030404F0DA
:10062000004B21F0004514464FF0000A23F0004132
:1006300050EA050220D054EA01021DD0C5F30A5742
:100640000246C5F31303C1F31300C1F30A5640F485
:10065000801543F48013A7EB0608101BD64608F25A
:10066000FD3873EB050002D308F1010801E0921890
:100670005B41B8F1000F03DA00200146BDE8F08DC0
:1006800000204FF48011064684460EE0171B73EBE2
:10069000050705D3121B63EB050306434CEA010C67
:1006A00049084FEA300092185B4150EA0107EDD14A
:1006B00052EA030012D082EA040083EA05010843EB
:1006C00005D0101BAB4106D20122002306E0002218
:1006D0004FF0004302E06FF0010253101AEB0600E6
:1006E0004CEB085110EB0A0041EB0B01BDE8F04D5B
:1006F00000F054B8C1F30A52C1F3130140F2FF33C2
:1007000041F480119A4202DA00200146704740F21B
:1007100033439A42A2F2334202DC5242FFF752BE06
:10072000FFF741BE30B5041E71F1000404DB4FF049
:100730000044404264EB0101141E73F1000405DB28
:100740001C464FF00043524263EB0403994208BF3A
:10075000904230BD064C074D06E0E06840F00103D2
:1007600094E8070098471034AC42F6D3FFF798FDA1
:10077000448A0090648A0090202A06DBCB17203A36
:1007800041FA02F043EAE07306E041FA02F3D04096
:10079000C2F12002914008431946704710B5141E5B
:1007A00073F1000408DA401C41F1000192185B412A
:1007B0001A4301D120F0010010BD2DE9F04D924601
:1007C0009B4611B1B1FA81F202E0B0FA80F2203218
:1007D0009046FFF7E8FD04460F4640EA0A0041EA6A
:1007E0000B0153465A46084313D0114653EA010001
:1007F00019D0C8F140025046FFF7E4FD05460E4609
:10080000504659464246FFF7CEFD084305D0012029
:1008100004E020463946BDE8F08D0020054346EA55
:10082000E0762C4337430A986305E40AA0EB0800FE
:100830000022FD0A44EA47540A3002D5002001464E
:10084000E9E7010510196941DDE908450019694129
:10085000BDE8F04DA2E770B58C1810F8015B15F0FB
:10086000070301D110F8013B2A1106D110F8012B22
:1008700003E010F8016B01F8016B5B1EF9D12B0747
:1008800005D40023521E0DD401F8013BFAE710F8FD
:10089000013BCB1A921C03E013F8015B01F8015BEA
:1008A000521EF9D5A142D8D3002070BD014601489F
:1008B00002F05EBBC08A0024044810B502F06AFB57
:1008C000042801D0012010BD002010BDC08A0024E2
:1008D00010B500F015F8012801D0022010BD07481E
:1008E00002F0EEFC040006D104484FF4804102F00F
:1008F000A5F900B10124204610BD0000C08A0024E3
:1009000008B501208DF800009DF8000008BD00002A
:1009100038B50024009313460A460146034802F006
:10092000B7FD00B10124204638BD0000C08A002474
:100930007047000038B50024009313460A4601466C
:10094000034802F08FFE00B10124204638BD0000AC
:10095000C08A00247047FEE77047102000F08DBB6E
:1009600072B6FEE7002200F001B800000E4B70B531
:1009700005465C7A0120002C14D15E7A03F1080050
:100980009C555E7A03EB860675605D7A2A54587A28
:10099000421C5A723A232F22303008704B70204686
:1009A0008A70CC7070BD0000E88B002410B513492C
:1009B000ADF5816D1248FFF7D5FF1348012211A153
:1009C00006F038FB114C207098B111A004F04AFEDB
:1009D0004FF4806000900022022101AB09A006F0D4
:1009E0005FF8207038B113A004F03CFE0DF5816D66
:1009F00010BD19A0F8E71EA0F6E70000760200245B
:100A0000FC840090303A000088020024000000249A
:100A10005344BFA8BBB9CEB4B4B4BDA8CEC4BCFEC9
:100A2000CFB5CDB3A3ACBCB4BDABB8F1CABDBBAF01
:100A30000D0A0000B8F1CABDBBAFCAA7B0DCA3ACB9
:100A4000C7EBBCECB2E9BBF2B8FCBBBB5344BFA8DC
:100A5000A3A10D0A000000000D0A5344CEC4BCFE41
:100A6000CFB5CDB3B9D2D4D8B3C9B9A60D0A000059
:100A70005344BFA8B8F1CABDBBAFB3C9B9A6A3A1BF
:100A80000D0A000070B5ADF58B6D0024202236A153
:100A90000DF58660FFF74DFC3BA004F0E3FD0A2254
:100AA000684647A106F0F2FA4A4D287008B14AA0FC
:100AB0003EE055A004F0D6FD1D2268460DF58A6380
:100AC0000DF5866106F087FD287008B158A02FE06B
:100AD00061A004F0C7FD642000F0BCFA65486423FF
:100AE0001D220DF5866103F095F8684605F05AFF62
:100AF00061A004F0B7FD1D266846012230A106F072
:100B0000C5FA6A490DF58A6332462870684606F0D0
:100B100015FC287008B166A00AE06FA004F0A2FDE1
:100B200062490DF58660025D0B5D9A4209D072A0A4
:100B300004F098FD684605F035FF01200DF58B6D3A
:100B400070BD641CE4B2B442EDD3642000F082FABC
:100B500072A004F087FD554977A004F083FD684634
:100B600005F020FF0020E9E753544D333248373574
:100B700030205344BFA820CEC4BCFECFB5CDB3B205
:100B8000E2CAD40A000000002D2D2D2D2D2D2D2D73
:100B90002D2D2D2D2D466174467320CEC4BCFEB480
:100BA000B4BDA8BACDD0B4C8EBB2E2CAD42D2D2DB5
:100BB0002D2D2D2D2D2D2D2D2D2D2D2D0D0A000002
:100BC000303A466174467320546573742E74787499
:100BD0000000000000000024CEDEB7A8B4F2BFAAD7
:100BE0002FB4B4BDA8CEC4BCFEA3ACC7EBBCECB262
:100BF000E95344BFA8BBF2D6D8D0C2B8F1CABDBB36
:100C0000AF210D0A00000000CEC4BCFEB4F2BFAAA2
:100C10002FB4B4BDA8B3C9B9A6A3ACD7BCB1B8D0E2
:100C2000B4C8EBCAFDBEDD2E2E2E0D0A000000005A
:100C3000CEC4BCFED0B4C8EBCAA7B0DCA3ACC7EB33
:100C4000BCECB2E95344BFA8BBF2D6D8D0C2B8F1CD
:100C5000CABDBBAF210D0A00D0B4C8EBB3C9B9A659
:100C6000A3ACD0B4C8EBC4DAC8DDCEAAA3BA0D0ACF
:100C7000000000003C8B00242D2D2D2D2D2D2D2D21
:100C80002D2D2D2D2D466174467320CEC4BCFEB68D
:100C9000C1C8A1B2E2CAD42D2D2D2D2D2D2D2D2D63
:100CA0002D2D2D2D2D2D0D0A00000000C006002435
:100CB000CEDEB7A8B6C1C8A1CEC4BCFEA3ACC7EBFC
:100CC000BCECB2E95344BFA8BBF2D6D8D0C2B8F14D
:100CD000CABDBBAF210D0A00CEC4BCFEB6C1C8A1BF
:100CE000B3C9B9A6A3ACD5FDD4DAD0A3D1E9CAFD66
:100CF000BEDD2E2E2E0D0A00D0A3D1E9CAA7B0DC8E
:100D0000A3ACC7EBBCECB2E95344BFA8BBF2D6D846
:100D1000D0C2B8F1CABDBBAF210D0A00D0A3D1E942
:100D2000B3C9B9A6A3ACB6C1B3F6B5C4CAFDBEDD9E
:100D3000CEAAA3BA0D0A000025730A003EB501AA87
:100D400069460CA005F042FE0199009BC8694989DB
:100D5000801E484301FB03F2C40A07A0D50A04F031
:100D600081FC13A0214604F07DFC15A0294604F067
:100D700079FC3EBD303A00002D2D2D2D2D2D2D2D31
:100D80002D2D2D2D2D2D2D2D2D2D2DBBF1C8A1C996
:100D9000E8B1B8C8DDC1BFD0C5CFA22D2D2D2D2DF6
:100DA0002D2D2D2D2D2D2D2D2D2D2D2D0D0A000010
:100DB0005344C8DDC1BFA3BA25644D420D0A0000EB
:100DC0005344CAA3D3E0A3BA25644D420D0A0000E0
:100DD0002DE9F05F28B190F83510022904D0802168
:100DE00041650120BDE8F09F904C904B0168183C94
:100DF00018338E4ADFF83C92A1428D4CDFF838E27E
:100E00008E4FDFF83CB2DFF83CA28F4D8F4E31D0D1
:100E100091422FD099422DD0A1422BD0494529D0C3
:100E2000714527D0B94225D0DFF810C20CF1180C5B
:100E300061451FD0DFF808C2ACF1600C614519D0E4
:100E4000DFF8FCC1ACF1480C614513D0DFF8F0C10C
:100E5000ACF1300C61450DD0DFF8E4C1ACF1180CF9
:100E6000614507D0594505D0514503D0A94201D06D
:100E7000B1422CD1DFF8B4C14FF0040880F83580BE
:100E8000ACF1180C61451DD091421BD0994219D08C
:100E9000A14217D0494515D0714513D0B94211D0A0
:100EA0006648183081420DD065486038814209D0CB
:100EB00063484838814205D061483038814201D0CA
:100EC0005F481838086820F001000860ABE0D1F8EE
:100ED00000C02CF00E08DFF854C1C1F80080ACF15E
:100EE000180C0168614527D0914225D0994223D042
:100EF000A14221D049451FD071451DD0B9421BD018
:100F0000DFF838C10CF1180C614515D0DFF830C19D
:100F1000ACF1600C61450FD0DFF824C1ACF1480C96
:100F2000614509D0DFF818C1ACF1300C614503D040
:100F3000DFF80CC1ACF1180CD1F800C02CF0010C9A
:100F4000C1F800C0DFF8E4804FF0010C0168A8F19F
:100F50001808414546D0914244D0994242D0A1421E
:100F600040D049453ED071453CD0B9423AD0334A91
:100F70001832914236D0324A603A914232D0304AE9
:100F8000483A91422ED02E4A303A91422AD02C4AE9
:100F9000183A914226D0594524D0514522D0A94231
:100FA00020D0B1421ED02A4A91421BD0284A143286
:100FB000914217D0264A2832914213D0244A3C321B
:100FC00091420FD0224A503291420BD0204A6432D3
:100FD000914207D01E4A7832914203D01C4A8C328B
:100FE000914218D1016E0A6822F480720A6090F86A
:100FF0005C20816D02F01F020CFA02F24A60D0E917
:1010000019124A60C16E31B10A6822F480720A6016
:10101000D0E91C124A600022016D80F8342080F86B
:1010200035C001B188470020DCE6000028000240FE
:10103000580002407000024088000240A0000240B8
:101040007004024088040240A0040240B804024038
:101050000854025870B5044600F040F90546601C7B
:1010600002D004480078044400F038F9401BA04244
:10107000FAD370BD6002002470474FF0B04110B544
:10108000D1F88820024203D0C1F88800FFF7F4FFAE
:1010900010BD00002DE9FC4F01257E4C00234FF0D0
:1010A000030A4FF0B04E4FF00F0BEBE005FA03F6DA
:1010B00037403A0077D04F68012F05D0022F03D078
:1010C000112F01D0122F1AD187684FEA4308D1F8A7
:1010D0000CC00AFA08F927EA09070CFA08FC4CEADE
:1010E000070CC0F808C0476891F804C0B743CCF3B8
:1010F000001C0CFA03FC4CEA070CC0F804C0C668DC
:101100004FEA430CD1F80880E1460AFA0CF7BE43D7
:10111000019708FA09F848EA0608C0F80C804E68FA
:10112000022E01D0122E12D1DE084FEA437C00EBD2
:10113000860600960F69366A4FEADC6C0BFA0CF8EB
:1011400007FA0CF726EA08063743009E37620E7945
:101150000768DDF804C006F0030606FA09F627EA78
:101160000C073E4306604E68F6001CD54A4E3768B1
:1011700047F00207376036689F0706F002060096C0
:1011800023F0030606F1B046B1463F0FD6F80864D7
:10119000DFF808810BFA07FC404526EA0C0603D16C
:1011A0004FF0000C41E06CE0DFF8F4C0604502D184
:1011B0004FF0010C39E0DFF8ECC0604502D14FF090
:1011C000020C32E0DFF8E0C0604502D14FF0030CC2
:1011D0002BE0DFF8D8C0604502D14FF0040C24E0CA
:1011E000DFF8CCC0604502D14FF0050C1DE0DFF800
:1011F000C4C0604502D14FF0060C16E0DFF8B8C05D
:10120000604502D14FF0070C0FE0DFF8B0C0604539
:1012100002D14FF0080C08E0DFF8A4C0604502D10D
:101220004FF0090C01E04FF00A0C0CFA07FC4CEAF5
:10123000060CC9F808C426684F6826EA0206FF03B0
:1012400000D51643266066684F6826EA0206BF038B
:1012500000D516436660D1F804C07646DEF800700B
:101260005FEACC2C27EA020700D517433760D1F894
:1012700004C077685FEA8C2C27EA020700D5174381
:1012800077605B1C0A681746DA407FF40FAFBDE851
:10129000FC8F000080000058F444025800000258FF
:1012A0000004025800080258000C025800100258AE
:1012B0000014025800180258001C0258002002585E
:1012C000002402580AB1816170470904FBE700005D
:1012D00001480068000C70470010005C01488068FD
:1012E00070470000600200240248816802781144BF
:1012F0008160704760020024032010B500F086F87A
:1013000001F078F90F4A104914681368C4F30322F6
:1013100003F00F038A5CC95C02F01F0201F01F0199
:10132000D0400A4A20FA01F1116009490860002002
:1013300000F010F808B1012010BD00F02BF80020DB
:1013400010BD000018440258EA8400907002002486
:101350006C02002470B50D4D04462878A0B14FF4FE
:101360007A71B1FBF0F00A490968B1FBF0F002F0C4
:1013700067FA48B9102C07D200222146501E00F00F
:1013800025F800206C6070BD012070BD6002002453
:101390006C020024054808B5016841F002010160B3
:1013A000006800F00200009008BD0000F4440258FC
:1013B000002809DB410900F01F028900012001F12A
:1013C000E0219040C1F80001704700000E4BF0B4DE
:1013D0001B680D46C3F30223C3F10706042E00D990
:1013E0000426191D072901D2002300E0DB1E012479
:1013F00004FA06F19C40491E2940641E994014409D
:101400002143F0BC04F03EB90CED00E0064900F0C9
:10141000070210B54FF6FF040868044B204040EA6D
:1014200002201843086010BD0CED00E00000FA0532
:10143000134970B50A68D243520705D5096801F00F
:101440000701814213D118E00A6822F00702024323
:101450000A60FFF743FF0A4D4FF47A760446083DD1
:1014600007E000BFFFF73AFF001BB04201D901209F
:1014700070BD2868C0438004F4D4002070BD000013
:101480000C48025810B501F06FF805490968054A83
:10149000C1F30211515C01F01F01C84010BD0000F2
:1014A00020440258EA840090494930B5484C0B1D4D
:1014B0000A680C3409681D68246802F0030305F00B
:1014C0000102C1F30511C4F3CC04002914FB02F29C
:1014D00000EE102AF8EE400A75D03F4A9FED3D1A03
:1014E000B7EE000A6BB1DFED3D1A012B01D0022BE4
:1014F00064D002EE101A1168F8EE422A81EEA22A98
:1015000021E0334C283C23689B0612D5344B2468D9
:1015100001EE901A1168C4F3C104F8EE612AE340A9
:1015200001EE903AC1F30801F8EE611A81EEA22AA9
:101530000BE001EE901ADFED2B2A00BFF8EE611AE6
:10154000116882EEA12AC1F3080101EE901A116818
:10155000F8EE611A40EE811A71EE800A62EE200AFE
:10156000C1F3462101EE101AB8EE411A31EE001A0D
:10157000C0EE811ABCEEE11A80ED001A1168C1F3C9
:10158000064101EE101AB8EE411A31EE001AC0EE13
:10159000811ABCEEE11A80ED011A1168C1F30661EF
:1015A00001EE101AB8EE411A31EE000A80EE801AF0
:1015B000BCEEC10A80ED020A30BD04E001EE901AD3
:1015C000DFED092ABAE70021016041608160F3E79D
:1015D0002844025800000039304402580024744A5C
:1015E0000090D0030024744C20BCBE4B494930B558
:1015F000484C0B1D0A68143409681D68246802F001
:101600000303C5F30012C1F30531C4F3CC04002970
:1016100014FB02F200EE102AF8EE400A75D03F4AA1
:101620009FED3D1AB7EE000A6BB1DFED3D1A012BBD
:1016300001D0022B64D002EE101A1168F8EE422A93
:1016400081EEA22A21E0334C283C23689B0612D568
:10165000344B246801EE901A1168C4F3C104F8EE0B
:10166000612AE34001EE903AC1F30801F8EE611AF5
:1016700081EEA22A0BE001EE901ADFED2B2A00BFCB
:10168000F8EE611A116882EEA12AC1F3080101EE99
:10169000901A1168F8EE611A40EE811A71EE800A14
:1016A00062EE200AC1F3462101EE101AB8EE411A8B
:1016B00031EE001AC0EE811ABCEEE11A80ED001A7C
:1016C0001168C1F3064101EE101AB8EE411A31EE6D
:1016D000001AC0EE811ABCEEE11A80ED011A116801
:1016E000C1F3066101EE101AB8EE411A31EE000A9C
:1016F00080EE801ABCEEC10A80ED020A30BD04E023
:1017000001EE901ADFED092ABAE70021016041607D
:101710008160F3E728440258000000393844025839
:101720000024744A0090D0030024744C20BCBE4BAB
:10173000494930B5484C0B1D0A681C3409681D68BE
:10174000246802F00303C5F30022C1F30551C4F37A
:10175000CC04002914FB02F200EE102AF8EE400A35
:1017600075D03F4A9FED3D1AB7EE000A6BB1DFED31
:101770003D1A012B01D0022B64D002EE101A116821
:10178000F8EE422A81EEA22A21E0334C283C23685D
:101790009B0612D5344B246801EE901A1168C4F3ED
:1017A000C104F8EE612AE34001EE903AC1F308016A
:1017B000F8EE611A81EEA22A0BE001EE901ADFED3D
:1017C0002B2A00BFF8EE611A116882EEA12AC1F33C
:1017D000080101EE901A1168F8EE611A40EE811AC4
:1017E00071EE800A62EE200AC1F3462101EE101A62
:1017F000B8EE411A31EE001AC0EE811ABCEEE11AC1
:1018000080ED001A1168C1F3064101EE101AB8EE1E
:10181000411A31EE001AC0EE811ABCEEE11A80EDD9
:10182000011A1168C1F3066101EE101AB8EE411AEF
:1018300031EE000A80EE801ABCEEC10A80ED020A89
:1018400030BD04E001EE901ADFED092ABAE700216D
:10185000016041608160F3E72844025800000039CC
:10186000404402580024744A0090D0030024744C71
:1018700020BCBE4B2DE9F0474FF480760146B042C4
:101880006F48DFF8B8818AB06E4B4FF080576E4DCD
:10189000A8F104044FEA20124FF0005C29D1D8F8D7
:1018A000001001F0070105291FD2DFE801F0030A4B
:1018B0000F20140006A8FFF7F7FD07980AB0BDE84F
:1018C000F0876846FFF792FE0098F7E703A8FFF756
:1018D0002FFF0398F2E7216811F04051EED0B94292
:1018E00075D11046EAE71846E8E70020E6E7284603
:1018F000E4E7B1F5007F19D0544EB1F5806F26D0E2
:10190000B1F5006F37D04FF4805949454FF4804A04
:101910004BD1D8F8001001F4E041B1F5005FD5D00B
:101920003DDC0029C6D04945DFD1CAE7D8F8001010
:1019300001F4E0718029C9D004DC0029BAD0402923
:10194000D3D1BEE7C029D2D0B142CED1C3E73168EE
:1019500001F46001B1F5800FB8D005DC0029A9D0F1
:10196000B1F5001FC1D1ACE7B1F5C00FBFD0B1F5E3
:10197000000FBAD1AFE7316801F0E061B1F1007F4B
:10198000A4D005DC002995D0B1F1807FADD198E7D6
:10199000B1F1407FABD0B1F1806FA6D19BE7B1F53B
:1019A000405FA4D05145A0D195E7B1F5002F4FF489
:1019B00080350DD0A9421DD1206810F48030B1D0FF
:1019C000A84292D16846FFF711FE029876E70EE032
:1019D000316811F44031A8D0A94203D0B1F5003FDD
:1019E00083D178E703A8FFF7A3FE059866E7614572
:1019F0009AD178E7514597D1316801F0E041B1F1D2
:101A0000405FE3D009DC81B1B94211D061458BD18F
:101A100003A8FFF78DFE049850E7B1F1804F3FF423
:101A200060AFB1F1A04F8BD15DE7FFF72BFD45E72C
:101A30006846FFF7DBFD019840E70000504402587C
:101A40000090D00340787D010080BB0058440258CC
:101A50002DE9FC5F044650F8241B002500902E461B
:101A60000801FE4FDFF8F8831DD5606E50B1B0F568
:101A7000801F0CD0B0F5001F0ED0B0F5401F1DD058
:101A800001250FE0386840F40030386016E002218C
:101A9000201D02F0F3F903E00098022102F07EFA23
:101AA00005000BD02E462088C00523D5606D052883
:101AB0001ED2DFE800F00C11161B1B00626ED8F876
:101AC000001021F440111143C8F80010EBE738680A
:101AD00040F40030386009E00021201D02F0CEF90A
:101AE00003E00098002102F059FA05466DB100E0CC
:101AF00001252E462088800528D5A06D80281ED07F
:101B00000CDC90B140280ED114E0626DD8F80010C2
:101B100021F007011143C8F80010EBE7C02813D0EB
:101B2000B0F5807F10D001250FE0386840F4003018
:101B3000386009E00021201D02F0A0F903E00098C0
:101B4000002102F02BFA054695B12E462088DFF8D9
:101B50001093400509F108092CD5D4F8A400B0F57C
:101B6000800F20D00DDCA0B1B0F5001F0FD115E023
:101B7000A26DD8F8001021F4E0711143C8F80010EC
:101B8000E4E7B0F5C00F13D0B0F5000F10D0012579
:101B90000FE0386840F40030386009E00021201D73
:101BA00002F06CF903E00098002102F0F7F9054615
:101BB00075B12E46208800052DD5D4F8A800B0F1C7
:101BC000007F21D00EDCA8B1B0F1807F10D116E0EB
:101BD000D4F8A420D9F8001021F460011143C9F809
:101BE0000010E7E7B0F1407F13D0B0F1806F10D064
:101BF00001250FE0386840F40030386009E000212A
:101C0000201D02F03BF903E00098002102F0C6F924
:101C100005466DB12E46206880011FD5A06CD8B155
:101C200010280FD0202812D0302815D0012514E01C
:101C3000D4F8A820D9F8001021F0E0611143C9F8C8
:101C40000010E8E7386840F40030386004E0022112
:101C5000201D02F013F905466DB12E462088C00400
:101C60002BD5E06DB0F5005F20D00DDCA0B1B0F554
:101C7000805F0FD115E07A48A26C001F016821F047
:101C8000300111430160E9E7B0F5405F13D0B0F5D2
:101C9000804F10D001250FE0386840F400303860E4
:101CA00009E00021201D02F0E9F803E0009800217E
:101CB00002F074F9054685B12E462088800429D5A6
:101CC000206EB0F5403F23D010DC08B3B0F5803F64
:101CD00014D0B0F5003F0FD115E0E26DD8F8001038
:101CE00021F4E0411143C8F80010E6E7B0F5802F79
:101CF0000ED0B0F5A02F0BD001250AE00121201D48
:101D000002F0BCF803E00098012102F047F9054613
:101D10008DB12E46208840042AD5D4F8AC00B0F10D
:101D2000405F23D010DC08B3B0F1805F14D0B0F175
:101D3000005F0FD115E0226ED8F8001021F4E021E9
:101D40001143C8F80010E5E7B0F1804F0ED0B0F1B4
:101D5000A04F0BD001250AE00121201D02F08EF8D2
:101D600003E00098012102F019F905466DB12E46F5
:101D7000208800041FD5E06ED8B1B0F1805F0ED08E
:101D8000B0F1005F10D0012514E0D4F8AC20D9F8F0
:101D9000001021F0E0411143C9F80010E8E738686D
:101DA00040F40030386004E00121201D02F066F8A4
:101DB00005466DB12E462068C0011ED5606CD0B1BD
:101DC00001280ED0022811D0032814D0012513E0D9
:101DD000E26ED8F8001021F040511143C8F800100D
:101DE000E9E7386840F40030386004E00221201D43
:101DF00002F044F8054685B12E462068DFF85CB055
:101E00004002ABF11C0B57D51648016841F48071B4
:101E10000160FFF763FA82460EE01148626C001F12
:101E2000016821F0030111430160E6E7FFF756FA6C
:101E3000A0EB0A0064283DD80A480068C005F5D523
:101E40007DBBDFF81CA0B4F8B0100AF1200ADAF864
:101E5000000001F4407100F4407005E02C44025889
:101E60005044025800480258884211D0DAF8001055
:101E7000DAF8002021F4407142F48032CAF80020E0
:101E8000DAF8002022F48032CAF80020CAF80010E4
:101E9000D4F8B000B0F5807F21D1FFF71FFA019090
:101EA00019E008E0FFF71AFA0199411A41F2883067
:101EB000814210D903252E462078DFF830A4C007D0
:101EC0003DD0A06F182838D026DC80B3082829D050
:101ED000102825D12CE0DAF800008007E2D5D4F8EC
:101EE000B010C1F30120032858460DD0016821F439
:101EF0007C510160B4F8B020DAF80010C2F30B0294
:101F00001143CAF80010D7E7F94A036802EA111230
:101F100023F47C511143ECE720280ED028280CD064
:101F200001250BE00121201D01F0A8FF04E004E0E1
:101F30000098012102F032F805465DB12E46207866
:101F400080071ED5606F062819D2DFE800F0160C56
:101F500011161616A26FDAF8001021F0380111439D
:101F6000CAF80010EBE70121201D01F087FF03E014
:101F70000098012102F012F8054675B100E0012534
:101F80002E46207840071FD5D4F89000062819D295
:101F9000DFE800F0160C11161616626FDAF8001062
:101FA00021F007011143CAF80010EAE70121201DC2
:101FB00001F064FF03E00098012101F0EFFF054606
:101FC0009DB100E001252E46207880062BD5D4F85F
:101FD0008C00B0F1405F24D011DC10B3B0F1805F11
:101FE00015D0B0F1005F10D116E0D4F89020D9F8E8
:101FF000001021F007011143C9F80010E4E7B0F127
:10200000804F0ED0B0F1A04F0BD001250AE0002187
:10201000201D01F033FF03E00098022101F0BEFF14
:1020200005468DB12E46207840062BD5D4F8980071
:10203000B0F5406F24D011DC10B3B0F5806F15D02F
:10204000B0F5006F10D116E0D4F88C20DAF800104B
:1020500021F0E0411143CAF80010E4E7B0F5805FD9
:102060000ED0B0F5A05F0BD001250AE00021201DA5
:1020700001F004FF03E00098022101F08FFF054604
:102080008DB12E46207800062BD5D4F89C00B0F5F3
:10209000C04F24D011DC10B3B0F5005F15D0B0F5FF
:1020A000804F10D116E0D4F89820D9F8001021F410
:1020B000E0511143C9F80010E4E7B0F5004F0ED02D
:1020C000B0F5204F0BD001250AE00021201D01F0C2
:1020D000D5FE03E00098022101F060FF05464DB1F6
:1020E0002E46207800071ED5D4F88000B0F5805F1A
:1020F0000AD00FE0D4F89C20D9F8001021F46041F8
:102100001143C9F80010ECE70098022101F046FFE6
:1021100000B10126D4F88020DAF8001021F44051F3
:102120001143CAF800102078C00613D5D4F89400E3
:10213000B0F5807F05D10098022101F02FFF00B19A
:102140000126D4F89420D9F8001021F440711143ED
:10215000C9F800102068000316D5D4F8A00038B1E3
:10216000B0F5803F09D0B0F5003F0BD001250AE063
:102170000021201D01F082FE03E00098022101F001
:102180000DFF054685B12E462068400322D5D4F8C0
:102190008400B0F5801F11D0B0F5001F13D0B0F54A
:1021A000401F15D0012514E0D4F8A020D9F8001064
:1021B00021F440311143C9F80010E5E7386840F4D4
:1021C0000030386004E00098012101F0E7FE054688
:1021D00055B12E462068C0031CD5E06C70B1B0F537
:1021E000803F10D0012514E0D4F88420DAF80010E4
:1021F00021F440111143CAF80010EBE7386840F4AD
:102200000030386004E00221201D01F037FE054651
:10221000CDB12E462068800005D50098022101F03E
:10222000BDFE00B10126206880031BD5E06FB8B168
:10223000B0F5807F10D0B0F5007F11D0B0F5407FB1
:102240000ED001250DE02948E26C0838016821F420
:10225000803111430160DDE7386840F400303860B8
:10226000F5B32E462068C00207D5226FD8F80010BB
:1022700021F000411143C8F800102068C00008D5C3
:10228000D4F8B420DBF8001021F480411143CBF8DE
:1022900000102068800207D5A26ED8F8001021F047
:1022A00080711143C8F80010206840000CD5DBF89D
:1022B000001021F40041CBF80010DBF80010D4F836
:1022C000B8201143CBF800102068002807DA07482F
:1022D000226D0838016821F040511143016000E08F
:1022E00008E086B10120BDE8FC9F0000544402587C
:1022F000CFFFFF00E26FDAF8001021F440711143C4
:10230000CAF80010AEE70020EDE700002DE9F05F0D
:1023100004000F467ED0DFF83882D8F8000000F0C5
:102320000F00B8420CD2D8F8001021F00F01394349
:10233000C8F80010D8F8000000F00F00B84269D1CA
:102340002078844D40070AD52069296801F0700182
:10235000884204D9296821F070010143296020785E
:102360007C4E361D00070AD56069316801F07001A6
:10237000884204D9316821F070010143316020782E
:10238000C0060AD5A069316801F4E061884204D929
:10239000316821F4E061014331602078DFF8B4B1A5
:1023A00080060BF1080B0CD5E1695846DBF80020DC
:1023B00002F07002914204D9026822F070020A43CE
:1023C0000260207880070AD5E068296801F00F01D3
:1023D000884204D9296821F00F010143296020783F
:1023E000C0073ED05B49A2682868183920F47060A5
:1023F000104328606068022818D0032819D00968A3
:10240000012819D0490700294ADADFF848A1AAF1C2
:10241000080A00E044E0DAF8002022F00702024354
:10242000CAF80020FEF75AFF814612E009688903C6
:10243000E9E709688901E6E7C905E4E7FEF74EFF29
:10244000A0EB090141F28830814202D90320BDE8A6
:10245000F09F6168DAF8000000F03800B0EBC10FBF
:10246000ECD1207880070AD5E068296801F00F01D7
:10247000884204D2296821F00F0101432960D8F86D
:102480000010404601F00F01B9420BD9016821F05C
:102490000F0139430160006800F00F00B84201D01D
:1024A0000120D4E7207840070AD52069296801F087
:1024B0007001884204D2296821F07001014329602B
:1024C000207800070AD56069316801F07001884200
:1024D00004D2316821F07001014331602078C006D8
:1024E0000AD5A069316801F4E061884204D23168FC
:1024F00021F4E06101433160207880060CD5E16968
:102500005846DBF8002002F07002914204D20268C3
:1025100022F070020A43026000F06CF80E492A684B
:102520002B68C2F3032203F00F038A5CC95C02F03C
:102530001F0201F01F01D040084A20FA01F111608A
:102540000749086007480068BDE8F05FFEF702BF72
:102550000020005218440258EA84009070020024BF
:102560006C0200246402002430B500F043F80B4AEA
:102570000B490C4B15681468C5F3032204F00F04D3
:102580008A5C095D02F01F0201F01F01D040064A7B
:1025900020FA01F119601060084630BD1844025855
:1025A000EA840090700200246C02002400B5FFF75A
:1025B000DBFF05490968054AC1F30211515C01F0CE
:1025C0001F01C84000BD00001C440258EA8400906E
:1025D00000B5FFF7C9FF05490968054AC1F30221A3
:1025E000515C01F01F01C84000BD00001C440258AE
:1025F000EA840090454970B545480968434B103B53
:1026000011F0380208D00111082A03D0102A0BD08B
:10261000182A0BD0084670BD19688906FBD51968C1
:10262000C1F3C101C84070BD3A4870BD3749374D4C
:1026300018310C1D24350A68096826682D6802F0D7
:10264000030406F00102C1F30511C5F3CC0515FB27
:1026500002F200EE102AB8EE400AE9B32F4ADFED8D
:102660002E0AB7EE001A6CB1DFED2D1A012C01D045
:10267000022C43D002EE101A1068F8EE422A81EEC6
:10268000A22A1EE01C68A40611D51B6801EE901A50
:102690001168C3F3C103F8EE612AD84001EE900A35
:1026A000C1F30800F8EE611A81EEA22A0BE001EEF8
:1026B000901ADFED1C2A00BFF8EE611A106882EE56
:1026C000A12AC0F3080001EE900AF8EE611A40EE6C
:1026D000201A31EE810A00E015E022EE000A1068AF
:1026E000C0F34620401C00EE900AF8EE600A80EE2F
:1026F000201ABCEEC10A10EE100A70BD01EE901A4D
:10270000DFED092AD8E7002070BD00001044025810
:102710000090D00340787D01000000393044025819
:102720000024744A0024744C20BCBE4B2DE9F05F99
:1027300004007CD0FF4F2078FE4D1837DFF8F4936B
:10274000103DC00748D0D9F80000396800F03800C3
:10275000102815D0182803D101F0030002280FD04B
:102760006068B0F5803F12D010B1B0F5A02F18D03E
:10277000286820F480302860286820F4802009E050
:102780002868800328D560680028D2D024E0286813
:1027900040F480302860606888B1FEF79FFD0646EF
:1027A00009E0286840F480202860F0E7FEF796FDF5
:1027B000801B64287ED828688003F7D50CE0FEF7DC
:1027C0008DFD064605E000BFFEF788FD801B6428EE
:1027D000F0D828688003F7D4207841F20308D54E5A
:1027E0000C3E800753D5D9F80000396810F0380046
:1027F0000ED0182801D188070AD0E068A8B329684C
:1028000021F0190101432960FEF768FD82461BE0B3
:102810002868400702D5E06800288AD0FEF758FDF6
:1028200040451BD82069402812D0316800E0CCE038
:1028300021F47C3141EA0030306028E0FEF74EFDA3
:10284000A0EB0A000228B5D828684007F6D5E5E7CE
:10285000306820F47C3040F40030EDE7207C3168B3
:1028600021F0FE4141EA0060E6E7FFE7286820F03A
:1028700001002860FEF732FD824605E0FEF72EFDDE
:10288000A0EB0A00022895D828684007F6D42078E3
:10289000C0065FD5D9F80000DFF898B2396800F0BB
:1028A0003800ABF1040B082812D0182805D101F02C
:1028B000030000E0EAE001280AD0E0690028286867
:1028C00038D040F080002860FEF708FD824623E003
:1028D0002868C00523D5E069802876D11FE0206AEA
:1028E000202821D0316821F0F84141EA8060306031
:1028F00030E000BF94F82010DBF8002022F07C527A
:1029000042EA0161CBF8001024E000BFFEF7E6FCCC
:10291000A0EB0A00022896D82868C005F6D5FEF775
:10292000D7FC4045E6D8DAE7306820F0F84040F0C0
:102930008040DCE720F080002860FEF7CFFC0646F0
:1029400005E000BFFEF7CAFC801B02289BD8286860
:10295000C005F7D42078000729D57648616964302E
:1029600000298046016811D041F001010160FEF7A5
:10297000B5FC064605E000BFFEF7B0FC801B022850
:10298000C9D8D8F800008007F6D510E021F0010181
:102990000160FEF7A3FC064605E000BFFEF79EFCC3
:1029A000801B022872D8D8F800008007F6D420785F
:1029B000800623D5A0690028286810D040F48050F4
:1029C0002860FEF78BFC064605E02CE1FEF786FC4E
:1029D000801B02285AD828688004F7D50EE020F41E
:1029E00080502860FEF77AFC064604E0FEF776FC8D
:1029F000801B02284AD828688004F7D42078400732
:102A00004FD5DFF83481D8F8001041F48071C8F850
:102A10000010FEF763FC064605E000BFFEF75EFC13
:102A2000801B642832D8D8F80000C005F6D5414E86
:102A3000A068603601280AD008B1052813D0306894
:102A400020F001003060306820F0040002E03068BF
:102A500040F001003060A06841F2883A90B1FEF782
:102A60003DFC80460AE0306840F004003060EEE74C
:102A7000FEF734FCA0EB0801514507D83068800709
:102A8000F6D50EE0FEF72AFC804607E084E000BFA2
:102A9000FEF724FCA0EB080151457DD83068800783
:102AA000F6D4606AF0B3DFF88C80D9F8001008F132
:102AB0002008C1F3C20103296FD00228286820F042
:102AC0008070286003D0FEF709FC044680E0FEF722
:102AD00005FC064605E000BFFEF700FC801B02284F
:102AE00073D828688001F7D4E26A40F2F33138687D
:102AF00054F8283F884340EA021018433860217B8D
:102B00004FF4FE0C22894FF0FE47208A4902267DB1
:102B1000521E401EA1F5007189B20CEA0040C2F3BA
:102B2000080200E081E01143761E0143014807EAF4
:102B3000066203E010440258004802581C3011435A
:102B40003B4AC8F80010016821F0010101601168DA
:102B50004FF6F876236AB14341EAC3011160016878
:102B6000A26921F00C01114301600168E26921F0C2
:102B7000020111430160016841F480310160016884
:102B800041F400310160016841F480210160016875
:102B900041F00101016001E017E01DE0286840F00C
:102BA00080702860FEF79AFB044604E0FEF796FB6F
:102BB000001B022809D828688001F7D535E000BF3E
:102BC000FEF78CFB001B022802D90320BDE8F09F12
:102BD00028688001F4D428E039680128D8F800007A
:102BE00021D0A26A01F0030393421CD1E26AC1F32F
:102BF00005118A4217D1216BC0F30802491E8A428F
:102C000011D1616BC0F34622491E91420BD1A16BD9
:102C1000C0F30642491E914205D1E16BC0F3066044
:102C2000491E814201D00120D0E70020CEE70000FC
:102C30003444025870477047704770472DE9FC478D
:102C40000446806B0E46032184F8301000270328C9
:102C50005AD0B6F5004F57D0B6F5804F4FF000056B
:102C60004FF400684FF0806904D006B3606B40F009
:102C700000603FE0009500210195206801F068FDAB
:102C800080011CD46946204601F0AAFD70BB019862
:102C900040032DD5B4F844102068090401F014FA5B
:102CA00020BB206802211DE0606B284322E00095D4
:102CB00000210195206801F04BFD800101D54546BA
:102CC000F2E76946204601F08BFD78B90198C00310
:102CD0000ED5B4F844102068090401F0F5F928B9BC
:102CE0002068002101F03AFA0028DDD00546DBE734
:102CF0004D46D9E76063606B4FF40078174D38B1EB
:102D000020680127856316E0606B40F08050F1E792
:102D1000D4E904C0D4E901123346042806D2A66DD2
:102D2000464503D0B6F5807F16D00420CDE900C01B
:102D3000206801F011FD2068414601F0F6F928B144
:102D4000216801278D63616B01436163012084F871
:102D500030003846BDE8FC870220E7E7FF0FE01FA0
:102D6000704710B550F86C2F0123120E0A700268DC
:102D7000120A4A8002784468120642EA14224A6023
:102D800002790A728268120E4A72D0E90224120293
:102D900042EA1462CA60C268C2F303520A74C2688B
:102DA000C2F30B224A82007BC0F3460008754B75C4
:102DB000002010BDF0B5C26D920F0A70C26DC2F353
:102DC00083624A70C26DC2F301628A70C26D120CD6
:102DD000CA70B0F85C20120A0A7190F85C204A713F
:102DE000026E120DCA80026EC2F303420A72B0F87C
:102DF0006020C2F3C0324A72B0F86020C2F3803261
:102E00008A72B0F86020C2F34032CA72B0F8602013
:102E10000026C2F300320A734E730122836B4FF413
:102E2000007463B1012B3AD0036850499963416B38
:102E300041F08051416380F830200120F0BDB0F8AE
:102E40006030456E9B051B0D43EA95730B61436E25
:102E5000C3F3C2630B75436EC3F302634B75436EDA
:102E6000C3F342538B75436EC3F38243CB75436EFA
:102E7000C3F3C2330B760D696D1C85640B7E03F0C2
:102E800007039B1C9D4085640B7A446503F00F0388
:102E900002FA03F35F0A7D43C0E913350EE090F8B0
:102EA0006050436EAD06AD0A45EA13430B610B69F2
:102EB0005B1C9B028364C0E913434465B0F8643033
:102EC000C3F380334B76B0F86430C3F3C6138B760C
:102ED00090F8643003F07F03CB76836EDB0F0B77C3
:102EE000836EC3F341734B77836EC3F382638B7737
:102EF000836EC3F38353CB77836EC3F3405381F860
:102F0000203081F82160836EC3F3004381F82230C2
:102F1000B0F86830C3F3C03381F82330B0F86830BC
:102F2000C3F3803381F82430B0F86830C3F3403302
:102F300081F82530B0F86830C3F3003381F82630CB
:102F4000B0F86830C3F3812381F82730B0F86830D7
:102F5000C3F3012381F8283090F86800C0F34600DD
:102F600081F8290081F82A200020F0BDFF0FE01F22
:102F7000826B0A60C26B4A60026C8A60426CCA60F3
:102F8000826C0A61C26C4A61026D8A61406DC861DF
:102F90000020704770B5B0F8441000250446006862
:102FA000090401F0EDF918B1616B0143616304E0BC
:102FB0002068002101F0CCFB0546C5F3432070BD1D
:102FC0002DE9F04190B00C4600260546694601F017
:102FD00039FD2A4F4FF0010840B12A680126976356
:102FE0006A6B02436A6385F8308036E000994FF4DB
:102FF0007F40C1F3811121700099C1F340116170CC
:10300000009A114600EA122242EA11616180019998
:1030100009BA6160029921720299090A61720299E2
:10302000C1F30351A172DDE9022100EA1240C9B2E5
:103030000843A0810398C0F38520A0730398C0F3D0
:103040000120E0730398C0F303102074039800F08C
:103050000F0060740498000EA07428684FF400718B
:1030600001F063F828B12A6801269763686385F840
:10307000308010B03046BDE8F0810000FF0FE01F47
:103080002DE9F84304460068E56A416B09041BD545
:10309000290719D5D4E90950202813D30026206820
:1030A00001F070FB020A2870010C6A70030EA9700F
:1030B000761CEB70082E05F10405F0D3A06A2038C9
:1030C000C4E90950BDE8F883416B0127DFF8EC81C2
:1030D0000026C90551D539024CF23A1281632907FD
:1030E0002068C16B21EA0201C1632068C16B21F035
:1030F0008051C1632068C16821F04001C16018D5CA
:1031000015F0220F09D0206801F086F928B1616B13
:10311000014361632046FFF723FE2168AA07C1F837
:10312000388084F83070E66223D1204600F096FAA9
:10313000C8E72806C6D5206815F0220F86622068E9
:10314000C6622068066509D0206801F065F928B1DB
:10315000616B014361632046FFF702FE15F0300FFB
:1031600084F83070E66202D0204600F077FAA807B3
:10317000A8D0204600F06EFAA4E7416B490421D59F
:1031800029071FD5D4E9075020289BD3002628788B
:103190000090697840EA01200090A97840EA014057
:1031A0000090E9782D1D40EA016000902068694692
:1031B00001F000FB761C082EE9D3206A2038C4E910
:1031C00007507FE7416B11F03A0F416B58D08907E8
:1031D00003D5616B41F002016163416B090703D5BF
:1031E000616B41F008016163416B890603D5616B36
:1031F00041F020016163416BC90603D5616B41F069
:1032000010016163C0F838802068C16B21F49D71A2
:10321000C1632068C16821F04001C1602068C16AB3
:1032200041F40051C1622068C16841F08001C16071
:10323000206801F0F1F8626B2B074FF4006140EA5F
:10324000020060632068C26822F08002C2602068C9
:10325000816303D584F83070E6620DE028068BD5D3
:10326000606B002888D02068C16B21F08051C16359
:103270002068066584F830702046FFF771FD21E76D
:10328000C9009ED54FF0805181632068006D4007D2
:103290004FEA856008D40028204602DAFFF7CDFC0B
:1032A00010E7FFF7C8FC0DE70028204602DAFFF719
:1032B000C3FC07E7FFF7BEFC04E700003A0F001865
:1032C000F0B5040085B020D094F83000002518B97E
:1032D0002046257600F090F8032084F83000204640
:1032E00000F03CF888B969462046FFF769FE60B9EE
:1032F0009DF81010A26B9DF81100012A08D0A56559
:103300002046E168FFF79AFC58B1012005B0F0BDF6
:10331000014302D04FF4007001E04FF48070A065CB
:10332000EEE7FDF7DBFF0127064604E0FDF7D6FFD9
:10333000801B401C0AD02046FFF72CFE0428F5D144
:103340006563E56284F830700020DFE74FF00040ED
:10335000606384F830700320D8E700002DE9FC4159
:10336000002504464FF48030FEF784FA07461F48D4
:103370002B462A46B7FBF0F62946CDE900562068D1
:1033800001F0EAF9206801F0F7F97000B7FBF0F0FE
:1033900020B11749B1FBF0F0401C00E00220FDF71E
:1033A00059FE204601F0F8FA4FF0010530B100BF98
:1033B00084F83050616B0143616313E0204601F0F3
:1033C00081FA0028F4D120684FF4007100F0ADFEBE
:1033D000002808D0226807499163616B014361634B
:1033E00084F830500120BDE8FC81000000350C005D
:1033F00010210100FF0FE01FF0B587B00446142133
:103400006846FCF7AFFF1E492068884235D11D4849
:10341000016841F480310160006800F4803005905B
:1034200018480C30016841F004010160016801F0A6
:1034300004010591016841F008010160006802245F
:103440000025694600F00800059003260C274FF47C
:10345000F8508DE8F1000C48FDF71CFE0420694689
:103460008DE8F1000948FDF715FE00220221312008
:10347000FDF7ACFF3120FDF79BFF07B0F0BD00006A
:1034800000700052D444025800080258000C025840
:103490002DE9F04F87B0994617460D460446FDF7D3
:1034A0001DFF06903DB194F83000012807D0606BF5
:1034B00040F000500DE0606B40F0006009E0226DCC
:1034C000002007EB09016063914204D9606B40F072
:1034D00000706063A8E0032184F830102168C8629E
:1034E000A16B012900D07F024FF0020ACDE903A0B1
:1034F00090264FF0FF324FEA492305908DE84C00AB
:1035000080462068694600F0E5FF2068B9F1010FA8
:103510004FF00106C16841F04001C16006D9C4F80E
:103520002CA03946206800F097FE04E0E662394698
:10353000206800F0ABFEDFF814A150B12368C3F897
:1035400038A0616B0143616384F83060C4F82C805B
:103550006AE0DDF804B01FE0406B000414D5BBF155
:10356000200F11D30027206801F00CF9020A2870FF
:10357000010C6A70030EA9707F1CEB70082F05F117
:103580000405F0D3ABF1200BFDF7A8FE0699411A14
:103590001098814221D200B32068416B11F4957FCD
:1035A000DAD0C16821F04001C1602068416BC905D3
:1035B00022D5B9F1010F1FD9A16B03291CD000F04E
:1035C0002BFFC8B12368C3F838A0626B0243626363
:1035D00084F83060C4F82C8026E02268C2F838A055
:1035E000606B40F00040606384F83060C4F82C8069
:1035F000032007B0BDE8F08F2068416B090706D5AE
:10360000C0F838A0616B404641F0080108E0416B0A
:1036100089070BD5C0F838A0616B404641F0020124
:10362000616384F83060E0620120E2E7416B890663
:1036300006D5C0F838A0616B404641F02001EFE7A5
:103640000349816384F830600020D2E7FF0FE01F58
:103650003A0F001810B5FDF76BF910BD10B5FDF766
:1036600079F910BD2DE9F04F89B09A4616460D46FE
:103670000446FDF733FE06903DB194F83000012872
:1036800007D0606B40F000500DE0606B40F00060D0
:1036900009E0226D002006EB0A016063914204D923
:1036A000606B40F000706063B2E0032184F830107A
:1036B0002168C862A16B012900D076024FF0FF316A
:1036C0004FEA4A22059090230490CDE90230CDE9DB
:1036D000001280462068694600F0FCFE2068C16840
:1036E000BAF1010F41F04002C26006D92020E06229
:1036F0002068314600F0BAFE05E01020E062206844
:10370000314600F0CDFEDFF830B106004FF0010980
:103710000AD02368C3F838B0606B3043606384F824
:103720003090C4F82C8073E00198089027E0406B3B
:1037300040041CD50898202819D300272878079022
:10374000697840EA01200790A97840EA0140079093
:10375000E9782D1D40EA01600790206807A901F073
:1037600029F87F1C082FE9D3089820380890FDF726
:10377000B5FD0699411A1298814221D200B3206802
:10378000416B11F48D7FD2D0C16821F04001C1603E
:103790002068416BC90521D5BAF1010F1ED9A16B73
:1037A00003291BD000F038FEC0B12568C5F838B039
:1037B000616B0143616384F83090C4F82C8027E08A
:1037C0002368C3F838B0626B3243626384F8309088
:1037D000C4F82C80032009B0BDE8F08F2068416B4D
:1037E000090707D54946C0F838B0626B404642F039
:1037F000080209E0416B89070CD54946C0F838B08A
:10380000626B404642F00202626384F83010E0626C
:103810000120E0E7416BC90607D54946C0F838B03A
:10382000626B404642F01002EEE7044A826384F87D
:1038300030900020CFE70000FF0FE01F3A0F001884
:10384000401EB0F1807F10B501D3012010BD4FF0B4
:10385000E02460610F21601701F014FF0020A061D7
:103860000721216110BD30B590F87C10012918D0D6
:10387000012280F87C202421C0F88010002220241E
:1038800050F8601B0B680D6823F0005325F001050C
:103890000D60426050F8601C0B60046202771046B5
:1038A00030BD022030BD704770B5044690F87C00F2
:1038B00001281DD0012284F87C202420C4F8800037
:1038C00020680568026822F00102026020688268B0
:1038D00022F060620A438260204601F0DFFA22682B
:1038E000202100201560C4F8801084F87C0070BD91
:1038F000022070BD70B5044690F87C0001281DD0F0
:10390000012284F87C202420C4F880002068056807
:10391000026822F0010202602068826822F06042A0
:103920000A438260204601F0B9FA22682021002073
:103930001560C4F8801084F87C0070BD022070BD52
:1039400070477047704700002DE9F0410368044656
:10395000002540F60F06D86919689A68304209D1E7
:1039600086067DD501F0200602F080573E4377D0D1
:10397000E16E9EE0614E624F16400F4037436FD0BC
:10398000C70709D0CF0507D501271F62D4F88830B3
:1039900043F00103C4F8883083070AD5D30708D061
:1039A000276802233B62D4F8883043F00403C4F84C
:1039B000883043070AD5D30708D0276804233B6221
:1039C000D4F8883043F00203C4F8883003070CD5DC
:1039D00001F02003334308D0266808233362D4F86B
:1039E000883043F00803C4F8883003050BD54B0139
:1039F00009D526684FF400633362D4F8883043F069
:103A00002003C4F88830D4F88830002B34D08006E6
:103A100009D501F0200002F08051084303D0E16E87
:103A200009B1204688472168D4F88800896849068A
:103A300002D410F0280F21D0204601F0FFFA2068B0
:103A40008168490615D5816821F040018160A06F29
:103A500078B12C490165A06FFDF7BAF9002800E0A4
:103A600012E009D0A06F016D00E02046BDE8F041F2
:103A700008472046FFF766FFBDE8F0812046FFF7C4
:103A800061FFC4F88850F7E7C60209D5560207D58A
:103A90004FF4801018622046BDE8F041FFF751BF97
:103AA000060609D501F0800602F40002164303D091
:103AB000216F0029D9D1DFE742060DD54A060BD583
:103AC0001A682021204622F040021A60C4F88010B3
:103AD000256700F0FEF8CFE7020206D54A0004D5BC
:103AE0002046BDE8F041FFF72BBFC001C4D5002937
:103AF000C2DA2046BDE8F041FFF7D5BE0100001054
:103B0000200100042750009010B5040003D0D4F821
:103B1000800010B107E0012010BD002084F87C0077
:103B2000204600F027F82420C4F8800020680168AF
:103B300021F001010160204601F094FA0128EBD048
:103B4000A06A10B1204601F0DBF92068416821F439
:103B5000904141602068816821F02A0181602068DD
:103B6000016841F0010101602046BDE8104001F00C
:103B70002BBA000070B586B0044614216846FCF7E5
:103B8000F1FB20492068884239D11F48016841F47F
:103B900000210160006800F4002005901A480838F0
:103BA000016841F480710160016801F48071059140
:103BB000016841F0010101600068022500246946A6
:103BC00000F001000590082628020090CDE901547C
:103BD0000E48CDE90346FDF75DFA01200090CDE9DE
:103BE00001540B486946CDE90346FDF753FA00221C
:103BF00003213420FDF7EAFB3420FDF7D9FB06B0A2
:103C000070BD0000004C0040E844025800200258FB
:103C1000000002582DE9F8430446D0F880001F4602
:103C200016460D46202852D1DDB1D6B194F87C005D
:103C300001284CD0012084F87C0021224FF000089C
:103C4000C4F88880C4F880201834FDF747FB81460B
:103C500054F8100CA687E687183CB0F5805F03D0B7
:103C600004E00120BDE8F883206920B12E4600253C
:103C700084F87C8010E00026FAE78021204601F0DD
:103C8000C9FBB8B9C6B116F8010B21688862B4F84F
:103C90005600401EA4F85600B4F856004B464FF0AC
:103CA000000200970028E8D14FF04001204601F0C3
:103CB000B1FB38B10320D5E735F8020B2168C0F31A
:103CC0000800E3E72020C4F880000020CAE70220B3
:103CD000C8E77047FEE700000449054810B5FCF747
:103CE00041FE0249491E087010BD00007602002402
:103CF000FC8400902DE9F04387B014216846FCF75E
:103D000031FB2F48016841F004010160016801F0B6
:103D100004010591016841F008010160016801F0AA
:103D200008010591016841F480710160016801F4A6
:103D300080710591016841F080010160016801F026
:103D400080010591016841F00101016000684FF4B4
:103D50000046DFF87080002200F001003146059037
:103D60004046FDF7AFFADFF86090F71100223946C0
:103D70004846FDF7A7FA002400960125694640460B
:103D8000CDE901540394FDF785F900976946CDE923
:103D9000015448460394FDF77DF90C4910208DE845
:103DA00023000B486946FDF775F9002203210A201C
:103DB000FDF70CFB0A20FDF7FBFA07B0BDE8F08326
:103DC000E044025800080258002002580000211167
:103DD000001C02580C48002170B54FF48044094D76
:103DE0000422C0E90051E300C0E90214C0E9043232
:103DF000FFF766FA002803D0BDE87040FCF7B0BDBD
:103E000070BD000000700052C08A002418480021D4
:103E100010B5164C0C224FF4E1330460C0E90131B7
:103E2000C160C0E904128161C161016241628162C5
:103E3000FFF76AFE08B1FCF793FD0D480021FFF77C
:103E400059FD08B1FCF78CFD09480021FFF72CFD56
:103E500008B1FCF785FD0648FFF705FD002803D0F3
:103E6000BDE81040FCF77CBD10BD0000004C0040D8
:103E70003C8B0024FEE7FEE7704700002DE9F04789
:103E8000454D044689464FF0000A2868C043800724
:103E90000AD0414E283E306820F080603060FDF747
:103EA0001DFA0746B04608E00120BDE8F08700BFD4
:103EB000FDF714FAC01B022867D8D8F800000001EB
:103EC000F6D4206829684FF4FE0721F47C313E02C5
:103ED00041EA00302860207AA389B4F804C0400287
:103EE0002D4D2D495B1E227CACF1010C1035091DB6
:103EF000A0F5007080B2521ECCF3080C07EA034311
:103F000040EA0C00184306EA026210432860086881
:103F1000626920F0C000104308600A68A06922F0BE
:103F2000200202430A60281D0A6822F010020A607B
:103F300002684FF6F873E4699A4342EAC4020260E9
:103F40000868B9F1000F40F010020A6011D008684B
:103F5000B9F1010F11D040F400100860D8F800004A
:103F6000444640F08060C8F80000FDF7B7F9054608
:103F70000DE0086840F40020EFE740F48010ECE723
:103F8000FDF7ACF9401B022801D903208DE720681A
:103F90000001F5D5504688E7284402582DE9F0473E
:103FA000454D044689464FF0000A2868C043800703
:103FB0000AD0414E283E306820F080503060FDF736
:103FC0008DF90746B04608E00120BDE8F08700BF44
:103FD000FDF784F9C01B022867D8D8F800008000DC
:103FE000F6D4208829684FF4FE0721F07C713E0248
:103FF00041EA00502860207AA389B4F804C0400246
:104000002D4D2D495B1E227CACF1010C1835091D8C
:10401000A0F5007080B2521ECCF3080C07EA0343EF
:1040200040EA0C00184306EA026210432860086860
:10403000626920F44060104308600A68A06922F4B5
:10404000007202430A60281D0A6822F480720A6026
:1040500002684FF6F873E4699A4342EAC4020260C8
:104060000868B9F1000F40F480720A6011D0086846
:10407000B9F1010F11D040F080700860D8F800004D
:10408000444640F08050C8F80000FDF727F9054687
:104090000DE0086840F48000EFE740F40000ECE732
:1040A000FDF71CF9401B022801D903208DE7206889
:1040B0008000F5D5504688E7284402580148FEF7AD
:1040C000DFBF0000C08A002430B585B00446372029
:1040D0004FF480720DF1080CCDE900100023694601
:1040E000150120468CE82C0000F050FB372141F2EE
:1040F0008832204600F002FA05B030BD30B585B0F8
:10410000044629204FF480720DF1080CCDE900100F
:1041100000236946150120468CE82C0000F036FB90
:10412000204600F0A7FA05B030BD30B50446102097
:1041300085B00DF1080C02010502CDE90010002345
:1041400069468CE82C00204600F020FB102141F24B
:104150008832204600F0D2F905B030BD30B585B0C8
:10416000044606204FF480720DF1080CCDE90010D2
:1041700000236946150120468CE82C0000F006FB60
:10418000062141F28832204600F0B8F905B030BD72
:1041900030B585B00546002469464FF48050009440
:1041A00001940294CDE90340284600F0EFFA0B4A4F
:1041B0004FF4FA5041F288311268B2FBF0F04843F4
:1041C000401E03D24FF0004005B030BD696B0906B8
:1041D000F6D503492046A963F6E700006C020024E7
:1041E000C500200030B50821044685B04FF4D570D5
:1041F00000254A014B0204938DE8270069462046BA
:1042000000F0C4FA134A4FF4FA5041F288311268B0
:10421000B2FBF0F04843401E03D24FF0004005B01F
:1042200030BD616B11F0450FF5D08904F3D4606B9C
:10423000400701D5042003E0606BC00702D00120D5
:10424000A063ECE7606B400601D54020A0632846E0
:10425000E5E700006C02002430B585B0044612206A
:104260004FF480720DF1080CCDE90010002369466F
:10427000150120468CE82C0000F088FA122141F24A
:104280008832204600F03AF905B030BD30B585B02F
:10429000044611204FF480720DF1080CCDE9001096
:1042A00000236946150120468CE82C0000F06EFAC8
:1042B000112141F28832204600F020F905B030BDCE
:1042C00030B585B004464FF480710DF1040C072021
:1042D000009200230D018CE82B006946204600F077
:1042E00055FA072141F28832204600F007F905B05F
:1042F00030BD10B586B00446002102204FF4407254
:10430000C3020493CDE90010CDE90221694620469D
:1043100000F03CFA204600F083F906B010BD30B53D
:1043200085B0044609200DF1080C0023CDE90010EA
:104330004FF4407269464FF4805520468CE82C00BB
:1043400000F024FA204600F06BF905B030BD10B53E
:1043500086B00446002133204FF48072CDE902215B
:10436000CDE90010130169462046049300F00EFACF
:10437000332141F28832204600F0C0F806B010BD6B
:1043800030B585B004460D204FF480720DF1080C55
:10439000CDE9001000236946150120468CE82C0069
:1043A00000F0F4F90D2141F28832204600F0A6F821
:1043B00005B030BD30B585B00C4600210546032060
:1043C0004FF48072CDE90221CDE900101301694656
:1043D0002846049300F0DAF903212246284600F02B
:1043E0006DF905B030BD10B586B0044600210D2032
:1043F0004FF48072CDE90221CDE900101301694626
:104400002046049300F0C2F90D2141F28832204683
:1044100000F074F806B010BD10B586B004464FF435
:10442000807200200C2113018DE80700CDE9030301
:10443000E06840F08000E060E06820F04000E0606C
:104440006946204600F0A2F9074A0C21204600F0F8
:1044500055F8E168B0F1007F21F08001E16000D102
:10446000002006B010BD000000E1F50530B585B0B4
:10447000044619204FF480720DF1080CCDE90010AC
:1044800000236946150120468CE82C0000F07EF9D7
:10449000192141F28832204600F030F805B030BDD5
:1044A00030B585B0044618204FF480720DF1080C29
:1044B000CDE9001000236946150120468CE82C0048
:1044C00000F064F9182141F28832204600F016F815
:1044D00005B030BD70B50A6842624A688262C46A3B
:1044E000D1E90225D1E9043624F0FF012A43334300
:1044F0001A431143C162002070BD000030B5464D23
:104500004FF4FA53434C2D68B5FBF3F353435B1E52
:1045100002D24FF0004030BD426B2242F7D09204ED
:10452000F5D4426B520703D504218163084630BDA0
:10453000426BD20702D00121816306E0354A803206
:1045400082630269D2B28A4201D0012030BD0021CB
:1045500000F0FEF83149084201D1002030BD0028AA
:1045600002DA4FF0007030BD410001D5402030BD6F
:10457000810001D5802030BDC10002D54FF480708C
:1045800030BD010102D54FF4007030BD410102D5AC
:104590004FF4806030BDC10102D54FF4006030BDE2
:1045A000010202D54FF4805030BD410202D54FF4D4
:1045B000005030BD810202D54FF4804030BDC102B1
:1045C00002D54FF4004030BD410302D54FF4003016
:1045D00030BD810302D54FF4802030BDC10302D528
:1045E0004FF4002030BD010402D54FF4801030BDDF
:1045F000410402D54FF4001030BD810402D54FF4C0
:10460000800030BD000702D54FF4000030BD4FF4EC
:10461000803030BD450020006C02002408E0FFFD22
:10462000124B4FF4FA5141F288321B68B3FBF1F19F
:104630005143491E02D24FF000407047426B12F0C6
:10464000450FF6D09204F4D4416B490703D50421F9
:10465000816308467047416BC90703D0012181631C
:104660000846704702498163002070476C020024AD
:10467000C50020000F4B4FF4FA5141F288321B68FD
:10468000B3FBF1F15143491E02D24FF00040704795
:10469000426B12F0450FF6D09204F4D4416B4907F7
:1046A00003D50421816308467047034981630020D4
:1046B000704700006C020024C500200030B5204D7A
:1046C0004FF4FA5341F288342D68B5FBF3F363439A
:1046D0005B1E02D24FF0004030BD446B14F0450F1A
:1046E000F6D0A404F4D4436B5B0703D504218163A3
:1046F000084630BD436BDB0702D00121816303E034
:104700000369DBB28B4201D0012030BD0D498163CA
:10471000002100F01DF810F4604F04D0410406D5CC
:104720004FF4005030BD000C1080002030BD00045C
:1047300002D54FF4805030BD4FF4803030BD0000C2
:104740006C020024C5002000006800F003007047E0
:10475000084440697047000030B511434268DDE904
:1047600003542B43034D194321432A400A4342601B
:10477000002030BD002CC0FF016841F00301016042
:1047800000207047D0F880007047000070B5084DD9
:104790000A688260C368D1E90126D1E903412B4050
:1047A00032430C4322431343C360002070BD00001A
:1047B000C0E0FEFF0968C0F88010002070470000CC
:1047C00010B5064C01202070FCF776F818B9207857
:1047D00020F001002070207810BD00007402002439
:1047E0002DE9F04F87B00D460446FCF777FD002613
:1047F000069020680821B3463746FFF796FC00284C
:1048000033D1B4F8441020680904FFF75DFC002898
:104810002BD1431E4FF008094FF0020A4FF0300C25
:104820004FF00108CDF80CA08DE80812CDE904681E
:1048300020686946FFF74EFE2068FFF788FD0028D4
:1048400013D140F22A582068416B11EA080F06D1B3
:10485000416B090315D4BBF1000F09D011E0416B86
:10486000090717D5C0F83890082007B0BDE8F08FC9
:10487000FFF788FF06462068FFF784FF07464FF0E2
:10488000010BFCF72BFD0699401A401CDBD14FF0C1
:104890000040EAE7416B890703D5C0F838A0022041
:1048A000E3E7416B890603D5202181630846DCE7F5
:1048B000034A39BA33BA82630020C5E90013D4E74A
:1048C0003A0F001810B58CB004460120ADF82C004A
:1048D0002068FFF739FF002853D0A06B032841D090
:1048E0002068FFF706FD002849D120680021FFF766
:1048F0002FFFE06604212068FFF72AFF20670821C8
:104900002068FFF725FF60670C212068FFF720FF74
:10491000A16BA067032925D020680BA9FFF74AFDEA
:1049200000282CD1A06B03281CD0BDF82C1061648A
:1049300020680904FFF7F3FC002820D1206800213B
:10494000FFF706FFE06504212068FFF701FF2066FE
:1049500008212068FFF7FCFE60660C212068FFF745
:10496000F7FEA06604212068FFF7F2FE000D6946FD
:1049700020642046FEF71EFA30B14FF080500CB094
:1049800010BD4FF08060FAE7B4F844000023020441
:104990002068FFF795FCF2E72DE9F84F0026044662
:1049A0003546374600960068FFF7F2FB002827D10E
:1049B0002068FFF717FC4FF0805B4FF0010840F6CE
:1049C000340948B1E6632068FFF7E2FB002817D1FD
:1049D000E06B012802D01FE0C4F83C800021206871
:1049E000FFF772FB58B917E020680021FFF76CFB56
:1049F000002805D120685146FFF780FB10B15846CA
:104A0000BDE8F88F20680021FFF7A2FEC70F05461A
:104A10000098401C009003E0DFF824A04E46009868
:104A2000B04201D2002FDFD0B04202D34FF08070ED
:104A3000E6E7680001D5C4F838800020E0E7000010
:104A4000000010C12DE9F04186B00D460446FCF788
:104A500045FC002107462068FFF77AFE800104D557
:104A60004FF4006006B0BDE8F08120684021FFF7F8
:104A70005CFBC0B9B4F8441020680904FFF724FBBC
:104A800088B940214FF0FF3060224FF0010C022323
:104A900000268DE84F1020686946FFF71BFD20684F
:104AA000FFF7A1FC98B1616B6163DBE7406B000429
:104AB00007D500262068FFF765FE761C082E01C585
:104AC000F8D3FCF70BFCC01B401C02D127E04FF0D1
:104AD00000482068416B11F4957FE7D0416B0907CE
:104AE00001D50820BEE7416B890701D50220B9E74F
:104AF000406B80060AD52020B4E700BFFFF742FED6
:104B000001C5FCF7EBFBC01B401C08D02068416BC3
:104B1000C904F3D40146034888630020A2E7404655
:104B2000A0E700003A0F00187CB5FCF7D7FB1C4C3F
:104B3000064664201B4900222368584300901A4807
:104B4000FEF7A6FC05461848FEF724FA0428FAD119
:104B5000FCF7C4FB821B2068DFED141A00EE900AFC
:104B600000EE102A9FED121AF8EEE00AB8EE400AA5
:104B700060EEA10AC0EE801A21EE810A2DB10DA0CF
:104B8000294600F06FFD00207CBDB7EEC00AC0F3DF
:104B9000550110A08DED000B00F064FDF3E700005F
:104BA0005C020024C00A0024C08A002400000044E3
:104BB0000000803A0D0AB6C1C8A1B4EDCEF32121A0
:104BC0002121212020B4EDCEF3B4FAC2EB3A2564C2
:104BD0000D0A00000D0AB6C1C8A1B3C9B9A62CCAF6
:104BE000FDBEDDB4F3D0A1A3BA2564204B422C2036
:104BF000BAC4CAB13A202564206D732C20B6C1C84E
:104C0000A1CBD9B6C8A3BA252E3266204D422F7348
:104C1000200D0A0070B5064C054601202070FBF7F8
:104C200057FE18B92846FFF7CBFD2070207870BDDD
:104C300074020024144810B58AB014460078C007E6
:104C400002D003200AB010BD39B1012907D00229D2
:104C50000BD0032910D00420F4E70020F2E76846C7
:104C6000FBF724FE069900200CE06846FBF71EFEC9
:104C7000079900202180E5E76846FBF717FE0799B2
:104C80000020490A2160DDE77402002470B5012488
:104C90001D4616460846A31E2A463146FBF738FE37
:104CA00028B900BFFBF708FE0028FBD100242046EE
:104CB00070BDFFF785BD000070B501241D46164686
:104CC0000846A31E2A463146FBF734FE28B900BF2A
:104CD000FBF7F2FD0028FBD10024204670BD704791
:104CE000FCF702BB30B5CBB04C212FA8FBF73AFB49
:104CF000202142A8FBF736FBBC216846FBF732FBBC
:104D00000220FCF795FB264800242649026842F45D
:104D10004042026002680A6842F001020A600968C3
:104D200001F001014A9101688904FCD504213C236A
:104D300002202F904025339501223292CDE938048C
:104D4000CDE93A13CDE93C013EA90C2281E81500DA
:104D50002FA84194FDF7EAFC08B172B6FEE70822DD
:104D6000CDE94525D30142AA3F20CDE94753032190
:104D7000499582E81300042142A8FDF7C7FA08B15B
:104D800072B6FEE7084813941D9400906846FCF73D
:104D90005FFE002801D072B6FEE74BB030BD0000C8
:104DA000184802582C040058020001002E48F0B5A3
:104DB0002E4A016841F470010160106800F00F0094
:104DC000072804D2106820F00F00C01D1060284989
:104DD0000020274C10340B68264D43F001030B6074
:104DE00020600B682B400B60136803F00F03072B48
:104DF00004D9136823F00F03DB1D13601C4C1E4AFB
:104E000018341E4B261D371D2060194C1C4D2834AC
:104E10003060261D3860371D23603B1D35601C1D2A
:104E20003A60251D2E1D1860331D226028603260F7
:104E300018600A680E4B134C22F4802260330A601B
:104E4000186020686FF30F00B0F1005F03D20E49C5
:104E50000120C1F8080143F2D2000C49024BC206FE
:104E6000803B08601A60F0BD88ED00E00020005231
:104E7000004402587FEDF6EA8002010100020202BE
:104E80000000FF010010005C008000510040005253
:104E90000148FEF759BD00003C8B00243FB514A12A
:104EA000D1E9002314A1CDE90023D1E90021CDE906
:104EB0000221416EB9B1016802AC8A688968C2F307
:104EC0004262490F1DF80150615C2D01B5FBF1F103
:104ED000A0F86A101DF80210A25C0901B1FBF2F102
:104EE000A0F868103FBD0121A0F86A10F8E70000A3
:104EF0000101010307010000080402040801010187
:104F000090F82810C90706D00168C36A4A6822F4DD
:104F100000321A434A6090F82810890706D50168C4
:104F2000036B4A6822F480321A434A6090F82810D2
:104F3000490706D50168436B4A6822F480221A4368
:104F40004A6090F82810090706D50168836B4A6803
:104F500022F400421A434A6090F82810C90606D588
:104F60000168C36B8A6822F480521A438A6090F801
:104F70002810890606D50168036C8A6822F400525D
:104F80001A438A6090F82810490611D50168436CCD
:104F90004A6822F480121A434A60416CB1F5801FBE
:104FA00006D10168836C4A6822F4C0021A434A6041
:104FB00090F82810090606D50168C26C486820F4EC
:104FC0000020104348607047F8B500260446C0F83A
:104FD0008860FCF783F9054620686FF07E4700681B
:104FE000000708D500222B464FF4001120460097F9
:104FF00000F010FA60B92068006840070AD5002266
:105000002B464FF480012046009700F003FA08B1C8
:105010000320F8BD2020C4F8800084F87C60C4F828
:1050200084000020F8BD10B5806B0021A0F85E1050
:10503000A0F85610FEF786FC10BD000030B50168E0
:105040002023074D00240A6822F490720A60016848
:105050008A682A408A60C0F88430C46630BD000087
:10506000FEFFFFEF2DE9F04304468068D94F87B07B
:105070002268D4E90465E369616E304316681D4314
:105080002843D54B002501433E400E43166020685F
:10509000E268416821F44051114341602268A169EE
:1050A0009A4201D0206A01439668DFF830C3CC4FA2
:1050B000CC4806EA0C060E4396602168666ACA6A06
:1050C00022F00F023243CA622268BA420ED100684F
:1050D00000F03800182873D047DCB8B3082879D01E
:1050E00010286FD178E028287ED17BE0BE498A4223
:1050F00009D1006800F00700062875D2DFE800F04B
:10510000546A6C6E7072B9498A4209D1006800F025
:105110000700062868D2DFE800F0475D5F6163653D
:10512000B3498A4209D1006800F0070006285BD223
:10513000DFE800F03A5052545658AE498A420BD13B
:10514000006800F0070006284ED200E010E0DFE81B
:1051500000F02B4143454749A7498A420AD10068DC
:1051600000F03800182839D0B7DD2028BBD13CE04A
:1051700001203AE0A1498A4209D1006800F0070005
:10518000062831D2DFE800F01026282A2C2E9C4970
:105190008A420BD1006800F00700062824D2DFE81D
:1051A00000F003191B1D1F2100201EE09A421BD195
:1051B0008C48001D006800F00700062814D202E0A9
:1051C0000CE007E010E0DFE800F0030507090B0D35
:1051D00002200AE0042008E0082006E0102004E095
:1051E000202002E0402000E080208649DFF818827D
:1051F0009A42864A4FF400434FEA21174FF00006C7
:105200004ED110281AD006DC022809D004280BD071
:1052100008287DD10DE020283ED0402878D13DE0FF
:10522000FCF730F9014610E06846FCF7DFF9019918
:105230000BE003A8FCF77CFA049906E010688006EE
:1052400004D51068C0F3C100C140C1B3606A67688B
:1052500038F8102007EB4703B1FBF2F0834257D830
:10526000B0EB073F54D8002308461946FBF730F847
:105270000902020241EA106170084FEA3700101873
:105280003A4671410023FBF723F8614AA0F54071CB
:1052900091423DD821684CE03946D7E71946D5E719
:1052A000D4F81CC04FF6EF799C4552D108281AD08B
:1052B00006DC60B101280DD0042829D10EE039E0C8
:1052C000102815D0202840D040287CD13FE0FDF7A1
:1052D0006DF901E0FDF77CF9014610E06846FCF746
:1052E00085F901990BE003A8FCF722FA049906E07E
:1052F0001068800604D51068C0F3C100C140C9B170
:10530000636A606838F81330B1FBF3F1490000E0DC
:1053100059E001EB5001B1FBF0F080B2A0F11001B7
:10532000494550D84FF6F0732168C0F34202184047
:105330001043C8600120A4F86A00A4F86800284659
:10534000E666266707B0BDE8F0833946D8E7194618
:10535000D6E7082819D005DC58B101280CD004285C
:1053600031D10DE0102815D020282ED040282AD188
:105370002DE0FDF71BF901E0FDF72AF9014610E0E9
:105380006846FCF733F901990BE003A8FCF7D0F964
:10539000049906E01068800605D51068C0F3C100C6
:1053A000C1400029C6D0636A606838F81330B1FB89
:1053B000F3F101EB5001B1FBF0F080B2A0F110016C
:1053C00049457FF667AF0125B4E73946EBE7194653
:1053D000E9E70000F369FFCF000C0058FFF4FF116C
:1053E000001001405444025800440040004800406E
:1053F000004C004000500040001401400078004084
:10540000007C00400090D003D284009000440258F9
:10541000FFFC0F002DE9F0479A4617460E4604465A
:10542000089D4FF000094FF0200839E0681C37D084
:10543000FBF754FFA0EB0A00A84222D80DB3206866
:10544000016849072CD5C069C043000528D42368EA
:105450004FF40061196221680B6823F4D0730B606C
:1054600021688B6823F001038B60C4F88080C4F846
:105470008480C4F8888000BF032084F87C90BDE855
:10548000F08721680B6823F4D0730B6021688B6868
:1054900023F001038B60C4F88080C4F88480EBE7BC
:1054A0002068C06936EA000004D00020B842BDD0B0
:1054B0000020E4E70120F9E7FEE7000010B530A086
:1054C000ADF51A7D002200688CA98C902D4801F062
:1054D000B1FD2D4C30B1C0EB001004EB40012BA00E
:1054E00000F0C0F88CA98DA801F0E2FE48B1C0EB35
:1054F000001004EB40012BA000F0B4F80DF51A7D6C
:1055000010BD2EA000F0AEF80DF5977446A98DA839
:1055100001F0CEFFD0B99DF82E01B8B12E28F5D0FC
:105520009DF82011C80601D52EA000E031A000F0A2
:1055300099F86946204601F0E4FF009931A000F097
:1055400091F832A0214600F08DF8DFE73148806DF8
:1055500030B1B0F5807F05D0B0F5007F04D009E010
:105560002D4805E02DA003E03C4800F07BF83C48C6
:1055700000F078F800228CA9104601F05BFDBDE731
:10558000303A00008802002401000024B9D2D4D8A7
:10559000CEC4BCFECFB5CDB3CAA7B0DC20282573DE
:1055A000290D0A00B4F2BFAAB8F9C4BFC2BCCAA789
:1055B000B0DC20282573290D0A000000CAF4D0D4DD
:1055C000207C20CEC4BCFEB4F3D0A1207C20B6CC7D
:1055D000CEC4BCFEC3FB207C20B3A4CEC4BCFEC39F
:1055E000FB0D0A002830782530326429C4BFC2BCC4
:1055F000200000002830782530326429CEC4BCFE5B
:105600002000000020253130640000002025730DAB
:105610000A000000C08A0024688900904869676811
:105620002053706565642043617264203C32354DBF
:10563000422F732C204D415820436C6F636B203CEC
:105640002035304D487A2C205370656320566572A2
:1056500073696F6E20322E30300D0A00F889009089
:10566000AC8900900FB4054B10B503A9044A029809
:1056700000F0EAF810BC5DF814FB0000497B0090D4
:1056800084020024090700284FEA116104DB00F1BD
:10569000E02080F80014704700F00F0000F1E020D7
:1056A00080F8141D704702E008C8121F08C1002AC4
:1056B000FAD170477047002001E001C1121F002A93
:1056C000FBD170472DE9FF5F82B00021DDE9043096
:1056D000020DDDF840B0034318D044F61050A2F29A
:1056E000FF3242431514119801281FD0A5EB0B007F
:1056F000401C5FEA000A4FF000064E4FDFF8389179
:10570000B046504615D5CAF1000413E011980124A3
:105710004AA3012801D16FEA0B010298119AC0E94E
:105720000031C0E9024206B0BDE8F09FCBF10000B5
:10573000DFE704460021404A491842EB0450CDE916
:10574000001012E0E00707D032463B46404649468B
:10575000FAF7EFFE8046894632463B461046194628
:10576000FAF7E7FE06460F466410002CEAD1DDE9A1
:105770000401DDE90023BAF1000F06DAFAF7D9FED9
:1057800042464B46FAF7D5FE05E0FAF744FF42469B
:105790004B46FAF740FF04460E460022284BFAF724
:1057A000C1FF03D84FF0FF30014607E00022254B30
:1057B00020463146FAF716FEFAF79CFF102409E05E
:1057C000002C0ADB0A220023FAF782FD039B303209
:1057D0001A55641E50EA0102F2D1641C039AC4F106
:1057E00011031444119A012A03D0012208430DD158
:1057F0000AE0084304D000204FF0110B119072E72B
:10580000A3EB0B056D1E0DE05B4504DD4FF00002C0
:1058100005F1010504E003DA4FF00002A5F10105EE
:10582000002AECD002981199C0E90231C0E9004584
:1058300079E70000000014400000F03F3000000055
:105840000000F0430000E03F2DE9FF4F95B09B467C
:105850008946064600250FE2252877D100242746F1
:10586000F84A0121059400E0044316F8013F203B6B
:1058700001FA03F01042F7D130782A2811D06FF0E6
:105880002F033078A0F13002092A16D8059A44F087
:10589000020402EB820203EB42021044761C0590E4
:1058A000EFE759F8042B0592002A03DA504244F43A
:1058B0000054059044F00204761C30782E2816D14E
:1058C00016F8010F44F004042A280DD06FF02F02BF
:1058D0003078A0F13003092B09D807EB870302EBDE
:1058E0004303C718761CF3E759F8047B761C30781D
:1058F0006C280FD006DC4C2817D068280DD06A28F9
:1059000014D104E0742810D07A280FD10DE044F4AB
:1059100000140AE044F4801401E044F44014727866
:10592000824202D104F58014761C761C30786628F9
:105930000BD013DC582877D009DC002875D0452817
:10594000F6D04628F4D047281AD19DE118E0632804
:1059500035D0642879D0652812D195E1702873D0AC
:1059600008DC6728F1D069286FD06E280DD06F2829
:1059700006D1B5E073282CD0752875D0782874D05E
:105980005A46179990476D1C75E1C4F302500228DE
:1059900009D003280DD0D9F8001004280DD00D60CF
:1059A00009F1040967E1D9F80010EA17C1E90052CA
:1059B000F6E7D9F800100D80F2E70D70F0E719F85E
:1059C000041B8DF8001000208DF80100EA4601202C
:1059D00003E059F804AB4FF0FF3061074FF00001CE
:1059E00002D40DE008F101018846B9420FDA804582
:1059F000F8DB1AF808100029F4D108E008F10101D9
:105A000088468142FADB1AF808100029F6D1059879
:105A10005B46A0EB080721463846179A00F094FA37
:105A2000284400EB080507E04DE029E10DE01AF8F5
:105A3000010B5A4617999047B8F10108F7D25B4617
:105A400021463846179A13E142E00A220092C4F335
:105A500002524FF0000A022A08D059F804CB032A58
:105A60004FEAEC710AD00DE029E02AE009F10701C4
:105A700021F00702F2E802C1914609E00FFA8CFC1E
:105A80004FEAEC71042A03D14FFA8CFC4FEAEC7117
:105A9000002907DA0A460021DCF1000C61EB020163
:105AA0002D2202E0220504D52B228DF804200122AC
:105AB00003E0E20701D02022F7E7904659E00A21EF
:105AC00002E010220DE010214FF0000A00910BE0DF
:105AD00010224FF0000A44F004040827009203E06B
