:0200000490006A
:10000000B0090124AD020090D5490090ED46009062
:10001000D14900905708009003680090000000004C
:100020000000000000000000000000004D5D009096
:100030005B08009000000000D94900904F5D0090DF
:10004000C7020090C7020090C7020090C70200904C
:10005000C7020090C7020090C7020090C70200903C
:10006000C7020090C70200905D080090C702009090
:10007000C7020090C7020090C7020090C70200901C
:10008000C7020090C7020090C7020090C70200900C
:10009000C7020090C7020090C7020090C7020090FC
:1000A000C7020090C7020090C7020090C7020090EC
:1000B000C7020090C7020090C7020090C7020090DC
:1000C000C7020090C7020090C7020090C7020090CC
:1000D000C7020090C7020090C7020090C7020090BC
:1000E000C7020090C702009000000000C702009005
:1000F000C7020090C7020090C7020090C70200909C
:10010000C7020090BD4D0090C7020090C70200904A
:10011000595F0090C7020090C7020090C70200908C
:10012000C7020090C7020090C7020090C70200906B
:10013000C7020090C7020090C7020090C70200905B
:1001400000000000000000000000000000000000AF
:10015000C7020090C7020090C7020090C70200903B
:10016000C7020090C7020090C7020090C70200902B
:10017000C7020090C7020090C7020090C70200901B
:10018000C7020090C7020090C7020090C70200900B
:10019000C7020090C7020090C7020090C7020090FB
:1001A000C7020090C7020090C7020090C7020090EB
:1001B000C7020090C7020090C7020090C7020090DB
:1001C000C7020090C7020090C7020090C7020090CB
:1001D000C7020090C7020090C7020090C7020090BB
:1001E000C7020090C7020090C7020090C7020090AB
:1001F000C7020090C7020090C7020090C70200909B
:10020000C7020090C7020090C7020090C70200908A
:10021000C7020090C7020090C7020090C70200907A
:10022000C7020090C7020090C702009000000000C3
:10023000C7020090C702009000000000C7020090B3
:10024000C7020090C7020090C7020090C70200904A
:10025000C7020090C7020090C7020090C70200903A
:10026000C7020090C7020090C7020090C70200902A
:10027000C7020090C7020090C70200900000000073
:10028000C7020090C7020090C70200900000000063
:1002900000000000C7020090DFF80CD000F05AFA0E
:1002A000004800474D710090B0090124064880477E
:1002B00006480047FEE7FEE7FEE7FEE7FEE7FEE74B
:1002C000FEE7FEE7FEE7FEE7555E0090990200902C
:1002D0002DE9F05F0546002092469B46884606467B
:1002E000814640241BE0284641464746224600F00E
:1002F00069F853465A46C01A914110D31146184620
:10030000224600F050F82D1A67EB01084F462246AE
:100310000120002100F047F817EB00094E41201E94
:10032000A4F10104DFDC484631462A464346BDE8D5
:10033000F09F40EA01039B0703D009E008C9121FA0
:1003400008C0042AFAD203E011F8013B00F8013B8F
:10035000521EF9D27047D2B201E000F8012B491EBB
:10036000FBD270470022F6E710B513460A46044652
:100370001946FFF7F0FF204610BD30B50B46014689
:1003800000202022012409E021FA02F59D4205D334
:1003900003FA02F5491B04FA02F52844151EA2F1DE
:1003A0000102F1DC30BD202A04DB203A00FA02F120
:1003B000002070479140C2F1200320FA03F3194353
:1003C00090407047202A04DB203A21FA02F00021F5
:1003D000704721FA02F3D040C2F120029140084355
:1003E000194670472DE9FE4F804681EA0300C00F91
:1003F0000C46009021F0004123F00045B8EB0200CC
:10040000A94105D24046214690461C460B4602466D
:1004100023F00040104347D0270DC7F30A00C3F371
:100420000A510290401A019040286BDAC3F313007E
:1004300040F4801B0098924620B10023D2EB030ABF
:1004400063EB0B0B01985946C0F140025046FFF791
:10045000AAFF06460D4650465946019A00F08CF90F
:1004600010EB08006141002487EA115284EAE77327
:100470001A4340D0009A62B3019A012A4FEA075208
:1004800015DC001B61EB02014FF0004202EA07524B
:10049000CDE90042001C41F5801132462B4600F0A8
:1004A0008CF903B0BDE8F08F40462146F9E7001B08
:1004B00061EB0201001C41F5801300185B4120181C
:1004C000A2F5001747EB030140EAD570B6196D415C
:1004D00011E06D084FEA360645EAC0754FEA07524B
:1004E000001B61EB0201001C41F5801149084FEA35
:1004F00030000019514132462B4603B0BDE8F04FA1
:1005000000F04CB90098012240000023D0EB020219
:1005100063EBE073009821464FEAE074B8EB00000B
:1005200061EB0401E9E783F000435BE781F0004100
:1005300058E72DE9FE4F81EA030404F0004421F05E
:10054000004100944FF0000B23F0004350EA0104F7
:100550005ED052EA03045BD0C3F30A54C1F30A55D8
:100560002C44A4F2F3340194A0FB0254C1F3130110
:1005700041F48011C3F3130343F4801301FB0244DD
:1005800000FB034E840A970A44EA815447EA8357E2
:10059000A4FB076802958D0A05FB07854FEA932C9B
:1005A00004FB0C542705029D4FEA065847EA16370C
:1005B000B5EB08056EEB070C870E920E47EA811724
:1005C00042EA8312A7FB0201B6EB0B0164EB0004C5
:1005D0002B0D43EA0C335E1844EB1C50DA465146AF
:1005E000E7FB0201C5F313044FEA0B3343EA14534C
:1005F0004FEA0432019C43EA0603A4F10C0402947E
:10060000009CCDE900B400F0D8F803B0BDE8F08F4D
:1006100000200146F9E72DE9F04D81EA030404F0DA
:10062000004B21F0004514464FF0000A23F0004132
:1006300050EA050220D054EA01021DD0C5F30A5742
:100640000246C5F31303C1F31300C1F30A5640F485
:10065000801543F48013A7EB0608101BD64608F25A
:10066000FD3873EB050002D308F1010801E0921890
:100670005B41B8F1000F03DA00200146BDE8F08DC0
:1006800000204FF48011064684460EE0171B73EBE2
:10069000050705D3121B63EB050306434CEA010C67
:1006A00049084FEA300092185B4150EA0107EDD14A
:1006B00052EA030012D082EA040083EA05010843EB
:1006C00005D0101BAB4106D20122002306E0002218
:1006D0004FF0004302E06FF0010253101AEB0600E6
:1006E0004CEB085110EB0A0041EB0B01BDE8F04D5B
:1006F00000F054B8C1F30A52C1F3130140F2FF33C2
:1007000041F480119A4202DA00200146704740F21B
:1007100033439A42A2F2334202DC5242FFF752BE06
:10072000FFF741BE30B5041E71F1000404DB4FF049
:100730000044404264EB0101141E73F1000405DB28
:100740001C464FF00043524263EB0403994208BF3A
:10075000904230BD064C074D06E0E06840F00103D2
:1007600094E8070098471034AC42F6D3FFF798FDA1
:100770004873009068730090202A06DBCB17203A5C
:1007800041FA02F043EAE07306E041FA02F3D04096
:10079000C2F12002914008431946704710B5141E5B
:1007A00073F1000408DA401C41F1000192185B412A
:1007B0001A4301D120F0010010BD2DE9F04D924601
:1007C0009B4611B1B1FA81F202E0B0FA80F2203218
:1007D0009046FFF7E8FD04460F4640EA0A0041EA6A
:1007E0000B0153465A46084313D0114653EA010001
:1007F00019D0C8F140025046FFF7E4FD05460E4609
:10080000504659464246FFF7CEFD084305D0012029
:1008100004E020463946BDE8F08D0020054346EA55
:10082000E0762C4337430A986305E40AA0EB0800FE
:100830000022FD0A44EA47540A3002D5002001464E
:10084000E9E7010510196941DDE908450019694129
:10085000BDE8F04DA2E700BFFEE7704710B51020DD
:1008600000F0E6F910BD72B600BFFEE770B50446B1
:100870000CB9012070BD94F83500022803D0802007
:1008800060650120F6E7DC492068884249D0DA49F2
:1008900018312068884244D0D749303120688842D6
:1008A0003FD0D5494831206888423AD0D24960319A
:1008B0002068884235D0D04978312068884230D0CD
:1008C000CD499031206888422BD0CB49A83120688F
:1008D000884226D0C9492068884222D0C7491831A9
:1008E000206888421DD0C54930312068884218D020
:1008F000C24948312068884213D0C049603120681D
:1009000088420ED0BD4978312068884209D0BB4961
:1009100090312068884204D0B849A83120688842C4
:1009200001D1012000E00020F0B3042084F835005C
:10093000B149206888424BD0AF49183120688842BD
:1009400046D0AD4930312068884241D0AA4948316B
:10095000206888423CD0A84960312068884237D05E
:10096000A54978312068884232D0A3499031206867
:1009700088422DD0A049A8312068884228D09F49BC
:100980002068884224D09D491831206888421FD0B1
:100990009A493031206888421AD0984948312068F5
:1009A000884215D0954900E020E0603120688842F7
:1009B0000ED0924978312068884209D08F49903111
:1009C0002068884204D08D49A8312068884206D129
:1009D0002068006820F001002168086009E12068B3
:1009E000006820F001002168086002E120680068CA
:1009F00020F00E00216808607F492068884249D0B5
:100A00007D4918312068884244D07B4930312068C4
:100A100088423FD078494831206888423AD07649A8
:100A200060312068884235D0734978312068884227
:100A300030D071499031206888422BD06E49A8315E
:100A40002068884226D06D492068884222D06B49B0
:100A50001831206888421DD06849303120688842AA
:100A600018D0664948312068884213D06349603104
:100A7000206888420ED0614978312068884209D0C8
:100A80005E4990312068884204D05C49A8312068D2
:100A9000884206D12068006820F0010021680860C3
:100AA00005E02068006820F00100216808605249D4
:100AB0002068884270D050491831206888426BD035
:100AC0004D4930312068884266D04B494831206812
:100AD000884261D048496031206888425CD04649EC
:100AE00078312068884257D0434990312068884245
:100AF00052D04149A831206888424DD03F492068F2
:100B0000884249D03D4918312068884244D03B4949
:100B10003031206888423FD03849483120688842C7
:100B20003AD0364960312068884235D0334978312F
:100B30002068884230D031499031206888422BD0DB
:100B40002E49A8312068884226D02D492068884245
:100B500022D02B491431206888421DD028492831E1
:100B60002068884218D026493C312068884213D03A
:100B700023495031206888420ED0214964312068D1
:100B8000884209D01E4978312068884204D01C4927
:100B90008C312068884201D1012000E00020D8B1CA
:100BA000206E006820F48070216E0860A56D94F8B6
:100BB0005C0000F01F01012088406860D4E9191032
:100BC0004860E06E40B1E06E006820F48070E16E35
:100BD0000860D4E91C10486000BF002084F834008D
:100BE00000BF012084F83500206D10B12046216D32
:100BF000884700203EE6000010000240100402403A
:100C00000854025870B5044600F03AF906462546E5
:100C1000681C10B104480078054400BF00F030F9AA
:100C2000801BA842FAD370BD0C000024704700005E
:100C300010B5044604480068204020B10248046012
:100C40002046FFF7F3FF10BD88000058F8B50246B4
:100C50000023734DDEE001279F400E6806EA07047B
:100C6000002C71D04E68012E08D04E68022E05D09F
:100C70004E68112E02D04E68122E13D190685F007C
:100C80000326BE40B0435F00CE68BE403043906054
:100C9000506801269E40B0430E79C6F300169E4070
:100CA00030435060D0685F000326BE40B0435F0011
:100CB0008E68BE403043D0604E68022E02D04E682F
:100CC000122E13D1DF0802F1200656F827005E0726
:100CD000F70E0F26BE40B0435F07FF0E0E69BE4001
:100CE0003043DF0802F1200646F8270010685F0055
:100CF0000326BE40B0430E7906F003065F00BE40F7
:100D0000304310604E6806F08056B6F1805F1BD10C
:100D100000BF444E366846F00206424F3E603E46F3
:100D2000366806F00206009600BF00BF3E4E9F08E0
:100D300056F827009E07370F0F26BE40B0433B4EA4
:100D4000B24202D100262EE063E0394EB24201D118
:100D5000012628E0374EB24201D1022623E0364E6A
:100D6000B24201D103261EE0344EB24201D1042624
:100D700019E0334EB24201D1052614E0314EB242A1
:100D800001D106260FE0304EB24201D107260AE01B
:100D90002E4EB24201D1082605E02D4EB24201D1BD
:100DA000092600E00A269F073F0FBE4030431E4E33
:100DB0009F0846F827002868A0434E6806F480364E
:100DC000B6F5803F00D1204328606868A0434E6894
:100DD00006F40036B6F5003F00D1204368604FF0BE
:100DE000B0463068A0434E6806F48016B6F5801F02
:100DF00000D120434FF0B04630607068A0434E6889
:100E000006F40016B6F5001F00D120434FF0B0469F
:100E100070605B1C0E68DE40002E7FF41CAFF8BDD6
:100E200080000058F444025808040058000002589A
:100E30000004025800080258000C02580010025822
:100E40000014025800180258001C025800200258D2
:100E50000024025842690A408A4202D10A0482618F
:100E600000E0816170470AB1816101E00B04836198
:100E70007047000001480068000C70470010005CDB
:100E8000014800687047000004000024034800681F
:100E900003490978084401490860704704000024A8
:100EA0000C00002410B5032000F0B8F801F098FD04
:100EB00010490968C1F303210F4A515C01F01F0179
:100EC00020FA01F40B48006800F00F001146085C9E
:100ED00000F01F0024FA00F0084908600848046088
:100EE000002000F00FF808B1012010BD00F036F826
:100EF0000020FAE7184402583873009014000024C8
:100F00001000002470B504461148007808B901208B
:100F100070BD0F4800784FF47A71B1FBF0F00D49C5
:100F20000968B1FBF0F5284603F02AF908B1012061
:100F3000EEE7102C07D200222146501E00F030F8B8
:100F40000548046001E00120E2E70020E0E700003E
:100F50000C000024100000240800002408B500BF85
:100F60000648006840F0020004490860084600682E
:100F700000F00200009000BF00BF08BDF44402581A
:100F800001460846002809DB00F01F0301229A40B1
:100F900043099B0003F1E023C3F8002100BF704721
:100FA0002DE9F05F80460D46164605F03DFC0746EC
:100FB00039462A46334601F00700C0F1070ABAF164
:100FC000040F02D94FF0040A01E0C0F1070AD1462C
:100FD00000F1040ABAF1070F02D24FF0000A01E053
:100FE000A0F1030AD4464FF0010A0AFA09FAAAF15D
:100FF000010A0AEA020A0AFA0CFA4FF0010B0BFA8C
:101000000CFBABF1010B0BEA030B4AEA0B04214684
:10101000404605F011FCBDE8F09F000000BF00F065
:101020000702064B19684FF6FF031940044B0B43A8
:1010300043EA0221014B196000BF70470CED00E04C
:101040000000FA0570B5044615480068C0F380003A
:1010500048B91348006800F00700A04201D0012001
:1010600070BD0020FCE70E48006820F00700204318
:101070000B490860FFF704FF054607E0FFF700FF94
:10108000401BB0F57A7F01D90120E9E70448083810
:101090000068C0F340300028F0D00020E0E70000F6
:1010A0000C48025810B501F051FC05490968C1F31C
:1010B0000211044A515C01F01F01C84010BD00003C
:1010C000204402583873009070B50146844D2D6855
:1010D00005F00303824D2D68C5F30510804D2D1DCD
:1010E0002D6805F001047E4D0C352D68C5F3CC0547
:1010F00015FB04F501EE105AB8EE411AF0EE410A64
:1011000000286FD023B1012B4ED0022B6BD16BE0A6
:10111000734D283D2D68C5F340153DB3704D283DF6
:101120002D68C5F3C1066F4D25FA06F201EE102AAF
:10113000F8EE411A01EE100AB8EE411A81EE812A4A
:101140009FED691AC0EE811A654D08352D68C5F30B
:10115000080501EE105AB8EE411A31EE811AF7EE89
:10116000001A31EE211A22EE010A1CE001EE100AEB
:10117000B8EE411ADFED5D1A81EE812A9FED5A1A11
:10118000C0EE811A564D08352D68C5F3080501EEED
:10119000105AB8EE411A31EE811AF7EE001A31EE0C
:1011A000211A22EE010A5BE001EE100AB8EE411AA4
:1011B000DFED4F1A81EE812A9FED4B1AC0EE811AA6
:1011C000474D08352D68C5F3080501EE105AB8EEF5
:1011D000411A31EE811AF7EE001A31EE211A22EE91
:1011E000010A3DE077E01DE001EE100AB8EE411A79
:1011F0009FED402AC2EE011A9FED3B1A80EE812A34
:10120000374D08352D68C5F3080501EE105AB8EEC4
:10121000411A32EE011AB7EE002A31EE021A21EE1F
:10122000810A1DE001EE100AB8EE411ADFED301A16
:1012300081EE812A9FED2C1AC0EE811A284D0835C7
:101240002D68C5F3080501EE105AB8EE411A31EECB
:10125000811AF7EE001A31EE211A22EE010A00BFC0
:1012600000BF1F4D08352D68C5F3462501EE105A05
:10127000B8EE411AF7EE001A31EE211AC0EE011A4B
:10128000BCEEE11A81ED001A154D08352D68C5F345
:10129000064501EE105AB8EE411AF7EE001A31EE8B
:1012A000211AC0EE011ABCEEE11A81ED011A0C4DB3
:1012B00008352D68C5F3066501EE105AB8EE411ADF
:1012C000F7EE001A31EE211AC0EE011ABCEEE11A57
:1012D00081ED021A03E000250D604D608D6070BD48
:1012E000284402580090D003000000460024744CAB
:1012F0000024744A20BCBE4B70B50146844D2D6855
:1013000005F00303824D2D68C5F30530804D2D1D7A
:101310002D68C5F300147E4D14352D68C5F3CC053A
:1013200015FB04F501EE105AB8EE411AF0EE410A31
:1013300000286FD023B1012B4ED0022B6BD16BE074
:10134000734D283D2D68C5F340153DB3704D283DC4
:101350002D68C5F3C1066F4D25FA06F201EE102A7D
:10136000F8EE411A01EE100AB8EE411A81EE812A18
:101370009FED691AC0EE811A654D10352D68C5F3D1
:10138000080501EE105AB8EE411A31EE811AF7EE57
:10139000001A31EE211A22EE010A1CE001EE100AB9
:1013A000B8EE411ADFED5D1A81EE812A9FED5A1ADF
:1013B000C0EE811A564D10352D68C5F3080501EEB3
:1013C000105AB8EE411A31EE811AF7EE001A31EEDA
:1013D000211A22EE010A5BE001EE100AB8EE411A72
:1013E000DFED4F1A81EE812A9FED4B1AC0EE811A74
:1013F000474D10352D68C5F3080501EE105AB8EEBB
:10140000411A31EE811AF7EE001A31EE211A22EE5E
:10141000010A3DE077E01DE001EE100AB8EE411A46
:101420009FED402AC2EE011A9FED3B1A80EE812A01
:10143000374D10352D68C5F3080501EE105AB8EE8A
:10144000411A32EE011AB7EE002A31EE021A21EEED
:10145000810A1DE001EE100AB8EE411ADFED301AE4
:1014600081EE812A9FED2C1AC0EE811A284D10358D
:101470002D68C5F3080501EE105AB8EE411A31EE99
:10148000811AF7EE001A31EE211A22EE010A00BF8E
:1014900000BF1F4D10352D68C5F3462501EE105ACB
:1014A000B8EE411AF7EE001A31EE211AC0EE011A19
:1014B000BCEEE11A81ED001A154D10352D68C5F30B
:1014C000064501EE105AB8EE411AF7EE001A31EE59
:1014D000211AC0EE011ABCEEE11A81ED011A0C4D81
:1014E00010352D68C5F3066501EE105AB8EE411AA5
:1014F000F7EE001A31EE211AC0EE011ABCEEE11A25
:1015000081ED021A03E000250D604D608D6070BD15
:10151000284402580090D003000000460024744C78
:101520000024744A20BCBE4B70B50146844D2D6822
:1015300005F00303824D2D68C5F30550804D2D1D28
:101540002D68C5F300247E4D1C352D68C5F3CC05F0
:1015500015FB04F501EE105AB8EE411AF0EE410AFF
:1015600000286FD023B1012B4ED0022B6BD16BE042
:10157000734D283D2D68C5F340153DB3704D283D92
:101580002D68C5F3C1066F4D25FA06F201EE102A4B
:10159000F8EE411A01EE100AB8EE411A81EE812AE6
:1015A0009FED691AC0EE811A654D18352D68C5F397
:1015B000080501EE105AB8EE411A31EE811AF7EE25
:1015C000001A31EE211A22EE010A1CE001EE100A87
:1015D000B8EE411ADFED5D1A81EE812A9FED5A1AAD
:1015E000C0EE811A564D18352D68C5F3080501EE79
:1015F000105AB8EE411A31EE811AF7EE001A31EEA8
:10160000211A22EE010A5BE001EE100AB8EE411A3F
:10161000DFED4F1A81EE812A9FED4B1AC0EE811A41
:10162000474D18352D68C5F3080501EE105AB8EE80
:10163000411A31EE811AF7EE001A31EE211A22EE2C
:10164000010A3DE077E01DE001EE100AB8EE411A14
:101650009FED402AC2EE011A9FED3B1A80EE812ACF
:10166000374D18352D68C5F3080501EE105AB8EE50
:10167000411A32EE011AB7EE002A31EE021A21EEBB
:10168000810A1DE001EE100AB8EE411ADFED301AB2
:1016900081EE812A9FED2C1AC0EE811A284D183553
:1016A0002D68C5F3080501EE105AB8EE411A31EE67
:1016B000811AF7EE001A31EE211A22EE010A00BF5C
:1016C00000BF1F4D18352D68C5F3462501EE105A91
:1016D000B8EE411AF7EE001A31EE211AC0EE011AE7
:1016E000BCEEE11A81ED001A154D18352D68C5F3D1
:1016F000064501EE105AB8EE411AF7EE001A31EE27
:10170000211AC0EE011ABCEEE11A81ED011A0C4D4E
:1017100018352D68C5F3066501EE105AB8EE411A6A
:10172000F7EE001A31EE211AC0EE011ABCEEE11AF2
:1017300081ED021A03E000250D604D608D6070BDE3
:10174000284402580090D003000000460024744C46
:101750000024744A20BCBE4B2DE9F0418AB00646F5
:10176000B6F5807F32D1DC48006800F00707052F0E
:1017700029D2DFE807F003080D26120007A8FFF7BB
:10178000A3FC089C21E004A8FFF7B6FD049C1CE024
:1017900001A8FFF7C9FE019C17E0CF48001F0068B1
:1017A00000F040550DB9CD4C0AE0B5F1805F01D194
:1017B000CB4C05E0B5F1005F01D1CA4C00E000243C
:1017C00003E0C94C01E0002400BF80E1B6F5007FD2
:1017D00038D1C148006800F4E077802F14D003DCD2
:1017E00047B1402F2BD10AE0C02F26D0B7F5807F1C
:1017F00025D10EE007A8FFF767FC089C21E004A8AC
:10180000FFF77AFD049C1CE001A8FFF78DFE019C08
:1018100017E0B148001F006800F040550DB9AF4C0B
:101820000AE0B5F1805F01D1AD4C05E0B5F1005F94
:1018300001D1AC4C00E0002403E0AB4C01E00024FB
:1018400000BF44E1B6F5806F3CD1A3480830006882
:1018500000F46007B7F5800F16D004DC57B1B7F578
:10186000001F2CD10BE0B7F5C00F26D0B7F5000F45
:1018700025D10EE007A8FFF727FC089C21E004A86B
:10188000FFF73AFD049C1CE001A8FFF74DFE019C08
:1018900017E09148001F006800F040550DB98F4CCB
:1018A0000AE0B5F1805F01D18D4C05E0B5F1005F34
:1018B00001D18C4C00E0002403E08B4C01E00024BB
:1018C00000BF04E1B6F5006F3CD1834808300068E2
:1018D00000F0E067B7F1007F16D004DC57B1B7F134
:1018E000807F2CD10BE0B7F1407F26D0B7F1806F1D
:1018F00025D10EE007A8FFF7E7FB089C21E004A82C
:10190000FFF7FAFC049C1CE001A8FFF70DFE019C08
:1019100017E07148001F006800F040550DB96F4C8A
:101920000AE0B5F1805F01D16D4C05E0B5F1005FD3
:1019300001D16C4C00E0002403E06B4C01E000247A
:1019400000BFC4E0B6F5805F3DD16348006800F495
:10195000E048B8F5005F18D006DCB8F1000F0AD0F7
:10196000B8F5805F2CD10BE0B8F5405F26D0B8F514
:10197000804F25D10EE007A8FFF7A6FB089C21E0C9
:1019800004A8FFF7B9FC049C1CE001A8FFF7CCFDFC
:10199000019C17E05048001F006800F040550DB949
:1019A0004E4C0AE0B5F1805F01D14D4C05E0B5F138
:1019B000005F01D14B4C00E0002403E04A4C01E001
:1019C000002400BF83E0B6F5002F2FD14248083035
:1019D000006800F44038B8F1000F06D0B8F5803F39
:1019E00008D0B8F5003F1ED109E004A8FFF784FC39
:1019F000049C1AE001A8FFF797FD039C15E0364808
:101A0000001F006800F040550DB9344C0AE0B5F1F4
:101A1000805F01D1324C05E0B5F1005F01D1314C5E
:101A200000E0002401E0002400BF50E0B6F5803F54
:101A300018D12948001F006800F48038B8F1000F61
:101A400003D0B8F5803F0AD104E007A8FFF73CFBBC
:101A5000089C06E004A8FFF74FFC069C01E0002468
:101A600000BF34E0B6F5804F30D11B480830006825
:101A700000F0E048B8F1405F1FD009DCB8F1000F7A
:101A80000DD0B8F1805F0ED0B8F1005F1BD10FE030
:101A9000B8F1804F13D0B8F1A04F14D111E0FFF787
:101AA00001FB044611E004A8FFF726FC059C0CE0AE
:101AB00001A8FFF739FD029C07E0084C05E0084C3F
:101AC00003E0084C01E0002400BF00E000242046B1
:101AD0000AB0BDE8F0810000504402580090D003E5
:101AE00000093D0040787D010080BB002DE9F041F8
:101AF00004460025A846206800F00060B0F1006FA1
:101B000030D1606E48B1B0F5801F0DD0B0F5001F28
:101B100010D0B0F5401F15D113E0F948006840F42B
:101B20000030F74908600FE00221201D02F056FF47
:101B3000054609E0022104F1240003F001F80546FE
:101B400002E001E0012500BF00BF55B9EC48243098
:101B5000006820F44010616E0843E94924310860B0
:101B600000E0A846208800F48070B0F5807F2DD179
:101B7000606D05281AD2DFE800F0030A101718007C
:101B8000DF48006840F40030DD49086010E00021C3
:101B9000201D02F023FF05460AE0002104F1240085
:101BA00002F0CEFF054603E002E001E0012500BFA0
:101BB00000BF55B9D2482430006820F00700616D9D
:101BC0000843CF492431086000E0A846208800F48B
:101BD0000070B0F5007F33D1A06D802817D003DCF2
:101BE00040B140281CD10CE0C02817D0B0F5807F50
:101BF00016D114E0C248006840F40030C0490860C3
:101C000010E00021201D02F0E9FE05460AE0002157
:101C100004F1240002F094FF054603E002E001E035
:101C2000012500BF00BF55B9B5482430006820F435
:101C3000E070A16D0843B2492431086000E0A84675
:101C4000208800F48060B0F5806F38D1D4F8A4000B
:101C5000B0F5800F19D004DC50B1B0F5001F1DD1D4
:101C60000DE0B0F5C00F17D0B0F5000F16D114E09D
:101C7000A348006840F40030A149086010E000214A
:101C8000201D02F0ABFE05460AE0002104F124000D
:101C900002F056FF054603E002E001E0012500BF27
:101CA00000BF5DB996482C30006820F46000D4F87D
:101CB000A410084392492C31086000E0A84620880F
:101CC00000F40060B0F5006F38D1D4F8A800B0F18E
:101CD000007F19D004DC50B1B0F1807F1DD10DE040
:101CE000B0F1407F17D0B0F1806F16D114E0844876
:101CF000006840F400308249086010E00021201D97
:101D000002F06CFE05460AE0002104F1240002F016
:101D100017FF054603E002E001E0012500BF00BF18
:101D20005DB977482C30006820F0E060D4F8A81046
:101D3000084373492C31086000E0A846206800F091
:101D40000070B0F1007F27D1A06CA0B1102804D0A2
:101D5000202809D030280FD10CE06948006840F4F1
:101D600000306749086009E00221201D02F036FEBC
:101D7000054603E002E001E0012500BF00BF55B9C0
:101D80005F482030006820F03000A16C08435C49B7
:101D90002031086000E0A846208800F48050B0F5AB
:101DA000805F36D1E06DB0F5005F19D004DC50B132
:101DB000B0F5805F1DD10DE0B0F5405F17D0B0F5F4
:101DC000804F16D114E04E48006840F400304C4972
:101DD000086010E00021201D02F000FE05460AE028
:101DE000002104F1240002F0ABFE054603E002E00E
:101DF00001E0012500BF00BF55B94148243000680B
:101E000020F4E040E16D08433D492431086000E0E2
:101E1000A846208800F40050B0F5005F34D1206E51
:101E2000B0F5403F1DD007DC68B1B0F5803F0BD066
:101E3000B0F5003F18D10DE0B0F5802F12D0B0F50D
:101E4000A02F11D10FE011E00121201D02F0C6FDED
:101E500005460BE0012104F1240002F071FE054665
:101E600004E003E002E001E0012500BF00BF55B936
:101E700023482430006820F4E020216E08432049E4
:101E80002431086000E0A846208800F48040B0F5C6
:101E9000804F38D1D4F8AC00B0F1405F1DD007DCE2
:101EA00068B1B0F1805F0BD0B0F1005F18D10DE0E8
:101EB000B0F1804F12D0B0F1A04F11D10FE011E07E
:101EC0000121201D02F08AFD05460BE0012104F1ED
:101ED000240002F035FE054604E003E002E001E0E4
:101EE000012500BF00BF6DB905482C30006820F007
:101EF000E040D4F8AC10084301492C31086002E0FE
:101F00002C440258A846208800F40040B0F5004F49
:101F100026D1E06E98B1B0F1805F03D0B0F1005FE0
:101F20000ED106E0F948006840F40030F749086037
:101F300008E00121201D02F051FD054602E001E00C
:101F4000012500BF00BF55B9F0482430006820F0DB
:101F50004050E16E0843ED492431086000E0A84696
:101F6000206800F08070B0F1807F27D1606CA0B154
:101F7000012804D0022809D003280FD10CE0E3483F
:101F8000006840F40030E149086009E00221201DAA
:101F900002F024FD054603E002E001E0012500BF58
:101FA00000BF55B9D9482030006820F00300616CAB
:101FB0000843D6492031086000E0A846206800F4B4
:101FC0008000B0F5800F7DD1D148006840F480706A
:101FD000CF490860FEF754FF064606E0FEF750FFC3
:101FE000801B642801D9032505E0C948006800F476
:101FF00080700028F2D000BF85BBC4484430006820
:1020000000F44070B4F8B01001F44071884213D06D
:10201000BE484430006820F44077BC484430006833
:1020200040F48030B949443108600846006820F423
:102030008030086008460760D4F8B000B0F5807FB3
:1020400015D1FEF71DFF064609E0FEF719FF801BBC
:1020500041F28831884202D9032507E038E0AB48D5
:1020600044300068C0F340000028EED000BF55BBEC
:1020700000BFB4F8B00000F44070B0F5407F0ED15E
:10208000A2481C38006820F47C51A24AD4F8B00061
:10209000104041EA10109D491C39086007E09B4838
:1020A0001C38006820F47C5098491C390860974817
:1020B00044300068B4F8B010C1F30B0108439349F1
:1020C000443101E005E001E0086002E0A84600E0DC
:1020D000A846207800F0010068B3A06F182819D036
:1020E00005DC48B1082808D0102816D10BE02028BC
:1020F00011D0282811D10FE011E00121201D02F09C
:102100006DFC05460BE0012104F1240002F018FDEE
:10211000054604E003E002E001E0012500BF00BF46
:1021200055B97A482830006820F03800A16F08437C
:1021300076492831086000E0A846207800F00200C7
:10214000022828D1606F062815D2DFE800F00304CA
:102150000A11121311E00121201D02F03FFC054677
:102160000BE0012104F1240002F0EAFC054604E042
:1021700003E002E001E0012500BF00BF55B963485C
:102180002830006820F00700616F08435F4928315C
:10219000086000E0A846207800F0040004282AD156
:1021A000D4F89000062815D2DFE800F003040A11E5
:1021B000121311E00121201D02F010FC05460BE076
:1021C000012104F1240002F0BBFC054604E003E019
:1021D00002E001E0012500BF00BF5DB94B482C3093
:1021E000006820F00700D4F89010084347492C31CC
:1021F000086000E0A846207800F02000202836D1B2
:10220000D4F88C00B0F1405F1DD007DC68B1B0F1AC
:10221000805F0BD0B0F1005F18D10DE0B0F1804FBE
:1022200012D0B0F1A04F11D10FE011E00021201D1C
:1022300002F0D4FB05460BE0022104F1240002F079
:102240007FFC054604E003E002E001E0012500BF59
:1022500000BF5DB92D482830006820F0E040D4F878
:102260008C10084329492831086000E0A8462078EE
:1022700000F04000402836D1D4F89800B0F5406F07
:102280001DD007DC68B1B0F5806F0BD0B0F5006FE2
:1022900018D10DE0B0F5805F12D0B0F5A05F11D17C
:1022A0000FE011E00021201D02F098FB05460BE035
:1022B000022104F1240002F043FC054604E003E09F
:1022C00002E001E0012500BF00BF5DB90F482C30DE
:1022D000006820F4E050D4F8981008430B492C31E2
:1022E000086000E0A846207800F0800080283AD1FD
:1022F000D4F89C00B0F5C04F23D00DDC98B1B0F5F8
:10230000005F11D0B0F5804F1ED113E02C4402586D
:1023100000480258FFFCFF0FB0F5004F12D0B0F597
:10232000204F11D10FE011E00021201D02F056FBDB
:1023300005460BE0022104F1240002F001FC0546F1
:1023400004E003E002E001E0012500BF00BF4DB959
:10235000B548006820F46040D4F89C100843B249A6
:10236000086000E0A846207800F00800082817D18F
:10237000D4F88000B0F5805F07D1022104F1240079
:1023800002F0DEFB08B14FF00108A748001F00680B
:1023900020F44050D4F880100843A349091F086076
:1023A000207800F01000102815D1D4F89400B0F572
:1023B000807F07D1022104F1240002F0C1FB08B1A3
:1023C0004FF001089848006820F44070D4F8941049
:1023D000084395490860206800F40020B0F5002FFC
:1023E00026D1D4F8A00030B1B0F5803F09D0B0F5C7
:1023F000003F0ED10CE00021201D02F0EFFA05464F
:1024000009E0022104F1240002F09AFB054602E0F3
:1024100001E0012500BF00BF4DB98348006820F4EA
:102420004030D4F8A01008437F49086000E0A84677
:10243000206800F48020B0F5802F2DD1D4F88400DE
:10244000B0F5801F06D0B0F5001F0CD0B0F5401FCE
:1024500011D10FE074482C38006840F40030724904
:102460002C39086009E0012104F1240002F068FB26
:10247000054602E001E0012500BF00BF5DB96A48E2
:10248000001F006820F44010D4F884100843664907
:10249000091F086000E0A846206800F48030B0F50D
:1024A000803F24D1E06C18B1B0F5803F0FD108E037
:1024B0005D482C38006840F400305B492C390860D6
:1024C00007E00221201D02F089FA054601E00125FE
:1024D00000BF00BF55B954480C38006820F4803064
:1024E000E16C084350490C39086000E0A8462068B8
:1024F00000F00050B0F1005F07D1022104F1240088
:1025000002F01EFB08B14FF00108206800F4003013
:10251000B0F5003F27D1E06FA0B1B0F5807F06D0C5
:10252000B0F5007F0CD0B0F5407F0CD109E03E48FB
:102530002C38006840F400303B492C39086004E036
:1025400003E002E001E0012500BF00BF55B93648B5
:10255000001F006820F44070E16F08433249091FF2
:10256000086000E0A846206800F48010B0F5801FE5
:1025700009D12D480838006820F00040216F084339
:10258000294908390860206800F08050B0F1805F68
:102590000AD125484838006820F48040D4F8B410A7
:1025A0000843214948390860206800F40010B0F55C
:1025B000001F09D11C480838006820F08070A16E07
:1025C0000843194908390860206800F08040B0F1DC
:1025D000804F11D100BF14484838006820F40040F3
:1025E00011494839086008460068D4F8B810084313
:1025F0000D494839086000BF206800F00040B0F184
:10260000004F09D108480C38006820F04050216D77
:10261000084305490C390860B8F1000F02D10020C9
:10262000BDE8F0810120FBE7584402582DE9F04154
:1026300004460D4614B90120BDE8F081BD4800688C
:1026400000F00F00A8420ED2BA48006820F00F0038
:102650002843B84908600846006800F00F00A84207
:1026600001D00120E8E7207800F0040004280ED112
:10267000B1492069096801F07001884207D9AE4864
:10268000006820F0700021690843AB490860207899
:1026900000F00800082811D1A749091D60690968E0
:1026A00001F07001884209D9A348001D006820F09C
:1026B000700061690843A049091D0860207800F096
:1026C0001000102811D19C49091DA069096801F466
:1026D000E061884209D99848001D006820F4E06054
:1026E000A16908439449091D0860207800F0200082
:1026F000202811D190490831E069096801F0700182
:10270000884209D98C480830006820F07000E169DF
:102710000843894908310860207800F00200022847
:102720000ED18549E068096801F00F01884207D998
:102730008148006820F00F00E16808437E49086086
:10274000207800F00100002850D07B48006820F479
:102750007060A1680843784908606068022807D162
:10276000754818380068C0F34040F8B9012063E7A5
:102770006068032807D1704818380068C0F34060CB
:10278000A0B9012058E76068012807D16A481838C5
:102790000068C0F3002048B901204DE766481838AA
:1027A0000068C0F3800008B9012045E76248083896
:1027B000006820F00700616808435F490839086035
:1027C000FEF75EFB064608E0FEF75AFB801B41F26F
:1027D0008831884201D903202EE75748083800681D
:1027E00000F038006168B0EBC10FEDD1207800F047
:1027F000020002280ED15049E068096801F00F017B
:10280000884207D24C48006820F00F00E168084376
:10281000494908604748006800F00F00A8420ED9F7
:102820004448006820F00F002843424908600846E9
:10283000006800F00F00A84201D00120FCE62078DB
:1028400000F0040004280ED13B492069096801F01A
:102850007001884207D23848006820F07000216972
:10286000084335490860207800F00800082811D195
:102870003149091D6069096801F07001884209D277
:102880002D48001D006820F07000616908432A4946
:10289000091D0860207800F01000102811D1264989
:1028A000091DA069096801F4E061884209D2224843
:1028B000001D006820F4E060A16908431E49091D5D
:1028C0000860207800F02000202811D11A49083132
:1028D000E069096801F07001884209D216480830A1
:1028E000006820F07000E16908431349083108606E
:1028F00000F076F810490968C1F303210F4A515CD2
:1029000001F01F0120FA01F70B48006800F00F00EA
:102910001146085C00F01F0027FA00F00849086023
:102920000848076008480068FEF7ECFA8046404611
:1029300082E60000002000521844025838730090CC
:1029400014000024100000240800002410B500F03A
:1029500047F80D490968C1F303210C4A515C01F0A5
:102960001F0120FA01F40848006800F00F0011462A
:10297000085C00F01F0024FA00F0054908600548D3
:1029800004600846006810BD18440258387300906F
:10299000140000241000002400B5FFF7D7FF0549FC
:1029A0000968C1F30211044A515C01F01F01C840DB
:1029B00000BD00001C4402583873009000B5FFF7BA
:1029C000C5FF05490968C1F30221044A515C01F0C1
:1029D0001F01C84000BD00001C440258387300901D
:1029E000F0B5824E366806F0380636B1082E15D09E
:1029F000102E15D0182E7DD114E07C4E103E366876
:102A0000C6F3401646B1794E103E3668C6F3C1078C
:102A1000774E26FA07F000E07548E5E07548E3E0F8
:102A20007548E1E0714E1836366806F003046F4EC3
:102A300018363668C6F305116C4E1C36366806F03B
:102A400001056A4E24363668C6F3CC0616FB05F639
:102A500001EE106AB8EE410A002971D024B1012CB0
:102A600050D0022C6DD16DE0604E103E3668C6F33A
:102A700040163EB35D4E103E3668C6F3C1075C4E4D
:102A800026FA07F301EE103AF8EE411A01EE101A99
:102A9000B8EE411A81EE812A9FED581AC0EE011A54
:102AA000524E20363668C6F3080601EE106AB8EEBC
:102AB000411A31EE811AF7EE001A31EE211A62EE58
:102AC000010A1EE001EE101AB8EE411ADFED4C1AB1
:102AD00081EE812A9FED491AC0EE011A434E20363D
:102AE0003668C6F3080601EE106AB8EE411A31EEF8
:102AF000811A00E076E0F7EE001A31EE211A62EE5C
:102B0000010A5BE001EE101AB8EE411A9FED3D2A72
:102B1000C2EE011A9FED391A80EE012A334E20369B
:102B20003668C6F3080601EE106AB8EE411A32EEB6
:102B3000011AB7EE002A31EE021A61EE810A3DE079
:102B40004EE01DE001EE101AB8EE411ADFED2E1A2C
:102B500081EE812A9FED291AC0EE011A234E2036FC
:102B60003668C6F3080601EE106AB8EE411A31EE77
:102B7000811AF7EE001A31EE211A62EE010A1DE009
:102B800001EE101AB8EE411A9FED1E2AC2EE011A8C
:102B90009FED1A1A80EE012A144E20363668C6F3CD
:102BA000080601EE106AB8EE411A32EE011AB7EECD
:102BB000002A31EE021A61EE810A00BF00BF0B4EFF
:102BC00020363668C6F34626721C01EE102AB8EE8F
:102BD000411AC0EE811ABCEEE11A11EE100A00E0B3
:102BE000002001E0034800BF00BFF0BD10440258C0
:102BF0000090D00300093D0040787D0100000046B0
:102C00000024744C0024744A20BCBE4B2DE9F047CC
:102C1000044614B90120BDE8F087207800F00100D7
:102C2000002870D0FE48006800F03808FC481830D2
:102C3000D0F80090B8F1100F06D0B8F1180F0FD1EE
:102C400009F0030002280BD1F54810380068C0F3E2
:102C5000404000286AD06068002867D10120DAE788
:102C600000BF6068B0F5803F08D1ED4810380068BB
:102C700040F48030EA49103908602EE0606868B995
:102C8000E7481038006820F48030E54910390860C2
:102C90000846006820F4802008601EE06068B0F5F7
:102CA000A02F0DD1DE481038006840F48020DC49A8
:102CB000103908600846006840F4803008600CE075
:102CC000D7481038006820F48030D54910390860A2
:102CD0000846006820F48020086000BF606898B152
:102CE000FEF7CEF8054606E0FEF7CAF8401B64285A
:102CF00001D903208FE7CA4810380068C0F340406C
:102D00000028F1D012E012E0FEF7BAF8054606E01E
:102D1000FEF7B6F8401B642801D903207BE7C048C2
:102D200010380068C0F340400028F1D100BF20787F
:102D300000F0020002287BD1B948006800F0380892
:102D4000B7481830D0F80090B8F1000F05D0B8F1AE
:102D5000180F3AD109F00300B0BBB1481038006831
:102D6000C0F3800018B1E06808B9012053E700BF44
:102D7000FEF780F841F20301884219D82069402803
:102D80000AD1A7480C38006820F47C3040F40030A9
:102D9000A3490C39086016E0A1480C38006820F4FB
:102DA0007C30216940EA01309D490C3908600AE015
:102DB0009B480C38006820F0FE40217C40EA01600E
:102DC00097490C39086067E0FFE7E06888B39448EA
:102DD0001038006820F01900E16808439049103964
:102DE0000860FEF74DF8054606E0FEF749F8401B7F
:102DF000022801D903200EE7894810380068C0F383
:102E000080000028F1D000BFFEF734F841F2030142
:102E100088421BD8206940280CD181480C380068B2
:102E200020F47C3040F400307D490C39086018E013
:102E300033E017E07A480C38006820F47C302169D0
:102E400040EA013076490C3908600AE074480C38D1
:102E5000006820F0FE40217C40EA016070490C3996
:102E6000086019E06E481038006820F001006C49D5
:102E700010390860FEF704F8054606E0FEF700F892
:102E8000401B022801D90320C5E6654810380068B8
:102E9000C0F380000028F1D100BF207800F01000BE
:102EA00010287CD15E48006800F038085C48183073
:102EB000D0F80090B8F1080F06D0B8F1180F3DD146
:102EC00009F00300012839D1554810380068C0F3D3
:102ED000002020B1E069802801D001209BE600BFDE
:102EE000FDF7C8FF41F2030188421AD8206A202862
:102EF0000AD14B480C38006820F0F84040F0804080
:102F000047490C39086018E045480C38006820F043
:102F1000F84094F8201040EA816041490C3908607B
:102F20000BE03F48001F006820F07C5094F8201010
:102F300040EA01603A49091F086066E0E06978B339
:102F400037481038006840F0800035491039086073
:102F5000FDF796FF054606E0FDF792FF401B0228AD
:102F600001D9032057E62E4810380068C0F300202E
:102F70000028F1D000BFFDF77DFF41F20301884238
:102F80001CD8206A20280CD125480C38006820F075
:102F9000F84040F0804022490C3908601AE035E0E2
:102FA00019E01F480C38006820F0F84094F8201011
:102FB00040EA81601A490C3908600BE01848001F8C
:102FC000006820F07C5094F8201040EA0160144919
:102FD000091F086019E012481038006820F08000CE
:102FE0000F4910390860FDF74BFF054606E0FDF775
:102FF00047FF401B022801D903200CE6084810387F
:103000000068C0F300200028F1D100BF207800F054
:103010000800082834D16069D8B10148643001E063
:1030200010440258006840F00100EF490860FDF7C5
:1030300027FF054606E0FDF723FF401B022801D9C4
:103040000320E8E5E8480068C0F340000028F2D01B
:1030500016E0E548006820F00100E3490860FDF74C
:103060000FFF054606E0FDF70BFF401B022801D9C4
:103070000320D0E5DC480068C0F340000028F2D10E
:10308000207800F02000202836D1A069D0B1D648A1
:103090007438006840F48050D34974390860FDF7F3
:1030A000EFFE054606E0FDF7EBFE401B022801D9C6
:1030B0000320B0E5CC4874380068C0F340300028E5
:1030C000F1D019E0C8487438006820F48050C6492F
:1030D00074390860FDF7D4FE054606E0FDF7D0FE22
:1030E000401B022801D9032095E5BF4874380068C9
:1030F000C0F340300028F1D1207800F0040004280B
:103100007DD1BA48006840F48070B8490860FDF786
:10311000B7FE054606E0FDF7B3FE401B642801D963
:10312000032078E5B148006800F480700028F2D0F0
:1031300000BFA068012808D1AB48001F006840F01C
:103140000100A949091F08602DE0A06868B9A648D8
:10315000001F006820F00100A349091F086008460D
:10316000006820F0040008601DE0A06805280DD16B
:103170009D48001F006840F004009B49091F08603B
:103180000846006840F0010008600CE09648001F07
:10319000006820F001009449091F08600846006893
:1031A00020F00400086000BFA068A0B1FDF768FE31
:1031B000054608E0FDF764FE401B41F28831884275
:1031C00001D9032027E58848001F0068C0F34000AC
:1031D0000028EFD013E0FDF753FE054608E0FDF7A9
:1031E0004FFE401B41F28831884201D9032012E58D
:1031F0007D48001F0068C0F340000028EFD1606ADE
:1032000000287DD078486438006800F0380018281D
:1032100077D0606A022875D173487438006820F04E
:103220008070714974390860FDF72AFE054606E092
:10323000FDF726FE401B022801D90320EBE46A4873
:1032400074380068C0F340600028F1D100BFD4E9B1
:103250000A1041EA001064494C39096840F2F3321F
:103260009143084360494C390860208E401EC0F3EA
:103270000800616B491E4FF47E4202EA4121084377
:10328000218F491ED20102EA014108433C21095D18
:10329000491E120202EA0161084353494439086099
:1032A00000BF081F006820F00100091F08604E4899
:1032B000403800684FF6F8718843A16C40EAC100BD
:1032C00049494039086048484838006820F00C00F7
:1032D000216C08434449483908600846006820F0DA
:1032E0000200616C0843404948390860084600689C
:1032F00040F4803008600846006840F4003002E086
:103300006FE041E025E008600846006840F4802056
:1033100008600846006840F00100086032487438D0
:10332000006840F08070304974390860FDF7A8FDEE
:10333000054606E0FDF7A4FD401B022801D9032045
:1033400069E4294874380068C0F340600028F1D06F
:1033500047E025487438006820F0807022497439AD
:103360000860FDF78DFD054606E0FDF789FD401B71
:10337000022801D903204EE41B4874380068C0F3CA
:1033800040600028F1D12CE017484C3807681648F7
:1033900044380668606A012821D007F00301A06A5A
:1033A00081421CD1C7F30511E06A884217D1C6F3E8
:1033B0000801206B401E814211D1606B401EC6F394
:1033C000462188420BD1A06B401EC6F306418842BD
:1033D00005D1E06B401EC6F30661884201D0012092
:1033E00019E4002017E40000744402580048025811
:1033F0007047704770477047F0B587B004460E4677
:103400000027032084F83000A06B032820D0B6F5F5
:10341000004F04D1606B40F0805060631CE0B6F553
:10342000804F07D1204602F027FC0546606B2843F9
:10343000606311E03EB9204602F0EAFB0546606B8E
:103440002843606308E0606B40F00060606303E065
:10345000606B40F080506063606B20B11F48216852
:103460008863012725E060680290A06803900496B5
:10347000206905906069042802D3606906900FE016
:10348000A06DB0F5007F02D16069069008E0A06DE4
:10349000B0F5807F02D10220069001E00420069062
:1034A000DDE90501CDE90001206802A90EC902F09D
:1034B00071F84FF40071206801F0BFFC054635B18A
:1034C000064821688863606B2843606301270120F8
:1034D00084F83000384607B0F0BD0000FF0FE01F51
:1034E00070470246D06E000E0870D06EC0F30F20F9
:1034F000488092F86C000306106F43EA1020486081
:103500007020805C0872506F000E4872506F03028A
:10351000906F43EA1060C860906FC0F30350087466
:10352000906FC0F30B2048827820805CC0F3460087
:1035300008750120487500207047000010B502464C
:10354000D06D800F0870D06DC0F383604870D06D6F
:10355000C0F301608870D06D000CC870B2F85C00D8
:10356000000A087192F85C004871106E000DC88066
:10357000106EC0F3034008726020805AC0F3C03060
:1035800048726020805AC0F3803088726020805A70
:10359000C0F34030C8726020805AC0F30030087316
:1035A00000204873906B002836D16020805A800537
:1035B000030D506E43EA90700861506EC0F3C26014
:1035C0000875506EC0F302604875506EC0F34250EB
:1035D0008875506EC0F38240C875506EC0F3C2301B
:1035E00008760869401C90640B7E906C03F007031A
:1035F0009B1C01249C4060439064087A00F00F03F8
:1036000001209840D064D2E912035B0A5843106548
:103610004FF40073536521E0906B012813D16020B3
:10362000805C8006830A506E43EA10400861086996
:10363000401C83029364936C13654FF40073D3644E
:10364000D36C53650AE02E4813689863506B40F0C2
:1036500080505063012082F8300010BD6420805AF1
:10366000C0F3803001F8190F6420805AC0F3C610EF
:1036700048706420805C00F07F008870906EC00FFE
:10368000C870906EC0F341700871906EC0F3826094
:103690004871906EC0F383508871906EC0F34050B3
:1036A000C87100200872906EC0F300404872682014
:1036B000805AC0F3C03088726820805AC0F38030CE
:1036C000C8726820805AC0F3403008736820805A5E
:1036D000C0F3003048736820805AC0F3812088739B
:1036E0006820805AC0F30120C8736820805CC0F352
:1036F000460008740120487419390020ADE7000025
:10370000FF0FE01F0246906B0860D06B4860106CA2
:103710008860506CC860906C0861D06C4861106D16
:103720008861506DC86100207047F8B504460020DC
:1037300000906946204602F0A3F9054615B1606B7A
:10374000284360630098C0F343263046F8BD00006C
:10375000F0B591B005460C46002701A9284602F0B5
:10376000F5F8064656B1304829688863686B3043DF
:103770006863012085F83000012743E00198C0F319
:10378000811020700198C0F340106070019800F41F
:103790007F00000A019940EA1160608002980006EB
:1037A000029901F47F4140EA0120029901F47F016E
:1037B00040EA1120029940EA11606060039820728B
:1037C0000398000A60720398C0F30350A072049833
:1037D000C0B2039901F07F4140EA1140A0810498F2
:1037E000C0F38520A0730498C0F30120E07304980F
:1037F000C0F303102074049800F00F006074059863
:10380000000EA0744FF40071286801F016FB064604
:103810003EB10548296888636E63012085F8300051
:103820000127384611B0F0BDFF0FE01F70B5044608
:10383000E56A2068406BC0F3C03030B105F0080085
:1038400018B1204602F060F826E12068406BC0F312
:103850000020002876D04FF48070216888632068AB
:10386000C06B4CF23A1188432168C8632068C06B72
:1038700020F080502168C8632068C06820F04000B4
:103880002168C86005F0080030B305F0020010B9E7
:1038900005F0200050B1206801F038FC06462EB13A
:1038A000606B304360632046FFF71AFE7B48216857
:1038B0008863012084F830000020E06205F00100F8
:1038C00010B905F0020018B1204600F027FBE3E034
:1038D000204600F024FBDFE005F080000028B3D094
:1038E0000020216888622168C8622168086505F0A7
:1038F000020010B905F0200050B1206801F006FC6C
:1039000006462EB1606B304360632046FFF7E8FD4A
:10391000012084F830000020E06205F0100010B9AA
:1039200005F0200010B1204600F0F9FA05F0010082
:1039300018B905F00200002886D0204600F0EEFA03
:10394000AAE0FFE72068406BC0F3803030B105F09B
:10395000080018B1204602F0C3F99DE02068406BD2
:1039600000F03A0008B1012000E00020002870D0EB
:103970002068406BC0F3400018B1606B40F002005B
:1039800060632068406BC0F3C00018B1606B40F00A
:10399000080060632068406BC0F3401018B1606B92
:1039A00040F0200060632068406BC0F3001018B145
:1039B000606B40F0100060633848216888632068BD
:1039C000C06B20F49D702168C8632068C06820F037
:1039D00040002168C8602068C06A40F40050216837
:1039E000C8622068C06840F080002168C860206814
:1039F00001F08CFB616B084360632068C06820F0B5
:103A000080002168C8604FF400602168886305F079
:103A1000080040B1012084F830000020E062204618
:103A2000FFF75EFD38E005F0800030B3606B20B337
:103A30002068C06B20F080502168C8630020216896
:103A40000865012084F830002046FFF749FD23E097
:103A5000FFE72068406BC0F3007070B14FF08050FA
:103A6000216888632068006D00F0040050B905F0FB
:103A7000200018B12046FFF7BEFC0DE02046FFF7FE
:103A8000B8FC09E005F0200018B12046FFF7B2FCB1
:103A900002E02046FFF7ACFC70BD00003A0F0018B2
:103AA000F0B585B0044614B9012005B0F0BD94F816
:103AB000300020B900202076204600F0ADF8032029
:103AC00084F83000204600F045F808B10120ECE70A
:103AD00069462046FFF73CFE08B10120E5E79DF866
:103AE00010609DF81170A06B012805D106B91FB1B7
:103AF0004FF40071A16507E0A06B012802D101021B
:103B0000A16501E00021A1652046E168FFF774FC92
:103B100008B10120C9E7FDF7B3F905460CE0FDF750
:103B2000AFF9401B401C38B94FF0004060630120E2
:103B300084F830000320B8E72046FFF7F6FD04289C
:103B4000EDD100206063E062012084F830000020A5
:103B5000ABE70000F0B587B0044600200290039068
:103B6000049005904FF48030FDF7F6FD0646274897
:103B7000B6FBF0F00690DDE90501CDE90001206813
:103B800002A90EC901F006FD206801F01DFD06988E
:103B90004000B6FBF0F63EB11D48B0FBF6F0471C06
:103BA0003846FDF72FF802E00220FDF72BF82046FB
:103BB00001F048FE054645B1012084F83000606BF5
:103BC00028436063012007B0F0BD204601F0C4FD2A
:103BD00005463DB1012084F83000606B28436063E6
:103BE0000120F0E74FF40071206801F026F9054646
:103BF0004DB1084821688863606B284360630120E9
:103C000084F83000DFE70020DDE7000000350C001D
:103C100010210100FF0FE01F10B586B004461421EB
:103C200001A8FCF79FFB2B49206888424FD100BFB9
:103C30002948006840F48030274908600846006839
:103C400000F48030009000BF00BF00BF22480C305D
:103C5000006840F0040020490C3108600846006804
:103C600000F00400009000BF00BF00BF08460068DD
:103C700040F0080008600846006800F00800009066
:103C800000BF00BF4FF4F8500190022002900020C6
:103C90000390032004900C20059001A90F48FCF725
:103CA000D5FF042001900220029000200390032001
:103CB00004900C20059001A90948FCF7C7FF0022D9
:103CC00011463120FDF76CF93120FDF759F906B0A6
:103CD00010BD000000700052D44402580008025881
:103CE000000C02582DE9FF4F89B0044689469846DA
:103CF000FDF7C6F80290DDF82CB04D46B9F1000F83
:103D000007D1606B40F00060606301200DB0BDE83A
:103D1000F08F94F8300001287ED1002060630BEB17
:103D20000801206D814205D9606B40F0007060632E
:103D30000120EBE7032084F8300000202168C862EE
:103D4000A06B012801D04FEA4B2B4FF0FF300390BE
:103D50004FEA482004909020059002200690002011
:103D60000790089003A9206801F0FEF92068C06858
:103D700040F040002168C860B8F1010F07D9022067
:103D8000E0625946206801F0C1F8064606E00120CD
:103D9000E0625946206801F0D6F8064666B15D48F3
:103DA00021688863606B30436063012084F83000D1
:103DB0000020E0620120A9E7DDF810A03AE02068C9
:103DC000406B00F40040E0B1BAF1200F19D300209D
:103DD000019011E0206801F0FEFB07462F706D1C7A
:103DE000380A28706D1C380C28706D1C380E28702D
:103DF0006D1C0198401C019001980828EAD3AAF193
:103E0000200AFDF73DF80299411A1698814201D225
:103E1000169878B93F4800E076E021688863606BC7
:103E200040F000406063012084F830000020E06230
:103E300003206BE72068406B00F495700028BED02B
:103E40002068C06820F040002168C8602068406B8E
:103E500000F48070B8B1B8F1010F14D9A06B032839
:103E600011D0206801F052F9064666B12948216850
:103E70008863606B30436063012084F83000002069
:103E8000E062012042E72068406B00F0080068B162
:103E9000204821688863606B40F00800606301205F
:103EA00084F830000020E06201202FE72068406B9A
:103EB00000F0020068B1174821688863606B40F029
:103EC00002006063012084F830000020E0620120DD
:103ED0001CE72068406B00F0200068B10D482168A5
:103EE0008863606B40F020006063012084F830003C
:103EF0000020E062012009E707482168886301206B
:103F000084F83000002001E7606B40F000506063EF
:103F10000120FBE6FF0FE01F3A0F001870477047C3
:103F200070B5044600260CB9012070BD606A00B966
:103F300000BF0021A1625349206888420CD0524939
:103F40002068884208D051492068884204D0E0683F
:103F50000F2801D90120E8E7204601F0EAFE0546D6
:103F600048492068884209D047492068884205D0DE
:103F700046492068884201D0082D0DD84149206863
:103F8000884207D040492068884203D03F492068D2
:103F9000884203D1102D01D90120C6E794F8810091
:103FA00028B9002084F88000204600F071F8022033
:103FB00084F881002068006820F001002168086012
:103FC000A069B0F1806F0BD16068B0F5800F07D1A8
:103FD000A06B28B92068006840F480502168086010
:103FE000A16AE06908433043E16B0843E168084394
:103FF00021688860616A606B0843A16B0843A1690E
:1040000008432169084361690843216A08436168DC
:104010000843E16C0843A1680843A16C0843A16D03
:1040200008432168C860606878B92068806820F417
:10403000C05040F40060216888602068806820F4E7
:10404000C06040F48060216888602068006D20F0C6
:10405000010021680865606800F48000B0F5800FF9
:1040600007D12068C06820F00040616D08432168D6
:10407000C8600020C4F88400012084F8810000207A
:1040800053E700000030014000380040003C004091
:1040900010B586B00446142101A8FCF763F9334932
:1040A000206888425FD100BF3148006840F48050EA
:1040B0002F4908600846006800F48050009000BF57
:1040C00000BF00BF2A481038006840F002002849AD
:1040D000103908600846006800F00200009000BF38
:1040E00000BF00BF0846006840F040000860084676
:1040F000006800F04000009000BF00BF00BF08460D
:10410000006840F0010008600846006800F0010007
:10411000009000BF00BF20200190022002900020EC
:10412000039004900520059001A91248FCF78EFD2C
:104130004FF4007001900220029000200390049040
:104140000520059001A90C48FCF780FD3020019066
:10415000022002900020039004900520059001A900
:104160000648FCF773FD06B010BD000000300140AA
:10417000F044025800040258001802580000025887
:1041800070B504462546681EB0F1807F01D301203A
:104190000FE0681E4FF0E02148610F214FF0FF3023
:1041A00002F04AFB00204FF0E021886107200861FF
:1041B000002070BD014600BF91F87C00012801D1AC
:1041C00002207047012081F87C0000BF2420C1F844
:1041D0008000086802680868006820F001000B6829
:1041E000186022F000520020486608680260202013
:1041F000C1F8800000BF002081F87C0000BF00BF34
:10420000DFE7704770B504460D4600BF94F87C00A8
:10421000012801D1022070BD012084F87C0000BF7C
:104220002420C4F88000206806682068006820F018
:104230000100216808602068806820F060602843E1
:1042400021688860204601F08FFE206806602020EB
:10425000C4F8800000BF002084F87C0000BF00BFCD
:10426000D9E770B504460D4600BF94F87C000128DC
:1042700001D1022070BD012084F87C0000BF242001
:10428000C4F88000206806682068006820F00100FB
:10429000216808602068806820F060402843216819
:1042A0008860204601F060FE206806602020C4F887
:1042B000800000BF002084F87C0000BF00BFD9E769
:1042C00070477047704700002DE9F04704462068AA
:1042D000C569206806682068876840F60F0005EA0F
:1042E0000008B8F1000F0FD105F0200060B106F012
:1042F000200010B907F0805030B1E06E10B12046B8
:10430000E16E8847BDE8F087B8F1000F7ED06E48B7
:10431000384018B96D4830400028F7D005F001004A
:1043200058B106F4807040B1012021680862D4F8C9
:10433000880040F00100C4F8880005F0020058B180
:1043400007F0010040B1022021680862D4F888001B
:1043500040F00400C4F8880005F0040058B107F0EC
:10436000010040B1042021680862D4F8880040F0C0
:104370000200C4F8880005F0080070B106F02000C3
:1043800010B95148384040B1082021680862D4F87B
:10439000880040F00800C4F8880005F4006060B1AF
:1043A00006F0806048B14FF4006021680862D4F8DC
:1043B000880040F02000C4F88800D4F88800002865
:1043C00044D005F0200050B106F0200010B907F0ED
:1043D000805020B1E06E10B12046E16E8847D4F8DD
:1043E00088902068806800F04000402802D009F0E2
:1043F000280028B3204601F0B1FE2068806800F054
:104400004000402818D12068806800E01FE020F0BC
:10441000400021688860A06F50B12D48A16F0865E9
:10442000A06FFCF723FA88B1A06F016D88470DE0FB
:104430002046FFF747FF09E02046FFF743FF05E06E
:104440002046FFF73FFF0020C4F888005AE705F434
:10445000801050B107F4800038B14FF4801021680B
:1044600008622046FFF72DFF4CE705F0800058B1A9
:1044700006F0800010B907F4000028B1206F10B1D9
:104480002046216F88473DE705F0400030B106F037
:10449000400018B1204601F075FE33E705F4000036
:1044A00030B106F0804018B12046FFF709FF29E738
:1044B00005F0807030B106F0004018B12046FFF7DB
:1044C000A0FE1FE700BF1DE701000010200100044F
:1044D0004561009010B504460CB9012010BDA069DB
:1044E00000B100E000BFD4F8800028B9002084F8B3
:1044F0007C00204600F02AF82420C4F880002068C0
:10450000006820F0010021680860204601F04CFEA0
:10451000012800D1E2E7A06A10B1204601F05CFD5D
:104520002068406820F490402168486020688068D6
:1045300020F02A00216888602068006840F00100AF
:1045400021680860204601F0C3FDC7E710B586B0BA
:104550000446142101A8FBF705FF2A492068884278
:104560004DD100BF2848006840F40020264908606B
:104570000846006800F40020009000BF00BF00BFA4
:1045800021480838006840F480701F4908390860E5
:104590000846006800F48070009000BF00BF00BFB4
:1045A0000846006840F0010008600846006800F016
:1045B0000100009000BF00BF4FF400700190022086
:1045C00002900020039004900820059001A90F4854
:1045D000FCF73CFB01200190022002900020039098
:1045E00004900820059001A90948FCF72FFB002240
:1045F00011463420FCF7D4FC3420FCF7C1FC06B093
:1046000010BD0000004C0040E84402580020025851
:10461000000002582DE9F84F04460E461746994609
:10462000D4F8800020285ED106B117B90120BDE87A
:10463000F88F00BF94F87C00012801D10220F6E732
:10464000012084F87C0000BF0020543460632120E6
:10465000E062FCF715FC824627806780543CA06826
:10466000B0F5805F04D1206910B90025B04602E0A2
:1046700035464FF0000800BF002084F87C0000BFE2
:104680001DE05346002280212046CDF8009002F024
:1046900059F808B10320CAE745B9B8F80000C0F3DB
:1046A00008002168886208F1020803E02878216880
:1046B00088626D1CB4F85600401EA4F85600B4F889
:1046C00056000028DDD15346002240212046CDF877
:1046D000009002F037F808B10320A8E72020C4F8C2
:1046E00080000020A3E70220A1E7704700BFFEE79B
:1046F00000B587B0142102A8FBF734FE00BF6B4859
:10470000006840F00200694908600846006800F04F
:104710000200019000BF00BF00BF0846006840F0E3
:10472000400008600846006800F04000019000BFAB
:1047300000BF00BF0846006840F008000860084657
:10474000006800F00800019000BF00BF00BF0846ED
:10475000006840F0040008600846006800F00400AB
:10476000019000BF00BF00BF0846006840F0010094
:1047700008600846006800F00100019000BF00BF1B
:1047800000BF0846006840F0100008600846006856
:1047900000F01000019000BF00BF00BF0846006895
:1047A00040F4807008600846006800F48070019052
:1047B00000BF00BF00BF0846006840F080000860EE
:1047C0000846006800F08000019000BF00BF002292
:1047D0004FF420413648FCF746FB002208213548BB
:1047E000FCF741FB00224FF480713348FCF73BFBA0
:1047F00020200290002003900120049002A92F485D
:10480000FCF724FA4CF218000290022003900020DA
:104810000490032005900920069002A92848FCF77F
:1048200015FAC0200290022003900020049003207B
:1048300005900B20069002A92048FCF707FA4FF4D8
:10484000204002900120039000200490059002A9CE
:104850001748FCF7FBF90820029001200390002084
:104860000490059002A91348FCF7F0F94FF480700A
:1048700002900120039000200490059002A90E48A8
:10488000FCF7E4F9102002900E48039000200490F9
:1048900002A90D48FCF7DAF9002211460A20FCF7BC
:1048A0007FFB0A20FCF76CFB07B000BDE044025818
:1048B000000802580010025800200258000C02584C
:1048C0000004025800002111001C025810B50A48CB
:1048D0000A490860002048600021084881604FF4C0
:1048E0008041C160C900016104214161FFF7D8F82E
:1048F00008B1FBF7B8FF10BD007000521C00012486
:1049000010B51648164908604FF480004860002131
:10491000134881600321C1600021016141614FF0B2
:10492000806181614FF0A041C1610021016241625B
:104930008162C1624FF08041416300218163C163A4
:10494000016441648164C164016541658165FFF76B
:10495000E7FA08B1FBF787FF10BD00000030014007
:104960009800012410B51848184908604FF4E13048
:104970004860002115488160C16001610C214161DE
:1049800000218161C1610162416200200F4988629A
:104990000846FFF79FFD08B1FBF765FF00210B48B4
:1049A000FFF75FFC08B1FBF75EFF00210748FFF748
:1049B00029FC08B1FBF757FF0448FFF7FBFB08B1E0
:1049C000FBF751FF10BD0000004C00402001012406
:1049D00000BFFEE700BFFEE7704700002DE9F04191
:1049E00004460E4600275548006800F003000328DF
:1049F00002D10120BDE8F08150482838006820F03D
:104A000080604E4928390860FCF73AFA054606E00E
:104A1000FCF736FA401B022801D90320EAE7474891
:104A200028380068C0F3C0600028F1D100BF4348B7
:104A3000006820F47C30216840EA01303F4908607A
:104A4000A088401EC0F30800A168491E4FF47E42B2
:104A500002EA41210843A189491ED20102EA01412B
:104A60000843217C491E120202EA016108433349CE
:104A70001031086000BF3148001D006820F0C00000
:104A8000616908432D49091D08600846006820F047
:104A90002000A16908432949091D086008460068EB
:104AA00020F0100008602548143000684FF6F871B7
:104AB0008843E16940EAC1002049143108601F4879
:104AC000001D006840F010001C49091D08602EB947
:104AD0000846006840F40020086012E0012E08D16A
:104AE0001648001D006840F480101449091D086034
:104AF00007E01248001D006840F400100F49091D2E
:104B000008600E482838006840F080600B4928395A
:104B10000860FCF7B5F9054606E0FCF7B1F9401B63
:104B2000022801D9032065E7044828380068C0F34B
:104B3000C0600028F1D038465CE7000028440258E5
:104B40002DE9F04104460E4600275548006800F064
:104B50000300032802D10120BDE8F0815048283825
:104B6000006820F080504E4928390860FCF788F929
:104B7000054606E0FCF784F9401B022801D9032012
:104B8000EAE7474828380068C0F340700028F1D1B0
:104B900000BF4348006820F07C70218840EA015043
:104BA0003F490860A088401EC0F30800A168491E64
:104BB0004FF47E4202EA41210843A189491ED201F5
:104BC00002EA01410843217C491E120202EA016106
:104BD000084333491831086000BF3148001D0068A0
:104BE00020F44060616908432D49091D08600846AA
:104BF000006820F40070A16908432949091D086074
:104C00000846006820F48070086025481C30006861
:104C10004FF6F8718843E16940EAC10020491C3130
:104C200008601F48001D006840F480701C49091D81
:104C300008602EB90846006840F48000086012E061
:104C4000012E08D11648001D006840F400001449E8
:104C5000091D086007E01248001D006840F08070E0
:104C60000F49091D08600E482838006840F0805040
:104C70000B4928390860FCF703F9054606E0FCF704
:104C8000FFF8401B022801D9032065E704482838B3
:104C90000068C0F340700028F1D038465CE700009F
:104CA0002844025810B50023234C236000BF00BFE6
:104CB00000BFBFF34F8F00BF00BF00BF231F1868A6
:104CC000C0F34E3100BFC0F3C90200BF43F6E0732A
:104CD00003EA41134FF0404404EA82742343174C23
:104CE000236000BF00BF131EA2F10102EED10B1E14
:104CF000A1F10101E7D100BF00BF00BFBFF34F8F9B
:104D000000BF00BF00BF0C4B703B1B6843F48033F7
:104D1000094C703C236000BF00BF00BFBFF34F8F42
:104D200000BF00BF00BF00BF00BF00BFBFF36F8F59
:104D300000BF00BF00BF10BD84ED00E060EF00E0E9
:104D400000BF00BF00BFBFF34F8F00BF00BF00BF59
:104D500000BF00BF00BFBFF36F8F00BF00BF00BF29
:104D600000201449086000BF00BF00BFBFF34F8F91
:104D700000BF00BF00BF00BF00BF00BFBFF36F8F09
:104D800000BF00BF00BF0C48006840F400300A4973
:104D9000086000BF00BF00BFBFF34F8F00BF00BF60
:104DA00000BF00BF00BF00BFBFF36F8F00BF00BFD9
:104DB00000BF704750EF00E014ED00E010B502486E
:104DC000FEF734FD10BD00001C00012470B586B054
:104DD00005460C460194372002904FF480700390F2
:104DE000002004904FF48050059001A9284600F05F
:104DF000F7FB41F288323721284600F0EDF90646EC
:104E0000304606B070BD70B586B005460C460194BC
:104E1000292002904FF480700390002004904FF4FA
:104E20008050059001A9284600F0DAFB284600F0E2
:104E3000DFFA0646304606B070BD70B586B005464E
:104E40000C46019410200290000103900020049071
:104E50004FF48050059001A9284600F0C1FB41F2B3
:104E600088321021284600F0B7F90646304606B0D1
:104E700070BD70B586B005460C46019406200290C0
:104E80004FF480700390002004904FF48050059000
:104E900001A9284600F0A4FB41F2883206212846E9
:104EA00000F09AF90646304606B070BD30B585B0C0
:104EB0000446002000900190029003904FF480502F
:104EC00004906946204600F08BFB204600F062F912
:104ED0000546284605B030BD30B585B004464FF4D0
:104EE000D5700090082001904001029000200390AE
:104EF0004FF4805004906946204600F071FB204634
:104F000000F002FB0546284605B030BD70B586B0FE
:104F100005460C460194122002904FF480700390D5
:104F2000002004904FF48050059001A9284600F01D
:104F300057FB41F288321221284600F04DF906460F
:104F4000304606B070BD70B586B005460C4601947B
:104F5000112002904FF480700390002004904FF4D1
:104F60008050059001A9284600F03AFB41F28832B2
:104F70001121284600F030F90646304606B070BDD3
:104F8000F0B585B0064614461D46009407200190F2
:104F90004FF480700290002003904FF480500490F2
:104FA0006946304600F01CFB41F28832072130464A
:104FB00000F012F90746384605B0F0BD30B585B0AF
:104FC000044600200090022001904FF440700290AF
:104FD000002003904FF4805004906946204600F072
:104FE000FFFA204600F0D0F90546284605B030BD4E
:104FF00070B586B005460C460194092002904FF426
:1050000040700390002004904FF48050059001A957
:10501000284600F0E5FA284600F0B6F90646304684
:1050200006B070BD30B585B0044600200090332036
:1050300001904FF480700290002003904FF4805054
:1050400004906946204600F0CBFA41F288323321C1
:10505000204600F0C1F80546284605B030BD70B5C1
:1050600086B005460C4601940D2002904FF48070E6
:105070000390002004904FF48050059001A9284629
:1050800000F0AEFA41F288320D21284600F0A4F873
:105090000646304606B070BD70B586B005460C4673
:1050A00000200190032002904FF4807003900020B4
:1050B00004904FF48050059001A9284600F090FA22
:1050C00022460321284600F0C1F90646304606B0C4
:1050D00070BD30B585B00446002000900D200190D1
:1050E0004FF480700290002003904FF480500490A1
:1050F0006946204600F074FA41F288320D212046BC
:1051000000F06AF80546284605B030BD30B585B0D8
:105110000446002000900C2001904FF48070029013
:10512000002003904FF480500490E06840F080002D
:10513000E060E06820F04000E0606946204600F052
:105140004FFA084A0C21204600F046F80546E06870
:1051500020F08000E060B5F1007F00D100252846F6
:1051600005B030BD00E1F50510B502460023086822
:10517000506248689062D1E9020420430C692043E0
:105180004C6920430343D06A20F0FF001843D062EB
:10519000002010BD01460E480068C0084FF47A7325
:1051A000B0FBF3F041F2883300FB03F200BF101EA6
:1051B000A2F1010202D14FF000407047486B00F0AD
:1051C00080000028F3D0034888630020F5E7000042
:1051D00010000024C50020002DE9F04305460F46CD
:1051E000904666480068C0084FF47A71B0FBF1F051
:1051F00000FB08F900BFB9F10000A9F1010903D1D2
:105200004FF00040BDE8F0836E6B5D4830400028F1
:10521000F1D006F400500028EDD1686B00F00400D6
:1052200010B10420A863EDE7686B00F0010010B135
:105230000120A863E6E752488030A863284600F0C2
:1052400099F9B84201D00120DCE70021284600F09E
:105250009AF904464B48204008B90020D2E704F0F0
:105260000040B0F1004F02D14FF00070CAE704F0E7
:105270008040B0F1804F01D14020C3E704F00050DE
:10528000B0F1005F01D18020BCE704F08050B0F1A4
:10529000805F02D14FF48070B4E704F00060B0F199
:1052A000006F02D14FF40070ACE704F08060B0F101
:1052B000806F02D14FF48060A4E704F08070B0F1F9
:1052C000807F02D14FF400609CE704F40000B0F549
:1052D000000F02D14FF4805094E704F48000B0F541
:1052E000800F02D14FF400508CE704F40010B0F5A9
:1052F000001F02D14FF4804084E704F48010B0F521
:10530000801F02D14FF400407CE704F48020B0F508
:10531000802F02D14FF4003074E704F40030B0F570
:10532000003F02D14FF480206CE704F48030B0F5E8
:10533000803F02D14FF4002064E704F40040B0F550
:10534000004F02D14FF480105CE704F48040B0F5C8
:10535000804F02D14FF4001054E704F40050B0F530
:10536000005F02D14FF480004CE704F008000828E9
:1053700001D1000546E74FF4803043E710000024D8
:105380004500200008E0FFFD10B501461648006802
:10539000C0084FF47A74B0FBF4F041F2883400FB9B
:1053A00004F300BF181EA3F1010302D14FF0004027
:1053B00010BD4A6B02F045000028F3D002F4005003
:1053C0000028EFD1486B00F0040010B1042088637E
:1053D000EEE7486B00F0010010B101208863E7E7B9
:1053E000024888630020E3E710000024C500200085
:1053F00010B5014613480068C0084FF47A74B0FB3A
:10540000F4F041F2883400FB04F300BF181EA3F14E
:10541000010302D14FF0004010BD4A6B02F045007D
:105420000028F3D002F400500028EFD1486B00F0C0
:10543000040010B104208863EEE70348886300206D
:10544000EAE7000010000024C50020002DE9F04329
:1054500004460F4690462A480068C0084FF47A7107
:10546000B0FBF1F041F2883100FB01F900BFB9F166
:105470000000A9F1010903D14FF00040BDE8F0831D
:10548000666B06F045000028F1D006F400500028B5
:10549000EDD1606B00F0040010B10420A063EDE7D3
:1054A000606B00F0010010B10120A063E6E7204628
:1054B00000F060F8B84201D00120DFE71148A06396
:1054C0000021204600F05FF8054605F4604020B951
:1054D000280CA8F800000020D0E705F48040B0F5C3
:1054E000804F02D14FF40050C8E705F40040B0F5FA
:1054F000004F02D14FF48050C0E74FF48030BDE739
:1055000010000024C500200010B5014618480068AE
:10551000C0084FF47A74B0FBF4F041F2883400FB19
:1055200004F300BF181EA3F1010302D14FF00040A5
:1055300010BD4A6B02F045000028F3D002F4005081
:105540000028EFD1486B00F0040010B104208863FC
:10555000EEE7486B00F0010010B101208863E7E737
:10556000486B00F0400008B1402088630020DFE76E
:105570001000002401460869C0B27047014608685F
:1055800000F003007047024602F114004318186847
:10559000704700000FB410B504460021DDE9030296
:1055A0001043059A1043069A1043079A104301438B
:1055B0006068044A104008436060002010BC5DF839
:1055C00014FB0000002CC0FF0146086840F00300F7
:1055D0000860002070470146D1F880007047000045
:1055E00010B50246002308689060D1E90104204309
:1055F000CC6820430C6920430343D068024C204010
:105600001843D060002010BDC0E0FEFF02460868CD
:10561000C2F88000002070472DE9F04389B00446AD
:105620000F46FBF72DFC81464FF00008002001904B
:1056300002903E4608212068FFF7FFFB05461DB19A
:10564000284609B0BDE8F0834422125B11042068AB
:10565000FFF7BCFB05460DB12846F2E74FF0FF30DF
:10566000039008200490302005900220069000202E
:1056700007900120089003A92068FFF775FD2068B6
:10568000FFF7D0FC05460DB12846DAE71AE020689E
:10569000406B00F4002060B9B8F1000F09D1206818
:1056A000FFF799FF01902068FFF795FF029008F13E
:1056B0000108FBF7E5FBA0EB0900401C10B94FF017
:1056C0000040BEE72068406B40F22A5108400028A5
:1056D000DDD02068406B00F0080018B10820216878
:1056E0008863AEE72068406B00F0020018B102202A
:1056F00021688863A5E72068406B00F0200018B19E
:105700002020216888639CE71248216888630298FA
:105710000006029901F47F4140EA0120029901F458
:105720007F0140EA1120029940EA11603060361D85
:1057300001980006019901F47F4140EA0120019996
:1057400001F47F0140EA1120019940EA11603060C4
:10575000002076E73A0F001830B58DB004460120DE
:1057600001902068FFF70AFF18B94FF080600DB074
:1057700030BDA06B03281AD02068FFF71FFC054638
:105780000DB12846F3E700212068FFF7FCFEE06634
:1057900004212068FFF7F7FE206708212068FFF743
:1057A000F2FE60670C212068FFF7EDFEA067A06B9A
:1057B000032807D001A92068FFF76EFC05460DB14C
:1057C0002846D4E7A06B032820D0BDF804106164FC
:1057D0004422125B11042068FFF70AFC05460DB154
:1057E0002846C4E700212068FFF7CDFEE0650421CC
:1057F0002068FFF7C8FE206608212068FFF7C3FE77
:1058000060660C212068FFF7BEFEA06604212068B8
:10581000FFF7B9FE010D216402A92046FDF78EFEB7
:1058200010B14FF08050A2E74420005B01040A460B
:1058300000232068FFF7A4FB05460DB1284696E734
:10584000002094E7F8B504460020009000260027C9
:105850002068FFF72BFB05460DB12846F8BD2068F0
:10586000FFF73AFB054645B10021E1632068FFF7E9
:105870001DFB05461DB12846F0E70121E163E06B01
:10588000012808D100212068FFF7A0FA054615B1CC
:105890004FF08050E2E71DE000212068FFF796FA04
:1058A00005460DB12846D9E716492068FFF7ABFA3F
:1058B000054615B14FF08050D0E700212068FFF772
:1058C00062FE0646012080EAD67080F0010700984B
:1058D000401C009040F634010098884201D2002F0D
:1058E000DAD040F634010098884202D34FF080703D
:1058F000B4E706F08040B0F1804F01D10120A063F1
:105900000020ABE7000010C12DE9F04105466C6AAC
:10591000A86A202817D300270FE02868FFF75BFE4E
:1059200006462670641C300A2070641C300C2070FF
:10593000641C300E2070641C7F1C082FEDD36C6239
:10594000A86A2038A862BDE8F08100002DE9F04384
:1059500087B004460F46FBF793FA80463E46002187
:105960002068FFF710FE00F00070B0F1007F04D156
:105970004FF4006007B0BDE8F08340212068FFF7D6
:105980005CFA05461DB1606B60632846F2E744226D
:10599000125B11042068FFF719FA05461DB1606B10
:1059A00060632846E6E74FF0FF3001904020029008
:1059B00060200390022004900020059001200690B2
:1059C00001A92068FFF7D0FB2068FFF782FB05469E
:1059D0001DB1606B60632846CCE71AE02068406B1D
:1059E00000F4004060B14FF0000906E02068FFF7C6
:1059F000F2FD3060361D09F10109B9F1080FF5D348
:105A0000FBF73EFAA0EB0800401C10B94FF0004035
:105A1000B0E72068406B00F495700028DED0206865
:105A2000406B00F0080008B10820A3E72068406B35
:105A300000F0020008B102209CE72068406B00F0F3
:105A4000200008B1202095E70DE02068FFF7C3FD96
:105A50003060361DFBF714FAA0EB0800401C10B9AB
:105A60004FF0004086E72068406B00F4805000282B
:105A7000EBD102482168886300207BE73A0F0018C9
:105A800070B504460D4615B94FF0006070BD442254
:105A9000125B11042068FFF7E2FA06460EB13046A9
:105AA000F4E700212068FFF76EFD28600020EDE795
:105AB000F0B52DED028B83B00024FBF7E1F907462A
:105AC0004FF4C85040230022254900902548FEF796
:105AD00009F92549086000BF2248FDF726FE042881
