:020000040800F2
:10000000000002207D270008DD0B0008DF0B000840
:10001000E10B0008E30B0008E50B000800000000FE
:10002000000000000000000000000000E70B0008D6
:10003000E90B000800000000EB0B0008ED0B0008C6
:10004000CD270008CD270008CD270008CD270008C0
:10005000CD270008CD270008CD270008CD270008B0
:10006000CD270008CD270008CD270008CD270008A0
:10007000CD270008CD270008CD270008CD27000890
:10008000CD270008CD270008CD270008CD27000880
:10009000CD270008CD270008CD270008CD27000870
:1000A000CD270008CD270008CD270008CD27000860
:1000B000F50B0008050C0008150C0008CD270008FA
:1000C000CD270008CD270008CD270008CD27000840
:1000D000CD270008250C0008CD270008CD270008F3
:1000E000CD270008CD270008CD270008CD27000820
:1000F000CD270008CD270008CD270008CD27000810
:10010000CD270008CD270008350C0008CD270008B2
:10011000CD270008CD270008450C0008CD27000892
:10012000CD270008CD270008CD270008CD270008DF
:10013000CD270008CD270008CD270008CD270008CF
:10014000CD270008CD270008CD270008CD270008BF
:10015000CD270008CD270008CD270008CD270008AF
:10016000CD270008CD270008CD270008CD2700089F
:10017000CD270008CD270008CD270008000000008B
:08018000CD270008CD2700087F
:1001900010B5054C237833B9044B13B10448AFF3C1
:1001A00000800123237010BD7000002000000000BB
:1001B000C037000808B5034B1BB103490348AFF330
:1001C000008008BD0000000074000020C037000857
:1001D00001F0FF01102A2BDB10F0070F08D010F8F8
:1001E000013B013A8B422DD010F0070F42B3F6D1FC
:1001F000F0B441EA012141EA014122F007047FF015
:1002000000070023F0E80256083C85EA010586EA6B
:10021000010685FA47F5A3FA87F586FA47F6A5FAA7
:1002200087F68EB9EED1F0BC01F0FF0102F00702B3
:1002300032B110F8013B013A83EA010313B1F8D15E
:100240000020704701387047002D06BF354603383F
:10025000073815F0010F07D1013015F4807F02BF78
:10026000013015F4C03F0130F0BC0138704700BFC9
:1002700053B94AB9002908BF00281CBF4FF0FF310D
:100280004FF0FF3000F074B9ADF1080C6DE904CE09
:1002900000F006F8DDF804E0DDE9022304B0704761
:1002A0002DE9F047089D04468E46002B4DD18A4229
:1002B000944669D9B2FA82F252B101FA02F3C2F15C
:1002C000200120FA01F10CFA02FC41EA030E9440ED
:1002D0004FEA1C48210CBEFBF8F61FFA8CF708FB0E
:1002E00016E341EA034306FB07F199420AD91CEBE6
:1002F000030306F1FF3080F01F81994240F21C8118
:10030000023E63445B1AA4B2B3FBF8F008FB10335F
:1003100044EA034400FB07F7A7420AD91CEB040494
:1003200000F1FF3380F00A81A74240F20781644464
:10033000023840EA0640E41B00261DB1D4400023E9
:10034000C5E900433146BDE8F0878B4209D9002D4D
:1003500000F0EF800026C5E9000130463146BDE8D7
:10036000F087B3FA83F6002E4AD18B4202D3824241
:1003700000F2F980841A61EB030301209E46002DF0
:10038000E0D0C5E9004EDDE702B9FFDEB2FA82F245
:10039000002A40F09280A1EB0C014FEA1C471FFAA3
:1003A0008CFE0126200CB1FBF7F307FB131140EA8A
:1003B00001410EFB03F0884208D91CEB010103F157
:1003C000FF3802D2884200F2CB804346091AA4B219
:1003D000B1FBF7F007FB101144EA01440EFB00FEED
:1003E000A64508D91CEB040400F1FF3102D2A64552
:1003F00000F2BB800846A4EB0E0440EA03409CE7F1
:10040000C6F12007B34022FA07FC4CEA030C20FA9D
:1004100007F401FA06F31C43F9404FEA1C4900FABD
:1004200006F3B1FBF9F8200C1FFA8CFE09FB18113A
:1004300040EA014108FB0EF0884202FA06F20BD9AD
:100440001CEB010108F1FF3A80F08880884240F2FD
:100450008580A8F102086144091AA4B2B1FBF9F041
:1004600009FB101144EA014100FB0EFE8E4508D93C
:100470001CEB010100F1FF346CD28E456AD90238C1
:10048000614440EA0840A0FB0294A1EB0E01A142A6
:10049000C846A64656D353D05DB1B3EB080261EB14
:1004A0000E0101FA07F722FA06F3F1401F43C5E9EE
:1004B000007100263146BDE8F087C2F12003D84024
:1004C0000CFA02FC21FA03F3914001434FEA1C4766
:1004D0001FFA8CFEB3FBF7F007FB10360B0C43EA58
:1004E000064300FB0EF69E4204FA02F408D91CEB08
:1004F000030300F1FF382FD29E422DD90238634406
:100500009B1B89B2B3FBF7F607FB163341EA0341A5
:1005100006FB0EF38B4208D91CEB010106F1FF38F4
:1005200016D28B4214D9023E6144C91A46EA0046EB
:1005300038E72E46284605E70646E3E61846F8E67D
:100540004B45A9D2B9EB020864EB0C0E0138A3E7C6
:100550004646EAE7204694E74046D1E7D0467BE7A7
:10056000023B614432E7304609E76444023842E71F
:10057000704700BF84B000220092154B196B41F008
:1005800010011963196B01F010010091009901929B
:10059000196B41F080011963196B01F08001019121
:1005A00001990292196B41F001011963196B01F075
:1005B00001010291029903921A6B42F002021A633E
:1005C0001B6B03F002030393039B04B0704700BF4F
:1005D0000038024072B6FEE700B58DB0242200213B
:1005E00003A802F019F900230193029311484FF078
:1005F00080420260436083604FF45252C2600361E4
:1006000083610323039301230593099303A900F056
:10061000BBFF50B900230193029301A9054801F0E3
:10062000FDF820B90DB05DF804FBFFF7D3FFFFF72D
:10063000D1FF00BFCC01002000B58DB024220021E5
:1006400003A802F0E9F80023019302931048114A2D
:100650000260436083604FF45252C2600361836161
:100660000323039301230593099303A900F08CFF4F
:1006700050B900230193029301A9054801F0CEF877
:1006800020B90DB05DF804FBFFF7A4FFFFF7A2FF50
:100690000C0200200004004000B58DB0242200218F
:1006A00003A802F0B9F80023019302931048114AFD
:1006B0000260436083604FF45252C2600361836101
:1006C0000323039301230593099303A900F05CFF1F
:1006D00050B900230193029301A9054801F09EF847
:1006E00020B90DB05DF804FBFFF774FFFFF772FF50
:1006F0004C0200200008004000B58DB024220021EB
:1007000003A802F089F80023019302931048114ACC
:100710000260436083604FF45252C26003618361A0
:100720000323039301230593099303A900F02CFFEE
:1007300050B900230193029301A9054801F06EF816
:1007400020B90DB05DF804FBFFF744FFFFF742FF4F
:100750008C020020000C004000B583B00023009301
:1007600001930E480E4A026053224260836042F2B7
:100770000F72C260836100F0D3FE50B90023009372
:1007800001936946054801F049F820B903B05DF8C6
:1007900004FBFFF71FFFFFF71DFF00BFCC02002087
:1007A0000010004000B589B0002301930293039329
:1007B00004930593069307931648174A026040F680
:1007C0001F524260836040F2E732C260036183617E
:1007D00000F0C0FEB8B96023019300220292039298
:1007E000059201A90B4800F059FF70B904220DEBE6
:1007F0000201084800F052FF48B9064800F0C4FB67
:1008000009B05DF804FBFFF7E5FEFFF7E3FEFFF735
:10081000E1FE00BF0C0300200040014000B589B09C
:100820000023019302930393049305930693079384
:100830001548164A026010224260836040F2E73297
:10084000C2600361836100F06BFEB0B90E4800F036
:1008500081FEA0B9602301934FF4FA730293002242
:100860000392059201A9084800F018FF48B906480C
:1008700000F08AFB09B05DF804FBFFF7ABFEFFF761
:10088000A9FEFFF7A7FE00BF8C0000200044014036
:1008900000B589B000230193029303930493059359
:1008A000069307931448154A026010224260836041
:1008B00040F2E732C2600361836100F031FEA0B90B
:1008C0000D4800F047FE90B9602301930022029288
:1008D0000392059201A9084800F0E0FE48B90648D5
:1008E00000F052FB09B05DF804FBFFF773FEFFF761
:1008F00071FEFFF76FFE00BFCC00002000480140F2
:1009000000B589B0002301930293039304930593E8
:10091000069307931648174A026040F28F624260BE
:10092000836040F2E732C2600361836100F012FE2F
:10093000B8B960230193002202920392059201A9A3
:100940000B4800F0ABFE70B904220DEB0201084821
:1009500000F0A4FE48B9064800F016FB09B05DF8A7
:1009600004FBFFF737FEFFF735FEFFF733FE00BF4E
:100970000C0100200018004000B589B0002301934D
:100980000293039304930593069307931448154A1F
:10099000026008224260836040F2E732C260036175
:1009A000836100F0BDFDA0B90D4800F0D3FD90B902
:1009B00060230193002202920392059201A9084844
:1009C00000F06CFE48B9064800F0DEFA09B05DF8A8
:1009D00004FBFFF7FFFDFFF7FDFDFFF7FBFD00BF89
:1009E0004C010020001C004000B589B00023019399
:1009F0000293039304930593069307931448154AAF
:100A0000026008224260836040F2E732C260036104
:100A1000836100F085FDA0B90D4800F09BFD90B901
:100A200060230193002202920392059201A90848D3
:100A300000F034FE48B9064800F0A6FA09B05DF8A7
:100A400004FBFFF7C7FDFFF7C5FDFFF7C3FD00BFC0
:100A50008C0100200020004008B50A480A4B0360C2
:100A60004FF4E133436000238360C36003610C22D1
:100A700042618361C36101F049FD00B908BDFFF720
:100A8000A9FD00BF4C0300200010014000B595B047
:100A90003022002108A801F0BFFE00230393049335
:100AA00005930693079301931F4A116C41F08051FF
:100AB0001164126C02F080520192019A02931B4A57
:100AC000116841F480411160126802F48042029280
:100AD000029A0222089201210B9110210C910E9290
:100AE0000F9308231093A8231193129204231393B6
:100AF00008A800F0DBFE98B90F23039302230493A8
:100B0000002305934FF4A05306934FF480530793AB
:100B1000052103A801F02AF920B915B05DF804FBFE
:100B2000FFF758FDFFF756FD003802400070004007
:100B300008B501F07FFBFFF7A9FFFFF71BFDFFF7EB
:100B40004BFDFFF779FDFFF7A7FDFFF7D5FDFFF799
:100B500003FEFFF727FEFFF761FEFFF799FEFFF7A1
:100B6000CFFEFFF709FFFFF73FFFFFF775FF174CB9
:100B70003C21204600F030FE2268D36843F0010398
:100B8000D360134800F094FB124D0021284600F07A
:100B900003FE0421284600F0FFFD23684FF4D252E3
:100BA0005A620D4B4FF4FA725A634FF4FA6001F037
:100BB0006DFB094C46F63803A3624FF4FA6001F06E
:100BC00065FB4FF4BE73A362EFE700BFCC010020CA
:100BD000CC0200200C03002000400140FEE7FEE7AD
:100BE000FEE7FEE7FEE770477047704708B501F083
:100BF0003BFB08BD08B5024800F070FB08BD00BF14
:100C0000CC01002008B5024800F068FB08BD00BF19
:100C10000C02002008B5024800F060FB08BD00BFD0
:100C20004C02002008B5024801F0FEFC08BD00BFE0
:100C30004C03002008B5024800F050FB08BD00BF7F
:100C40008C02002008B54FF08043596A4FF4D2520D
:100C50005A62A1F5D251034801F0E6FD024800F0C6
:100C60003DFB08BDD8370008CC02002000B583B09A
:100C7000002100910C4B5A6C42F480425A645A6C29
:100C800002F480420092009A01911A6C42F0805264
:100C90001A641B6C03F080530193019B052001F043
:100CA00037FA03B05DF804FB0038024070B58EB02F
:100CB000002309930A930B930C930D930368B3F1EC
:100CC000804F0BD0604A934246D0604A93426BD02B
:100CD0005F4A934200F090800EB070BD00240094F3
:100CE00003F50E331A6C42F001021A641A6C02F01A
:100CF00001020092009A01941A6B42F001021A63F9
:100D00001A6B02F001020192019A02941A6B42F0EE
:100D100002021A631B6B03F002030293029B20235F
:100D2000099302260A9601250D9509A9494801F063
:100D3000F3F8082309930A960B940C940D9509A9CE
:100D4000454801F0E9F82A4629461C2001F0F2F94D
:100D50001C2001F027FABFE7002103913F4B1A6CDA
:100D600042F002021A641A6C02F002020392039A21
:100D700004911A6B42F002021A631B6B03F0020328
:100D80000493049B3023099302240A940D9409A927
:100D9000314801F0C1F8224601211D2001F0CAF9B5
:100DA0001D2001F0FFF997E7002105912B4B1A6CEC
:100DB00042F004021A641A6C02F004020592059AC9
:100DC00006911A6B42F002021A631B6B03F00203D6
:100DD0000693069BC023099302230A930D9309A946
:100DE0001D4801F099F8032201211E2001F0A2F90B
:100DF0001E2001F0D7F96FE700240794174B1A6CF7
:100E000042F008021A641A6C02F008020792079A6C
:100E100008941A6B42F001021A631B6B03F0010382
:100E20000893089B0323099302230A930D9309A9AE
:100E3000084801F071F822460121322001F07AF9C8
:100E4000322001F0AFF947E70004004000080040FD
:100E5000000C004000000240000402400038024044
:100E600000B587B003682D4A934218D02C4A9342AC
:100E70002AD02C4A934236D02B4A934240D02B4A58
:100E800093422DD100230593294B1A6C42F48072B2
:100E90001A641B6C03F480730593059B20E0002308
:100EA0000193234B1A6C42F010021A641B6C03F07E
:100EB00010030193019B03220221362001F03AF92D
:100EC000362001F06FF90BE000230293184B5A6CA7
:100ED00042F400325A645B6C03F400330293029BC9
:100EE00007B05DF804FB00230393114B5A6C42F4E6
:100EF00080225A645B6C03F480230393039BEFE727
:100F0000002304930A4B1A6C42F080021A641B6C93
:100F100003F080030493049BE2E700BF001000404D
:100F20000044014000480140001C004000200040F7
:100F30000038024082B00368104A934204D0104A3D
:100F400093420ED002B07047002300930D4B5A6CB1
:100F500042F480325A645B6C03F480330093009B4C
:100F6000F0E700230193074B1A6C42F040021A6429
:100F70001B6C03F040030193019BE3E70040014039
:100F8000001800400038024000B58DB000230793E0
:100F9000089309930A930B930368514A934211D023
:100FA000504A934225D0504A93423AD04F4A9342F6
:100FB0004FD04F4A934264D04E4A934278D00DB0FE
:100FC0005DF804FB002301934B4B1A6B42F01002B7
:100FD0001A631B6B03F010030193019B60230793BB
:100FE0000223089303230B9307A9444800F094FFBE
:100FF000E5E700230293404B1A6B42F002021A63AA
:101000001B6B03F002030293029B4FF48073079360
:101010000223089303230B9307A9394800F07CFFB0
:10102000CDE700230393344B1A6B42F002021A639C
:101030001B6B03F002030393039B4FF400730793AE
:101040000223089303230B9307A92D4800F064FFA4
:10105000B5E700230493284B1A6B42F002021A638F
:101060001B6B03F002030493049B4FF4404307936C
:101070000223089309230B9307A9214800F04CFF92
:101080009DE7002305931C4B1A6B42F001021A6383
:101090001B6B03F001030593059B40230793022379
:1010A000089309230B9307A9164800F035FF86E73C
:1010B00000230693104B1A6B42F001021A631B6B5C
:1010C00003F001030693069B8023079302230893F2
:1010D00009230B9307A90B4800F01EFF6FE700BF21
:1010E0000040014000440140004801400018004019
:1010F000001C004000200040003802400010024068
:10110000000402400000024010B588B000230393A1
:101110000493059306930793026803F1804303F554
:1011200088339A4201D008B010BD0024019403F521
:1011300094335A6C42F010025A645A6C02F0100256
:101140000192019A02941A6B42F001021A631B6B1E
:1011500003F001030293029B4FF4C0630393022345
:101160000493032306930723079303A9054800F07C
:10117000D3FE22462146252000F0DCFF252001F089
:1011800011F8D0E70000024030B4036A23F00103F5
:101190000362036A4268846924F073040D682C4377
:1011A00023F0020C8B6843EA0C03104DA84203D0D5
:1011B00005F58065A84205D123F00803CD682B43CF
:1011C00023F00403094DA84203D005F58065A84229
:1011D00005D122F440724D692A438D692A43426049
:1011E00084614A684263036230BC7047000001407A
:1011F00030B4036A23F480730362036A4268C469EB
:1012000024F0730C0C6844EA0C0523F400738C681A
:1012100043EA0423114CA04203D004F58064A042A9
:1012200006D123F40063CC6843EA042323F48063EB
:101230000A4CA04203D004F58064A04207D122F4F6
:1012400040524C6942EA04128C6942EA041242603C
:10125000C5614A68C263036230BC70470000014048
:1012600030B4036A23F480530362036A4468C2699A
:1012700022F4E6420D6842EA052223F400538D6809
:1012800043EA0533094DA84203D005F58065A8421D
:1012900004D124F480444D6944EA85144460C26159
:1012A0004A680264036230BC704700BF000001401E
:1012B0000268D36843F00103D3600268936803F0C7
:1012C0000703062B03D0136843F0010313600020CB
:1012D00070477047704770477047704710B50446B5
:1012E00003681A6912F0020F11D0DA6812F0020FC7
:1012F0000DD06FF002021A610123037703689B6926
:1013000013F0030F70D0FFF7E6FF00232377236865
:101310001A6912F0040F12D0DA6812F0040F0ED01E
:101320006FF004021A610223237723689B6913F488
:10133000407F5FD02046FFF7CEFF0023237723684E
:101340001A6912F0080F12D0DA6812F0080F0ED0E6
:101350006FF008021A61042323772368DB6913F016
:10136000030F4ED02046FFF7B6FF002323772368F4
:101370001A6912F0100F12D0DA6812F0100F0ED0A6
:101380006FF010021A61082323772368DB6913F4D6
:10139000407F3DD02046FFF79EFF00232377236840
:1013A0001A6912F0010F03D0DA6812F0010F36D17A
:1013B00023681A6912F0800F03D0DA6812F0800FE8
:1013C00034D123681A6912F0400F03D0DA6812F0A2
:1013D000400F32D123681A6912F0200F03D0DA6867
:1013E00012F0200F30D110BDFFF774FF2046FFF739
:1013F00073FF8AE72046FFF76DFF2046FFF76CFF7B
:101400009BE72046FFF766FF2046FFF765FFACE746
:101410002046FFF75FFF2046FFF75EFFBDE76FF056
:1014200001021A612046FFF754FFC1E76FF0800206
:101430001A61204600F039FAC3E76FF040021A61E2
:101440002046FFF74AFFC5E76FF020021A612046E9
:1014500000F02AFAC7E700000368304A904212D031
:10146000B0F1804F0FD0A2F57C4290420BD002F534
:101470008062904207D002F58062904203D002F56C
:101480007842904203D123F070034A681343234A01
:1014900090422AD0B0F1804F27D0A2F57C429042F2
:1014A00023D002F5806290421FD002F58062904204
:1014B0001BD002F57842904217D002F5705290424C
:1014C00013D002F5806290420FD002F58062904204
:1014D0000BD0A2F59832904207D002F5806290427C
:1014E00003D002F58062904203D123F44073CA68AE
:1014F000134323F080034A69134303608B68C3627C
:101500000B688362054B984203D003F580639842D1
:1015100001D10B690363012343617047000001405F
:10152000B0B110B5044690F83D3063B1022384F8A1
:101530003D30214651F8040BFFF78EFF012384F85C
:101540003D30002010BD80F83C30FFF789FCEDE70E
:1015500001207047B0B110B5044690F83D3063B13A
:10156000022384F83D30214651F8040BFFF774FF45
:10157000012384F83D30002010BD80F83C30FFF797
:10158000D9FCEDE70120704700284CD0F8B50C4697
:10159000054690F83D30002B40D0022385F83D30C1
:1015A0002A68936823F4804323F007039360294655
:1015B00051F8040BFFF750FF29688A688B690E6A9F
:1015C0002068104323F4407C2CF0030CA268A3692C
:1015D00042EA032343EA0C0323F47C4323F0FC0395
:1015E000E269E76847EA022C4CEA030C226A13031B
:1015F000226943EA021343EA0C0326F0AA06626852
:10160000646942EA04123243886029688B612B685E
:101610001A62012385F83D300020F8BD80F83C3087
:10162000FFF744FBB9E701207047000030B4036ABC
:1016300023F010030362036A4468826922F4E642DD
:101640000D6842EA052223F020038D6843EA051362
:10165000114DA84203D005F58065A84206D123F0BC
:101660008003CD6843EA051323F040030A4DA842E6
:1016700003D005F58065A84207D124F440644D6984
:1016800044EA85048D6944EA8504446082614A68BD
:101690008263036230BC70470000014038B590F8A7
:1016A0003C30012B66D004460D46012380F83C30C7
:1016B000022380F83D300C2A1AD8DFE802F007191F
:1016C0001919201919193419191947000068FFF759
:1016D0005BFD2268936943F0080393612268936974
:1016E00023F0040393612268936929690B43936192
:1016F000012384F83D30002084F83C0038BD0068A8
:10170000FFF794FF2268936943F4006393612268B2
:10171000936923F48063936122689369296943EA9A
:1017200001239361E4E70068FFF762FD2268D36953
:1017300043F00803D3612268D36923F00403D36123
:101740002268D36929690B43D361D1E70068FFF7A9
:1017500087FD2268D36943F40063D3612268D369AB
:1017600023F48063D3612268D369296943EA0123A2
:10177000D361BDE70220C1E701F01F01012303FA95
:1017800001FC036A23EA0C030362036A02FA01F113
:101790000B4303627047000010B504460122006845
:1017A000FFF7EAFF23680B4A934203D002F58062F9
:1017B000934203D15A6C42F400425A6422689368FF
:1017C00003F00703062B03D0136843F001031360F3
:1017D000002010BD0000014010B5044661B104298D
:1017E00016D0012200210068FFF7C6FF0122042164
:1017F0002068FFF7C1FF04E0012200210068FFF725
:10180000BBFF2268136843F001031360002010BD82
:10181000012204210068FFF7AFFFF2E790F83C30A7
:10182000012B3DD010B4012380F83C30022380F816
:101830003D3003685A689C6822F0700C0A6842EADE
:101840000C025A600368174A93421AD0B3F1804FD2
:1018500017D0A2F57C42934213D002F580629342E6
:101860000FD002F5806293420BD002F5784293428A
:1018700007D002F57052934203D0A2F594329342FE
:1018800004D124F080044A6814439C60012380F84A
:101890003D30002380F83C3018465DF8044B70471B
:1018A000022070470000014070477047002800F098
:1018B000DA8170B582B00446036813F0010F3BD0A3
:1018C0009F4B9B6803F00C03042B2CD09C4B9B6814
:1018D00003F00C03082B21D06368B3F5803F4FD091
:1018E000B3F5A02F52D0964B1A6822F480321A60BA
:1018F0001A6822F480221A606368002B50D000F02E
:10190000BFFC05468E4B1B6813F4003F14D100F05A
:10191000B7FC401B6428F5D90320ABE1884B5B681A
:1019200013F4800FD8D0864B1B6813F4003F03D00C
:101930006368002B00F09981236813F0020F54D0E4
:101940007F4B9B6813F00C0F3ED07D4B9B6803F0E0
:101950000C03082B33D0E368002B68D0794B0122AD
:101960001A6000F08DFC0546754B1B6813F0020FE2
:1019700054D100F085FC401B0228F5D9032079E101
:101980006F4A136843F480331360B5E76C4B1A68F1
:1019900042F480221A601A6842F480321A60ABE77F
:1019A00000F06EFC0546664B1B6813F4003FC3D085
:1019B00000F066FC401B6428F5D903205AE1604B17
:1019C0005B6813F4800FC6D15D4B1B6813F0020FE8
:1019D00003D0E368012B40F04A81594A136823F091
:1019E000F803216943EAC1031360236813F0080F69
:1019F00042D063696BB3534B0122C3F8802E00F0D1
:101A00003FFC05464E4B5B6F13F0020F34D100F0E4
:101A100037FC401B0228F5D903202BE1484A136804
:101A200023F0F803216943EAC1031360DDE7454B66
:101A300000221A6000F024FC0546414B1B6813F09D
:101A4000020FD2D000F01CFC401B0228F5D9032065
:101A500010E13C4B0022C3F8802E00F011FC05463B
:101A6000374B5B6F13F0020F06D000F009FC401BF0
:101A70000228F5D90320FDE0236813F0040F77D086
:101A80002F4B1B6C13F0805F33D1002301932C4B41
:101A90001A6C42F080521A641B6C03F0805301935D
:101AA000019B0125284B1B6813F4807F23D0A3687A
:101AB000012B34D0052B38D0214B1A6F22F00102B4
:101AC0001A671A6F22F004021A67A368002B3DD030
:101AD00000F0D6FB06461A4B1B6F13F0020F46D1DF
:101AE00000F0CEFB801B41F288339842F3D90320EB
:101AF000C0E00025D6E7144A136843F480731360EE
:101B000000F0BEFB0646104B1B6813F4807FCED15D
:101B100000F0B6FB801B0228F5D90320AAE0084A92
:101B2000136F43F001031367CFE7054B1A6F42F0C1
:101B300004021A671A6F42F001021A67C5E700BF74
:101B400000380240000047420070004000F098FB5F
:101B500006464F4B1B6F13F0020F08D000F090FBAE
:101B6000801B41F288339842F3D9032082E0E5B923
:101B7000A369002B7DD0464A926802F00C02082A25
:101B800051D0022B17D0434B00221A6600F078FB8D
:101B900004463F4B1B6813F0007F42D000F070FBFF
:101BA000001B0228F5D9032064E0394A136C23F0A6
:101BB00080531364DCE7374B00221A6600F060FBA9
:101BC0000546334B1B6813F0007F06D000F058FB2E
:101BD000401B0228F5D903204CE0E369226A134335
:101BE000626A43EA8213A26A5208013A43EA024354
:101BF000E26A43EA0263264A5360264B01221A66D0
:101C000000F03EFB0446224B1B6813F0007F06D118
:101C100000F036FB001B0228F5D903202AE0002043
:101C200028E0002026E0012B26D0194B5B6803F446
:101C30008001E269914221D103F03F02216A8A4288
:101C40001ED1616A47F6C0721A408A421AD103F463
:101C50004032A16A8A4217D103F07063E26A93426C
:101C600014D1002006E001207047012002E001208D
:101C700000E0002002B070BD0120FBE70120F9E781
:101C80000120F7E70120F5E70120F3E70120F1E764
:101C9000003802400000474208B5314B9B6803F012
:101CA0000C03042B57D0082B57D12D4B5A6802F048
:101CB0003F025B6813F4800F2AD0294B5968C1F3A7
:101CC000881C4FEA4C11B1EB0C006EEB0E0E4FEA84
:101CD0008E1343EA90638101091A63EB0E03DB0064
:101CE00043EA5173C90011EB0C0C43F10003590294
:101CF00000234FEA4C2041EADC51FEF7B9FA184BB9
:101D00005B68C3F3014301335B00B0FBF3F025E0F4
:101D1000134B5968C1F3881C4FEA4C11B1EB0C000E
:101D20006EEB0E0E4FEA8E1343EA90638101091A9F
:101D300063EB0E03DB0043EA5173C90011EB0C0C9B
:101D400043F10003990200234FEA8C2041EA9C51A1
:101D5000FEF78EFAD3E7034800E0034808BD00BF52
:101D60000038024000127A000024F400002800F03D
:101D70009B8070B50D4604464F4B1B6803F00F0364
:101D80008B4208D2CBB24C4A1370136803F00F0396
:101D90008B4240F08B80236813F0020F17D013F0B2
:101DA000040F04D0454A936843F4E05393602368DA
:101DB00013F0080F04D0414A936843F460439360E2
:101DC0003E4A936823F0F003A1680B4393602368B5
:101DD00013F0010F32D06368012B21D09A1E012A23
:101DE00025D9364A126812F0020F61D033498A6849
:101DF00022F0030213438B6000F042FA06462F4B99
:101E00009B6803F00C036268B3EB820F16D000F0FE
:101E100037FA801B41F288339842F0D9032042E020
:101E2000264A126812F4003FE0D101203BE0234A29
:101E3000126812F0007FD9D1012034E01E4B1B68DC
:101E400003F00F03AB4207D9EAB21B4B1A701B68B1
:101E500003F00F03AB422DD1236813F0040F06D01B
:101E6000164A936823F4E053E1680B4393602368B8
:101E700013F0080F07D0114A936823F460432169D7
:101E800043EAC1039360FFF707FF0C4B9B68C3F362
:101E900003130B4AD35CD8400A4B18600A4B1868EE
:101EA00000F0A2F9002070BD012070470120FAE780
:101EB0000120F8E70120F6E7003C0240003802402C
:101EC000DC3700080800002004000020014B1868DF
:101ED000704700BF0800002008B5FFF7F7FF044B6C
:101EE0009B68C3F38223034AD35CD84008BD00BF7C
:101EF00000380240EC37000808B5FFF7E7FF044B55
:101F00009B68C3F34233034AD35CD84008BD00BF8B
:101F100000380240EC37000800230F2B00F2DA8073
:101F2000F0B583B03AE0072200E00022AA40324335
:101F30000234694D45F82420684A14686FEA0C029F
:101F400024EA0C054E6816F4803F01D04CEA0405E3
:101F5000624C2560646802EA04054E6816F4003F8E
:101F600001D04CEA04055D4C6560A46802EA0405F2
:101F70004E6816F4801F01D04CEA0405574CA5604A
:101F8000E46822404D6815F4001F01D04CEA0402B9
:101F9000524CE26001330F2B00F29A8001229A40EA
:101FA0000C6804EA020C32EA0404F3D14C68651EA2
:101FB000012D03D9112C01D0122C12D185685E009D
:101FC0000324B44025EA0405CC68B4402C43846063
:101FD000456825EA02054C68C4F300129A402A437A
:101FE0004260C5684FEA430E032404FA0EF4E2434C
:101FF00025EA04058C6804FA0EF42C43C4604C688E
:10200000022C01D0122C0FD1DD08083550F82570B4
:1020100003F00704A6000F24B44027EA04070C6964
:10202000B4403C4340F82540046814404A6802F03C
:10203000030202FA0EF2224302604A6812F0805F45
:10204000A8D000220192264A546C44F4804454647F
:10205000526C02F480420192019A9C08A51C1E4A0F
:1020600052F8256003F0030295000F22AA4026EAE9
:1020700002061C4A90423FF458AF02F5806290423B
:102080001AD002F58062904218D002F58062904228
:1020900016D002F58062904214D002F58062904220
:1020A00012D002F58062904210D002F58062904218
:1020B0003FF439AF082239E7012237E7022235E73A
:1020C000032233E7042231E705222FE706222DE71A
:1020D00003B0F0BD704700BF00380140003C014034
:1020E000003802400000024090F83530DBB2022B8D
:1020F00003D08023436501207047052380F83530E5
:102100000268136823F00103136000207047000089
:10211000074AD36823F4E0631B041B0C000200F49D
:10212000E060034343F0BF6343F40033D360704780
:1021300000ED00E000B5194BDB68C3F30223C3F1E7
:10214000070CBCF1040F28BF4FF0040C03F1040E80
:10215000BEF1060F18D9033B4FF0FF3E0EFA0CFC00
:1021600021EA0C0199400EFA03F322EA0303194312
:1021700000280BDB0901C9B200F1604000F56140A5
:1021800080F800135DF804FB0023E5E700F00F0082
:102190000901C9B2024B1954F4E700BF00ED00E099
:1021A00014ED00E0002807DB00F01F0240090123C6
:1021B0009340024A42F82030704700BF00E100E03F
:1021C0000138B0F1807F0BD24FF0E0235861054A0F
:1021D000F02182F823100020986107221A617047CD
:1021E0000120704700ED00E010B504460E4B187852
:1021F0004FF47A73B3FBF0F30C4A1068B0FBF3F0C2
:10220000FFF7DEFF68B90F2C01D901200AE0002298
:1022100021464FF0FF30FFF78DFF054B1C6000207B
:1022200000E0012010BD00BF0000002008000020D9
:102230000400002008B50B4B1A6842F400721A60C3
:102240001A6842F480621A601A6842F480721A6056
:102250000320FFF75DFF0020FFF7C6FFFEF706FD36
:10226000002008BD003C0240034A1168034B1B7864
:102270000B441360704700BF8C0300200000002057
:10228000014B1868704700BF8C03002038B5044626
:10229000FFF7F6FF0546B4F1FF3F02D0044B1B7871
:1022A0001C44FFF7EDFF401BA042FAD338BD00BF2E
:1022B000000000200268D36823F49073D3600268A2
:1022C000536923F001035361202380F83A307047AB
:1022D00090F83930DBB2212B01D00220704783689F
:1022E000B3F5805F17D0036A5A1C02621A7803683C
:1022F0005A60C38C9BB2013B9BB2C3844BB902684A
:10230000D36823F08003D3600268D36843F04003AE
:10231000D36000207047036A1B880268C3F3080378
:10232000536003691BB9036A02330362E1E7036A7E
:1023300001330362DDE7000038B504460268136923
:1023400023F44053C1680B4313618368026913434C
:1023500042691343C2691A430168CB6823F41643E8
:1023600023F00C031343CB600268536923F44073DA
:1023700081690B435361C369B3F5004F35D00368DE
:10238000604A934200F0918002F58062934200F02F
:102390008C80FFF7A1FD0021031849411B1841F172
:1023A0000001C90041EA5371DB00181863684FEA65
:1023B00083024FEA937341F10001FDF759FF524D3B
:1023C000A5FB00325109642303FB11031B013233C7
:1023D000A5FB03235B0903F0F00202EB011203F0FB
:1023E0000F03216813448B608AE00368454A9342D7
:1023F0002FD002F5806293422BD0FFF76DFD0023B2
:10240000021843EB0301121841F10001C90041EA2F
:102410005271D200101841F10001626892185B41BC
:10242000FDF726FF384DA5FB00325109642303FB5D
:102430001103DB003233A5FB03235B095A0002F4CE
:10244000F87202EB011203F00703216813448B605A
:1024500056E0FFF751FD0023021843EB0301121869
:1024600041F10001C90041EA5271D200101841F156
:102470000001626892185B41FDF7FAFE224DA5FB50
:1024800000325109642303FB1103DB003233A5FB47
:1024900003235B095A0002F4F87202EB011203F005
:1024A0000703216813448B602AE0FFF725FD002114
:1024B000031849411B1841F10001C90041EA537159
:1024C000DB00181863684FEA83024FEA937341F107
:1024D0000001FDF7CDFE0C4DA5FB00325109642330
:1024E00003FB11031B013233A5FB03235B0903F03C
:1024F000F00202EB011203F00F03216813448B601A
:1025000038BD00BF001001401F85EB5158B310B516
:10251000044690F839300BB3242384F8393022680C
:10252000D36823F40053D3602046FFF705FF2268E9
:10253000136923F4904313612268536923F02A033B
:1025400053612268D36843F40053D3600020E063F2
:10255000202384F8393084F83A3010BD80F83830C0
:10256000FEF7D2FDD8E701207047704708B5016833
:10257000CA6822F04002CA60202280F83920FFF7A2
:10258000F4FF002008BD704708B590F83A30DBB280
:10259000222B46D18368B3F5805F0FD003690BBB54
:1025A00003685A68836A591C81621A70C38D9BB292
:1025B000013B9BB2C385F3B1002008BD826A036969
:1025C00043B903685B68C3F308031380836A02336B
:1025D0008362EBE703685B68DBB21380836A0133D5
:1025E0008362E3E703685B68826A511C816203F0DF
:1025F0007F031370DAE70268D36823F02003D36007
:102600000268D36823F48073D3600268536923F0AF
:1026100001035361202380F83A30FFF7B4FF002014
:10262000CBE70220C9E7704710B50446026813687B
:10263000D168526913F00F0005D113F0200F02D0BA
:1026400011F0200F13D128B112F0010213D111F4AF
:10265000907F10D113F0800F02D011F0800F6CD159
:1026600013F0400F02D011F0400F6AD110BD204688
:10267000FFF78AFFFAE713F0010F06D011F4807F0D
:1026800003D0E06B40F00100E06313F0040F04D0CE
:102690001AB1E06B40F00200E06313F0020F04D0C7
:1026A0001AB1E06B40F00400E06313F0080F07D0AC
:1026B00011F0200F00D11AB1E26B42F00802E26380
:1026C000E26B002AD2D013F0200F02D011F0200FBD
:1026D00021D123685B6903F04003E26B12F0080F1D
:1026E00000D123B32046FFF7E5FD23685A6912F0B5
:1026F000400F18D05A6922F040025A61636B73B1DF
:10270000124A1A65606BFFF7EFFC0028AED0606BD1
:10271000036D9847AAE72046FFF736FFD9E7204622
:10272000FFF781FFA2E72046FFF77DFF9EE72046E7
:10273000FFF779FF0023E36398E72046FFF7C8FD22
:1027400094E72046FFF712FF90E700BF51270008EB
:1027500008B5806B0023C385C384FFF764FF08BD01
:10276000054BD3F8882042F47002C3F888204FF05C
:1027700000629A60704700BF00ED00E0DFF834D0DF
:10278000002103E00C4B5B58435004310B480C4BC9
:1027900042189A42F6D30B4A02E0002342F8043B67
:1027A000094B9A42F9D3FFF7DBFF00F011F8FEF76F
:1027B000BFF97047000002209C380008000000208C
:1027C0007000002070000020A4030020FEE700003D
:1027D00070B50D4D0D4C641BA4100026A64209D106
:1027E0000B4D0C4C00F0ECFF641BA4100026A6421D
:1027F00005D170BD55F8043B98470136EEE755F812
:10280000043B98470136F2E79438000894380008F2
:10281000943800089838000802440346934200D1D7
:10282000704703F8011BF9E70FB40A4B13B51C6896
:1028300024B1A36913B9204600F066F805AB049AE9
:10284000A1680193204600F0BDF902B0BDE8104038
:1028500004B070470C000020002310B50446C0E906
:102860000033C0E90433836081814366C2818361A0
:10287000194608225C30FFF7CFFF054B6362054B1A
:10288000A362054BE362054B2462236310BD00BFC6
:102890006D3100088F310008C7310008EB310008A6
:1028A000014900F0AFB800BFC534000870B5682218
:1028B0004D1E55430E4605F1740100F0E5F804463F
:1028C00040B10021C0E900160C30A06005F168029B
:1028D000FFF7A2FF204670BD014800F0B3B800BF6B
:1028E00091030020014800F0AEB800BF9103002022
:1028F000014800F0A7B800BF92030020014800F093
:10290000A2B800BF9203002010B50446FFF7F0FF05
:10291000A3691BB1BDE81040FFF7F0BFC4E9123353
:102920002365134B134A1B68A262A34204BF012311
:10293000A361204600F020F86060204600F01CF8FB
:10294000A060204600F018F80022E06004216068D2
:10295000FFF782FFA06801220921FFF77DFFE068F1
:1029600002221221FFF778FF0123A361D2E700BF03
:10297000F4370008A1280008F8B50746FFF7ACFFB8
:102980001E4B1E68B36913B93046FFF7BDFF4836CA
:10299000D6E90134013B03D533680BB33668F7E75A
:1029A000B4F90C50D5B9164BE36004F158006566D4
:1029B00000F047F8FFF796FFC4E90155C4E9045554
:1029C0002560A5610822294604F15C00FFF724FF79
:1029D000C4E90D55C4E912552046F8BD6834D9E75D
:1029E00004213846FFF762FF044630600028D5D145
:1029F000FFF778FF0C233B60EEE700BFF4370008D9
:102A00000100FFFF2DE9F8430646884600F148041F
:102A10000027D4E90195B9F1010905D52468002CF6
:102A2000F7D13846BDE8F883AB89012B07D9B5F952
:102A30000E30013303D029463046C047074368357E
:102A4000E9E770477047704770B50E4E0C46316825
:102A5000054611B900F07AFB30602146284600F0A7
:102A600075FB431C0AD0C41C24F00304A04207D009
:102A7000211A284600F06AFB013001D14FF0FF34E3
:102A8000204670BD980300202DE9F041CD1C25F0B3
:102A9000030508350C2D38BF0C25002D074601DB3A
:102AA000A94205D90C233B6000263046BDE8F081E1
:102AB0002E4E00F0BBFD33681C4634BB2946384619
:102AC000FFF7C2FF431C04464DD134682646002E52
:102AD00040D123683146384604EB030800F036FB4A
:102AE00080453AD1216803356D1A25F00305083574
:102AF0000C2D38BF0C2529463846FFF7A5FF0130BD
:102B00002BD023682B4423600EE02268521B1ED476
:102B10000B2A16D96119A342256018BF5960636852
:102B200008BF316062514B60384604F10B0600F07B
:102B300083FD26F00706231DF21AB6D09B1BA35077
:102B4000B3E76268A3420CBF32605A60ECE72346E9
:102B50006468B2E734467668B9E70C233B603846D0
:102B600000F06AFDA1E72560DEE700BF94030020C6
:102B70009368013B002B10B4936008DA9469A34278
:102B800001DB0A2903D15DF8044B00F033BB136865
:102B9000581C1060197008465DF8044B7047F8B572
:102BA00006460F461446D518AC4201D1002007E076
:102BB00014F8011B3A463046FFF7DAFF431CF3D105
:102BC000F8BD00002DE9F04F0D469DB01446984623
:102BD000064618B183690BB9FFF796FE894B9D42F3
:102BE0001BD175686B6ED90705D4AB899A0502D4E1
:102BF000A86DFFF727FFAB891B0701D52B69EBB940
:102C00002946304600F05AFBC0B16B6EDC070ED58A
:102C10004FF0FF301DB0BDE8F08F7B4B9D4201D1DE
:102C2000B568DFE7794B9D4208BFF568DAE7AB8905
:102C30009805EDD4A86DFFF706FFE9E70023099397
:102C400020238DF82930CDF80C803023DFF8C081A7
:102C50008DF82A304FF0010923469A4613F8012BCC
:102C60000AB1252AF9D1BAEB040B0BD05B462246F8
:102C700029463046FFF793FF013000F0AA80099AF9
:102C80005A4409929AF80030002B00F0A2800023E9
:102C90004FF0FF32CDE905230AF1010A04930793AF
:102CA0008DF853301A935446052214F8011B5848E6
:102CB000FDF78EFA049AD8B9D10644BF20238DF8C7
:102CC0005330130744BF2B238DF853309AF800304C
:102CD0002A2B15D0079A544600204FF00A0C2146A3
:102CE00011F8013B303B092B4ED9B0B1079214E0EB
:102CF000A0EB080309FA03F313430493A246D2E7B7
:102D0000039B191D1B680391002BBBBF5B4242F064
:102D1000020207930793B8BF049223782E2B0CD19D
:102D200063782A2B35D1039B1A1D1B680392002B55
:102D3000B8BF4FF0FF3302340593DFF8E4A02178E9
:102D400003225046FDF744FA40B14023A0EB0A00AD
:102D500003FA00F0049B03430134049314F8011BAD
:102D60002C488DF828100622FDF732FA00283FD0B3
:102D7000294B1BBB039B073323F007030833039343
:102D8000099B3B44099367E70CFB02320C46012088
:102D9000A5E700230134059319464FF00A0C20469D
:102DA00010F8012B303A092A03D9002BC5D0059120
:102DB000C3E70CFB012104460123F0E703AB0093BA
:102DC0002A46164B04A93046AFF300800746781C0C
:102DD000D6D16B6ED90705D4AB899A0502D4A86DFC
:102DE000FFF731FEAB895B063FF512AF099811E79B
:102DF00003AB00932A46094B04A9304600F080F843
:102E0000E4E700BF1838000838380008F837000831
:102E10005838000862380008000000009F2B0008A6
:102E20005E3800082DE9F047164699468A680B6916
:102E3000DDF820809342B8BF1346336091F84320F9
:102E400007460C460AB1013333602368990642BF36
:102E5000336802333360256815F0060506D104F1A6
:102E6000190AE36832689B1AAB4226DC94F84320C7
:102E7000131E226818BF012392062BD404F14302CB
:102E800049463846C04701301ED02368E56832689D
:102E900003F00603042B08BFAD1AA36822690CBF18
:102EA00025EAE57500259342C4BF9B1AED1800265C
:102EB0001A34B5421AD1002008E00123524649468F
:102EC0003846C047013003D14FF0FF30BDE8F087EE
:102ED0000135C6E7E1185A1C302081F8430022442E
:102EE00094F8451082F843100233C7E701232246C5
:102EF00049463846C0470130E6D00136D9E70000E0
:102F00002DE9FF470F7E0C9D782F914680460C4699
:102F10009A4601F1430207D8622F0AD8002F00F029
:102F2000D880582F00F0A38004F1420584F8427045
:102F30003AE0A7F16303152BF6D801A151F823F06D
:102F4000992F0008AD2F0008292F0008292F00080D
:102F5000292F0008292F0008AD2F0008292F00086D
:102F6000292F0008292F0008292F0008B930000850
:102F7000DD2F00089B300008292F0008292F0008AA
:102F8000DB300008292F0008DD2F0008292F00085A
:102F9000292F0008A33000082B681A1D1B682A601F
:102FA00004F1420584F842300123A3E02068296837
:102FB000060601F104030AD50E682B60002E03DA21
:102FC0002D23764284F843305E480A2319E00E68C8
:102FD0002B6010F0400F18BF36B2EFE72B68206867
:102FE000191D2960010601D51E6802E04606FBD5C1
:102FF0001E8854486F2F0CBF08230A23002184F831
:1030000043106568A560002DA2BF216821F004016E
:1030100021600EB9002D4DD01546B6FBF3F103FB30
:103020001167C75D05F8017D3746BB420E46F4D9EE
:10303000082B0BD12368DE0708D523696168994204
:10304000DEBF302305F8013C05F1FF35521B22613C
:10305000CDF800A04B4603AA21464046FFF7E2FE0A
:1030600001304CD14FF0FF3004B0BDE8F087354857
:1030700081F845702968236851F8046B29601D06A2
:1030800014D5DF0744BF43F0200323601EB9236833
:1030900023F0200323601023B0E7236843F02003CC
:1030A00023607823284884F84530E3E7590648BF71
:1030B000B6B2E6E71546BBE72B6826686169181DBE
:1030C000286035061B6801D5196002E07006FBD543
:1030D0001980002323611546BAE72B681A1D2A6060
:1030E0001D68626800212846FDF772F808B1401B90
:1030F000606063682361002384F84330A8E7236994
:103100002A4649464046D0470130ABD023689B074A
:1031100013D4E068039B9842B8BF1846A4E7012384
:10312000324649464046D04701309BD00135E368DE
:1031300003995B1AAB42F2DCEBE7002504F11906B8
:10314000F5E700BF693800087A38000838B5064D41
:103150000023044608462B6000F01CFB431C02D1F0
:103160002B6803B1236038BD9C03002010B50C46CA
:10317000B1F90E1000F0B2FA0028ABBF636DA3895D
:103180001B1823F48053ACBF6365A38110BD2DE9E8
:10319000F0411F468B89DB0505460C46164605D5D2
:1031A000B1F90E100223002200F0C8F9A389B4F986
:1031B0000E1023F48053A38132463B462846BDE8D7
:1031C000F04100F069B810B50C46B1F90E1000F0EE
:1031D000B5F9431CA38915BF606523F4805343F4FC
:1031E0008053A38118BFA38110BDB1F90E1000F068
:1031F000D3B80000F8B50E461446054618B18369E9
:103200000BB9FFF781FB214B9C422BD16C68A36962
:10321000A360A3891A072FD523696BB3236920689C
:10322000C01A6369F6B28342374604DC2146284659
:1032300000F048F930BBA368013BA36023685A1C27
:1032400022601E7063690130834204D0A389DB07CA
:1032500006D50A2E04D12146284600F033F988B954
:103260003846F8BD0A4B9C4201D1AC68CFE7094B08
:103270009C4208BFEC68CAE72146284600F01EF8C9
:103280000028CBD04FF0FF37EAE700BF183800081E
:1032900038380008F837000838B5074D04460846A6
:1032A000114600222A601A4600F082FA431C02D11D
:1032B0002B6803B1236038BD9C030020324B70B5EE
:1032C0001D6806460C4625B1AB6913B92846FFF7C1
:1032D0001BFB2E4B9C420FD16C68A389B4F90C20C8
:1032E00019072CD4DD0611D40923336042F04003C2
:1032F000A3814FF0FF303EE0254B9C4201D1AC68EA
:10330000EBE7244B9C4208BFEC68E6E7580712D570
:10331000616B41B104F14403994202D0304600F0A0
:1033200091F900236363A38923F02403A38100237D
:10333000636023692360A38943F00803A3812369A1
:103340004BB9A38903F42073B3F5007F03D0214662
:10335000304600F02BF9A089B4F90C2010F00103DD
:103360000AD00023A36063695B42A361236943B968
:1033700010F08000BAD170BD810758BF6369A360A7
:10338000F4E70020F7E700BF0C0000201838000821
:1033900038380008F837000838B5064D00230446D1
:1033A00008462B6000F0CEF9431C02D12B6803B114
:1033B000236038BD9C0300208A892DE9F041054631
:1033C00010070C4658D44B68002B05DC0B6C002B07
:1033D00002DC0020BDE8F081E66A002EF9D000236F
:1033E00012F480522F682B6032D0606DA3895A0787
:1033F00005D56368C01A636B0BB1236CC01A002338
:103400000246E66A216A2846B047431CA38906D1D2
:1034100029681D292CD82A4ACA40D60728D5002257
:103420006260D9042269226004D5421C01D12B6854
:1034300003B96065616B2F600029CAD004F14403B1
:10344000994202D0284600F0FDF800206063C1E7F1
:10345000216A01232846B047411CC7D12B68002BA5
:10346000C4D01D2B01D0162B01D12F60B1E7A38949
:1034700043F04003A381ADE70F69002FA9D0930764
:103480000E6808BF4B690F6018BF0023A6EB070842
:103490008B60B8F1000F9CDD216AA66A43463A466C
:1034A0002846B047002806DCA38943F04003A381E7
:1034B0004FF0FF308EE70744A8EB0008E9E700BFB4
:1034C0000100402038B50B6905460C4613B90025AC
:1034D000284638BD18B183690BB9FFF715FA144BAC
:1034E0009C421BD16C68B4F90C30002BEFD0626E9B
:1034F000D00704D4990502D4A06DFFF7A3FA28469B
:103500002146FFF759FF636EDA070546E0D4A38929
:103510009B05DDD4A06DFFF796FAD9E7054B9C42D9
:1035200001D1AC68DFE7044B9C4208BFEC68DAE7E6
:103530001838000838380008F837000838B5074D43
:1035400004460846114600222A601A4600F012F985
:10355000431C02D12B6803B1236038BD9C030020BB
:1035600070B50E46B1F90E10002996B014461D46EE
:1035700008DAB6F90C3000222A601A0610D44FF48B
:1035800080630EE06A4600F0BBF80028F1DB019A88
:1035900002F47042A2F500535A425A412A60EEE703
:1035A00040230020236016B070BD00008B8973B5E6
:1035B0009D0706460C4607D504F1470323602361A7
:1035C0000123636102B070BD01AB6A46FFF7C8FF1B
:1035D000009905463046FFF757FA48B9B4F90C3060
:1035E0009A05EFD423F0030343F00203A381E3E73A
:1035F0000D4BB362A389206043F08003A381009B3D
:103600006361019B20615BB1B4F90E10304600F09C
:1036100089F828B1A38923F0030343F00103A381B0
:10362000A0890543A581CDE7A12800080148FFF73F
:1036300009BA00BF900300200148FFF704BA00BF99
:103640009003002037B5002944D051F8043C019084
:10365000002BA1F10404B8BFE418FFF7E7FF1E4AEE
:103660000198136833B96360146003B0BDE830405B
:10367000FFF7E2BFA34208D9256861198B4201BF59
:1036800019685B6849192160EDE71A465B680BB160
:10369000A342FAD911685518A5420BD124682144D8
:1036A0005418A3421160E0D11C685B685360214448
:1036B0001160DAE702D90C230360D6E725686119A7
:1036C0008B4204BF19685B68636004BF49192160BD
:1036D0005460CAE703B030BD9403002038B5074DED
:1036E00004460846114600222A601A4600F04AF8AD
:1036F000431C02D12B6803B1236038BD9C0300201A
:1037000038B5074D00230446084611462B6000F0EB
:1037100021F8431C02D12B6803B1236038BD00BFE0
:103720009C03002038B5064D0023044608462B6054
:1037300000F018F8431C02D12B6803B1236038BD98
:103740009C030020024B58221A604FF0FF30704754
:103750009C030020024B58221A604FF0FF30704744
:103760009C030020024B58221A600020704700BFC3
:103770009C030020024B58221A604FF0FF30704724
:103780009C030020024B58221A604FF0FF30704714
:103790009C030020044A05491368002B08BF0B4610
:1037A0001844106018467047A0030020A8030020AA
:1037B000024B58221A604FF0FF3070479C030020E4
:1037C000F8B500BFF8BC08BC9E467047F8B500BF0E
:0837D000F8BC08BC9E467047DE
:1037D80025640A0000000000000000000102030444
:1037E8000607080900000000010203041000002079
:1037F80000000000000000000000000000000000C1
:1038080000000000000000000000000000000000B0
:1038180000000000000000000000000000000000A0
:103828000000000000000000000000000000000090
:103838000000000000000000000000000000000080
:103848000000000000000000000000000000000070
:10385800232D302B2000686C4C0065666745464771
:1038680000303132333435363738394142434445F4
:103878004600303132333435363738396162636463
:043888006566000071
:08388C0014CAFF7F01000000D7
:04389400B501000872
:043898009101000892
:10389C0001000000100000000024F40010000020C3
:1038AC00000000001838000838380008F837000805
:1038BC0000000000000000000000000000000000FC
:1038CC0000000000000000000000000000000000EC
:1038DC0000000000000000000000000000000000DC
:1038EC0000000000000000000000000000000000CC
:1038FC0000000000000000000000000000000000BC
:040000050800277D4B
:00000001FF
