:020000040800F2
:1000000018000224AD0200084D230008B9220008A0
:1000100049230008190300082128000800000000F7
:100020000000000000000000000000001D26000885
:100030001D03000800000000512300081F260008CF
:10004000C7020008C7020008C7020008C70200086C
:10005000C7020008C7020008C7020008C70200085C
:10006000C7020008C7020008C7020008C70200084C
:10007000C7020008C7020008C7020008C70200083C
:10008000C7020008C7020008C7020008C70200082C
:10009000C7020008C7020008C7020008C70200081C
:1000A000C7020008C7020008C7020008C70200080C
:1000B000C7020008C7020008C7020008C7020008FC
:1000C000C7020008C7020008C7020008C7020008EC
:1000D000C7020008C7020008C7020008C7020008DC
:1000E000C7020008C702000800000000C70200089D
:1000F000C7020008C7020008C7020008C7020008BC
:10010000C7020008C7020008C7020008C7020008AB
:10011000C7020008C7020008C7020008C70200089B
:10012000C7020008C7020008C7020008C70200088B
:10013000C7020008C7020008C7020008C70200087B
:1001400000000000000000000000000000000000AF
:10015000C7020008C7020008C7020008C70200085B
:10016000C7020008C7020008C7020008C70200084B
:10017000C7020008C7020008C7020008C70200083B
:10018000C7020008C7020008C7020008C70200082B
:10019000C7020008C7020008C7020008C70200081B
:1001A000C7020008C7020008C7020008C70200080B
:1001B000C7020008C7020008C7020008C7020008FB
:1001C000C7020008C7020008C7020008C7020008EB
:1001D000C7020008C7020008C7020008C7020008DB
:1001E000C7020008C7020008C7020008C7020008CB
:1001F000C7020008C7020008C7020008C7020008BB
:10020000C7020008C7020008C7020008C7020008AA
:10021000C7020008C7020008C7020008C70200089A
:10022000C7020008C7020008C7020008000000005B
:10023000C7020008C702000800000000C70200084B
:10024000C7020008C7020008C7020008C70200086A
:10025000C7020008C7020008C7020008C70200085A
:10026000C7020008C7020008C7020008C70200084A
:10027000C7020008C7020008C7020008000000000B
:10028000C7020008C7020008C702000800000000FB
:1002900000000000C7020008DFF80CD000F02AF8C8
:1002A000004800477D2800081800022406488047BF
:1002B00006480047FEE7FEE7FEE7FEE7FEE7FEE74B
:1002C000FEE7FEE7FEE7FEE72527000899020008A3
:1002D000D2B201E000F8012B491EFBD27047002288
:1002E000F6E710B513460A4604461946FFF7F0FF35
:1002F000204610BD064C074D06E0E06840F00103C3
:1003000094E8070098471034AC42F6D3FFF7C8FFD3
:10031000B4280008D428000800BFFEE7704772B672
:1003200000BFFEE770B5044600F01AF90646254600
:10033000681C10B104480078054400BF00F010F9B3
:10034000801BA842FAD370BD08000024F8B502460D
:100350000B4600216F4DD7E001278F401E6806EA4B
:100360000704002C72D01E7906F00306012E04D07B
:100370001E7906F00306022E13D190684F00032663
:10038000BE40B0434F00DE68BE40304390605068CE
:1003900001268E40B0431E79C6F300168E403043CE
:1003A00050601E7906F00306032E09D0D0684F0076
:1003B0000326BE40B0434F009E68BE403043D0602D
:1003C0001E7906F00306022E13D1CF0802F1200693
:1003D00056F827004E07F70E0F26BE40B0434F07D2
:1003E000FF0E1E69BE403043CF0802F1200646F8DA
:1003F000270010684F000326BE40B0431E7906F068
:1004000003064F00BE40304310605E6806F440367D
:10041000002E78D000BF404E366846F002063E4FB0
:100420003E603E46366806F00206009600BF00BFFA
:100430003A4E8F0856F827008E07370F0F26BE401A
:10044000B043374EB24202D100262EE05BE0354E7B
:10045000B24201D1012628E0334EB24201D1022638
:1004600023E0324EB24201D103261EE0304EB242AA
:1004700001D1042619E02F4EB24201D1052614E025
:100480002D4EB24201D106260FE02C4EB24201D1D0
:1004900007260AE02A4EB24201D1082605E0294E7D
:1004A000B24201D1092600E00A268F073F0FBE4065
:1004B00030431A4E8F0846F827004FF0B046306898
:1004C000A0435E6806F4801606B120434FF0B046A4
:1004D00030607068A0435E6806F4001606B12043E1
:1004E0004FF0B04670606868A0435E6806F400365E
:1004F00006B1204368602868A0435E6806F4803631
:1005000006B120432860491C1E68CE40002E7FF4AF
:1005100023AFF8BD80000058F44402580804005886
:10052000000002580004025800080258000C02584B
:10053000001002580014025800180258001C0258FB
:1005400000200258002402580AB1816101E00B0426
:100550008361704701480068000C70470010005C20
:10056000014800687047000000000024034800684C
:1005700003490978084401490860704700000024D5
:100580000800002410B5032000F0A8F801F038F9A5
:1005900010490968C1F303210F4A515C01F01F01A2
:1005A00020FA01F40B48006800F00F001146085CC7
:1005B00000F01F0024FA00F00849086008480460B1
:1005C0000F2000F00FF808B1012010BD00F036F840
:1005D0000020FAE718440258A4280008100000245C
:1005E0000C00002470B504461148007808B90120B9
:1005F00070BD0F4800784FF47A71B1FBF0F00D49EF
:100600000968B1FBF0F5284601F03CFE08B1012075
:10061000EEE7102C07D200222146501E00F020F8F1
:100620000548046001E00120E2E70020E0E7000067
:10063000080000240C0000240400002408B500BFBA
:100640000648006840F00200044908600846006857
:1006500000F00200009000BF00BF08BDF444025843
:100660002DE9F05F80460D46164602F0DBF807469E
:1006700039462A46334601F00700C0F1070ABAF1AD
:10068000040F02D94FF0040A01E0C0F1070AD14675
:1006900000F1040ABAF1070F02D24FF0000A01E09C
:1006A000A0F1030AD4464FF0010A0AFA09FAAAF1A6
:1006B000010A0AEA020A0AFA0CFA4FF0010B0BFAD5
:1006C0000CFBABF1010B0BEA030B4AEA0B042146CE
:1006D000404602F0AFF8BDE8F09F000000BF00F018
:1006E0000702064B19684FF6FF031940044B0B43F2
:1006F00043EA0221014B196000BF70470CED00E096
:100700000000FA0570B5044615480068C0F3800083
:1007100048B91348006800F00700A04201D001204A
:1007200070BD0020FCE70E48006820F00700204361
:100730000B490860FFF714FF054607E0FFF710FFBD
:10074000401BB0F57A7F01D90120E9E70448083859
:100750000068C0F340300028F0D00020E0E700003F
:100760000C4802580348006840F080700149086056
:10077000704700000C4802582DE9F041044600255E
:10078000A8464FF00062D4E9001011400020134643
:1007900059404040014331D1A06E48B1B0F5801FAF
:1007A0000DD0B0F5001F11D0B0F5401F16D114E0E8
:1007B000F948006840F40030F749086010E0022171
:1007C00004F1080001F0C6FD054609E0022104F12C
:1007D000280001F071FE054602E001E0012500BF9E
:1007E00000BF55B9EC482430006820F44010A16ED9
:1007F0000843E9492431086000E0A8464FF48073BB
:10080000D4E90010194000205940404001432ED146
:10081000A06D05281BD2DFE800F0030A11181900AB
:10082000DD48006840F40030DB49086011E0002139
:1008300004F1080001F08EFD05460AE0002104F1F4
:10084000280001F039FE054603E002E001E0012541
:1008500000BF00BF55B9D0482430006820F0070021
:10086000A16D0843CC492431086000E0A8464FF44C
:100870000073D4E900101940002059404040014362
:1008800034D1E06D802818D003DC40B140281DD160
:100890000CE0C02818D0B0F5807F17D115E0BE4815
:1008A000006840F40030BC49086011E0002104F108
:1008B000080001F04FFD05460AE0002104F1280080
:1008C00001F0FAFD054603E002E001E0012500BF6A
:1008D00000BF55B9B0482430006820F4E070E16DE5
:1008E0000843AD492431086000E0A8464FF4806316
:1008F000D4E900101940002059404040014339D14B
:10090000D4F8A800B0F5800F1AD004DC50B1B0F5CF
:10091000001F1ED10DE0B0F5C00F18D0B0F5000FCC
:1009200017D115E09C48006840F400309A490860EF
:1009300011E0002104F1080001F00CFD05460AE079
:10094000002104F1280001F0B7FD054603E002E0B4
:1009500001E0012500BF00BF5DB98F482C30006861
:1009600020F46000D4F8A81008438B492C310860AB
:1009700000E0A8464FF40062D4E9001011400020C6
:10098000134659404040014339D1D4F8AC00B0F18E
:10099000007F1AD004DC50B1B0F1807F1ED10DE091
:1009A000B0F1407F18D0B0F1806F17D115E07A48D0
:1009B000006840F400307849086011E0002104F13B
:1009C000080001F0C7FC05460AE0002104F12800F8
:1009D00001F072FD054603E002E001E0012500BFE1
:1009E00000BF5DB96C482C30006820F0E060D4F89E
:1009F000AC10084368492C31086000E0A8464FF06D
:100A00000073D4E9000118400021584049400843D0
:100A100028D1E06CA8B1102804D0202809D03028B3
:100A200010D10DE05C48006840F400305A4908607D
:100A30000AE0022104F1080001F08CFC054603E005
:100A400002E001E0012500BF00BF55B95248203047
:100A5000006820F03000E16C08434F492031086005
:100A600000E0A8464FF48053D4E90010194000205C
:100A700059404040014337D1206EB0F5005F1AD095
:100A800004DC50B1B0F5805F1ED10DE0B0F5405FE1
:100A900018D0B0F5804F17D115E03F48006840F4FA
:100AA00000303D49086011E0002104F1080001F028
:100AB00051FC05460AE0002104F1280001F0FCFC8D
:100AC000054603E002E001E0012500BF00BF55B983
:100AD00031482430006820F4E040216E08432E495C
:100AE0002431086000E0A8464FF40053D4E9001018
:100AF0001940002059404040014335D1606EB0F5A7
:100B0000403F1ED007DC68B1B0F5803F0BD0B0F598
:100B1000003F19D10EE0B0F5802F13D0B0F5A02F13
:100B200012D110E012E0012104F1080001F012FCE2
:100B300005460BE0012104F1280001F0BDFC05464B
:100B400004E003E002E001E0012500BF00BF55B969
:100B500011482430006820F4E020616E08430E49FB
:100B60002431086000E0A8464FF48043D4E9000136
:100B70001840002158404940084337D1D4F8B0000C
:100B8000B0F1405F20D009DC78B1B0F1805F0DD0CA
:100B9000B0F1005F1BD110E02C440258B0F1804F3F
:100BA00013D0B0F1A04F12D110E012E0012104F1F6
:100BB000080001F0CFFB05460BE0012104F12800FD
:100BC00001F07AFC054604E003E002E001E00125C3
:100BD00000BF00BF4DB9FE48006820F0E040D4F8E7
:100BE000B0100843FA49086000E0A8464FF40042FC
:100BF000D4E9001011400020134659404040014301
:100C000029D1206FB0B1B0F1805F03D0B0F1005FA7
:100C100011D108E0EE482C38006840F40030EC496F
:100C20002C39086009E0012104F1080001F092FB71
:100C3000054602E001E0012500BF00BF55B9E448C8
:100C40000838006820F04050216F0843E049083917
:100C5000086000E0A8464FF08072D4E9001011400F
:100C6000002013465940404001432AD1A06CB8B13E
:100C7000012804D002280BD0032812D10FE0D44859
:100C80002C38006840F40030D1492C3908600AE063
:100C9000022104F1080001F05DFB054603E002E0DB
:100CA00001E0012500BF00BF55B9C9480C380068F4
:100CB00020F00300A16C0843C5490C39086000E02E
:100CC000A8464FF48002D4E90001104000211346E9
:100CD0005840494008437DD1BE48006840F48070C8
:100CE000BC490860FFF73CFC064606E0FFF738FC0D
:100CF000801B642801D9032505E0B648006800F48C
:100D000080700028F2D000BF85BBB1481830006861
:100D100000F44070B4F8B41001F44071884213D06C
:100D2000AB481830006820F44077A94818300068B4
:100D300040F48030A649183108600846006820F465
:100D40008030086008460760D4F8B400B0F5807FB2
:100D500015D1FFF705FC064609E0FFF701FC801BF3
:100D600041F28831884202D9032507E038E09848EB
:100D700018300068C0F340000028EED000BF55BB1B
:100D800000BFB4F8B40000F44070B0F5407F0ED15D
:100D90008F484838006820F47C518F4AD4F8B4005A
:100DA000104041EA10108A494839086007E0884835
:100DB0004838006820F47C508549483908608448E8
:100DC00018300068B4F8B410C1F30B01084380492F
:100DD000183101E005E001E0086002E0A84600E00B
:100DE000A8460122D4E900011040002113465840D2
:100DF0004940084330D1E06F18281AD005DC48B1CB
:100E0000082808D0102817D10CE0202812D0282854
:100E100012D110E012E0012104F1080001F09AFA69
:100E200005460BE0012104F1280001F045FB0546D1
:100E300004E003E002E001E0012500BF00BF55B976
:100E40006348001F006820F03800E16F08436049E4
:100E5000091F086000E0A8460222D4E90001104002
:100E60000021134658404940084329D1A06F062865
:100E700016D2DFE800F003040B12131412E0012174
:100E800004F1080001F066FA05460BE0012104F1C7
:100E9000280001F011FB054604E003E002E001E058
:100EA000012500BF00BF55B94948001F006820F068
:100EB0000700A16F08434649091F086000E0A846E3
:100EC0000423D4E900101940002059404040014358
:100ED00029D1D4F89400062816D2DFE800F00304E4
:100EE0000B12131412E0012104F1080001F032FA90
:100EF00005460BE0012104F1280001F0DDFA05466A
:100F000004E003E002E001E0012500BF00BF4DB9AD
:100F10002F48006820F00700D4F8941008432C49AB
:100F2000086000E0A8462023D4E900011840002111
:100F300058404940084337D1D4F89000B0F1405FA1
:100F40001ED007DC68B1B0F1805F0BD0B0F1005F5C
:100F500019D10EE0B0F1804F13D0B0F1A04F12D1F3
:100F600010E012E0002104F1080001F0F3F9054659
:100F70000BE0022104F1280001F09EFA054604E08E
:100F800003E002E001E0012500BF00BF5DB91048A9
:100F9000001F006820F0E040D4F8901008430C498E
:100FA000091F086000E0A8464023D4E9001019405A
:100FB00000205940404001433CD1D4F89C00B0F59A
:100FC000406F25D00EDCA0B1B0F5806F12D005E0E7
:100FD0005844025800480258FFFCFF0FB0F5006F5C
:100FE00019D10EE0B0F5805F13D0B0F5A05F12D13B
:100FF00010E012E0002104F1080001F0ABF9054611
:101000000BE0022104F1280001F056FA054604E045
:1010100003E002E001E0012500BF00BF4DB9FE483A
:10102000006820F4E050D4F89C100843FA490860A6
:1010300000E0A8468023D4E9001019400020594060
:101040004040014335D1D4F8A000B0F5C04F1ED0C8
:1010500007DC68B1B0F5005F0BD0B0F5804F19D157
:101060000EE0B0F5004F13D0B0F5204F12D110E0D4
:1010700012E0002104F1080001F06CF905460BE0D4
:10108000022104F1280001F017FA054604E003E00C
:1010900002E001E0012500BF00BF4DB9DE48006855
:1010A00020F46040D4F8A0100843DB49086000E059
:1010B000A8460823D4E900101940002059404040B8
:1010C000014317D1D4F88400B0F5805F07D1022125
:1010D00004F1280001F0F0F908B14FF00108CE4802
:1010E000001F006820F44050D4F884100843CA4917
:1010F000091F08601023D4E900101940002059404E
:101100004040014315D1D4F89800B0F5807F07D155
:10111000022104F1280001F0CFF908B14FF00108D5
:10112000BD48006820F44070D4F898100843BA49CC
:1011300008604FF40022D4E900011040002113465A
:1011400058404940084327D1D4F8A40030B1B0F545
:10115000803F0AD0B0F5003F0FD10DE0002104F12F
:10116000080001F0F7F8054609E0022104F1280023
:1011700001F0A2F9054602E001E0012500BF00BF31
:101180004DB9A548006820F44030D4F8A4100843B5
:10119000A149086000E0A8464FF48023D4E900018B
:1011A000184000215840494008432DD1D4F8880008
:1011B000B0F5801F06D0B0F5001F0CD0B0F5401F71
:1011C00011D10FE094482C38006840F40030924967
:1011D0002C39086009E0012104F1280001F06CF9C4
:1011E000054602E001E0012500BF00BF5DB98A4865
:1011F000001F006820F44010D4F888100843864986
:10120000091F086000E0A8464FF48032D4E90001CD
:1012100010400021134658404940084325D1206D15
:1012200018B1B0F5803F10D108E07B482C38006839
:1012300040F4003078492C39086008E0022104F1BC
:10124000080001F087F8054601E0012500BF00BF56
:1012500055B971480C38006820F48030216D08437E
:101260006D490C39086000E0A8464FF00052D4E9FF
:10127000001011400020134659404040014307D15F
:10128000022104F1280001F017F908B14FF001081C
:101290004FF40033D4E90001184000215840494080
:1012A000084329D1D4F88000A0B1B0F5807F06D0E2
:1012B000B0F5007F0CD0B0F5407F0CD109E0564866
:1012C0002C38006840F4003053492C39086004E0A1
:1012D00003E002E001E0012500BF00BF5DB94E4818
:1012E000001F006820F44070D4F8801008434A4979
:1012F000091F086000E0A8464FF48012D4E90010EE
:1013000011400020134659404040014309D1424852
:101310000838006820F00040616F08433E490839F2
:1013200008604FF08052D4E90010114000201346AD
:101330005940404001430AD137484838006820F4FA
:101340008040D4F8B81008433349483908604FF456
:101350000012D4E9001011400020134659404040CB
:10136000014309D12C480838006820F08070E16EF4
:1013700008432949083908604FF08042D4E9001039
:1013800011400020134659404040014311D100BF95
:1013900021484838006820F400401F494839086057
:1013A00008460068D4F8BC1008431B494839086057
:1013B00000BF4FF00042D4E9001011400020134656
:1013C00059404040014309D113480C38006820F0CF
:1013D0004050616D084310490C3908604FF4000219
:1013E000D4E9001011400020134659404040014309
:1013F0000AD10948001F006820F44000D4F88C107E
:1014000008430549091F086001230021606818404E
:1014100001224940504001E058440258014306D19E
:1014200004F1080000F096FF054605B1A846022227
:1014300000216068104049405040014307D101211C
:1014400004F1080000F086FF054605B1A846042314
:10145000002061681940042240405140084307D1F0
:10146000022104F1080000F075FF054605B1A84609
:101470000823002160681840082249405040014379
:1014800006D104F1280001F017F8054605B1A84679
:10149000102200216068104049405040014307D1AC
:1014A000012104F1280001F007F8054605B1A8461E
:1014B000202200206168114040405140084307D17C
:1014C000022104F1280000F0F7FF054605B1A84607
:1014D000B8F1000F02D10020BDE8F0810120FBE748
:1014E0002DE9F04104460D4614B90120BDE8F08114
:1014F000BD48006800F00F00A8420ED2BA4800684C
:1015000020F00F002843B84908600846006800F042
:101510000F00A84201D00120E8E7207800F0040085
:1015200004280ED1B1492069096801F07001884290
:1015300007D9AE48006820F0700021690843AB4924
:101540000860207800F00800082811D1A749091D7B
:101550006069096801F07001884209D9A348001D3B
:10156000006820F0700061690843A049091D086007
:10157000207800F01000102811D19C49091DA069A5
:10158000096801F4E061884209D99848001D0068A3
:1015900020F4E060A16908439449091D086020789F
:1015A00000F02000202811D190490831E069096835
:1015B00001F07001884209D98C480830006820F099
:1015C0007000E1690843894908310860207800F01B
:1015D000020002280ED18549E068096801F00F0178
:1015E000884207D98148006820F00F00E16808436D
:1015F0007E490860207800F00100002850D07B4828
:10160000006820F47060A168084378490860606849
:10161000022807D1754818380068C0F34040F8B96F
:10162000012063E76068032807D170481838006814
:10163000C0F34060A0B9012058E76068012807D1D5
:101640006A4818380068C0F3002048B901204DE707
:10165000664818380068C0F3800008B9012045E7E3
:1016600062480838006820F00700616808435F4955
:1016700008390860FEF774FF064608E0FEF770FFC1
:10168000801B41F28831884201D903202EE7574858
:101690000838006800F038006168B0EBC10FEDD188
:1016A000207800F0020002280ED15049E068096855
:1016B00001F00F01884207D24C48006820F00F006B
:1016C000E1680843494908604748006800F00F0096
:1016D000A8420ED94448006820F00F002843424930
:1016E00008600846006800F00F00A84201D0012001
:1016F000FCE6207800F0040004280ED13B49206964
:10170000096801F07001884207D23848006820F06B
:1017100070002169084335490860207800F008000E
:10172000082811D13149091D6069096801F070016B
:10173000884209D22D48001D006820F070006169C0
:1017400008432A49091D0860207800F0100010287D
:1017500011D12649091DA069096801F4E061884298
:1017600009D22248001D006820F4E060A169084306
:101770001E49091D0860207800F02000202811D1A2
:101780001A490831E069096801F07001884209D2FC
:1017900016480830006820F07000E16908431349DA
:1017A0000831086000F02CF810490968C1F30321E2
:1017B0000F4A515C01F01F0120FA01F70B48006845
:1017C00000F00F001146085C00F01F0027FA00F03F
:1017D000084908600848076008480068FEF702FFEB
:1017E0008046404682E6000000200052184402581D
:1017F000A4280008100000240C0000240400002489
:10180000F0B5824E366806F0380636B1082E15D08F
:10181000102E15D0182E7DD114E07C4E103E366867
:10182000C6F3401646B1794E103E3668C6F3C1077E
:10183000774E26FA07F000E07548E5E07548E3E0EA
:101840007548E1E0714E1836366806F003046F4EB5
:1018500018363668C6F305116C4E1C36366806F02D
:1018600001056A4E24363668C6F3CC0616FB05F62B
:1018700001EE106AB8EE410A002971D024B1012CA2
:1018800050D0022C6DD16DE0604E103E3668C6F32C
:1018900040163EB35D4E103E3668C6F3C1075C4E3F
:1018A00026FA07F301EE103AF8EE411A01EE101A8B
:1018B000B8EE411A81EE812A9FED581AC0EE011A46
:1018C000524E20363668C6F3080601EE106AB8EEAE
:1018D000411A31EE811AF7EE001A31EE211A62EE4A
:1018E000010A1EE001EE101AB8EE411ADFED4C1AA3
:1018F00081EE812A9FED491AC0EE011A434E20362F
:101900003668C6F3080601EE106AB8EE411A31EEE9
:10191000811A00E076E0F7EE001A31EE211A62EE4D
:10192000010A5BE001EE101AB8EE411A9FED3D2A64
:10193000C2EE011A9FED391A80EE012A334E20368D
:101940003668C6F3080601EE106AB8EE411A32EEA8
:10195000011AB7EE002A31EE021A61EE810A3DE06B
:101960004EE01DE001EE101AB8EE411ADFED2E1A1E
:1019700081EE812A9FED291AC0EE011A234E2036EE
:101980003668C6F3080601EE106AB8EE411A31EE69
:10199000811AF7EE001A31EE211A62EE010A1DE0FB
:1019A00001EE101AB8EE411A9FED1E2AC2EE011A7E
:1019B0009FED1A1A80EE012A144E20363668C6F3BF
:1019C000080601EE106AB8EE411A32EE011AB7EEBF
:1019D000002A31EE021A61EE810A00BF00BF0B4EF1
:1019E00020363668C6F34626721C01EE102AB8EE81
:1019F000411AC0EE811ABCEEE11A11EE100A00E0A5
:101A0000002001E0034800BF00BFF0BD10440258B1
:101A10000090D00300093D0040787D0100000046A1
:101A20000024744C0024744A20BCBE4B2DE9F047BE
:101A3000044614B90120BDE8F087207800F00100C9
:101A4000002870D0FA48006800F03808F8481830CC
:101A5000D0F80090B8F1100F06D0B8F1180F0FD1E0
:101A600009F0030002280BD1F14810380068C0F3D8
:101A7000404000286AD06068002867D10120DAE77A
:101A800000BF6068B0F5803F08D1E94810380068B1
:101A900040F48030E649103908602EE0606868B98B
:101AA000E3481038006820F48030E14910390860BC
:101AB0000846006820F4802008601EE06068B0F5E9
:101AC000A02F0DD1DA481038006840F48020D849A2
:101AD000103908600846006840F4803008600CE067
:101AE000D3481038006820F48030D149103908609C
:101AF0000846006820F48020086000BF606898B144
:101B0000FEF72EFD054606E0FEF72AFD401B642881
:101B100001D903208FE7C64810380068C0F3404061
:101B20000028F1D012E012E0FEF71AFD054606E0AB
:101B3000FEF716FD401B642801D903207BE7BC4853
:101B400010380068C0F340400028F1D100BF207871
:101B500000F00200022874D1B548006800F038088F
:101B6000B3481830D0F80090B8F1000F05D0B8F1A4
:101B7000180F56D109F00300D0BBAD4810380068EB
:101B8000C0F3800018B1E06808B9012053E7A84805
:101B90001038006820F01900E1680843A4491039A2
:101BA0000860FEF7DDFC054606E0FEF7D9FC401BA9
:101BB000022801D903203EE79D4810380068C0F391
:101BC00080000028F1D000BFFEF7C4FC41F2030101
:101BD00088421AD8206940280BD195480C380068F3
:101BE00020F47C3040F4003091490C39086017E053
:101BF00017E08F480C38006820F47C30216940EAF7
:101C000001308B490C3908600AE089480C380068BB
:101C100020F0FE40217C40EA016085490C390860D3
:101C200066E0E06888B382481038006820F0190048
:101C3000E16808437E4910390860FEF791FC0546CB
:101C400007E056E0FEF78CFC401B022801D9032078
:101C5000F1E6774810380068C0F380000028F1D022
:101C600000BFFEF777FC41F2030188421AD82069D1
:101C700040280BD16E480C38006820F47C3040F4CA
:101C800000306B490C39086017E017E068480C38E1
:101C9000006820F47C30216940EA013064490C3945
:101CA00008600AE062480C38006820F0FE40217CA1
:101CB00040EA01605E490C39086019E05C48103860
:101CC000006820F001005A4910390860FEF748FC0E
:101CD000054606E0FEF744FC401B022801D903201C
:101CE000A9E6534810380068C0F380000028F1D1FD
:101CF00000BF207800F0100010287CD14C4800680C
:101D000000F038084A481830D0F80090B8F1080FB1
:101D100006D0B8F1180F3DD109F00300012839D1E0
:101D2000434810380068C0F3002020B1E0698028E3
:101D300001D001207FE600BFFEF70CFC41F2030159
:101D400088421AD8206A20280AD139480C380068FD
:101D500020F0F84040F0804035490C39086018E028
:101D600033480C38006820F0F84094F8201040EA1E
:101D700081602F490C3908600BE02D48001F006876
:101D800020F07C5094F8201040EA01602849091F97
:101D9000086066E0E06978B325481038006840F0D4
:101DA0008000234910390860FEF7DAFB054606E09B
:101DB000FEF7D6FB401B022801D903203BE61C4856
:101DC00010380068C0F300200028F1D000BFFEF7F3
:101DD000C1FB41F2030188421CD8206A20280CD1A3
:101DE00013480C38006820F0F84040F0804010495B
:101DF0000C3908601AE035E01CE00D480C3800682A
:101E000020F0F84094F8201040EA816008490C392D
:101E100008600BE00648001F006820F07C5094F832
:101E2000201040EA01600249091F086019E0000023
:101E300010440258FA48006820F08000F849086011
:101E4000FEF78EFB054606E0FEF78AFB401B0228E4
:101E500001D90320EFE5F2480068C0F30020002814
:101E6000F2D100BF207800F00800082836D1606960
:101E7000D0B1EB487430006840F00100E84974319B
:101E80000860FEF76DFB054606E0FEF769FB401BA8
:101E9000022801D90320CEE5E14874300068C0F380
:101EA00040000028F1D019E0DD487430006820F0CF
:101EB0000100DB4974310860FEF752FB054606E07D
:101EC000FEF74EFB401B022801D90320B3E5D4489E
:101ED00074300068C0F340000028F1D1207800F091
:101EE0002000202830D1A069B8B1CD48006840F466
:101EF0008050CB490860FEF733FB054606E0FEF74D
:101F00002FFB401B022801D9032094E5C448006838
:101F1000C0F340300028F2D016E0C148006820F439
:101F20008050BF490860FEF71BFB054606E0FEF740
:101F300017FB401B022801D903207CE5B848006844
:101F4000C0F340300028F2D1207800F004000428CB
:101F50007DD1B448006840F48070B2490860FEF753
:101F6000FFFA054606E0FEF7FBFA401B642801D99C
:101F7000032060E5AB48006800F480700028F2D0D0
:101F800000BFA068012808D1A5487030006840F063
:101F90000100A349703108602DE0A06868B9A0482D
:101FA0007030006820F001009D49703108600846DB
:101FB000006820F0040008601DE0A06805280DD12D
:101FC00097487030006840F004009549703108600F
:101FD0000846006840F0010008600CE0904870304E
:101FE000006820F001008E497031086008460068E2
:101FF00020F00400086000BFA068A0B1FEF7B0FAAE
:10200000054608E0FEF7ACFA401B41F288318842F1
:1020100001D903200FE5824870300068C0F340000A
:102020000028EFD013E0FEF79BFA054608E0FEF724
:1020300097FA401B41F28831884201D90320FAE423
:10204000774870300068C0F340000028EFD1606A24
:1020500000287DD072481030006800F03800182841
:1020600077D0606A022875D16D48006820F08070D2
:102070006B490860FEF774FA054606E0FEF770FA51
:10208000401B022801D90320D5E465480068C0F34D
:1020900040600028F2D100BFD4E90A1041EA0010E4
:1020A0005F492831096840F2F332914308435C49A3
:1020B00028310860208E401EC0F30800616B491E65
:1020C0004FF47E4202EA41210843218F491ED2018A
:1020D00002EA014108433C21095D491E120202EA5D
:1020E000016108434E493031086000BF081F006895
:1020F00020F00100091F08604948343000684FF69D
:10210000F8718843A16C40EAC10045493431086048
:1021100043482C30006820F00C00216C08434049F3
:102120002C3108600846006820F00200616C08430A
:102130003B492C3108600846006840F48030086054
:102140000846006840F4003008600846006802E075
:1021500093E038E01FE040F4802008600846006803
:1021600040F0010008602E48006840F080702C4963
:102170000860FEF7F5F9054606E0FEF7F1F9401BA9
:10218000022801D9032056E425480068C0F34060C6
:102190000028F2D071E02248006820F080702049C9
:1021A0000860FEF7DDF9054606E0FEF7D9F9401BA9
:1021B000022801D903203EE419480068C0F34060BA
:1021C0000028F2D159E0164828300768144830300A
:1021D0000668606A012821D007F00301A06A8142E5
:1021E0001CD1C7F30511E06A884217D1C6F3080174
:1021F000206B401E814211D1606B401EC6F3462108
:1022000088420BD1A06B401EC6F30641884205D11F
:10221000E06B401EC6F30661884205D001200AE447
:10222000004402580048025815480068C0F3CC0723
:10223000A06CB84221D012480838006820F0010094
:102240000F4908390860FEF78BF9054600BFFEF715
:1022500087F9401BFBD00A4800684FF6F8718843A5
:10226000A16C40EAC10006490860054808380068CA
:1022700040F0010002490839086000204AE40000EB
:102280003444025870B504462546681EB0F1807F7C
:1022900001D301200FE0681E4FF0E02148610F21BB
:1022A0004FF0FF3000F0C6FA00204FF0E0218861C7
:1022B00007200861002070BD00BFFEE700B587B0B1
:1022C000142102A8FEF70BF800BF1D48006840F07B
:1022D00001001B4908600846006800F001000190F9
:1022E00000BF00BF00BF0846006840F0040008605F
:1022F0000846006800F00400019000BF00BF00BF66
:102300000846006840F0800008600846006800F059
:102310008000019000BF00BF00224FF40041094837
:10232000FEF712F94FF400400290012003900020C4
:102330000490059002A90348FEF708F807B000BD15
:10234000E04402580008025800BFFEE700BFFEE765
:10235000704700002DE9F04104460E46002755481D
:10236000006800F00300032802D10120BDE8F081DD
:1023700050482838006820F080604E4928390860AD
:10238000FEF7EEF8054606E0FEF7EAF8401B0228E5
:1023900001D90320EAE7474828380068C0F3C06045
:1023A0000028F1D100BF4348006820F47C30216848
:1023B00040EA01303F490860A088401EC0F3080091
:1023C000A168491E4FF47E4202EA41210843A189D7
:1023D000491ED20102EA01410843217C491E120232
:1023E00002EA0161084333491031086000BF3148F7
:1023F000001D006820F0C000616908432D49091DD7
:1024000008600846006820F02000A16908432949B7
:10241000091D08600846006820F010000860254883
:10242000143000684FF6F8718843E16940EAC10052
:102430002049143108601F48001D006840F010005A
:102440001C49091D08602EB90846006840F40020A8
:10245000086012E0012E08D11648001D006840F403
:1024600080101449091D086007E01248001D00682B
:1024700040F400100F49091D08600E482838006814
:1024800040F080600B4928390860FEF769F805467E
:1024900006E0FEF765F8401B022801D9032065E736
:1024A000044828380068C0F3C0600028F1D03846DE
:1024B0005CE70000284402582DE9F04104460E462E
:1024C00000275548006800F00300032802D10120CE
:1024D000BDE8F08150482838006820F080504E490F
:1024E00028390860FEF73CF8054606E0FEF738F8A4
:1024F000401B022801D90320EAE747482838006832
:10250000C0F340700028F1D100BF4348006820F0BC
:102510007C70218840EA01503F490860A088401E35
:10252000C0F30800A168491E4FF47E4202EA41212F
:102530000843A189491ED20102EA01410843217CD6
:10254000491E120202EA016108433349183108604A
:1025500000BF3148001D006820F4406061690843F5
:102560002D49091D08600846006820F40070A16923
:1025700008432949091D08600846006820F4807056
:10258000086025481C3000684FF6F8718843E169FF
:1025900040EAC10020491C3108601F48001D006846
:1025A00040F480701C49091D08602EB90846006877
:1025B00040F48000086012E0012E08D11648001D8A
:1025C000006840F400001449091D086007E0124843
:1025D000001D006840F080700F49091D08600E481A
:1025E0002838006840F080500B4928390860FDF712
:1025F000B7FF054606E0FDF7B3FF401B022801D9EF
:10260000032065E7044828380068C0F340700028BC
:10261000F1D038465CE7000028440258704710B5F6
:10262000FDF7A4FF10BD000000B5CDB04C213AA8C5
:10263000FDF755FE202132A8FDF751FEC02102A86A
:10264000FDF74DFE0220FEF75DF800BF002001906F
:102650003148006840F440402F490860084600684F
:1026600000F4404001902D48006840F001002B49E3
:1026700008600846006800F00100019000BF00BF3C
:1026800000BF2548006800F40050B0F5005FF8D1A5
:1026900001203A9000043B900220439002213AA886
:1026A00081620521C162C0210163022141631421BD
:1026B00081630221C16308210164002141648164B6
:1026C000FFF7B4F908B1FDF72AFE3F20329003204E
:1026D0003390002034900820359040203690379079
:1026E0000001389040203990042132A8FEF7F8FE0E
:1026F00008B1FDF714FE0A490020CDE90210209030
:10270000C804249002A8FEF737F808B1FDF707FEC9
:10271000FEF728F84DB000BD184802582C040058A8
:10272000020004003448006840F470003249086038
:102730003248006800F00F00072806D22F480068D2
:1027400020F00F00C01D2D4908602D48006840F0A2
:1027500001002B49086000202949103108602848F1
:10276000006828490840264908602448006800F0AD
:102770000F00072806D92148006820F00F00C01D6F
:102780001E49086000201E4918310860091D0860B4
:10279000091D08601C481A49283108601B48091D9A
:1027A00008601B48091D08600020091D08601848C2
:1027B000091D08600020091D08601548091D0860F2
:1027C0000020091D08600E48006820F480200C4994
:1027D000086000200A49603108600E4800686FF305
:1027E0000F00B0F1005F02D201200B49086043F2F4
:1027F000D2000A490860704788ED00E000200052CE
:10280000004402587FEDF6EA000202020000FF01D8
:10281000800201010010005C08810051004000525C
:1028200000BFFEE702480068C0F3022070470000C6
:102830000CED00E010B5002804DB0A07130E054A72
:10284000135406E00A07140E034A00F00F031B1F7F
:10285000D45410BD00E400E018ED00E002E008C828
:10286000121F08C1002AFAD170477047002001E00A
:1028700001C1121F002AFBD170470000FDF782FE44
:10288000FFF7D2FEFFF71AFD08E00548006880F464
:102890000040034908606420FDF744FDF5E70000AF
:1028A000140802580000000001020304010203049E
:1028B00006070809D42800080000002414000000BE
:1028C0005C280008E8280008140000240400020026
:1028D0006C2800080000000010000000010000004B
:0828E0000090D0030090D0032A
:040000050800029954
:00000001FF
