:020000040800F2
:1000000020060020C1020008FF2F0008A52B0008D1
:10001000FD2F0008F103000825440008000000003F
:10002000000000000000000000000000CD320008C9
:10003000F30300080000000089300008CF320008F8
:10004000DB020008DB020008DB020008DB0200081C
:10005000DB020008DB020008DB020008DB0200080C
:10006000DB020008DB020008DB020008DB020008FC
:10007000DB020008DB020008DB020008DB020008EC
:10008000DB020008DB020008DB020008DB020008DC
:10009000DB020008DB020008DB020008DB020008CC
:1000A000DB020008DB020008DB020008DB020008BC
:1000B000DB020008DB020008DB020008DB020008AC
:1000C000DB020008DB020008DB020008DB0200089C
:1000D000DB02000819440008DB020008DB0200080C
:1000E000F5030008DB020008DB020008DB02000861
:1000F000DB020008DB020008DB020008DB0200086C
:10010000DB020008DB020008DB020008DB0200085B
:10011000DB020008DB020008DB020008DB0200084B
:10012000DB020008DB020008DB020008DB0200083B
:10013000DB0200080000000000000000DB020008F5
:10014000DB020008DB020008DB020008DB0200081B
:10015000DB020008DB020008DB020008DB0200080B
:10016000DB020008DB020008DB020008DB020008FB
:10017000DB020008DB020008DB020008DB020008EB
:10018000DB020008DB020008DB020008DB020008DB
:10019000DB020008DB020008DB020008DB020008CB
:1001A000DB020008DB020008DB020008DB020008BB
:1001B000DB020008DB020008DB020008DB020008AB
:1001C000DB020008DB020008000000000000000065
:1001D0000000000000000000DB020008000000003A
:1001E000000000000000000000000000000000000F
:1001F0000000000000000000DB020008DB02000835
:10020000DB020008DB02000800000000DB0200083F
:10021000DB020008DB020008DB020008DB0200084A
:10022000DB020008DB020008DB020008000000001F
:10023000DB020008DB02000800000000DB0200080F
:10024000DB020008DB020008DB020008DB0200081A
:10025000DB020008DB020008DB020008DB0200080A
:10026000DB020008DB020008DB020008DB020008FA
:10027000DB020008DB020008DB02000800000000CF
:10028000DB020008DB02000800000000DB020008BF
:1002900000000000DB020008DB020008DB020008AF
:1002A000DB020008DB020008DB020008DFF80CD0EC
:1002B00000F08CF800480047D148000820060020D4
:1002C0000648804706480047FEE7FEE7FEE7FEE7F0
:1002D000FEE7FEE7FEE7FEE7FEE7FEE7AD330008D8
:1002E000AD0200082DE9F05F0546002092469B46CE
:1002F00088460646814640241BE02846414647463C
:10030000224600F053F853465A46C01A914110D382
:1003100011461846224600F03AF82D1A67EB0108FC
:100320004F4622460120002100F031F817EB00096A
:100330004E41201EA4F10104DFDC484631462A4626
:100340004346BDE8F09F40EA01039B0703D009E064
:1003500008C9121F08C0042AFAD203E011F8013BB1
:1003600000F8013B521EF9D27047D2B201E000F80A
:10037000012B491EFBD270470022F6E710B5134649
:100380000A4604461946FFF7F0FF204610BD202A12
:1003900004DB203A00FA02F1002070479140C2F1DC
:1003A000200320FA03F3194390407047202A04DB0E
:1003B000203A21FA02F00021704721FA02F3D040DE
:1003C000C2F120029140084319467047064C074D80
:1003D00006E0E06840F0010394E807009847103415
:1003E000AC42F6D3FFF766FF744A0008944A00084F
:1003F000FEE770474FF4005000F035BA72B602A025
:1004000004F040F8FBE700006572726F72000000B4
:100410002DE9F041012417460D46064603F01AFB6C
:10042000304600F05FF8C0B903F014FBBB2003F0C6
:1004300089FB012811D16E1E002409E0B44201D1CC
:10044000002000E0012003F0D5FA3855641CE4B226
:10045000AC42F3D303F022FB002403F01FFB204641
:10046000BDE8F08110B503F0B1FB134C0022102160
:10047000204600F022FB01222046082100F01DFB4F
:1004800042F2107003F01AFA00222046082100F010
:1004900014FB0A4803F012FA01222046082100F05A
:1004A0000CFB074803F00AFA03F07CFBBDE81040A0
:1004B00044F6206003F002BA00100258F04902002E
:1004C0003057050070B50D46044603F0C3FA2046C8
:1004D00000F008F810B9284603F034FB03F0DEFA08
:1004E000002070BD10B5044603F0B4FABA2003F042
:1004F00029FB012807D1200A03F024FB012802D19F
:10050000E0B203F01FFB002010BD00002DE9F04118
:10051000040004D094F86100002518B107E0012020
:10052000BDE8F081204684F8605000F033F8184EA2
:10053000022084F861000123D4E90010D4F81CC023
:1005400040F207120F6840EA0C0037403843086059
:100550002068A769A168466B3943964331434163DC
:100560002068E268016C6FF30F0111430164206899
:10057000218AA28A466B090541EA425126F44012BB
:1005800011434163656684F861300020C8E70000CC
:10059000BFFFF8FF08B500680649884208D1064841
:1005A000016841F010010160006800F01000009047
:1005B00008BD000000100052344502582DE9F05FDC
:1005C00028B190F83510022904D08021416501201E
:1005D000BDE8F09F904C904B0168183C18338E4A50
:1005E000DFF83C92A1428D4CDFF838E28E4FDFF805
:1005F0003CB2DFF83CA28F4D8F4E31D091422FD0CC
:1006000099422DD0A1422BD0494529D0714527D000
:10061000B94225D0DFF810C20CF1180C61451FD08B
:10062000DFF808C2ACF1600C614519D0DFF8FCC1FD
:10063000ACF1480C614513D0DFF8F0C1ACF1300CDF
:1006400061450DD0DFF8E4C1ACF1180C614507D06D
:10065000594505D0514503D0A94201D0B1422CD112
:10066000DFF8B4C14FF0040880F83580ACF1180C05
:1006700061451DD091421BD0994219D0A14217D09B
:10068000494515D0714513D0B94211D0664818308C
:1006900081420DD065486038814209D063484838AE
:1006A000814205D061483038814201D05F48183816
:1006B000086820F001000860ABE0D1F800C02CF021
:1006C0000E08DFF854C1C1F80080ACF1180C0168C5
:1006D000614527D0914225D0994223D0A14221D013
:1006E00049451FD071451DD0B9421BD0DFF838C134
:1006F0000CF1180C614515D0DFF830C1ACF1600C7D
:1007000061450FD0DFF824C1ACF1480C614509D038
:10071000DFF818C1ACF1300C614503D0DFF80CC133
:10072000ACF1180CD1F800C02CF0010CC1F800C0DD
:10073000DFF8E4804FF0010C0168A8F1180841458A
:1007400046D0914244D0994242D0A14240D049453E
:100750003ED071453CD0B9423AD0334A183291422A
:1007600036D0324A603A914232D0304A483A9142C9
:100770002ED02E4A303A91422AD02C4A183A914231
:1007800026D0594524D0514522D0A94220D0B1428B
:100790001ED02A4A91421BD0284A1432914217D0C7
:1007A000264A2832914213D0244A3C3291420FD03B
:1007B000224A503291420BD0204A6432914207D0F3
:1007C0001E4A7832914203D01C4A8C32914218D191
:1007D000016E0A6822F480720A6090F85C20816DD4
:1007E00002F01F020CFA02F24A60D0E919124A60C4
:1007F000C16E31B10A6822F480720A60D0E91C121D
:100800004A600022016D80F8342080F835C001B1C3
:1008100088470020DCE60000280002405800024023
:100820007000024088000240A000024070040240B4
:1008300088040240A0040240B80402400854025850
:1008400070B5044600F03EF90546601C02D004482D
:100850000078044400F036F9401BA042FAD370BD82
:100860000800002070474FF0B04110B5D1F8882043
:10087000024203D0C1F88800FFF7F4FF10BD00006A
:100880002DE9FC4F01257E4C00234FF0030A4FF069
:10089000B04E4FF00F0BEBE005FA03F637403A008D
:1008A00077D04F68012F05D0022F03D0112F01D030
:1008B000122F1AD187684FEA4308D1F80CC00AFA00
:1008C00008F927EA09070CFA08FC4CEA070CC0F8FB
:1008D00008C0476891F804C0B743CCF3001C0CFA79
:1008E00003FC4CEA070CC0F804C0C6684FEA430C8E
:1008F000D1F80880E1460AFA0CF7BE43019708FADE
:1009000009F848EA0608C0F80C804E68022E01D0AB
:10091000122E12D1DE084FEA437C00EB86060096C9
:100920000F69366A4FEADC6C0BFA0CF807FA0CF721
:1009300026EA08063743009E37620E790768DDF81D
:1009400004C006F0030606FA09F627EA0C073E4340
:1009500006604E68F6001CD54A4E376847F002071D
:10096000376036689F0706F00206009623F00306FC
:1009700006F1B046B1463F0FD6F80864DFF80881AB
:100980000BFA07FC404526EA0C0603D14FF0000C99
:1009900041E06CE0DFF8F4C0604502D14FF0010C9B
:1009A00039E0DFF8ECC0604502D14FF0020C32E0D4
:1009B000DFF8E0C0604502D14FF0030C2BE0DFF818
:1009C000D8C0604502D14FF0040C24E0DFF8CCC061
:1009D000604502D14FF0050C1DE0DFF8C4C0604552
:1009E00002D14FF0060C16E0DFF8B8C0604502D126
:1009F0004FF0070C0FE0DFF8B0C0604502D14FF0B8
:100A0000080C08E0DFF8A4C0604502D14FF0090CE3
:100A100001E04FF00A0C0CFA07FC4CEA060CC9F88E
:100A200008C426684F6826EA0206FF0300D516436D
:100A3000266066684F6826EA0206BF0300D51643A3
:100A40006660D1F804C07646DEF800705FEACC2C10
:100A500027EA020700D517433760D1F804C077684A
:100A60005FEA8C2C27EA020700D5174377605B1CEE
:100A70000A681746DA407FF40FAFBDE8FC8F00002C
:100A800080000058544502580000025800040258E3
:100A900000080258000C02580010025800140258B6
:100AA00000180258001C0258002002580024025866
:100AB0000069084000D0012070470AB18161704789
:100AC0000904FBE701488068704700000800002027
:100AD0000248816802781144816070470800002054
:100AE000032010B500F00CFA01F03CF90F4A104950
:100AF00014681368C4F3032203F00F038A5CC95C13
:100B000002F01F0201F01F01D0400A4A20FA01F151
:100B1000116009490860002000F010F808B10120B8
:100B200010BD00F0AFF9002010BD000018440258BD
:100B3000644A0008180000201400002070B50D4D14
:100B400004462878A0B14FF47A71B1FBF0F00A495D
:100B50000968B1FBF0F001F038FC48B9102C07D25D
:100B600000222146501E00F0ABF900206C6070BDE1
:100B7000012070BD08000020140000202DE9F04184
:100B8000044690F8A00016460F4601281DD0012506
:100B900084F8A050022084F8A10006EB860000EB48
:100BA000C600342204EB80003830FFF7CCFB32461D
:100BB0003946204601F0F7FF216800204D6284F895
:100BC000A15084F8A000BDE8F0810220FBE70000FE
:100BD0002DE9F041040004D094F8A100002518B1DB
:100BE00007E00120BDE8F081204684F8A05000F025
:100BF0006BF83448022184F8A110012202CC8B69E1
:100C000023F070438B6194E84A001943E3681E4364
:100C100054F8043D31439E693143996121688B68E2
:100C200003408B602168A68AA7698B683B4343EA2F
:100C300006438B602168CB680340CB602168A38B9F
:100C4000276ACE683E4346EA0346CE6021680B69B8
:100C500003400B612368A68CA76A1969394341EAEE
:100C60000641196121684B6903404B612068A38DDF
:100C7000266B4169314341EA03414161236894F89D
:100C8000351094F83600DE6A000406F07F46DE6216
:100C9000236840EA012094F83460D96A3143014363
:100CA000D9622068416B41F0060141632068816987
:100CB00041F001018161C4F8A45084F8A120002012
:100CC00090E7000000F800F02DE9F04186B00446FE
:100CD00014216846FFF750FB3C492068884271D1D7
:100CE0003B48016841F008010160006800F008001D
:100CF00005903748001F016841F004010160016858
:100D000001F004010591016841F0010101600168F1
:100D100001F001010591016841F0020101600168E3
:100D200001F002010591016841F0100101600168C4
:100D300001F010010591016841F0080101600068AF
:100D400002250026694600F008000590C1200E2704
:100D50008DE8610003241F48CDE90347FFF790FDAC
:100D6000E82069468DE861001B48CDE90347FFF79D
:100D700087FD0920DFF864808DE87000CDE903402D
:100D800069464046FFF77CFD4FF4784069468DE8A0
:100D900061001348CDE90347FFF772FD4FF470601F
:100DA00069468DE86100CDE903474046FFF768FDDD
:100DB0004FF4816069468DE861000A48CDE9034738
:100DC000FFF75EFD06B0BDE8F081000000100050A6
:100DD0004445025800080258000002580004025816
:100DE00000100258000C0258F0B5154C4378211D34
:100DF0000A1D23600378F3B143680B60057BC67A54
:100E0000817A437B2D07847B45EA0665C77B90F892
:100E100009C0067A90F800E045EAC14040EA834004
:100E200040EA444040EA074040EA0C2040EA4600DD
:100E300040EA0E0001E0002008601060F0BD0000F4
:100E400098ED00E0BFF35F8F044800210368034A78
:100E500023F48033036070321160704724ED00E0AA
:100E6000074A40F00100064970321060086840F4FB
:100E700080300860BFF34F8FBFF36F8F7047000063
:100E800024ED00E0064882B0016841F002010160F3
:100E9000006800F002000090052002B000F030B8B9
:100EA00054450258002809DB410900F01F0289005F
:100EB000012001F1E0219040C1F8000170470000DD
:100EC0000E4BF0B41B680D46C3F30223C3F10706B3
:100ED000042E00D90426191D072901D2002300E0A1
:100EE000DB1E012404FA06F19C40491E2940641EC1
:100EF000994014402143F0BC03F0D4BA0CED00E05B
:100F0000064900F0070210B54FF6FF040868044BCD
:100F1000204040EA02201843086010BD0CED00E0BC
:100F20000000FA05134970B50A68D243520705D587
:100F3000096801F00701814213D118E00A6822F024
:100F4000070202430A60FFF7BDFD0A4D4FF47A76AF
:100F50000446083D07E000BFFFF7B4FD001BB042A8
:100F600001D9012070BD2868C0438004F4D400205A
:100F700070BD00000C48025810B500F0ADFE0549E8
:100F80000968054AC1F30211515C01F01F01C84014
:100F900010BD000020440258644A0008494930B599
:100FA000484C0B1D0A68143409681D68246802F057
:100FB0000303C5F30012C1F30531C4F3CC040029C7
:100FC00014FB02F200EE102AF8EE400A75D03F4AF8
:100FD0009FED3D1AB7EE000A6BB1DFED3D1A012B14
:100FE00001D0022B64D002EE101A1168F8EE422AEA
:100FF00081EEA22A21E0334C283C23689B0612D5BF
:10100000344B246801EE901A1168C4F3C104F8EE61
:10101000612AE34001EE903AC1F30801F8EE611A4B
:1010200081EEA22A0BE001EE901ADFED2B2A00BF21
:10103000F8EE611A116882EEA12AC1F3080101EEEF
:10104000901A1168F8EE611A40EE811A71EE800A6A
:1010500062EE200AC1F3462101EE101AB8EE411AE1
:1010600031EE001AC0EE811ABCEEE11A80ED001AD2
:101070001168C1F3064101EE101AB8EE411A31EEC3
:10108000001AC0EE811ABCEEE11A80ED011A116857
:10109000C1F3066101EE101AB8EE411A31EE000AF2
:1010A00080EE801ABCEEC10A80ED020A30BD04E079
:1010B00001EE901ADFED092ABAE7002101604160D4
:1010C0008160F3E728440258000000393844025890
:1010D0000024744A0090D0030024744C20BCBE4B02
:1010E000494930B5484C0B1D0A681C3409681D6815
:1010F000246802F00303C5F30022C1F30551C4F3D1
:10110000CC04002914FB02F200EE102AF8EE400A8B
:1011100075D03F4A9FED3D1AB7EE000A6BB1DFED87
:101120003D1A012B01D0022B64D002EE101A116877
:10113000F8EE422A81EEA22A21E0334C283C2368B3
:101140009B0612D5344B246801EE901A1168C4F343
:10115000C104F8EE612AE34001EE903AC1F30801C0
:10116000F8EE611A81EEA22A0BE001EE901ADFED93
:101170002B2A00BFF8EE611A116882EEA12AC1F392
:10118000080101EE901A1168F8EE611A40EE811A1A
:1011900071EE800A62EE200AC1F3462101EE101AB8
:1011A000B8EE411A31EE001AC0EE811ABCEEE11A17
:1011B00080ED001A1168C1F3064101EE101AB8EE75
:1011C000411A31EE001AC0EE811ABCEEE11A80ED30
:1011D000011A1168C1F3066101EE101AB8EE411A46
:1011E00031EE000A80EE801ABCEEC10A80ED020AE0
:1011F00030BD04E001EE901ADFED092ABAE70021C4
:10120000016041608160F3E7284402580000003922
:10121000404402580024744A0090D0030024744CC7
:1012200020BCBE4B2DE9FC5F044650F8241B002572
:1012300000902E460801FE4FDFF8F8831DD5A06E02
:1012400050B1B0F5801F0CD0B0F5001F0ED0B0F536
:10125000401F1DD001250FE0386840F40030386091
:1012600016E00221201D01F011FF03E00098022189
:1012700001F09CFF05000BD02E462088C00523D529
:10128000606D05281ED2DFE800F00C11161B1B0054
:10129000A26ED8F8001021F440111143C8F80010D4
:1012A000EBE7386840F40030386009E00021201D89
:1012B00001F0ECFE03E00098002101F077FF054605
:1012C0007DB100E001252E46208880052BD5A06D3C
:1012D000C02826D00EDCA8B1402818D080280FD115
:1012E0001AE0626DD8F8001021F007011143C8F828
:1012F0000010E9E7B0F5807F13D0B0F5A07F10D0E3
:1013000001250FE0386840F40030386009E0002122
:10131000201D01F0BBFE03E00098002101F046FF14
:10132000054685B12E46208840052ED5E06DB0F5E6
:10133000C06F28D010DCB8B1B0F5007F19D0B0F57F
:10134000806F0FD11AE0A26DD8F8001021F4E0717F
:101350001143C8F80010E6E7B0F5006F13D0B0F500
:10136000206F10D001250FE0386840F4003038605D
:1013700009E00021201D01F089FE03E00098002112
:1013800001F014FF05468DB12E462068DFF8A4B2A7
:101390008001ABF1040B1ED5A06CD0B110280ED08B
:1013A000202811D0302814D0012513E0E26DD8F8A0
:1013B000001021F460611143C8F80010E5E73868B7
:1013C00040F40030386004E00221201D01F05EFE90
:1013D00005466DB12E462088C0042BD5206EB0F591
:1013E000005F20D00DDCA0B1B0F5805F0FD115E01B
:1013F000A26CDBF8001021F030011143CBF8001093
:10140000E9E7B0F5405F13D0B0F5804F10D001256B
:101410000FE0386840F40030386009E00021201DFA
:1014200001F034FE03E00098002101F0BFFE054604
:1014300085B12E462088800429D5606EB0F5403FE6
:1014400023D010DC08B3B0F5803F14D0B0F5003FD6
:101450000FD115E0226ED8F8001021F4E0411143BD
:10146000C8F80010E6E7B0F5802F0ED0B0F5A02F39
:101470000BD001250AE00121201D01F007FE03E049
:101480000098012101F092FE05466DB12E4620889C
:10149000DFF8A091400409F1080925D5D4F8AC0083
:1014A00030F0704109D01DE0626ED8F8001021F4D0
:1014B000E0211143C8F80010E9E70017072811D20E
:1014C000DFE800F00E04090E0E0E0E000121201DB3
:1014D00001F0DCFD03E00098012101F067FE054604
:1014E0007DB100E001252E46208800041FD5606FE5
:1014F000D8B1B0F1805F0ED0B0F1005F10D00125FF
:1015000014E0D4F8AC20D9F8001021F0E0411143E8
:10151000C9F80010E8E7386840F40030386004E0AB
:101520000121201D01F0B2FD05466DB12E46206857
:10153000C0011ED5606CD0B101280ED0022811D098
:10154000032814D0012513E0626FD8F8001021F0B1
:1015500040511143C8F80010E9E7386840F4003002
:10156000386004E00221201D01F090FD054665B1C0
:101570002E46206840024FD52F48016841F4807103
:101580000160FFF79FFA82460EE0626CDBF8001004
:1015900021F003011143CBF80010EAE7FFF792FABC
:1015A000A0EB0A00642835D823480068C005F5D5AB
:1015B0008DBBDFF880A0B4F8B0100AF1200ADAF889
:1015C000000001F4407100F44070884211D0DAF854
:1015D0000010DAF8002021F4407142F48032CAF899
:1015E0000020DAF8002022F48032CAF80020CAF87D
:1015F0000010D4F8B000B0F5807F2AD1FFF762FA6E
:10160000019022E0FFF75EFA0199411A41F2883019
:1016100081421AD903252E462078DFF818A0C0078A
:101620000AF1040A45D0D4F8800018283FD005E01C
:101630002C440258504402580048025826DC80B31B
:10164000082829D0102825D12CE0DAF800008007DE
:10165000D8D5D4F8B010C1F301200328FE480DD02E
:10166000016821F47C510160B4F8B020DAF8001070
:10167000C2F30B021143CAF80010CDE7F74A036822
:1016800002EA111223F47C511143ECE720280ED01A
:1016900028280CD001250BE00121201D01F0F6FCCB
:1016A00004E004E00098012101F080FD05465DB1F1
:1016B0002E46207880071FD5E06F06281AD2DFE873
:1016C00000F0170D12171717D4F88020DAF8001061
:1016D00021F038011143CAF80010EAE70121201D6A
:1016E00001F0D4FC03E00098012101F05FFD054604
:1016F00075B100E001252E46207840071FD5D4F8AB
:101700009800062819D2DFE800F0160C11161616FC
:10171000E26FDAF8001021F007011143CAF8001057
:10172000EAE70121201D01F0B1FC03E0009801214E
:1017300001F03CFD05469DB100E001252E462078D4
:1017400080062BD5D4F89400B0F1405F24D011DC92
:1017500010B3B0F1805F15D0B0F1005F10D116E08A
:10176000D4F89820D9F8001021F007011143C9F8E6
:101770000010E4E7B0F1804F0ED0B0F1A04F0BD0D5
:1017800001250AE00021201D01F080FC03E0009803
:10179000022101F00BFD05468DB12E462078400652
:1017A0002BD5D4F8A000B0F5406F24D011DC10B3D5
:1017B000B0F5806F15D0B0F5006F10D116E0D4F8F9
:1017C0009420DAF8001021F0E0411143CAF800102B
:1017D000E4E7B0F5805F0ED0B0F5A05F0BD0012537
:1017E0000AE00021201D01F051FC03E000980221D5
:1017F00001F0DCFC05468DB12E46207800062BD585
:10180000D4F8A400B0F5C04F24D011DC10B3B0F56B
:10181000005F15D0B0F5804F10D116E0D4F8A020AD
:10182000D9F8001021F4E0511143C9F80010E4E7A1
:10183000B0F5004F0ED0B0F5204F0BD001250AE0D7
:101840000021201D01F022FC03E00098022101F09C
:10185000ADFC05464DB12E46207800071ED5D4F8C4
:101860008800B0F5805F0AD00FE0D4F8A420D9F842
:10187000001021F460411143C9F80010ECE7009812
:10188000022101F093FC00B10126D4F88820DAF897
:10189000001021F440511143CAF800102078C0060E
:1018A00013D5D4F89C00B0F5807F05D100980221B3
:1018B00001F07CFC00B10126D4F89C20D9F800107E
:1018C00021F440711143C9F800102068000316D5B7
:1018D000D4F8A80038B1B0F5803F09D0B0F5003F8A
:1018E0000BD001250AE00021201D01F0CFFB03E011
:1018F0000098022101F05AFC054685B12E46206869
:10190000400322D5D4F88C00B0F5801F11D0B0F57B
:10191000001F13D0B0F5401F15D0012514E0D4F8F6
:10192000A820D9F8001021F440311143C9F8001063
:10193000E5E7386840F40030386004E000980121A1
:1019400001F034FC054655B12E462068C0031CD575
:10195000E06C70B1B0F5803F10D0012514E0D4F8F0
:101960008C20DAF8001021F440111143CAF800105D
:10197000EBE7386840F40030386004E00221201DB5
:1019800001F084FB0546D5B12E462068800005D5C0
:101990000098022101F00AFC00B1012620688003B2
:1019A0001CD5D4F88400B8B1B0F5807F10D0B0F564
:1019B000007F11D0B0F5407F0ED001250DE0E26C24
:1019C000DBF8001021F480311143CBF80010DCE784
:1019D000386840F400303860E5B32E462068C00215
:1019E00007D5A26FD8F8001021F000411143C8F8C4
:1019F00000102068800207D5E26ED8F8001021F0B0
:101A000080711143C8F800102088000507D5226FA7
:101A1000D9F8001021F000611143C9F800102068C6
:101A2000400009D50C48016821F4004101600168BB
:101A3000D4F8B420114301602068002807DA226D31
:101A4000DBF8001021F040511143CBF800109EB19B
:101A5000012005E006E0000010440258CFFFFF001F
:101A6000BDE8FC9FD4F88420DAF8001021F440711E
:101A70001143CAF80010B1E70020EAE72DE9F05F52
:101A800004000F467ED0DFF83882D8F8000000F05E
:101A90000F00B8420CD2D8F8001021F00F013943E2
:101AA000C8F80010D8F8000000F00F00B84269D163
:101AB0002078844D40070AD52069296801F070011B
:101AC000884204D9296821F07001014329602078F7
:101AD0007C4E361D00070AD56069316801F070013F
:101AE000884204D9316821F07001014331602078C7
:101AF000C0060AD5A069316801F4E061884204D9C2
:101B0000316821F4E061014331602078DFF8B4B13D
:101B100080060BF1080B0CD5E1695846DBF8002074
:101B200002F07002914204D9026822F070020A4366
:101B30000260207880070AD5E068296801F00F016B
:101B4000884204D9296821F00F01014329602078D7
:101B5000C0073ED05B49A2682868183920F470603D
:101B6000104328606068022818D0032819D009683B
:101B7000012819D0490700294ADADFF848A1AAF15B
:101B8000080A00E044E0DAF8002022F007020243ED
:101B9000CAF80020FEF796FF814612E00968890323
:101BA000E9E709688901E6E7C905E4E7FEF78AFF86
:101BB000A0EB090141F28830814202D90320BDE83F
:101BC000F09F6168DAF8000000F03800B0EBC10F58
:101BD000ECD1207880070AD5E068296801F00F0170
:101BE000884204D2296821F00F0101432960D8F806
:101BF0000010404601F00F01B9420BD9016821F0F5
:101C00000F0139430160006800F00F00B84201D0B5
:101C10000120D4E7207840070AD52069296801F01F
:101C20007001884204D2296821F0700101432960C3
:101C3000207800070AD56069316801F07001884298
:101C400004D2316821F07001014331602078C00670
:101C50000AD5A069316801F4E061884204D2316894
:101C600021F4E06101433160207880060CD5E16900
:101C70005846DBF8002002F07002914204D202685C
:101C800022F070020A43026000F06CF80E492A68E4
:101C90002B68C2F3032203F00F038A5CC95C02F0D5
:101CA0001F0201F01F01D040084A20FA01F1116023
:101CB0000749086007480068BDE8F05FFEF73EBFCF
:101CC0000020005218440258644A000818000020FE
:101CD000140000200C00002030B500F043F80B4A3F
:101CE0000B490C4B15681468C5F3032204F00F046C
:101CF0008A5C095D02F01F0201F01F01D040064A14
:101D000020FA01F119601060084630BD18440258ED
:101D1000644A0008180000201400002000B5FFF7F6
:101D2000DBFF05490968054AC1F30211515C01F066
:101D30001F01C84000BD00001C440258644A00084E
:101D400000B5FFF7C9FF05490968054AC1F302213B
:101D5000515C01F01F01C84000BD00001C44025846
:101D6000644A0008454970B545480968434B103B33
:101D700011F0380208D00111082A03D0102A0BD024
:101D8000182A0BD0084670BD19688906FBD519685A
:101D9000C1F3C101C84070BD3A4870BD3749374DE5
:101DA00018310C1D24350A68096826682D6802F070
:101DB000030406F00102C1F30511C5F3CC0515FBC0
:101DC00002F200EE102AB8EE400AE9B32F4ADFED26
:101DD0002E0AB7EE001A6CB1DFED2D1A012C01D0DE
:101DE000022C43D002EE101A1068F8EE422A81EE5F
:101DF000A22A1EE01C68A40611D51B6801EE901AE9
:101E00001168C3F3C103F8EE612AD84001EE900ACD
:101E1000C1F30800F8EE611A81EEA22A0BE001EE90
:101E2000901ADFED1C2A00BFF8EE611A106882EEEE
:101E3000A12AC0F3080001EE900AF8EE611A40EE04
:101E4000201A31EE810A00E015E022EE000A106847
:101E5000C0F34620401C00EE900AF8EE600A80EEC7
:101E6000201ABCEEC10A10EE100A70BD01EE901AE5
:101E7000DFED092AD8E7002070BD000010440258A9
:101E80000090D00340787D010000003930440258B2
:101E90000024744A0024744C20BCBE4B2DE9F0474A
:101EA00004007DD0FF4F2078FE4D1837DFF8F48313
:101EB000103DC00766D0D8F80000396800F038003F
:101EC000102822D0182803D101F0030002281CD0CA
:101ED0006068B0F5803F1FD010B3B0F5A02F2BD0B5
:101EE000B0F5A81F28682FD020F48030286028681B
:101EF00020F480202860286820F480102860606822
:101F000098B3FEF7DFFD06462BE02868800339D53D
:101F100060680028C5D035E0286840F48030EDE7DF
:101F2000286820F480302860286820F48010286019
:101F3000286820F48020E1E7286840F480202860A9
:101F4000286820F4801005E040F48020286028688C
:101F500040F480102860DFE7FEF7B4FD801B6428A2
:101F600077D828688003F7D50CE0FFE7FEF7AAFDD5
:101F7000064604E0FEF7A6FD801B6428F0D828681A
:101F80008003F7D42078800744D5D8F80000DFF824
:101F90001493396810F03800A9F10C0910D000E052
:101FA000CEE0182801D188070AD0E06808B3296874
:101FB00021F0190101432960FEF784FD064614E073
:101FC0002868400702D5E0680028A3D0217CD9F812
:101FD000002022F0FE4242EA0161C9F8001019E037
:101FE000FEF770FD801B0228BAD828684007F7D595
:101FF000ECE7286820F001002860FEF763FD064644
:1020000005E000BFFEF75EFD801B0228A8D8286807
:102010004007F7D42078C00646D5D8F80000DFF88E
:102020008492396800F03800A9F10409082811D019
:10203000182803D101F0030001280BD0E069002823
:10204000286822D040F080002860FEF73BFD06465D
:1020500017E0E1E02868C00502D5E06980286FD16B
:1020600094F82010D9F8002022F07C5242EA016155
:10207000C9F8001018E000BFFEF724FD801B0228FD
:10208000B2D82868C005F7D5EAE720F080002860BC
:10209000FEF718FD064604E0FEF714FD801B02283B
:1020A000A2D82868C005F7D42078000729D57D4834
:1020B0006169643000298146016811D041F0010155
:1020C0000160FEF7FFFC064605E000BFFEF7FAFCE4
:1020D000801B022888D8D9F800008007F6D510E0C8
:1020E00021F001010160FEF7EDFC064605E000BFAE
:1020F000FEF7E8FC801B022888D8D9F8000080078A
:10210000F6D42078800625D5A0690028286810D04C
:1021100040F480502860FEF7D5FC064605E000BF7D
:10212000FEF7D0FC801B022876D828688004F7D5FB
:1021300010E020F480502860FEF7C4FC064606E05C
:102140003BE100BFFEF7BEFC801B022864D8286874
:102150008004F7D4207840076DD5DFF84C91D9F88A
:10216000001041F48071C9F80010FEF7ABFC064680
:1021700005E000BFFEF7A6FC801B64284CD8D9F808
:102180000000C005F6D5474EA0686036012818D07B
:10219000D8B1052825D0852830682AD020F0010044
:1021A0003060306820F004003060306820F080003B
:1021B0003060A06841F2883A78B3FEF783FC81462C
:1021C00026E0306840F00100F2E7306820F00100BE
:1021D0003060306820F080003060306820F004000B
:1021E000E6E7306840F004003060306820F080009E
:1021F00005E040F004003060306840F0800030605E
:10220000DFE700BFFEF75EFCA0EB0901514503D8F4
:1022100030688007F6D50EE088E0FFE7FEF752FC55
:10222000814605E0FEF74EFCA0EB090151457DD843
:1022300030688007F6D4606AC0B34146DFF8648036
:1022400008F120080968C1F3C20103296FD00228F0
:10225000286820F08070286003D0FEF733FC044625
:1022600080E0FEF72FFC064605E000BFFEF72AFCE3
:10227000801B022873D828688001F7D4E26A40F2F4
:10228000F331386854F8283F884340EA0210184375
:102290003860217B4FF4FE0C22894FF0FE47208AE4
:1022A000267D04E0104402580048025887E04902A5
:1022B000521EA1F5007189B2401EC2F308021143FB
:1022C000761E0CEA004001433E4807EA06621143CD
:1022D0003C4AC8F800100832016821F00101016091
:1022E00011684FF6F876236AB14341EAC3011160E1
:1022F0000168A26921F00C01114301600168E269E3
:1023000021F0020111430160016841F48031016054
:10231000016841F400310160016841F480210160ED
:10232000016841F001010160286801E017E01DE04B
:1023300040F080702860FEF7C5FB044605E000BF52
:10234000FEF7C0FB001B022809D828688001F7D5DA
:1023500035E000BFFEF7B6FB001B022802D90320C0
:10236000BDE8F08728688001F4D428E039680128A6
:10237000D8F8000021D0A26A01F0030393421CD1D7
:10238000E26AC1F305118A4217D1216BC0F308023A
:10239000491E8A4211D1616BC0F34622491E914207
:1023A0000BD1A16BC0F30642491E914205D1E16BEE
:1023B000C0F30660491E814201D00120D0E7002011
:1023C000CEE700002C4402587047401EB0F1807FD9
:1023D00010B501D3012010BD4FF0E02460610F2142
:1023E000601702F05FF80020A0610721216110BD95
:1023F00010B5FFF7E9FF10BDF0B590F83C20012AB9
:1024000038D01D4E012480F83C40022280F83D2047
:1024100002681A4D5368B242D2F808C001D0AA42ED
:1024200003D14F6823F470033B430F6823F070031C
:102430001F4357600268B24210D0B2F1804F0DD0F6
:102440000F4B9A420AD00F4B9A4207D00E4B9A423A
:1024500004D0AA4202D00D4B9A4204D189682CF0D4
:10246000800319439160002180F83D4080F83C10C2
:102470000846F0BD0220F0BD00000140000401400C
:102480000004004000080040000C0040001800401C
:1024900010B586B0044614216846FDF76DFF0D495E
:1024A0002068884214D10C48016841F0080101609D
:1024B0000068002100F008000590022082030092CD
:1024C000CDE90101CDE9031004486946FEF7D8F9CA
:1024D00006B010BD0008004040450258000C0258EC
:1024E00070B5044690F83C000D4601280BD0012041
:1024F00084F83C000C2A45D007DC5AB1042A1BD0D2
:10250000082A78D12CE0022070BD102A4ED0142A5F
:1025100071D15DE0206801F01DF82068816941F00B
:10252000080181612068816921F0040181612068CE
:102530002A698169114311E0206801F05FF8206881
:10254000816941F4006181612068816921F48061C1
:10255000816120682969826942EA012181614AE03A
:10256000206801F097F82068C16941F00801C16155
:102570002068C16921F00401C16120682A69C1692C
:10258000114311E0206801F0CBF82068C16941F4E3
:102590000061C1612068C16921F48061C161206866
:1025A0002969C26942EA0121C16124E0206801F081
:1025B000EDF82068416D41F0080141652068416DEA
:1025C00021F00401416520682A69416D114311E041
:1025D000206801F011F92068416D41F40061416506
:1025E0002068416D21F48061416520682969426D50
:1025F00042EA01214165002084F83C0070BD10B51D
:10260000040003D094F83D0010B107E0012010BD94
:10261000002084F83C00204600F022F8022084F8D4
:102620003D002068211D00F025FF012084F84800AE
:1026300084F83E0084F83F0084F8400084F84100AC
:1026400084F8420084F8430084F8440084F845008C
:1026500084F8460084F8470084F83D00002010BD4F
:1026600008B500680649884208D10648016841F06B
:1026700004010160006800F00400009008BD000043
:10268000000800404845025810B504464FF00202C9
:1026900069B1042912D0082917D00C291CD010299F
:1026A00021D094F84300012824D0012010BD94F8D3
:1026B0003E000128F9D184F83E201DE094F83F0047
:1026C0000128F2D184F83F2016E094F84000012858
:1026D000EBD184F840200FE094F841000128E4D1C8
:1026E00084F8412008E094F842000128DDD184F804
:1026F000422001E084F843200122206800F01CFF02
:102700001149206888420BD01049884208D01049EE
:10271000884205D00F49884202D00F49884203D130
:10272000416C41F40041416420680C4A81681140C9
:10273000062906D0B1F5803F03D0016841F00101C0
:102740000160002010BD00000000014000040140B5
:1027500000400140004401400048014007000100E2
:1027600030B590F87C10012918D0012280F87C2027
:102770002421C0F880100022202450F8601B0B6830
:102780000D6823F0005325F001050D60426050F8FC
:10279000601C0B6004620277104630BD022030BD21
:1027A000704770B5044690F87C0001281DD00122C6
:1027B00084F87C202420C4F8800020680568026822
:1027C00022F0010202602068826822F060620A43FF
:1027D0008260204601F0FCFA22682021002015606A
:1027E000C4F8801084F87C0070BD022070BD70B504
:1027F000044690F87C0001281DD0012284F87C203A
:102800002420C4F8800020680568026822F00102D4
:1028100002602068826822F060420A43826020469B
:1028200001F0D6FA2268202100201560C4F880103B
:1028300084F87C0070BD022070BD704770477047FF
:102840002DE9F04103680446002540F60F06D869DB
:1028500019689A68304209D186067DD501F02006B4
:1028600002F080573E4377D0E16E9EE0614E624FAA
:1028700016400F4037436FD0C70709D0CF0507D5A3
:1028800001271F62D4F8883043F00103C4F8883070
:1028900083070AD5D30708D0276802233B62D4F800
:1028A000883043F00403C4F8883043070AD5D307BF
:1028B00008D0276804233B62D4F8883043F0020331
:1028C000C4F8883003070CD501F02003334308D047
:1028D000266808233362D4F8883043F00803C4F82C
:1028E000883003050BD54B0109D526684FF40063EA
:1028F0003362D4F8883043F02003C4F88830D4F829
:102900008830002B34D0800609D501F0200002F079
:102910008051084303D0E16E09B120468847216801
:10292000D4F888008968490602D410F0280F21D015
:10293000204601F01DFB20688168490615D5816895
:1029400021F040018160A06F78B12C490165A06F32
:10295000FDF734FE002800E012E009D0A06F016D01
:1029600000E02046BDE8F04108472046FFF767FF3A
:10297000BDE8F0812046FFF762FFC4F88850F7E712
:10298000C60209D5560207D54FF4801018622046BA
:10299000BDE8F041FFF752BF060609D501F08006F9
:1029A00002F40002164303D0216F0029D9D1DFE7DA
:1029B00042060DD54A060BD51A682021204622F082
:1029C00040021A60C4F88010256700F0EAF8CFE7EB
:1029D000020206D54A0004D52046BDE8F041FFF7C3
:1029E0002CBFC001C4D50029C2DA2046BDE8F041A1
:1029F000FFF7D6BE01000010200100045B3F000875
:102A000010B5040003D0D4F8800010B107E0012015
:102A100010BD002084F87C00204600F027F8242018
:102A2000C4F880002068016821F00101016020469F
:102A300001F0B2FA0128EBD0A06A10B1204601F0F3
:102A4000F9F92068416821F490414160206881686B
:102A500021F02A0181602068016841F001010160D4
:102A60002046BDE8104001F049BA000010B586B01C
:102A7000044614216846FDF77FFC17492068884208
:102A800028D11648016841F010010160006800F08B
:102A90001000059011481038016841F001010160F3
:102AA00000680723022200F00100059000204FF487
:102AB000C06100916946CDE90120CDE903030848D2
:102AC000FDF7DEFE022200212520FEF7F9F9252080
:102AD000FEF7E8F906B010BD00100140504502585D
:102AE000000002582DE9F8430446D0F880001F4644
:102AF00016460D46202852D1DDB1D6B194F87C009F
:102B000001284CD0012084F87C0021224FF00008DD
:102B1000C4F88880C4F880201834FDF7D3FF8146BC
:102B200054F8100CA687E687183CB0F5805F03D0F8
:102B300004E00120BDE8F883206920B12E4600257D
:102B400084F87C8010E00026FAE78021204601F01E
:102B500011FCB8B9C6B116F8010B21688862B4F847
:102B60005600401EA4F85600B4F856004B464FF0ED
:102B7000000200970028E8D14FF04001204601F004
:102B8000F9FB38B10320D5E735F8020B2168C0F313
:102B90000800E3E72020C4F880000020CAE70220F4
:102BA000C8E77047FEE72DE9FE4F8146006888249C
:102BB00093468D888C2204EBCB178A46C3689421F8
:102BC000BE46C459C3F30B432B4404F470441F04A2
:102BD000019702EBCB1240F80E4001EBCB13DAF871
:102BE00000709C214FF0AC0C01EBCB1440F207714C
:102BF00002910CEBCB11D9F800C098250020CDF83C
:102C000000C0A02605EBCB15DCF80CC006EBCB16FC
:102C1000CCF30B4C0CF1010C07EB0C08DDF800C0F9
:102C2000019F48EA07084CF80E80D9F80070BAF8FE
:102C30000CC0B846FF68C7F30A0767444FEA074E5F
:102C400058F8027007F4704C48F802C0D9F800C078
:102C5000DAF80870DCF80C80C8F30A0808F10108FB
:102C6000B84448EA0E084CF80280D9F80020D7583A
:102C700027F00707D750D9F80070DAF81020FA507B
:102C80009AF831209AF818304FEA022C9AF832203C
:102C9000120442EA0362D9F800301F5918519AF819
:102CA000303043EA0C031343D9F800201351D9F80C
:102CB0000020535923F0FF035351D9F80020DAF8CC
:102CC00014305351D9F800209359029CA3439351D7
:102CD000D9F80030DAE9072422439A51D9F80020C4
:102CE00053585050D9F80020DAF824005050DAF840
:102CF0001000C8B301283AD004283AD0022838D0AE
:102D0000032836D0072834D00120D9F80030B02568
:102D100005EBCB11B42284245D5802EBCB1205F0F5
:102D2000E0255D50DAE9003504EBCB14EB1ABAF874
:102D3000285043434543D9F80000DB1D43EA0543CF
:102D40004350D9F8000081586FF30A018150D9F837
:102D50000000DAF82C108150D9F80000015941F038
:102D600001010151BDE8FE8FFFE70420CDE70320FC
:102D7000CBE70220C9E700000D4838B5016841F0F3
:102D800010010160006802230B49002400F01000CC
:102D9000009008484FF4403280E81E00FDF7B6FB73
:102DA000002803D0BDE83840FDF728BB38BD00003F
:102DB00034450258340000200010005230B587B06E
:102DC00014216846FDF7D8FA2948016841F004014A
:102DD0000160016801F004010591016841F0800182
:102DE0000160016801F080010591016841F0010175
:102DF0000160016801F001010591016841F00201E3
:102E00000160016801F002010591016841F01001C3
:102E10000160016801F010010591016841F00801AD
:102E2000016000680022134D022100F008000590A7
:102E30002846FDF742FE01240F4960038DE8130088
:102E400069462846FDF71CFD002102200090284617
:102E5000CDE9014103916946FDF712FD03220021EE
:102E60002820FEF72DF82820FEF71CF807B030BD0B
:102E7000404502580008025800002111F0B58DB0FD
:102E800034216846FDF778FA25480024234B502169
:102E900000F11C0C4FF48766282240F21E27C0E97F
:102EA000003484604FF45C73C4604FF402750461B5
:102EB000446184618CE8EE0080F8344080F835404D
:102EC00080F83640FDF784FE08B1FDF797FA4FF41D
:102ED00048714FF4F072FF2002260496CDE90041BC
:102EE000CDE90242CDE90504CDE90A1207A9730232
:102EF00005254FF0105781E8A8008DF8300000221A
:102F00008DF8310069468DF832000548FDF736FE30
:102F1000002801D0FDF772FA0DB0F0BD001000508E
:102F20009C00002030B58BB0002468461C2107941B
:102F300008940994FDF720FA15486325134940F2D7
:102F4000775280E8360004618461FFF758FB08B1CE
:102F5000FDF754FA0E4807A907940994FFF74CFAB5
:102F600008B1FDF74BFA60200090CDE90154084804
:102F70000C2269460494FFF7B3FA08B1FDF73EFA54
:102F80000348FFF785FA0BB030BD00000008004091
:102F9000440100201848002110B5164C0C224FF4B3
:102FA000E1330460C0E90131C160C0E9041281610C
:102FB000C161016241628162FFF722FD08B1FDF744
:102FC0001DFA0D480021FFF712FC08B1FDF716FAB3
:102FD00009480021FFF7E5FB08B1FDF70FFA0648A5
:102FE000FFF7BEFB002803D0BDE81040FDF706BA8E
:102FF00010BD00000010014090010020FEE7FEE738
:1030000010B586B014216846FDF7B6F91B48016873
:1030100041F010010160016801F0100105910168A3
:1030200041F01001016000680221154C102200F0EF
:10303000100005900020CDE901016946009203903F
:103040002046FDF71DFC0820694600902046FDF74C
:1030500017FC4FF47A6000F031FC08212046FDF7A0
:1030600027FD012808D010212046FDF721FD012869
:1030700002D004490120087006B010BD4045025836
:103080000010025800000020704700002DE9F047B2
:10309000454D044689464FF0000A2868C043800722
:1030A0000AD0414E283E306820F080603060FDF745
:1030B00009FD0746B04608E00120BDE8F08700BFE3
:1030C000FDF700FDC01B022867D8D8F800000001FA
:1030D000F6D4206829684FF4FE0721F47C313E02C3
:1030E00041EA00302860207AA389B4F804C0400285
:1030F0002D4D2D495B1E227CACF1010C1035091DB4
:10310000A0F5007080B2521ECCF3080C07EA03430E
:1031100040EA0C00184306EA02621043286008687F
:10312000626920F0C000104308600A68A06922F0BC
:10313000200202430A60281D0A6822F010020A6079
:1031400002684FF6F873E4699A4342EAC4020260E7
:103150000868B9F1000F40F010020A6011D0086849
:10316000B9F1010F11D040F400100860D8F8000048
:10317000444640F08060C8F80000FDF7A3FC054617
:103180000DE0086840F40020EFE740F48010ECE721
:10319000FDF798FC401B022801D903208DE7206829
:1031A0000001F5D5504688E7284402582DE9F0473C
:1031B000454D044689464FF0000A2868C043800701
:1031C0000AD0414E283E306820F080503060FDF734
:1031D00079FC0746B04608E00120BDE8F08700BF53
:1031E000FDF770FCC01B022867D8D8F800008000EB
:1031F000F6D4208829684FF4FE0721F07C713E0246
:1032000041EA00502860207AA389B4F804C0400243
:103210002D4D2D495B1E227CACF1010C1835091D8A
:10322000A0F5007080B2521ECCF3080C07EA0343ED
:1032300040EA0C00184306EA02621043286008685E
:10324000626920F44060104308600A68A06922F4B3
:10325000007202430A60281D0A6822F480720A6024
:1032600002684FF6F873E4699A4342EAC4020260C6
:103270000868B9F1000F40F480720A6011D0086844
:10328000B9F1010F11D040F080700860D8F800004B
:10329000444640F08050C8F80000FDF713FC054696
:1032A0000DE0086840F48000EFE740F40000ECE730
:1032B000FDF708FC401B022801D903208DE7206898
:1032C0008000F5D5504688E728440258704710B56D
:1032D000FFF78EF8BDE81040FDF7FABBF0B5CBB0B4
:1032E0004C212EA8FDF748F8202141A8FDF744F80D
:1032F000B8216846FDF740F80220FDF713FE284884
:103300000024016841F440410160016801F440413A
:10331000499101688904FCD52248022501684026AC
:103320000427012221F003010160399723202E9503
:103330000C21CDE93754CDE93A05CDE93E143C9551
:103340002EA83D954094CDE93126FEF7A7FD10BB90
:1033500041AB3F20032183E813006A02489607210E
:10336000CDE94446CDE9466241A8FEF787FB90B916
:103370000D4A082000924FF44061CDE90A050997F3
:1033800068462094CDE90E14CDE90C571094FDF752
:1033900049FF002801D0FDF731F84BB0F0BD000027
:1033A0001848025828440258010000202948F0B566
:1033B000294A016841F470010160106800F00F00B3
:1033C000032804D2106820F00F00C01C10602349AD
:1033D0000020224C10340B68214D43F001030B6098
:1033E00020600B682B400B60136803F00F03032B66
:1033F00004D9136823F00F03DB1C1360174C194A20
:103400001834194B261D371D2060144C174D2834D5
:103410003060261D3860371D23603B1D35601C1D44
:103420003A60251D2E1D1860331D22602860326011
:1034300018600A6843F2D2040D4D084B22F4802232
:10344000044F60330A606E03803F18602C603E605A
:10345000F0BD000088ED00E000200052004402585A
:103460007FEDF6EA80020101000202020000FF0186
:10347000004000522DE9F047274B4FF0804A274D7E
:1034800002689842264E274F274C09D0504507D056
:10349000A84205D0B04203D0B84201D0A04205D125
:1034A000D1F804C022F070024CEA0202DFF87CC0BE
:1034B000DFF87C809842DFF87C900FD050450DD02B
:1034C000A8420BD0B04209D0B84207D0A04205D0E4
:1034D000604503D0404501D0484503D1CD6822F472
:1034E00040722A434D6922F080022A4302609842CA
:1034F0008A68C2620A68826207D0A04205D060452D
:1035000003D0404501D0484501D10969016301213B
:103510004161BDE8F0870000000001400004004068
:1035200000080040000C0040000401400040014041
:10353000004401400048014010B5046A012301F035
:103540001F018B409C4304628A40016A114301625F
:1035500010BD00002DE9F04F026ADFF88880DFF827
:10356000889022F00102DFF884A0DFF884B0214FB8
:103570000262DFF884C0066A4268836926F00206A8
:103580000D68B8428C6803EA0C0323F0030344EA95
:10359000060445EA030507D0404505D0484503D059
:1035A000504501D0584505D1CB6824F00804234389
:1035B00023F00404B84207D0404505D0484503D065
:1035C000504501D0584505D122F44076D1E9053265
:1035D00033431A4342608561496841630462BDE830
:1035E000F08F000000040140004001400044014011
:1035F00000480140000001408FFFFEFFF0B5026A65
:103600001E4E1F4C22F01002DFF878E00262056ABD
:103610004368826925F02005D1F808C0A0420F68F0
:1036200002EA060222F4407245EA0C1542EA072239
:1036300001D0704506D1CE6825F0800545EA061513
:1036400025F04005A0420AD0704508D00E4CA0429B
:1036500005D00E4CA04202D00D4CA04207D1D1E9BA
:10366000054623F4406343EA840343EA8603436048
:103670008261496881630562F0BD0000FF8FFFFE33
:1036800000000140000401400040014000440140AE
:1036900000480140F0B5026A1C4D1D4E22F48072B4
:1036A000A8420262026A4368C76922F40072D1F834
:1036B00008C00C6827F0730742EA0C2244EA0704AA
:1036C00001D0B04206D1CF6822F4006242EA07225C
:1036D00022F48062A8420AD0B04208D00D4DA84220
:1036E00005D00D4DA84202D00C4DA84207D1D1E91A
:1036F000055623F4405343EA051343EA0613436097
:10370000C4614968C1630262F0BD0000000001406D
:1037100000040140004001400044014000480140D5
:1037200070B5026A144B22F4805202629842036A16
:103730004268C46923F400538E680D6824F4E6449B
:1037400043EA063344EA05240BD00C4DA84208D0C6
:103750000B4DA84205D00B4DA84202D00A4DA842FD
:1037600004D14D6922F4804242EA85124260C4616C
:1037700049680164036270BD00000140000401401B
:10378000004001400044014000480140F0B5026A99
:1037900022F480320262134F056A4268446D25F4B8
:1037A00000350E89B8420B6824F0700445EA0645DE
:1037B00043EA04030BD00C4CA04208D00B4CA042AF
:1037C00005D00B4CA04202D00A4CA04204D14C6957
:1037D00022F4803242EA04224260436549688165EE
:1037E0000562F0BD000001400004014000400140BE
:1037F0000044014000480140F0B5026A22F4801202
:103800000262134F046A4268436D24F400140E8967
:10381000B8420D6823F4E04344EA065443EA052322
:103820000BD00C4DA84208D00B4DA84205D00B4D33
:10383000A84202D00A4DA84204D14D6922F40032B8
:1038400042EA8522426043654968C1650462F0BD71
:1038500000000140000401400040014000440140DC
:103860000048014010B5144C002220212046FDF7ED
:1038700024F9142000F022F8002220464021FDF710
:103880001CF9142000F01AF8012220462021FDF72F
:1038900014F9142000F012F8002220462021FDF730
:1038A0000CF9012220464021FDF707F9BDE8104040
:1038B000142000F003B8000000100258002208B5E0
:1038C0000DE000BFADF8002005E000BFBDF800101E
:1038D000491CADF80010BDF800100429F6D3401EB5
:1038E000F0D208BD10B586B014216846FCF744FD3F
:1038F0002B48016841F010010160016801F01001DE
:103900000591016841F010010160016801F01001AA
:103910000591016841F010010160016801F010019A
:103920000591016841F010010160006820211D4CE3
:10393000112200F010000590002000916946CDE9A9
:10394000012003902046FCF79BFF40206946009031
:103950002046FCF795FF0121019110200291694654
:1039600000902046FCF78CFF082069460090204616
:10397000FCF786FF012220462021FDF79EF8012258
:1039800020464021FDF799F8002220461021FDF73E
:1039900094F8012220460821FDF78FF806B010BDEB
:1039A000404502580010025810B5114C0022202149
:1039B0002046FDF782F81420FFF780FF0122204601
:1039C0004021FDF77AF81420FFF778FF0122204606
:1039D0002021FDF772F81420FFF770FF0022204627
:1039E0002021FDF76AF8BDE810401420FFF766BFFC
:1039F000001002582DE9F041154E002580462C4656
:103A000068060122070E30462021FDF756F81420E3
:103A1000FFF754FF40213046FDF74AF800F001055A
:103A200030463D4300222021FDF747F81420FFF7E0
:103A300045FF641CE4B2082CE2D3B8F1010F04D0B6
:103A4000FFF7B2FF2846BDE8F081FFF70BFFF9E76B
:103A50000010025810B5104C012240212046FDF7FD
:103A60002CF8012220462021FDF727F81420FFF72B
:103A700025FF002220464021FDF71FF81420FFF704
:103A80001DFF002220462021FDF717F8BDE8104059
:103A90001420FFF713BF00000010025810B5114C9E
:103AA000002220212046FDF708F81420FFF706FF2A
:103AB000002220464021FDF700F81420FFF7FEFE0B
:103AC000012220462021FCF7F8FF1420FFF7F6FE24
:103AD000012220464021FCF7F0FFBDE810401420F1
:103AE000FFF7ECBE0010025810B5154C0122402122
:103AF0002046FCF7E2FF1420FFF7E0FE01222046FB
:103B00002021FCF7DAFF1420FFF7D8FE40212046E1
:103B1000FCF7CEFF00284FF000024FF020012046B6
:103B200006D0FCF7CAFF1420FFF7C8FE002010BD26
:103B3000FCF7C3FF1420FFF7C1FE012010BD0000F9
:103B40000010025870B5164E00240546280601D50F
:103B5000012200E0002230464021FCF7AEFF142095
:103B6000FFF7ACFE012230462021FCF7A6FF14200F
:103B7000FFF7A4FE002230462021FCF79EFF072C11
:103B800004D1012230464021FCF797FF6806641CEF
:103B9000050EE4B2082CD9D3BDE87040FFF7A4BFEE
:103BA0000010025800B585B014216846FCF7E4FB0C
:103BB0000020019010210290039003480091694673
:103BC000FCF75EFE05B000BD0010025800B585B0E0
:103BD00014216846FCF7D0FB012000211022CDE91A
:103BE0000020CDE9020103486946FCF749FE05B013
:103BF00000BD0000001002581FB500248DF80C40D5
:103C0000FFF7FEF9FFF76EFEFCF72CFC0B216A466E
:103C100048F24010FCF7FCFB012148F2470003AAE0
:103C2000FCF7F6FB9DF80000392805D01DA000F038
:103C300029FC012004B010BD1EA0694600F022FC42
:103C40009DF805109DF8040000EB01211EA000F076
:103C500019FC9DF807109DF809309DF806009DF8A5
:103C6000082000EB012102EB03221CA000F00AFC5B
:103C70009DF80C101FA000F005FC9DF807209DF892
:103C80000600244900EB0220B0F5806F03D0B0F5A8
:103C9000487F03D003E00120087000E00C70002092
:103CA000C8E70000546F756368204572726F720D2B
:103CB0000A000000546F7563682049443A20475455
:103CC000252E3473200D0A00B9CCBCFEB0E6B1BE7F
:103CD000A3BA203058252E34780D0A00B4A5C3FEAF
:103CE000B7D6B1E6C2CAA3BA2564202A2025640D3E
:103CF0000A000000B4A5C3FEB2CECAFDC5E4D6C317
:103D0000B0E6B1BEA3BA203058252E3278200D0A75
:103D1000000000000000002030B58BB048F24E15C6
:103D200000246A462A212846FCF772FB0021284617
:103D3000FCF7C8FB20499DF8000000F00F00487018
:103D40004878A8B3487805282BD932E0684600EBBC
:103D5000C40201EB44009388838152884280174A51
:103D60001278012A1BD182899FED152B00EE102AB3
:103D70009FED151BB8EE400B20EE020BBCEEC00B06
:103D800010EE102A8281428800EE102AB8EE400B15
:103D900020EE010BBCEEC00B10EE102A4280641C1A
:103DA000E4B24878A042D1D8012008700BB030BDF1
:103DB000FFE70020F9E700001C00002000000020C1
:103DC0009A9999999999E93FF6285C8FC2F5E83F4D
:103DD0003FB514A1D1E9002314A1CDE90023D1E915
:103DE0000021CDE90221416EB9B1016802AC8A68B7
:103DF0008968C2F34262490F1DF80150615C2D01D0
:103E0000B5FBF1F1A0F86A101DF80210A25C0901DF
:103E1000B1FBF2F1A0F868103FBD0121A0F86A10D3
:103E2000F8E7000001010103070100000804020493
:103E30000801010190F82810C90706D00168C36A7B
:103E40004A6822F400321A434A6090F82810890721
:103E500006D50168036B4A6822F480321A434A602F
:103E600090F82810490706D50168436B4A6822F488
:103E700080221A434A6090F82810090706D5016885
:103E8000836B4A6822F400421A434A6090F8281073
:103E9000C90606D50168C36B8A6822F480521A43AA
:103EA0008A6090F82810890606D50168036C8A6834
:103EB00022F400521A438A6090F82810490611D55E
:103EC0000168436C4A6822F480121A434A60416CCC
:103ED000B1F5801F06D10168836C4A6822F4C002E4
:103EE0001A434A6090F82810090606D50168C26C8A
:103EF000486820F40020104348607047F8B5002659
:103F00000446C0F88860FCF7DDFD054620686FF0C8
:103F10007E470068000708D500222B464FF40011A9
:103F20002046009700F026FA60B920680068400734
:103F30000AD500222B464FF480012046009700F05E
:103F400019FA08B10320F8BD2020C4F8800084F8D5
:103F50007C60C4F884000020F8BD10B5806B00219F
:103F6000A0F85E10A0F85610FEF769FC10BD000026
:103F700030B501682023074D00240A6822F49072AE
:103F80000A6001688A682A408A60C0F88430C46682
:103F900030BD0000FEFFFFEF2DE9F04304468068CE
:103FA000E24F87B02268D4E90465E369616E30436B
:103FB00016681D432843DE4B002501433E400E4357
:103FC00016602068E268416821F440511143416065
:103FD0002268A1699A4201D0206A01439768DFF8FC
:103FE00054C3D54ED54807EA0C070F4397602168A4
:103FF000676ACA6A22F00F023A43CA622268B24272
:104000000ED1006800F0380018286FD07ADCB8B301
:1040100008286CD010286BD18BE0282868D18EE05E
:10402000C7498A4209D1006800F0070006285FD21C
:10403000DFE800F0507D7F818385C2498A4209D143
:10404000006800F0070006287BD2DFE800F043702C
:1040500072747678BC498A4209D1006800F0070082
:1040600006286ED2DFE800F036636567696BB749F2
:104070008A420BD1006800F00700062861D200E0F8
:1040800043E0DFE800F0275456585A5CB0498A42B2
:1040900006D1006800F0380018284CD0B7DD31E0B8
:1040A000AC498A4209D1006800F00700062848D2CE
:1040B000DFE800F0103D3F414345A7498A420BD15C
:1040C000006800F0070006283BD2DFE800F003306C
:1040D00032343638002035E0A0498A4209D10068E0
:1040E00000F03800182826D091DD0BE023E01EE018
:1040F00027E09B498A420AD1006800F0380018285E
:1041000019D084DD202888D11CE001201AE09A42D1
:1041100017D18A48001D006800F00700062810D259
:10412000DFE800F0030507090B0D02200AE0042078
:1041300008E0082006E0102004E0202002E04020F3
:1041400000E080208749DFF820829A42874A4FF4B6
:1041500000434FEA21174FF000064ED110281AD025
:1041600006DC022809D004280BD008287DD10DE0F8
:1041700020283ED0402878D13DE0FCF7FDFE0146E6
:1041800010E06846FCF70AFF01990BE003A8FCF772
:10419000A7FF049906E01068800604D51068C0F3F4
:1041A000C100C140C1B3606A676838F8102007EBEE
:1041B0004703B1FBF2F0834257D8B0EB073F54D826
:1041C000002308461946FCF78DF80902020241EA6D
:1041D000106170084FEA370010183A467141002309
:1041E000FCF780F8624AA0F5407191423DD8216801
:1041F0004CE03946D7E71946D5E7D4F81CC04FF64E
:10420000EF799C4552D108281AD006DC60B101280C
:104210000DD0042829D10EE039E0102815D020282F
:1042200040D040287CD13FE0FDF778FD01E0FDF76C
:1042300087FD014610E06846FCF7B0FE01990BE0EF
:1042400003A8FCF74DFF049906E01068800604D52A
:104250001068C0F3C100C140C9B1636A606838F832
:104260001330B1FBF3F1490000E059E001EB5001DC
:10427000B1FBF0F080B2A0F11001494550D84FF6E3
:10428000F0732168C0F3420218401043C860012057
:10429000A4F86A00A4F868002846E666266707B016
:1042A000BDE8F0833946D8E71946D6E7082819D083
:1042B00005DC58B101280CD0042831D10DE01028BC
:1042C00015D020282ED040282AD12DE0FDF726FD3C
:1042D00001E0FDF735FD014610E06846FCF75EFEA3
:1042E00001990BE003A8FCF7FBFE049906E01068B7
:1042F000800605D51068C0F3C100C1400029C6D0B2
:10430000636A606838F81330B1FBF3F101EB5001D8
:10431000B1FBF0F080B2A0F1100149457FF667AF24
:104320000125B4E73946EBE71946E9E7F369FFCF22
:10433000000C0058FFF4FF110010014054440258D3
:104340000044004000480040004C00400050004045
:104350000014014000780040007C0040001801403B
:10436000001C01400090D0034C4A00080044025851
:10437000FFFC0F002DE9F0479A4617460E4604460B
:10438000089D4FF000094FF0200839E0681C37D035
:10439000FCF798FBA0EB0A00A84222D80DB32068D6
:1043A000016849072CD5C069C043000528D423689B
:1043B0004FF40061196221680B6823F4D0730B601D
:1043C00021688B6823F001038B60C4F88080C4F8F7
:1043D0008480C4F8888000BF032084F87C90BDE806
:1043E000F08721680B6823F4D0730B6021688B6819
:1043F00023F001038B60C4F88080C4F88480EBE76D
:104400002068C06936EA000004D00020B842BDD060
:104410000020E4E70120F9E70148FEF711BA0000A7
:1044200090010020FEE7000070B5002405464FF41F
:104430007A760548291933460122FEF753FB641C9E
:10444000285D0028F5D170BD90010020F0B50C4C1E
:1044500061F31F424FF44031DDE90556276827F02C
:10446000010727602160A563E063236466636264DB
:10447000206840F0010020602068C007FCD1F0BD3A
:10448000001000520FB4054B10B503A9044A02985E
:1044900000F028F810BC5DF814FB00005948000833
:1044A00004000020090700284FEA116104DB00F135
:1044B000E02080F80014704700F00F0000F1E020C9
:1044C00080F8141D704702E008C8121F08C1002AB6
:1044D000FAD170477047002001E001C1121F002A85
:1044E000FBD170472DE9FF4F8DB09B460F46044628
:1044F000002606E025280BD05A460F999047641CE9
:10450000761C20780028F5D111B03046BDE8F08F38
:104510000025A8460122984900E0054314F8013F10
:10452000203B02FA03F00842F7D120782E2817D159
:1045300014F8010F45F004052A280ED06FF02F0261
:104540002078A0F1300109290AD808EB880102EB94
:10455000410100EB0108641CF2E757F8048B641C6E
:1045600020786C280DD004DC4C2812D06A2811D198
:1045700004E074280DD07A280CD10AE045F4001527
:1045800007E0617845F48015814202D1641C05F58D
:104590008015641C2278692A45D008DC002AB3D033
:1045A000582A69D0632A10D0642A08D13BE0702AC7
:1045B00067D0732A13D0752A5CD0782A5CD0104655
:1045C0005A460F999047761CD3E017F8040B8DF8E4
:1045D000000000208DF80100E946012003E057F8B3
:1045E000049B4FF0FF3069074FF0000501D40AE04B
:1045F0006D1C45450DDA8542FADB19F805100029D6
:10460000F6D106E06D1C8542FCDB19F80510002987
:10461000F8D12E4404E019F8010B5A460F9990473F
:104620006D1EF8D2A5E00A200021CDE90801C5F3EE
:10463000025002280DD001CFC117031E71F10003F3
:104640000DDA4FF0000CD0EB0C006CEB01012D23C8
:1046500008E0FF1D27F00707F7E80201EDE72B054B
:1046600004D52B238DF8283001233BE0EB0739D00C
:104670002023F7E70A2000E010200021CDE90801FF
:1046800007E01020002145F00405CDE908014FF0B6
:104690000808C5F3025002280FD001CF00214FF0C7
:1046A000000A2B071FD5702A0DD0DDE908C38CF056
:1046B000100C5CEA030C0CD015E0FF1D27F0070777
:1046C000F7E80201EBE740228DF828204FF0010ABD
:1046D0000BE050EA010306D030238DF828308DF826
:1046E000292002239A46582A04D024A20DF1200939
:1046F0000B9209E026A2F9E7DDE90823FBF7F2FDBA
:104700000B9B9B5C09F8013D50EA0102F4D1ADEB33
:10471000090020300890680701D44FF0010808997B
:10472000884502DDA8EB010000E00020804600255E
:1047300006E00AA85A46405D0F9990476D1C761C0A
:104740005545F6DB04E030205A460F999047761C19
:10475000B8F10001A8F10108F5DC05E019F8010B3A
:104760005A460F999047761C0899481E08900029D0
:10477000F4DC641CC5E60000092801003031323346
:10478000343536373839616263646566000000008D
:104790003031323334353637383941424344454677
:1047A0000000000001464FF478404FF4FC6300EA3B
:1047B0001120C1F3C40203EA5111084310437047AA
:1047C0002DE9F04790461C4640450D46DDF820A0F7
:1047D0008146114620D807461AE0A5420BD22E4644
:1047E00006E052463146384600F042F8761CB6B232
:1047F000A642F6D90AE0264606E052463146384639
:1048000000F036F8761CB6B2AE42F6D97F1CBFB2C5
:104810004745E2D9BDE8F0870F461AE0A5420BD222
:104820002E4606E052463146384600F021F8761C06
:10483000B6B2A642F6D90AE0264606E0524631460E
:10484000384600F015F8761CB6B2AE42F6D97F1C99
:10485000BFB24F45E2D9DDE713B504486423012216
:104860006946FEF73FF900981CBD0000900100204A
:10487000B0F5487F4FF0105310B50AD8B1F5F07F6E
:1048800007D801EBC10404EB011103EB811121F8FE
:10489000102010BD2DE9FC411D4614460E4607466A
:1048A0000898FFF77FFF01464FF4C8600223464394
:1048B0006D1CCDE9001306EB47002146AAB2C4F5F2
:1048C000487300F11050FFF7C1FDBDE8FC81000006
:1048D0001FB500240094019402940394FCF7B2FAEB
:1048E00013228DF808208DF8094001208DF8000072
:1048F00003238DF80A404FF0105168468DF80140AF
:1049000001918DF80B300394FCF76EFA0420FCF74C
:10491000A7FABFF34F8FBFF36F8F41480460BFF317
:104920004F8FBFF36F8F3F4A106840F40030106024
:10493000BFF34F8FBFF36F8F3A4870300460BFF3FF
:104940004F8F001F43F6FF740068354D1035C0F3DC
:104950004E31C0F3C90304EA4116184646EA80778F
:104960002F60401EFAD2491EF5D2BFF34F8F106858
:1049700040F480301060BFF34F8FBFF36F8FFCF7B0
:10498000AFF8FEF7ABFCFEF719FAFEF703FBFEF7F4
:1049900075FAFEF7C7FAFEF7EFF923480C21FDF789
:1049A00073FE224963200860FFF726F920A0FFF775
:1049B0003BFD22A0FFF766FDFCF784F800210446CA
:1049C0001F484FF4F0754FF448762B46324600905E
:1049D0000846FFF75FFFFCF775F8011B19A0FFF70A
:1049E00051FDFCF76FF80021044640F6FB602B46B2
:1049F000324600900846FFF7E3FEFCF763F8011B20
:104A000010A0FFF73FFD104C4FF47A75FFF784F9C3
:104A10002846FBF715FF206880F002002060F5E7CC
:104A200050EF00E014ED00E0440100204008004099
:104A3000B3F5CABCBBAF6F6B0A0000006F6B0A0016
:104A4000507FFF0025640A0014080258010002008C
:104A50000400060008000A000C00100020004000BE
:104A600080000001000000000102030401020304B1
:104A700006070809944A0008000000201C000000F6
:104A8000C6440008B04A00081C00002004060000CC
:104A9000D6440008000000000000000001000000F3
:104AA00010000000000000000090D0030090D00330
:04000005080002AD40
:00000001FF
