:020000040800F2
:10000000A8040020C1020008512F0008292E000872
:100010004D2F0008CD0300082D3D00080000000012
:100020000000000000000000000000002132000875
:10003000D103000800000000552F000823320008FB
:10004000DB020008DB020008DB020008DB0200081C
:10005000DB020008DB020008DB020008DB0200080C
:10006000DB020008DB020008DB020008DB020008FC
:10007000DB020008DB020008DB020008DB020008EC
:10008000DB020008DB020008DB020008DB020008DC
:10009000DB020008DB020008DB020008DB020008CC
:1000A000DB020008DB020008DB020008DB020008BC
:1000B000DB020008DB020008DB020008DB020008AC
:1000C000DB020008DB020008DB020008DB0200089C
:1000D000DB0200081D3D0008DB020008DB0200080F
:1000E000D5030008DB020008DB020008DB02000881
:1000F000DB020008DB020008DB020008DB0200086C
:10010000DB020008DB020008DB020008DB0200085B
:10011000DB020008DB020008DB020008DB0200084B
:10012000DB020008DB020008DB020008DB0200083B
:10013000DB0200080000000000000000DB020008F5
:10014000DB020008DB020008DB020008DB0200081B
:10015000DB020008DB020008DB020008DB0200080B
:10016000DB020008DB020008DB020008DB020008FB
:10017000DB020008DB020008DB020008DB020008EB
:10018000DB020008DB020008DB020008DB020008DB
:10019000DB020008DB020008DB020008DB020008CB
:1001A000DB020008DB020008DB020008DB020008BB
:1001B000DB020008DB020008DB020008DB020008AB
:1001C000DB020008DB020008000000000000000065
:1001D0000000000000000000DB020008000000003A
:1001E000000000000000000000000000000000000F
:1001F0000000000000000000DB020008DB02000835
:10020000DB020008DB02000800000000DB0200083F
:10021000DB020008DB020008DB020008DB0200084A
:10022000DB020008DB020008DB020008000000001F
:10023000DB020008DB02000800000000DB0200080F
:10024000DB020008DB020008DB020008DB0200081A
:10025000DB020008DB020008DB020008DB0200080A
:10026000DB020008DB020008DB020008DB020008FA
:10027000DB020008DB020008DB02000800000000CF
:10028000DB020008DB02000800000000DB020008BF
:1002900000000000DB020008DB020008DB020008AF
:1002A000DB020008DB020008DB020008DFF80CD0EC
:1002B00000F07AF800480047D13D0008A80400206B
:1002C0000648804706480047FEE7FEE7FEE7FEE7F0
:1002D000FEE7FEE7FEE7FEE7FEE7FEE70133000884
:1002E000AD0200082DE9F05F0546002092469B46CE
:1002F00088460646814640241BE02846414647463C
:10030000224600F041F853465A46C01A914110D394
:1003100011461846224600F028F82D1A67EB01080E
:100320004F4622460120002100F01FF817EB00097C
:100330004E41201EA4F10104DFDC484631462A4626
:100340004346BDE8F09FD2B201E000F8012B491E00
:10035000FBD270470022F6E710B513460A46044662
:100360001946FFF7F0FF204610BD202A04DB203A93
:1003700000FA02F1002070479140C2F1200320FAF8
:1003800003F3194390407047202A04DB203A21FAF6
:1003900002F00021704721FA02F3D040C2F120029E
:1003A0009140084319467047064C074D06E0E06847
:1003B00040F0010394E8070098471034AC42F6D3AC
:1003C000FFF778FF483E0008683E000800BFFEE7E0
:1003D0007047000010B54FF40051104800F018FBB2
:1003E000B8B9002000E0401CB0F57A7FFBDB4FF489
:1003F00000510A4800F00CFB58B900BF4FF40051FF
:10040000064800F005FB0028F8D00221034800F060
:1004100007FB4FF4005000F0E9F910BD0008025846
:1004200072B600BFFEE7000070B504460CB90120AB
:1004300070BD94F83500022803D08020606501204B
:10044000F6E7DC492068884249D0DA49183120684B
:10045000884244D0D7493031206888423FD0D549BE
:100460004831206888423AD0D249603120688842B9
:1004700035D0D04978312068884230D0CD4990318C
:10048000206888422BD0CB49A8312068884226D0EA
:10049000C9492068884222D0C7491831206888425B
:1004A0001DD0C54930312068884218D0C249483132
:1004B0002068884213D0C0496031206888420ED03D
:1004C000BD4978312068884209D0BB499031206805
:1004D000884204D0B849A8312068884201D101205F
:1004E00000E00020F0B3042084F83500B149206812
:1004F00088424BD0AF4918312068884246D0AD4978
:1005000030312068884241D0AA4948312068884269
:100510003CD0A84960312068884237D0A54978315D
:100520002068884232D0A3499031206888422DD07B
:10053000A049A8312068884228D09F492068884275
:1005400024D09D491831206888421FD09A49303103
:10055000206888421AD0984948312068884215D0CE
:10056000954900E020E06031206888420ED0924931
:1005700078312068884209D08F49903120688842BC
:1005800004D08D49A8312068884206D120680068CF
:1005900020F001002168086009E12068006820F06F
:1005A00001002168086002E12068006820F00E0068
:1005B000216808607F492068884249D07D49183108
:1005C0002068884244D07B493031206888423FD03F
:1005D00078494831206888423AD0764960312068AD
:1005E000884235D0734978312068884230D07149CB
:1005F0009031206888422BD06E49A831206888420B
:1006000026D06D492068884222D06B491831206875
:1006100088421DD0684930312068884218D0664928
:1006200048312068884213D063496031206888428D
:100630000ED0614978312068884209D05E499031F6
:100640002068884204D05C49A8312068884206D1DD
:100650002068006820F001002168086005E020683B
:10066000006820F001002168086052492068884233
:1006700070D050491831206888426BD04D493031D4
:100680002068884266D04B4948312068884261D052
:1006900048496031206888425CD0464978312068FA
:1006A000884257D0434990312068884252D041490E
:1006B000A831206888424DD03F492068884249D0FF
:1006C0003D4918312068884244D03B493031206888
:1006D00088423FD038494831206888423AD036496C
:1006E00060312068884235D03349783120688842AB
:1006F00030D031499031206888422BD02E49A83122
:100700002068884226D02D492068884222D02B4973
:100710001431206888421DD0284928312068884239
:1007200018D026493C312068884213D023495031E3
:10073000206888420ED0214964312068884209D05F
:100740001E4978312068884204D01C498C312068C9
:10075000884201D1012000E00020D8B1206E00685D
:1007600020F48070216E0860A56D94F85C0000F0A4
:100770001F01012088406860D4E919104860E06ECC
:1007800040B1E06E006820F48070E16E0860D4E94A
:100790001C10486000BF002084F8340000BF012016
:1007A00084F83500206D10B12046216D8847002067
:1007B0003EE60000100002401004024008540258B7
:1007C00070B5044600F03CF906462546681C10B199
:1007D00004480078054400BF00F032F9801BA842AD
:1007E000FAD370BD080000207047000010B5044621
:1007F00004480068204020B1024804602046FFF70A
:10080000F3FF10BD88000058F8B502460023734D71
:10081000DEE001279F400E6806EA0704002C71D035
:100820004E68012E08D04E68022E05D04E68112E5B
:1008300002D04E68122E13D190685F000326BE408E
:10084000B0435F00CE68BE403043906050680126E0
:100850009E40B0430E79C6F300169E403043506070
:10086000D0685F000326BE40B0435F008E68BE4084
:100870003043D0604E68022E02D04E68122E13D143
:10088000DF0802F1200656F827005E07F70E0F2654
:10089000BE40B0435F07FF0E0E69BE403043DF0825
:1008A00002F1200646F8270010685F000326BE40CC
:1008B000B0430E7906F003065F00BE40304310607F
:1008C0004E6806F08056B6F1805F1BD100BF444EE3
:1008D000366846F00206424F3E603E46366806F0F5
:1008E0000206009600BF00BF3E4E9F0856F8270044
:1008F0009E07370F0F26BE40B0433B4EB24202D197
:1009000000262EE063E0394EB24201D1012628E0F4
:10091000374EB24201D1022623E0364EB24201D117
:1009200003261EE0344EB24201D1042619E0334EB4
:10093000B24201D1052614E0314EB24201D1062661
:100940000FE0304EB24201D107260AE02E4EB242ED
:1009500001D1082605E02D4EB24201D1092600E062
:100960000A269F073F0FBE4030431E4E9F0846F8A1
:1009700027002868A0434E6806F48036B6F5803F0D
:1009800000D1204328606868A0434E6806F4003612
:10099000B6F5003F00D1204368604FF0B0463068A4
:1009A000A0434E6806F48016B6F5801F00D12043A0
:1009B0004FF0B04630607068A0434E6806F40016F1
:1009C000B6F5001F00D120434FF0B04670605B1CAD
:1009D0000E68DE40002E7FF41CAFF8BD800000588A
:1009E00054450258080400580000025800040258F8
:1009F00000080258000C0258001002580014025857
:100A000000180258001C0258002002580024025806
:100A1000024613690B400BB1012000E00020704733
:100A200042690A408A4202D10A04826100E081617F
:100A300070470AB1816101E00B04836170470000D7
:100A4000014800687047000000000020034800686B
:100A500003490978084401490860704700000020F4
:100A60000800002010B5032000F0BCF801F07EFA69
:100A700010490968C1F303210F4A515C01F01F01BD
:100A800020FA01F40B48006800F00F001146085CE2
:100A900000F01F0024FA00F00849086008480460CC
:100AA000002000F00FF808B1012010BD00F036F86A
:100AB0000020FAE718440258383E000810000020D1
:100AC0000C00002070B504461148007808B90120D8
:100AD00070BD0F4800784FF47A71B1FBF0F00D490A
:100AE0000968B1FBF0F5284601F004FF08B10120C8
:100AF000EEE7102C07D200222146501E00F034F8F9
:100B00000548046001E00120E2E70020E0E7000082
:100B1000080000200C0000200400002008B500BFE1
:100B20000848006840F0020006490860084600686E
:100B300000F00200009000BF00BF052000F052F856
:100B400008BD00005445025801460846002809DB4C
:100B500000F01F0301229A4043099B0003F1E023A8
:100B6000C3F8002100BF70472DE9F05F80460D46B5
:100B7000164603F0E5F8074639462A46334601F0A3
:100B80000700C0F1070ABAF1040F02D94FF0040AB6
:100B900001E0C0F1070AD14600F1040ABAF1070FDB
:100BA00002D24FF0000A01E0A0F1030AD4464FF050
:100BB000010A0AFA09FAAAF1010A0AEA020A0AFA79
:100BC0000CFA4FF0010B0BFA0CFBABF1010B0BEA2B
:100BD000030B4AEA0B042146404603F0B9F8BDE88E
:100BE000F09F000000BF00F00702064B19684FF6A7
:100BF000FF031940044B0B4343EA0221014B1960E8
:100C000000BF70470CED00E00000FA0570B5044627
:100C100015480068C0F3800048B91348006800F028
:100C20000700A04201D0012070BD0020FCE70E4863
:100C3000006820F0070020430B490860FFF700FF21
:100C4000054607E0FFF7FCFE401BB0F57A7F01D9AF
:100C50000120E9E7044808380068C0F34030002864
:100C6000F0D00020E0E700000C48025810B501F079
:100C700033F905490968C1F30211044A515C01F0D6
:100C80001F01C84010BD000020440258383E000833
:100C900070B50146844D2D6805F00303824D2D6823
:100CA000C5F30530804D2D1D2D68C5F300147E4D14
:100CB00014352D68C5F3CC0515FB04F501EE105A6B
:100CC000B8EE411AF0EE410A00286FD023B1012B93
:100CD0004ED0022B6BD16BE0734D283D2D68C5F3D0
:100CE00040153DB3704D283D2D68C5F3C1066F4DCD
:100CF00025FA06F201EE102AF8EE411A01EE100A6A
:100D0000B8EE411A81EE812A9FED691AC0EE811A70
:100D1000654D10352D68C5F3080501EE105AB8EE83
:100D2000411A31EE811AF7EE001A31EE211A22EE45
:100D3000010A1CE001EE100AB8EE411ADFED5D1A5F
:100D400081EE812A9FED5A1AC0EE811A564D103558
:100D50002D68C5F3080501EE105AB8EE411A31EEC0
:100D6000811AF7EE001A31EE211A22EE010A5BE039
:100D700001EE100AB8EE411ADFED4F1A81EE812A1A
:100D80009FED4B1AC0EE811A474D10352D68C5F303
:100D9000080501EE105AB8EE411A31EE811AF7EE4D
:100DA000001A31EE211A22EE010A3DE077E01DE043
:100DB00001EE100AB8EE411A9FED402AC2EE011A68
:100DC0009FED3B1A80EE812A374D10352D68C5F313
:100DD000080501EE105AB8EE411A32EE011AB7EECC
:100DE000002A31EE021A21EE810A1DE001EE100AFE
:100DF000B8EE411ADFED301A81EE812A9FED2C1AF0
:100E0000C0EE811A284D10352D68C5F3080501EE96
:100E1000105AB8EE411A31EE811AF7EE001A31EE8F
:100E2000211A22EE010A00BF00BF1F4D10352D68A8
:100E3000C5F3462501EE105AB8EE411AF7EE001A36
:100E400031EE211AC0EE011ABCEEE11A81ED001A52
:100E5000154D10352D68C5F3064501EE105AB8EE54
:100E6000411AF7EE001A31EE211AC0EE011ABCEE5B
:100E7000E11A81ED011A0C4D10352D68C5F3066598
:100E800001EE105AB8EE411AF7EE001A31EE211AAF
:100E9000C0EE011ABCEEE11A81ED021A03E0002552
:100EA0000D604D608D6070BD284402580090D003E5
:100EB000000000460024744C0024744A20BCBE4B41
:100EC00070B50146844D2D6805F00303824D2D68F1
:100ED000C5F30550804D2D1D2D68C5F300247E4DB2
:100EE0001C352D68C5F3CC0515FB04F501EE105A31
:100EF000B8EE411AF0EE410A00286FD023B1012B61
:100F00004ED0022B6BD16BE0734D283D2D68C5F39D
:100F100040153DB3704D283D2D68C5F3C1066F4D9A
:100F200025FA06F201EE102AF8EE411A01EE100A37
:100F3000B8EE411A81EE812A9FED691AC0EE811A3E
:100F4000654D18352D68C5F3080501EE105AB8EE49
:100F5000411A31EE811AF7EE001A31EE211A22EE13
:100F6000010A1CE001EE100AB8EE411ADFED5D1A2D
:100F700081EE812A9FED5A1AC0EE811A564D18351E
:100F80002D68C5F3080501EE105AB8EE411A31EE8E
:100F9000811AF7EE001A31EE211A22EE010A5BE007
:100FA00001EE100AB8EE411ADFED4F1A81EE812AE8
:100FB0009FED4B1AC0EE811A474D18352D68C5F3C9
:100FC000080501EE105AB8EE411A31EE811AF7EE1B
:100FD000001A31EE211A22EE010A3DE077E01DE011
:100FE00001EE100AB8EE411A9FED402AC2EE011A36
:100FF0009FED3B1A80EE812A374D18352D68C5F3D9
:10100000080501EE105AB8EE411A32EE011AB7EE99
:10101000002A31EE021A21EE810A1DE001EE100ACB
:10102000B8EE411ADFED301A81EE812A9FED2C1ABD
:10103000C0EE811A284D18352D68C5F3080501EE5C
:10104000105AB8EE411A31EE811AF7EE001A31EE5D
:10105000211A22EE010A00BF00BF1F4D18352D686E
:10106000C5F3462501EE105AB8EE411AF7EE001A04
:1010700031EE211AC0EE011ABCEEE11A81ED001A20
:10108000154D18352D68C5F3064501EE105AB8EE1A
:10109000411AF7EE001A31EE211AC0EE011ABCEE29
:1010A000E11A81ED011A0C4D18352D68C5F306655E
:1010B00001EE105AB8EE411AF7EE001A31EE211A7D
:1010C000C0EE011ABCEEE11A81ED021A03E0002520
:1010D0000D604D608D6070BD284402580090D003B3
:1010E000000000460024744C0024744A20BCBE4B0F
:1010F0002DE9F04104460025A846206800F0006074
:10110000B0F1006F30D1A06E48B1B0F5801F0DD0A6
:10111000B0F5001F10D0B0F5401F15D113E0F8480E
:10112000006840F40030F64908600FE00221201DFD
:1011300001F012FF054609E0022104F1240001F04C
:10114000BDFF054602E001E0012500BF00BF55B923
:10115000EB482430006820F44010A16E0843E849B1
:101160002431086000E0A846208800F48070B0F5C3
:10117000807F2DD1606D05281AD2DFE800F0030AC8
:1011800010171800DE48006840F40030DC490860A1
:1011900010E00021201D01F0DFFE05460AE00021DD
:1011A00004F1240001F08AFF054603E002E001E0BB
:1011B000012500BF00BF55B9D1482430006820F098
:1011C0000700616D0843CE492431086000E0A8465D
:1011D000208800F40070B0F5007F37D1A06DC028E2
:1011E00021D005DC58B1402810D080281ED113E052
:1011F000B0F5807F18D0B0F5A07F17D115E0C048BA
:10120000006840F40030BE49086011E00021201D54
:1012100001F0A2FE05460BE0002104F1240001F0DC
:101220004DFF054604E003E002E001E0012500BFB8
:1012300000BF55B9B2482430006820F4E070A16DB9
:101240000843AF492431086000E0A846208800F434
:101250008060B0F5806F3AD1E06DB0F5C06F23D0FB
:1012600007DC68B1B0F5007F11D0B0F5806F1ED1FA
:1012700013E0B0F5006F18D0B0F5206F17D115E06E
:101280009F48006840F400309D49086011E000214B
:10129000201D01F061FE05460BE0002104F1240051
:1012A00001F00CFF054604E003E002E001E0012547
:1012B00000BF00BF55B992482430006820F4606038
:1012C000E16D08438E492431086000E0A84620689B
:1012D00000F00070B0F1007F27D1A06CA0B1102801
:1012E00004D0202809D030280FD10CE084480068B1
:1012F00040F400308249086009E00221201D01F01D
:101300002BFE054603E002E001E0012500BF00BF1F
:1013100055B97B482030006820F03000A16C0843AC
:1013200077492031086000E0A846208800F480500A
:10133000B0F5805F36D1206EB0F5005F19D004DCC7
:1013400050B1B0F5805F1DD10DE0B0F5405F17D012
:10135000B0F5804F16D114E06948006840F40030C1
:101360006749086010E00021201D01F0F5FD0546E9
:101370000AE0002104F1240001F0A0FE054603E08C
:1013800002E001E0012500BF00BF55B95C482430F0
:10139000006820F4E040216E084359492431086078
:1013A00000E0A846208800F40050B0F5005F34D17A
:1013B000606EB0F5403F1DD007DC68B1B0F5803FEE
:1013C0000BD0B0F5003F18D10DE0B0F5802F12D052
:1013D000B0F5A02F11D10FE011E00121201D01F087
:1013E000BBFD05460BE0012104F1240001F066FE7F
:1013F000054604E003E002E001E0012500BF00BF74
:1014000055B93F482430006820F4E020616E08435D
:101410003B492431086000E0A846208800F4804061
:10142000B0F5804F30D1D4F8AC0020F07041D1B984
:101430000017072817D2DFE800F004050B12131479
:10144000150012E00121201D01F086FD05460CE08B
:10145000012104F1240001F031FE054605E004E01D
:1014600003E002E001E0012500BF00BF5DB92448B0
:101470002C30006820F0E040D4F8AC10084320493C
:101480002C31086000E0A846208800F40040B0F548
:10149000004F26D1606F98B1B0F1805F03D0B0F1FA
:1014A000005F0ED106E01648006840F40030144991
:1014B000086008E00121201D01F04EFD054602E014
:1014C00001E0012500BF00BF55B90D482430006878
:1014D00020F04050616F084309492431086000E062
:1014E000A846206800F08070B0F1807F29D1606C40
:1014F000B0B1012806D002280BD0032811D10EE08C
:101500002C440258FE48006840F40030FC49086052
:1015100009E00221201D01F01FFD054603E002E065
:1015200001E0012500BF00BF55B9F5482030006833
:1015300020F00300616C0843F1492031086000E0AD
:10154000A846206800F48000B0F5800F7DD1ED48FA
:10155000006840F48070EB490860FFF771FA0646B6
:1015600006E0FFF76DFA801B642801D9032505E02A
:10157000E448006800F480700028F2D000BF85BB0A
:10158000DF484430006800F44070B4F8B01001F453
:101590004071884213D0DA484430006820F4407724
:1015A000D7484430006840F48030D5494431086061
:1015B0000846006820F48030086008460760D4F8C8
:1015C000B000B0F5807F15D1FFF73AFA064609E082
:1015D000FFF736FA801B41F28831884202D9032591
:1015E00007E035E0C64844300068C0F340000028FA
:1015F000EED000BF55BB00BFB4F8B00000F440709F
:10160000B0F5407F0ED1BE481C38006820F47C51F4
:10161000BD4AD4F8B000104041EA1010B8491C3956
:10162000086007E0B6481C38006820F47C50B449D4
:101630001C390860B24844300068B4F8B010C1F3F7
:101640000B010843AE494431086002E0A84600E0BF
:10165000A846207800F0010078B3D4F8800018285C
:1016600019D005DC48B1082808D0102816D10BE0A5
:10167000202811D0282811D10FE011E00121201DD0
:1016800001F06AFC05460BE0012104F1240001F0A1
:1016900015FD054604E003E002E001E0012500BF7E
:1016A00000BF5DB996482830006820F03800D4F8B3
:1016B0008010084392492831086000E0A84620784D
:1016C00000F00200022828D1E06F062815D2DFE8DA
:1016D00000F003040A11121311E00121201D01F092
:1016E0003BFC05460BE0012104F1240001F0E6FC7F
:1016F000054604E003E002E001E0012500BF00BF71
:1017000055B97F482830006820F00700E16F084392
:101710007B492831086000E0A846207800F00400EA
:1017200004282AD1D4F89800062815D2DFE800F062
:1017300003040A11121311E00121201D01F00CFC19
:1017400005460BE0012104F1240001F0B7FC054639
:1017500004E003E002E001E0012500BF00BF5DB945
:1017600067482C30006820F00700D4F89810084330
:1017700063492C31086000E0A846207800F0200082
:10178000202836D1D4F89400B0F1405F1DD007DC9A
:1017900068B1B0F1805F0BD0B0F1005F18D10DE0FF
:1017A000B0F1804F12D0B0F1A04F11D10FE011E095
:1017B0000021201D01F0D0FB05460BE0022104F1C1
:1017C000240001F07BFC054604E003E002E001E0B8
:1017D000012500BF00BF5DB949482830006820F0EE
:1017E000E040D4F89410084345492831086000E0EF
:1017F000A846207800F04000402836D1D4F8A00058
:10180000B0F5406F1DD007DC68B1B0F5806F0BD02C
:10181000B0F5006F18D10DE0B0F5805F12D0B0F5D3
:10182000A05F11D10FE011E00021201D01F094FB19
:1018300005460BE0022104F1240001F03FFC0546BF
:1018400004E003E002E001E0012500BF00BF5DB954
:101850002B482C30006820F4E050D4F8A010084346
:1018600027492C31086000E0A846207800F080006D
:10187000802836D1D4F8A400B0F5C04F1DD007DCC5
:1018800068B1B0F5005F0BD0B0F5804F18D10DE016
:10189000B0F5004F12D0B0F5204F11D10FE011E09C
:1018A0000021201D01F058FB05460BE0022104F148
:1018B000240001F003FC054604E003E002E001E03F
:1018C000012500BF00BF5DB90D482C30006820F431
:1018D0006040D4F8A410084309492C31086000E0A6
:1018E000A846207800F0080008281DD1D4F8880008
:1018F000B0F5805F0FD1022104F1240006E0000062
:101900002C44025800480258FFFCFF0F01F0D6FBA0
:1019100008B14FF00108A748006820F44050D4F8FF
:1019200088100843A3490860207800F010001028B0
:1019300017D1D4F89C00B0F5807F07D1022104F1C3
:10194000240001F0BBFB08B14FF001089948001DCD
:10195000006820F44070D4F89C1008439549091D94
:101960000860206800F40020B0F5002F28D1D4F8DA
:10197000A80030B1B0F5803F09D0B0F5003F0ED1DE
:101980000CE00021201D01F0E7FA054609E00221E4
:1019900004F1240001F092FB054602E001E001257C
:1019A00000BF00BF5DB98348001D006820F44030CF
:1019B000D4F8A81008437F49091D086000E0A84634
:1019C000206800F48020B0F5802F2BD1D4F88C0053
:1019D000B0F5801F06D0B0F5001F0CD0B0F5401F49
:1019E00011D10FE073482838006840F40030714985
:1019F0002839086009E0012104F1240001F05EFBB0
:101A0000054602E001E0012500BF00BF4DB969486D
:101A1000006820F44010D4F88C1008436549086031
:101A200000E0A846206800F48030B0F5803F24D163
:101A3000E06C18B1B0F5803F0FD108E05D48283860
:101A4000006840F400305B492839086007E0022153
:101A5000201D01F081FA054601E0012500BF00BF0D
:101A600055B954480838006820F48030E16C0843C8
:101A700050490839086000E0A846206800F000508E
:101A8000B0F1005F07D1022104F1240001F016FB40
:101A900008B14FF00108206800F40030B0F5003FB5
:101AA00027D1D4F88400A0B1B0F5807F06D0B0F57E
:101AB000007F0CD0B0F5407F0CD109E03D482838BC
:101AC000006840F400303B492839086004E003E036
:101AD00002E001E0012500BF00BF4DB935480068B4
:101AE00020F44070D4F8841008433249086000E0C4
:101AF000A846206800F48010B0F5801F09D12D4859
:101B0000001F006820F00040A16F08432949091F09
:101B10000860206800F40010B0F5001F09D12548C6
:101B2000001F006820F08070E16E08432149091F02
:101B30000860208800F40060B0F5006F09D11D48EE
:101B4000001D006820F00060216F08431949091D3D
:101B50000860206800F08040B0F1804F11D100BFD4
:101B600014484438006820F40040124944390860A1
:101B700008460068D4F8B41008430E494439086098
:101B800000BF206800F00040B0F1004F09D10948C3
:101B90000838006820F04050216D08430549083995
:101BA0000860B8F1000F02D10020BDE8F0810120EB
:101BB000FBE70000544402582DE9F04104460D466D
:101BC00014B90120BDE8F081BD48006800F00F00A5
:101BD000A8420ED2BA48006820F00F002843B84946
:101BE00008600846006800F00F00A84201D00120FC
:101BF000E8E7207800F0040004280ED1B1492069FC
:101C0000096801F07001884207D9AE48006820F0E9
:101C1000700021690843AB490860207800F0080093
:101C2000082811D1A749091D6069096801F07001F0
:101C3000884209D9A348001D006820F0700061693E
:101C40000843A049091D0860207800F01000102802
:101C500011D19C49091DA069096801F4E06188421D
:101C600009D99848001D006820F4E060A169084384
:101C70009449091D0860207800F02000202811D127
:101C800090490831E069096801F07001884209D97A
:101C90008C480830006820F07000E16908438949E9
:101CA00008310860207800F0020002280ED1854932
:101CB000E068096801F00F01884207D9814800688F
:101CC00020F00F00E16808437E490860207800F0AA
:101CD0000100002850D07B48006820F47060A168A3
:101CE0000843784908606068022807D175481838A9
:101CF0000068C0F34040F8B9012063E7606803283A
:101D000007D1704818380068C0F34060A0B90120BE
:101D100058E76068012807D16A4818380068C0F39E
:101D2000002048B901204DE7664818380068C0F324
:101D3000800008B9012045E762480838006820F0B3
:101D40000700616808435F4908390860FEF778FEBC
:101D5000064608E0FEF774FE801B41F28831884297
:101D600001D903202EE757480838006800F03800F2
:101D70006168B0EBC10FEDD1207800F002000228BD
:101D80000ED15049E068096801F00F01884207D27E
:101D90004C48006820F00F00E1680843494908609A
:101DA0004748006800F00F00A8420ED94448006878
:101DB00020F00F002843424908600846006800F000
:101DC0000F00A84201D00120FCE6207800F00400BA
:101DD00004280ED13B492069096801F0700188424E
:101DE00007D23848006820F070002169084335495F
:101DF0000860207800F00800082811D13149091D39
:101E00006069096801F07001884209D22D48001DFF
:101E1000006820F07000616908432A49091D0860C4
:101E2000207800F01000102811D12649091DA06962
:101E3000096801F4E061884209D22248001D006867
:101E400020F4E060A16908431E49091D086020785C
:101E500000F02000202811D11A490831E0690968F2
:101E600001F07001884209D216480830006820F05D
:101E70007000E169084313490831086000F076F802
:101E800010490968C1F303210F4A515C01F01F0199
:101E900020FA01F70B48006800F00F001146085CBB
:101EA00000F01F0027FA00F00849086008480760A2
:101EB00008480068FEF706FE8046404682E60000BD
:101EC0000020005218440258383E0008100000203C
:101ED0000C0000200400002010B500F047F80D4968
:101EE0000968C1F303210C4A515C01F01F0120FA7B
:101EF00001F40848006800F00F001146085C00F08B
:101F00001F0024FA00F005490860054804600846EF
:101F1000006810BD18440258383E00081000002028
:101F20000C00002000B5FFF7D7FF05490968C1F391
:101F30000211044A515C01F01F01C84000BD0000BD
:101F40001C440258383E000800B5FFF7C5FF05499C
:101F50000968C1F30221044A515C01F01F01C84025
:101F600000BD00001C440258383E0008F0B5824E07
:101F7000366806F0380636B1082E15D0102E15D06A
:101F8000182E7DD114E07C4E103E3668C6F3401604
:101F900046B1794E103E3668C6F3C107774E26FA31
:101FA00007F000E07548E5E07548E3E07548E1E0DA
:101FB000714E1836366806F003046F4E18363668D0
:101FC000C6F305116C4E1C36366806F001056A4EE4
:101FD00024363668C6F3CC0616FB05F601EE106A09
:101FE000B8EE410A002971D024B1012C50D0022C46
:101FF0006DD16DE0604E103E3668C6F340163EB3BC
:102000005D4E103E3668C6F3C1075C4E26FA07F3F4
:1020100001EE103AF8EE411A01EE101AB8EE411A2C
:1020200081EE812A9FED581AC0EE011A524E2036D9
:102030003668C6F3080601EE106AB8EE411A31EEB2
:10204000811AF7EE001A31EE211A62EE010A1EE043
:1020500001EE101AB8EE411ADFED4C1A81EE812A1A
:102060009FED491AC0EE011A434E20363668C6F37A
:10207000080601EE106AB8EE411A31EE811A00E04E
:1020800076E0F7EE001A31EE211A62EE010A5BE00B
:1020900001EE101AB8EE411A9FED3D2AC2EE011A68
:1020A0009FED391A80EE012A334E20363668C6F38A
:1020B000080601EE106AB8EE411A32EE011AB7EEC8
:1020C000002A31EE021A61EE810A3DE04EE01DE089
:1020D00001EE101AB8EE411ADFED2E1A81EE812AB8
:1020E0009FED291AC0EE011A234E20363668C6F33A
:1020F000080601EE106AB8EE411A31EE811AF7EEC9
:10210000001A31EE211A62EE010A1DE001EE101AEA
:10211000B8EE411A9FED1E2AC2EE011A9FED1A1A5F
:1021200080EE012A144E20363668C6F3080601EE0A
:10213000106AB8EE411A32EE011AB7EE002A31EEFB
:10214000021A61EE810A00BF00BF0B4E20363668CE
:10215000C6F34626721C01EE102AB8EE411AC0EEF4
:10216000811ABCEEE11A11EE100A00E0002001E035
:10217000034800BF00BFF0BD104402580090D003D8
:1021800000093D0040787D01000000460024744CA9
:102190000024744A20BCBE4B2DE9F047044614B914
:1021A0000120BDE8F087207800F0010000286ED003
:1021B000F748006800F03808F5481830D0F800906B
:1021C000B8F1100F06D0B8F1180F0FD109F00300C5
:1021D00002280BD1EE4810380068C0F340400028B8
:1021E0006FD0606800286CD10120DAE700BF60681A
:1021F000B0F5803F08D1E6481038006840F48030E0
:10220000E3491039086055E0606890B9E04810383B
:10221000006820F48030DE49103908600846006804
:1022200020F4801008600846006820F480200860D0
:1022300040E06068B0F5A02F12D1D5481038006892
:1022400040F48020D249103908600846006820F424
:10225000801008600846006840F48030086029E07B
:102260006068B0F5A81F13D1C9481038006840F461
:102270008020C749103908600846006840F4801083
:1022800008600846006840F48030086012E03BE0D7
:10229000BF481038006820F48030BD49103908600C
:1022A0000846006820F4802008600846006820F492
:1022B0008010086000BF606898B1FEF7C1FB05465A
:1022C00007E020E0FEF7BCFB401B642801D9032097
:1022D00067E7AF4810380068C0F340400028F1D0ED
:1022E00011E0FEF7ADFB054606E0FEF7A9FB401B3B
:1022F000642801D9032054E7A54810380068C0F3CA
:1023000040400028F1D100BF207800F002000228F0
:102310006BD19F48006800F038089D481830D0F80D
:102320000090B8F1000F05D0B8F1180F18D109F0DE
:102330000300A8B9964810380068C0F3800018B1AF
:10234000E06808B901202CE791480C38006820F0BB
:10235000FE40217C40EA01608D490C39086043E071
:10236000E06838B38A481038006820F01900E16846
:102370000843874910390860FEF762FB054606E00E
:10238000FEF75EFB401B022801D9032009E78048C5
:1023900010380068C0F380000028F1D07C480C3869
:1023A000006820F0FE40217C40EA016078490C3949
:1023B000086019E076481038006820F00100744980
:1023C00010390860FEF73CFB054606E0FEF738FBD7
:1023D000401B022801D90320E3E66D48103800684D
:1023E000C0F380000028F1D100BF207800F0100079
:1023F00010286FD16648006800F03808644818302B
:10240000D0F80090B8F1080F06D0B8F1180F1CD121
:1024100009F00300012818D15D4810380068C0F3A6
:10242000002020B1E069802801D00120B9E600BF7A
:102430005748001F006820F07C5094F8201040EAB4
:1024400001605349091F086043E0E06938B3504810
:102450001038006840F080004D4910390860FEF7E0
:10246000EFFA054606E0FEF7EBFA401B022801D919
:10247000032096E6464810380068C0F30020002884
:10248000F1D000BF4248001F006820F07C5094F853
:10249000201040EA01603E49091F086019E03C48ED
:1024A0001038006820F08000394910390860FEF7C4
:1024B000C7FA054606E0FEF7C3FA401B022801D919
:1024C00003206EE6324810380068C0F30020002870
:1024D000F1D100BF207800F00800082836D16069EB
:1024E000D0B12B486430006840F0010028496431C5
:1024F0000860FEF7A5FA054606E0FEF7A1FA401BC4
:10250000022801D903204CE6214864300068C0F35A
:1025100040000028F1D019E01D486430006820F028
:1025200001001B4964310860FEF78AFA054606E09F
:10253000FEF786FA401B022801D9032031E6144831
:1025400064300068C0F340000028F1D1207800F02A
:102550002000202835D1A069E0B10D48103800686E
:1025600040F480500A4910390860FEF769FA0546C0
:1025700006E0FEF765FA401B022801D9032010E6A9
:10258000034810380068C0F340300028F1D018E04C
:1025900010440258D548006820F48050D3490860A0
:1025A000FEF74EFA054606E0FEF74AFA401B0228FF
:1025B00001D90320F5E5CD480068C0F3403000287C
:1025C000F2D1207800F0040004287DD1C8480068CA
:1025D00040F48070C6490860FEF732FA054606E00E
:1025E000FEF72EFA401B642801D90320D9E5C04824
:1025F000006800F480700028F2D000BFA0680128B5
:1026000008D1BA487030006840F00100B749703115
:10261000086052E0A06890B9B4487030006820F0BB
:102620000100B249703108600846006820F080005F
:1026300008600846006820F0040008603DE0A068DB
:10264000052812D1A9487030006840F00400A7495D
:10265000703108600846006820F080000860084675
:10266000006840F00100086027E0A068852812D1CA
:102670009E487030006840F004009C49703108604A
:102680000846006840F0800008600846006840F096
:102690000100086011E095487030006820F00100EA
:1026A0009249703108600846006820F00400086014
:1026B0000846006820F08000086000BFA068A8B14C
:1026C000FEF7BEF9054609E024E0FEF7B9F9401B24
:1026D00041F28831884201D9032062E58348703095
:1026E0000068C0F340000028EFD013E0FEF7A8F91F
:1026F000054608E0FEF7A4F9401B41F28831884204
:1027000001D903204DE5794870300068C0F34000DE
:102710000028EFD1606A00287DD07448103000682E
:1027200000F03800182877D0606A022875D16F4809
:10273000006820F080706D490860FEF781F9054659
:1027400006E0FEF77DF9401B022801D9032028E5A9
:1027500066480068C0F340600028F2D100BFD4E9A9
:102760000A1041EA001061492831096840F2F33249
:10277000914308435D4928310860208E401EC0F314
:102780000800616B491E4FF47E4202EA4121084372
:10279000218F491ED20102EA014108433C21095D13
:1027A000491E120202EA01610843504930310860B3
:1027B00000BF081F006820F00100091F08604B4897
:1027C000343000684FF6F8718843A16C40EAC100CC
:1027D00046493431086045482C30006820F00C0030
:1027E000216C084341492C3108600846006820F0FC
:1027F0000200616C08433D492C31086008460068BE
:1028000040F4803008600846006840F400300860FA
:102810000846006802E066E038E01FE040F48020EF
:1028200008600846006840F0010008602F48006812
:1028300040F080702D490860FEF702F9054606E079
:10284000FEF7FEF8401B022801D90320A9E427481F
:102850000068C0F340600028F2D044E023480068DC
:1028600020F0807021490860FEF7EAF8054606E08E
:10287000FEF7E6F8401B022801D9032091E41B482B
:102880000068C0F340600028F2D12CE017482830DF
:102890000768164830300668606A012821D007F0C2
:1028A0000301A06A81421CD1C7F30511E06A884286
:1028B00017D1C6F30801206B401E814211D1606B15
:1028C000401EC6F3462188420BD1A06B401EC6F3C2
:1028D0000641884205D1E06B401EC6F3066188427E
:1028E00001D001205DE400205BE4000000440258B8
:1028F0000048025870B504462546681EB0F1807F36
:1029000001D301200FE0681E4FF0E02148610F2144
:102910004FF0FF3001F01CFA00204FF0E0218861F9
:1029200007200861002070BD014600BF91F87C00BF
:10293000012801D102207047012081F87C0000BFEE
:102940002420C1F88000086802680868006820F048
:1029500001000B68186022F00052002048660868E9
:1029600002602020C1F8800000BF002081F87C00B8
:1029700000BF00BFDFE7704770B504460D4600BFDB
:1029800094F87C00012801D1022070BD012084F858
:102990007C0000BF2420C4F88000206806682068FE
:1029A000006820F00100216808602068806820F03D
:1029B0006060284321688860204600F015FD20688B
:1029C00006602020C4F8800000BF002084F87C004E
:1029D00000BF00BFD9E770B504460D4600BF94F8AC
:1029E0007C00012801D1022070BD012084F87C0008
:1029F00000BF2420C4F880002068066820680068B2
:102A000020F00100216808602068806820F06040A4
:102A1000284321688860204600F0E6FC20680660B4
:102A20002020C4F8800000BF002084F87C0000BF94
:102A300000BFD9E770477047704700002DE9F047A5
:102A400004462068C569206806682068876840F6E3
:102A50000F0005EA0008B8F1000F0FD105F02000C3
:102A600060B106F0200010B907F0805030B1E06E80
:102A700010B12046E16E8847BDE8F087B8F1000F3D
:102A80007ED06E48384018B96D4830400028F7D0E5
:102A900005F0010058B106F4807040B101202168B2
:102AA0000862D4F8880040F00100C4F8880005F0FE
:102AB000020058B107F0010040B10220216808620D
:102AC000D4F8880040F00400C4F8880005F0040041
:102AD00058B107F0010040B1042021680862D4F821
:102AE000880040F00200C4F8880005F0080070B1CA
:102AF00006F0200010B95148384040B10820216844
:102B00000862D4F8880040F00800C4F8880005F492
:102B1000006060B106F0806048B14FF40060216849
:102B20000862D4F8880040F02000C4F88800D4F887
:102B30008800002844D005F0200050B106F02000A5
:102B400010B907F0805020B1E06E10B12046E16E60
:102B50008847D4F888902068806800F040004028BA
:102B600002D009F0280028B3204600F037FD206885
:102B7000806800F04000402818D12068806800E09C
:102B80001FE020F0400021688860A06F50B12D4800
:102B9000A16F0865A06FFDF747FC88B1A06F016DBC
:102BA00088470DE02046FFF747FF09E02046FFF782
:102BB00043FF05E02046FFF73FFF0020C4F88800F0
:102BC0005AE705F4801050B107F4800038B14FF493
:102BD0008010216808622046FFF72DFF4CE705F0C2
:102BE000800058B106F0800010B907F4000028B149
:102BF000206F10B12046216F88473DE705F0400067
:102C000030B106F0400018B1204600F0FBFC33E77D
:102C100005F4000030B106F0804018B12046FFF7FF
:102C200009FF29E705F0807030B106F0004018B1C7
:102C30002046FFF7A0FE1FE700BF1DE701000010C0
:102C400020010004C535000810B504460CB9012068
:102C500010BDA06900B100E000BFD4F8800028B921
:102C6000002084F87C00204600F02AF82420C4F8D4
:102C700080002068006820F001002168086020467C
:102C800000F0D2FC012800D1E2E7A06A10B1204692
:102C900000F0E2FB2068406820F490402168486022
:102CA0002068806820F02A00216888602068006819
:102CB00040F0010021680860204600F049FCC7E7A9
:102CC00010B586B00446142101A8FDF743FB1D4949
:102CD0002068884233D100BF1B48006840F01000D4
:102CE000194908600846006800F01000009000BF15
:102CF00000BF00BF14481038006840F001001249BE
:102D0000103908600846006800F00100009000BF1C
:102D100000BF4FF4C0600190022002900020039099
:102D200004900720059001A90848FDF76DFD0022D9
:102D300001212520FDF718FF2520FDF705FF06B02E
:102D400010BD00000010014050450258000002581C
:102D50002DE9F84F04460E4617469946D4F88000F0
:102D600020285ED106B117B90120BDE8F88F00BF59
:102D700094F87C00012801D10220F6E7012084F8B4
:102D80007C0000BF0020543460632120E062FDF726
:102D900057FE824627806780543CA068B0F5805F6C
:102DA00004D1206910B90025B04602E035464FF045
:102DB000000800BF002084F87C0000BF1DE05346DF
:102DC000002280212046CDF8009000F047FF08B196
:102DD0000320CAE745B9B8F80000C0F3080021682D
:102DE000886208F1020803E02878216888626D1C77
:102DF000B4F85600401EA4F85600B4F85600002857
:102E0000DDD15346002240212046CDF8009000F04D
:102E100025FF08B10320A8E72020C4F88000002087
:102E2000A3E70220A1E7704700BFFEE700B587B027
:102E3000142102A8FDF78EFA00BF2648006840F072
:102E40000400244908600846006800F0040001906E
:102E500000BF00BF00BF0846006840F08000086067
:102E60000846006800F08000019000BF00BF00BF6E
:102E70000846006840F0010008600846006800F05D
:102E80000100019000BF00BF002202211248FDF79F
:102E9000D0FD4FF4005002901048039001200490A0
:102EA00002A90D48FDF7B0FC02200290012003901A
:102EB000002004900220059002A90748FDF7A4FC19
:102EC000012211462820FDF74FFE2820FDF73CFE89
:102ED00007B000BD4045025800080258000021110B
:102EE00010B51848184908604FF4E13048600021D7
:102EF00015488160C16001610C214161002181613F
:102F0000C1610162416200200F4988620846FFF7F3
:102F10009BFE08B1FDF784FA00210B48FFF75BFD2B
:102F200008B1FDF77DFA00210748FFF725FD08B13C
:102F3000FDF776FA0448FFF7F7FC08B1FDF770FAE1
:102F400010BD0000001001401800002000BFFEE787
:102F500000BFFEE7704700002DE9F04104460E4631
:102F600000275548006800F00300032802D1012023
:102F7000BDE8F08150482838006820F080604E4954
:102F800028390860FDF75CFD054606E0FDF758FDB1
:102F9000401B022801D90320EAE747482838006887
:102FA000C0F3C0600028F1D100BF4348006820F49E
:102FB0007C30216840EA01303F490860A088401E0B
:102FC000C0F30800A168491E4FF47E4202EA412185
:102FD0000843A189491ED20102EA01410843217C2C
:102FE000491E120202EA01610843334910310860A8
:102FF00000BF3148001D006820F0C000616908432F
:103000002D49091D08600846006820F02000A169CC
:1030100008432949091D08600846006820F010008F
:1030200008602548143000684FF6F8718843E1695C
:1030300040EAC1002049143108601F48001D0068A3
:1030400040F010001C49091D08602EB908460068B0
:1030500040F40020086012E0012E08D11648001D3F
:10306000006840F480101449091D086007E0124808
:10307000001D006840F400100F49091D08600E484B
:103080002838006840F080600B4928390860FDF757
:10309000D7FC054606E0FDF7D3FC401B022801D90A
:1030A000032065E7044828380068C0F3C0600028A2
:1030B000F1D038465CE70000284402582DE9F04181
:1030C00004460E4600275548006800F00300032818
:1030D00002D10120BDE8F08150482838006820F076
:1030E00080504E4928390860FDF7AAFC054606E0E5
:1030F000FDF7A6FC401B022801D90320EAE7474858
:1031000028380068C0F340700028F1D100BF434860
:10311000006820F07C70218840EA01503F49086037
:10312000A088401EC0F30800A168491E4FF47E42EB
:1031300002EA41210843A189491ED20102EA014164
:103140000843217C491E120202EA01610843334907
:103150001831086000BF3148001D006820F440604D
:10316000616908432D49091D08600846006820F47C
:103170000070A16908432949091D086008460068D4
:1031800020F48070086025481C3000684FF6F87104
:103190008843E16940EAC10020491C3108601F48AA
:1031A000001D006840F480701C49091D08602EB99C
:1031B0000846006840F48000086012E0012E08D143
:1031C0001648001D006840F400001449091D0860FD
:1031D00007E01248001D006840F080700F49091D8B
:1031E00008600E482838006840F080500B492839A4
:1031F0000860FDF725FC054606E0FDF721FC401BB5
:10320000022801D9032065E7044828380068C0F384
:1032100040700028F1D038465CE70000284402588E
:10322000704710B5FDF712FC10BD000000B5CBB023
:103230004C2138A8FDF78EF8202130A8FDF78AF838
:10324000B82102A8FDF786F80220FDF7DFFC00BFD9
:10325000002001902948006840F440402749086058
:103260000846006800F44040019000BF00BF00BF66
:103270002248006800F40050B0F5005FF8D1022049
:10328000389001203B9040203C900220419000214A
:1032900038A881620421C1622321016302214163B4
:1032A0008163C1630C210164002141648164FEF7E4
:1032B00073FF08B1FDF7B4F83F2030900320319040
:1032C00000203290339040203490359000013690A9
:1032D00040203790072130A8FEF76EFC08B1FDF7BB
:1032E0009FF8012002900020229002A8FDF700FF25
:1032F00008B1FDF795F84BB000BD00001848025822
:103300003148006840F470002F4908602F48006879
:1033100000F00F00032806D22C48006820F00F00B0
:10332000C01C2A4908602A48006840F0010028496A
:1033300008600020264910310860254800682549AA
:103340000840234908602148006800F00F00032866
:1033500006D91E48006820F00F00C01C1B490860F9
:1033600000201B4918310860091D0860091D08600C
:1033700019481749283108601848091D086018487D
:10338000091D08600020091D08601548091D086016
:103390000020091D08601248091D08600020091D51
:1033A00008600B48006820F480200949086000206C
:1033B00007496031086043F2D2000A4908604803B7
:1033C000014980390860704788ED00E00020005214
:1033D000004402587FEDF6EA000202020000FF01FD
:1033E00080020101004000527FB517A660CECDE9F2
:1033F000025617A660CECDE90056456E2DB90125BF
:10340000A0F86A50A0F868501CE01023102405684A
:10341000AD68C5F342610568AD686A0F02ADAD5C89
:1034200015FB04F51DF8026095FBF6F5A0F86A504F
:1034300002AD6D5C15FB03F51DF8016095FBF6F51B
:10344000A0F868507FBD00000101010307010000E2
:10345000080402040801010190F8281001F001019C
:1034600039B10168496821F40031C26A1143026828
:10347000516090F8281001F00201022907D101687B
:10348000496821F48031026B11430268516090F861
:10349000281001F00401042907D10168496821F4CA
:1034A0008021426B11430268516090F8281001F0AE
:1034B0000801082907D10168496821F40041826B9D
:1034C00011430268516090F8281001F01001102992
:1034D00007D10168896821F48051C26B11430268E9
:1034E000916090F8281001F02001202907D101688F
:1034F000896821F40051026C11430268916090F8D0
:10350000281001F04001402913D10168496821F4D5
:103510008011426C114302685160416CB1F5801F0B
:1035200007D10168496821F4C001826C1143026827
:10353000516090F8281001F08001802907D10168BE
:10354000496821F40021C26C114302685160704740
:1035500038B504460020C4F88800FDF771FA054626
:103560002068006800F0080008280CD16FF07E4049
:103570002B4600224FF400110090204600F06EFB15
:1035800008B1032038BD2068006800F0040004285A
:103590000CD16FF07E402B4600224FF4800100904A
:1035A000204600F05BFB08B10320EBE72020C4F8C5
:1035B0008000C4F8840000BF002084F87C0000BFB5
:1035C00000BFDFE770B50546AC6B0020A4F85E00D5
:1035D000A4F856002046FFF72FFA70BD016809686D
:1035E00021F490710268116001688968044A1140F1
:1035F000026891602021C0F884100021C1667047E4
:10360000FEFFFFEF10B504462068006820F0400080
:10361000216808602020C4F8800000202067204630
:10362000FFF701FC10BD00002DE9F04F8BB00546FF
:1036300000200890F9492868884200D100E000BFC6
:103640002969A868084369690843E96940EA0108EB
:10365000686E40EA080828680068F149084040EAB6
:103660000800296808602868406820F44050E9682C
:10367000084329684860D5F81880E84928688842D6
:1036800002D0286A40EA080828688068E5490840AE
:1036900040EA0800296888602868C06A20F00F00A6
:1036A000696A08432968C86200BFDF492868884200
:1036B00020D1DE48006800F03800182811D005DC61
:1036C00048B1082809D0102811D108E020280AD0D4
:1036D00028280CD109E001240BE0042409E0082487
:1036E00007E0102405E0202403E0402401E08024CA
:1036F00000BF42E1CE492868884219D1CB48006812
:1037000000F00700062810D2DFE800F003050709E3
:103710000B0D00240BE0042409E0082407E010242A
:1037200005E0202403E0402401E0802400BF24E1E0
:10373000C0492868884219D1BC48006800F00700D9
:10374000062810D2DFE800F0030507090B0D00245E
:103750000BE0042409E0082407E0102405E02024FD
:1037600003E0402401E0802400BF06E1B24928685C
:10377000884219D1AD48006800F00700062810D231
:10378000DFE800F0030507090B0D00240BE004241B
:1037900009E0082407E0102405E0202403E0402489
:1037A00001E0802400BFE8E0A4492868884219D1DC
:1037B0009E48006800F00700062810D2DFE800F0FD
:1037C000030507090B0D00240BE0042409E008247D
:1037D00007E0102405E0202403E0402401E08024D9
:1037E00000BFCAE096492868884220D18F48006807
:1037F00000F03800182811D005DC48B1082809D09D
:10380000102811D108E020280AD028280CD109E07E
:1038100001240BE0042409E0082407E0102405E05B
:10382000202403E0402401E0802400BFA5E0854976
:103830002868884219D17D48006800F007000628F2
:1038400010D2DFE800F0030507090B0D00240BE0A0
:10385000042409E0082407E0102405E0202403E004
:10386000402401E0802400BF87E07749286888422F
:1038700019D16E48006800F00700062810D2DFE872
:1038800000F0030507090B0D00240BE0042409E0F8
:10389000082407E0102405E0202403E0402401E090
:1038A000802400BF69E069492868884220D15F48C8
:1038B000006800F03800182811D005DC48B108284D
:1038C00009D0102811D108E020280AD028280CD1CE
:1038D00009E001240BE0042409E0082407E0102497
:1038E00005E0202403E0402401E0802400BF44E000
:1038F00057492868884220D14C48006800F03800B9
:10390000182811D005DC48B1082809D0102811D199
:1039100008E020280AD028280CD109E001240BE077
:10392000042409E0082407E0102405E0202403E033
:10393000402401E0802400BF1FE038492868884205
:103940001AD13A48001D006800F00700062810D27E
:10395000DFE800F0030507090B0D02240BE0042447
:1039600009E0082407E0102405E0202403E04024B7
:1039700001E0802400BF00E0802400BF27492868C0
:1039800088426DD1102C1AD006DC022C09D0042CF0
:103990000BD0082C29D10DE0202C21D0402C24D193
:1039A00020E0FDF763F9064623E005A8FDF770F96E
:1039B000069E1EE002A8FDF783FA039E19E01B484D
:1039C00054380068C0F3401040B1184854380068BB
:1039D000C0F3C1011F4820FA01F600E01D4E08E0C7
:1039E0001D4E06E04FF4004603E00026012008903B
:1039F00000BF00BF002E10D01849686A31F81000CF
:103A0000B6FBF0F9686800EB4000484503D86868E9
:103A10000003484525D2012008900BE1000C005816
:103A2000F369FFCFFFF4FF11001001405444025826
:103A30000044004000480040004C0040005000405E
:103A40000014014000780040007C00400018014054
:103A5000001C01400090D00300093D00203E0008FA
:103A600034E07A49686A31F810C062460023304673
:103A70001946FCF737FC4FF480730022A0FB03AC1F
:103A800001FB03C100FB021B02220023D5F804C086
:103A900060461946FCF726FC1AEB00004BF1000BC0
:103AA000CDE9000BD5F804C0624600235946FCF767
:103AB00019FC0746B7F5407F05D3B7F5801F02D242
:103AC0002868C760B6E001200890B3E0E869B0F567
:103AD000004F5DD1082C1AD005DC5CB1012C0DD053
:103AE000042C2DD10EE0102C16D0202C23D0402CED
:103AF00026D122E0FEF716FA064625E0FEF724FA64
:103B0000064621E005A8FDF7C3F8069E1CE002A8C2
:103B1000FDF7D6F9039E17E04D480068C0F340104A
:103B200038B14B480068C0F3C1014A4820FA01F699
:103B300000E0484E08E0484E06E04FF4004603E03F
:103B400000260120089000BF00BF06B33F49686A05
:103B500031F81000B6FBF0F04000696800EB51004E
:103B6000B0FBF1F087B2102F0FD3B7F5803F0CD226
:103B70004FF6F07038400990C7F3420109980843A6
:103B8000099009982968C86054E00120089051E024
:103B9000082C1AD005DC5CB1012C0DD0042C2DD1E1
:103BA0000EE0102C16D0202C23D0402C26D122E061
:103BB000FEF7B8F9064625E0FEF7C6F9064621E00D
:103BC00005A8FDF765F8069E1CE002A8FDF778F948
:103BD000039E17E01E480068C0F3401038B11C482F
:103BE0000068C0F3C1011B4820FA01F600E0194E3D
:103BF00008E0194E06E04FF4004603E000260120DD
:103C0000089000BF00BFAEB11049686A31F81000DB
:103C1000B6FBF0F0696800EB5100B0FBF1F087B241
:103C2000102F05D3B7F5803F02D22868C76001E0A6
:103C3000012008900120A5F86A00A5F8680000207E
:103C4000E866286708980BB0BDE8F08F203E0008B2
:103C5000004402580090D00300093D002DE9F041D6
:103C600004460D4617469846069E4AE0701C0028FA
:103C700047D0FCF7E5FEA0EB0800B04200D8C6B97B
:103C80002068006820F4D07021680860206880688F
:103C900020F00100216888602020C4F88000C4F86A
:103CA000840000BF002084F87C0000BF0320BDE832
:103CB000F0812068006800F0040010B32068C0693B
:103CC000C0F3C020E8B14FF40060216808622068AA
:103CD000006820F4D070216808602068806820F0B7
:103CE0000100216888602020C4F88000C4F88400A6
:103CF000C4F8880000BF002084F87C0000BF0320C7
:103D0000D5E72068C0692840A84201D1012000E021
:103D10000020B842AAD00020C9E7000010B5024830
:103D2000FEF78CFE10BD00001800002000BFFEE76B
:103D3000014A024900F02FB8B93D000814000020E4
:103D400002480068C0F30220704700000CED00E05C
:103D500010B5002804DB0A07130E054A135406E0C9
:103D60000A07140E034A00F00F031B1FD45410BDA2
:103D700000E400E018ED00E002E008C8121F08C1EE
:103D8000002AFAD170477047002001E001C1121FDC
:103D9000002AFBD170472DE9F04116460F46044634
:103DA000002503E03946B047641C6D1C20780028CC
:103DB000F8D12846BDE8F08113B50C46FF23012257
:103DC00069460248FEF7C4FF00981CBD1800002099
:103DD0000CA4FCF747FEFFF729FAFFF727F8FFF7D7
:103DE0007FF80DE04FF47A73072221460748FEF76B
:103DF000AFFF4FF47A70FCF7E3FC05A0FFF798FFE4
:103E0000F0E7000062697562697500001800002023
:103E1000E4BDA0E698AFE582BBE5AD900A000000E6
:103E2000010002000400060008000A000C00100057
:103E30002000400080000001000000000102030497
:103E40000102030406070809683E0008000000207C
:103E500018000000783D0008803E0008180000208F
:103E600090040000883D00080000000010000000E1
:103E7000010000000090D0030090D003000000007B
:04000005080002AD40
:00000001FF
