:020000040800F2
:10000000D043002435030008EB3C0008E73B000820
:10001000E93C00082B050008C1470008000000006B
:10002000000000000000000000000000313F000858
:100030005107000800000000ED3C0008333F0008B5
:100040004F0300084F0300084F0300084F03000848
:100050004F0300084F0300084F0300084F03000838
:100060004F0300084F0300084F0300082D05000848
:100070004F0300084F0300084F0300084F03000818
:100080004F0300084F0300084F0300084F03000808
:100090004F0300084F0300084F0300084F030008F8
:1000A0004F0300084F0300084F0300084F030008E8
:1000B0004F0300084F0300084F0300084F030008D8
:1000C0004F0300084F0300084F0300084F030008C8
:1000D0004F0300084F0300084F0300084F030008B8
:1000E0004F0300084F030008000000004F03000802
:1000F0004F0300084F0300084F0300084F03000898
:100100004F0300084F0300084F0300084F03000887
:100110004F0300084F0300088D4000084F030008FC
:100120004F0300084F0300084F0300084F03000867
:100130004F0300084F0300084F0300084F03000857
:1001400000000000000000000000000000000000AF
:100150004F0300084F0300084F0300084F03000837
:100160004F0300084F0300084F0300084F03000827
:100170004F0300084F0300084F0300084F03000817
:100180004F0300084F0300085D4100084F030008BB
:100190004F0300084F0300084F0300084F030008F7
:1001A0004F0300084F0300084F0300084F030008E7
:1001B0004F0300084F0300084F0300084F030008D7
:1001C0004F0300084F0300084F0300084F030008C7
:1001D0004F0300084F0300084F0300084F030008B7
:1001E0004F0300084F0300084F0300084F030008A7
:1001F0004F0300084F0300084F0300084F03000897
:100200004F0300084F0300084F0300084F03000886
:100210004F0300084F0300084F0300084F03000876
:100220004F0300084F0300084F03000800000000C0
:100230004F0300084F030008000000004F030008B0
:100240004F0300084F0300084F0300084F03000846
:100250004F0300084F0300084F0300084F03000836
:100260004F0300084F0300084F0300084F03000826
:100270004F0300084F0300084F0300080000000070
:100280004F0300084F0300084F0300080000000060
:10029000000000004F03000800F002F800F03AF8F8
:1002A0000AA090E8000C82448344AAF10107DA45D1
:1002B00001D100F02FF8AFF2090EBAE80F0013F0E9
:1002C000010F18BFFB1A43F001031847A44B0000AD
:1002D000C44B0000103A24BF78C878C1FAD852073E
:1002E00024BF30C830C144BF04680C6070470000B0
:1002F0000023002400250026103A28BF78C1FBD82F
:10030000520728BF30C148BF0B6070471FB51FBDE3
:1003100010B510BD00F0CFF81146FFF7F7FF04F05D
:1003200061FA00F0EDF803B4FFF7F2FF03BC00F050
:10033000F5F800000948804709480047FEE7FEE756
:10034000FEE7FEE7FEE7FEE7FEE7FEE7FEE7FEE785
:1003500004480549054A064B70470000BD3F0008A8
:1003600099020008D0010024D0430024D033002497
:10037000D033002453EA020C00F069802DE9F04BE1
:100380004FF00006002B1FBFB3FA83F503FA05F404
:1003900024FA05F65E4012BF1643B2FA82F502FA5D
:1003A00005F4C5F120051EBF22FA05FC44EA0C0441
:1003B000203556EA044C4FEA144418BF641C4FF031
:1003C00000084FF00009904271EB030C39D300296B
:1003D00019BFB1FA81F701FA07F6B0FA80F700FA0F
:1003E00007F6C7F120071EBF20FA07FC46EA0C06F5
:1003F0002037B6FBF4FCA7EB0507103F07F01F0BF7
:10040000CBF120060CFA0BFB2CFA06F644BFB346E0
:100410000026202FA4BF5E464FF0000B5BEA060CBF
:1004200008BF4FF0010B19EB0B09ABFB027C48EB4B
:100430000608C01B06FB02CC0BFB03CC71EB0C01C6
:10044000C1E70B46024641464846BDE8F08B13B56E
:100450004FF000004FF00001AFF30080BDE81C40FA
:1004600070474FF0000200B5134694469646203977
:1004700022BFA0E80C50A0E80C50B1F12001BFF45D
:10048000F7AF090728BFA0E80C5048BF0CC05DF8C3
:1004900004EB890028BF40F8042B08BF704748BF11
:1004A00020F8022B11F0804F18BF00F8012B704785
:1004B000704770477047754600F02CF8AE4605004F
:1004C0006946534620F00700854618B020B5FFF76F
:1004D0003FFFBDE820404FF000064FF000074FF00F
:1004E00000084FF0000B21F00701AC46ACE8C00952
:1004F000ACE8C009ACE8C009ACE8C0098D4670475B
:1005000010B50446AFF300802046BDE81040FFF769
:100510000ABF0000004870476C0100240149182000
:10052000ABBEFEE7260002007047FEE7014800F080
:1005300005BC0000A8000024294A016891423AD075
:10054000274A1832914236D0254A3032914232D071
:10055000234A483291422ED0214A603291422AD019
:100560001F4A7832914226D01D4A9032914222D0C1
:100570001B4AA83291421ED01A4A91421BD0194AF6
:100580001832914217D0174A3032914213D0154A8F
:10059000483291420FD0134A603291420BD0114A37
:1005A0007832914207D00F4A9032914203D00D4ADF
:1005B000A832914211D1CAB21823103AB2FBF3F219
:1005C0006FF30901032A02F00703074AD25CC265F0
:1005D00000D9091D81650846704721F0FF01F9E740
:1005E00010000240100402402E4E000830B5224A8E
:1005F000012301689142CAB21BD01F4C1434A1429E
:1006000017D01D4C2834A14213D01B4C3C34A142BE
:100610000FD0194C5034A1420BD0174C6434A14276
:1006200007D0154C7834A14203D0134C8C34A1422E
:100630000CD11421114C083AB2FBF1F10F4A80326F
:1006400001F01F0504EB8101AB4010E00C4D1824B4
:10065000103A0D44B2FBF4F1A82D00D80831094A34
:1006600001F01F0402EB8101064AA3408032603092
:1006700080E80E0030BD00000854025800580258AF
:10068000F0FBFDBF0008024010B50279531E072B96
:100690002DD8174C0168A1421BD0154C1434A1422F
:1006A00017D0134C2834A14213D0114C3C34A14232
:1006B0000FD00F4C5034A1420BD00D4C6434A142EA
:1006C00007D00B4C7834A14203D0094C8C34A142A2
:1006D00003D10849074C443102E00749064C443134
:1006E00004EB8202C0E91B2101219940416710BD42
:1006F00008540258FC580258FC08024010B583699F
:100700004FF0C074826A0146002053B1B3F5005F18
:1007100015D072B1012A0CD0022A0AD0032A09D1BD
:1007200004E01AB1012A06D0022A03D1C96AC9011C
:1007300000D5012010BDC96AA142FAD010BD002A1F
:10074000F7D0012AF2D0022AF3D0032AF3D010BD49
:10075000704772B6FEE700002DE9F84F044601F03D
:1007600077F900903CB194F83500022806D080213A
:1007700061650020E4E00120BDE8F88FC74DC74E59
:10078000C649183520683036DFF81483DFF8149333
:100790008842DFF814A3DFF814B32ED0A8422CD07F
:1007A000B0422AD0404528D0484526D0504524D0D4
:1007B000584522D0BD4A183290421ED0BC4A9042C1
:1007C0001BD0BB4A1832904217D0B94A30329042FF
:1007D00013D0B74A483290420FD0B54A60329042A7
:1007E0000BD0B34A7832904207D0B14A903290424F
:1007F00003D0AF4AA832904209D1026822F01E020B
:1008000002602068426922F08002426103E00268CF
:1008100022F00E02026027688F4238464DD0A8426F
:100820004BD0B04249D0404547D0484545D05045CF
:1008300043D0584541D09D4A183290423DD09C4A01
:1008400090423AD09A4A1832904236D0984A303282
:10085000904232D0964A483290422ED0944A60322A
:1008600090422AD0924A7832904226D0904A9032D2
:10087000904222D08E4AA83290421ED08D4A904299
:100880001BD08C4A1432904217D08A4A28329042A8
:1008900013D0884A3C3290420FD0864A5032904260
:1008A0000BD0844A6432904207D0824A7832904218
:1008B00003D0804A8C32974204D1206E026822F421
:1008C0008072026075492068884228D0A84226D0EC
:1008D000B04224D0404522D0484520D050451ED0BB
:1008E00058451CD071491831884218D07049884247
:1008F00015D06F491831884211D06D493031884286
:100900000DD06B494831884209D06949603188422D
:1009100005D067497831884201D065499031016836
:1009200021F0010101600EE001F092F80099401AF7
:10093000052808D9202262650321002084F835109B
:1009400084F8340017E73868C007EDD1534A012115
:10095000206890422ED0A8422CD0B0422AD04045E8
:1009600028D0484526D0504524D0584522D04F4B5A
:10097000183398421ED04E4B98421BD04C4B183324
:10098000984217D04A4B3033984213D0484B4833E3
:1009900098420FD0464B603398420BD0444B78338B
:1009A000984207D0424B9033984203D0404BA83333
:1009B000984208D194F85C703F23A06D07F01F07A0
:1009C000BB40836007E094F85C30A06D03F01F0328
:1009D00001FA03F34360206890424DD0A8424BD007
:1009E000B04249D0404547D0484545D0504543D016
:1009F000584541D02D4A183290423DD02C4A904261
:100A00003AD02B4A1832904236D0294A303290429E
:100A100032D0274A483290422ED0254A6032904246
:100A20002AD0234A7832904226D0214A90329042EE
:100A300022D01F4AA83290421ED01E4A90421BD09C
:100A40001C4A1432904217D01A4A2832904213D0CE
:100A5000184A3C3290420FD0164A503290420BD086
:100A6000144A6432904207D0124A7832904203D03E
:100A7000104A8C3290420BD1D4E919024260E06EE8
:100A800030B1026822F480720260D4E91C02426034
:100A9000002084F8351084F834006DE61000024020
:100AA000580002407000024088000240A00002404E
:100AB00010040240085402582DE9F05F28B190F864
:100AC0003510022904D0802141650120BDE8F09F46
:100AD000904C904B0168183C18338E4ADFF83C92DA
:100AE000A1428D4CDFF838E28E4FDFF83CB2DFF8E0
:100AF0003CA28F4D8F4E31D091422FD099422DD0B4
:100B0000A1422BD0494529D0714527D0B94225D0E3
:100B1000DFF810C20CF1180C61451FD0DFF808C2D5
:100B2000ACF1600C614519D0DFF8FCC1ACF1480CA8
:100B3000614513D0DFF8F0C1ACF1300C61450DD048
:100B4000DFF8E4C1ACF1180C614507D0594505D078
:100B5000514503D0A94201D0B1422CD1DFF8B4C134
:100B60004FF0040880F83580ACF1180C61451DD0B9
:100B700091421BD0994219D0A14217D0494515D0B6
:100B8000714513D0B94211D06648183081420DD05A
:100B900065486038814209D063484838814205D0B1
:100BA00061483038814201D05F481838086820F029
:100BB00001000860ABE0D1F800C02CF00E08DFF8AF
:100BC00054C1C1F80080ACF1180C0168614527D010
:100BD000914225D0994223D0A14221D049451FD02E
:100BE00071451DD0B9421BD0DFF838C10CF1180C8B
:100BF000614515D0DFF830C1ACF1600C61450FD014
:100C0000DFF824C1ACF1480C614509D0DFF818C108
:100C1000ACF1300C614503D0DFF80CC1ACF1180C1D
:100C2000D1F800C02CF0010CC1F800C0DFF8E4805E
:100C30004FF0010C0168A8F11808414546D09142D7
:100C400044D0994242D0A14240D049453ED071455E
:100C50003CD0B9423AD0334A1832914236D0324A67
:100C6000603A914232D0304A483A91422ED02E4AD0
:100C7000303A91422AD02C4A183A914226D059450E
:100C800024D0514522D0A94220D0B1421ED02A4AB8
:100C900091421BD0284A1432914217D0264A28325A
:100CA000914213D0244A3C3291420FD0224A503212
:100CB00091420BD0204A6432914207D01E4A7832CA
:100CC000914203D01C4A8C32914218D1016E0A68BD
:100CD00022F480720A6090F85C20816D02F01F029D
:100CE0000CFA02F24A60D0E919124A60C16E31B1C1
:100CF0000A6822F480720A60D0E91C124A6000225D
:100D0000016D80F835C080F8342001B1884700209B
:100D1000DCE600002800024058000240700002405B
:100D200088000240A0000240700402408804024093
:100D3000A0040240B8040240085402582DE9FC5FA8
:100D40000446F74E0020DFF8D88300904FF4165287
:100D5000F44808F11808A56DDFF8C493DFF8C0A3C4
:100D6000016809F1300920680AF1480AB1FBF2F183
:100D7000B04201912F68D5F800C0DFF8ACB335D090
:100D80004146884232D0484530D050452ED0584553
:100D90002CD0E5491831884228D0E34930318842C7
:100DA00024D0E1494831884220D0E04988421DD012
:100DB000DE491831884219D0DC493031884215D0DB
:100DC000DA494831884211D0DFF860E30EF1600E55
:100DD00070450BD0D54A7832904207D0D34B903330
:100DE000984203D0D149A83188427DD194F85C2043
:100DF000082102F01F0201FA02F23A424AD0B04240
:100E000032D0404530D048452ED050452CD05845A2
:100E10002AD0C54A1832904226D0C34A3032904276
:100E200022D0C14A483290421ED0C04A90421BD0C4
:100E3000BE4A1832904217D0BC4A3032904213D08A
:100E4000BA4A483290420FD0B84A603290420BD032
:100E5000B64A7832904207D0B44A9032904203D0DA
:100E6000B24AA832904203D1026802F0040202E0C2
:100E7000026802F008026AB1026822F0040202600D
:100E800094F85C0000F01F008140A960606D40F0A4
:100E90000100606594F85C00012100F01F008140B2
:100EA000394240D02068B04234D0404532D0484525
:100EB00030D050452ED058452CD09B4A1832904205
:100EC00028D0994A3032904224D0974A48329042F2
:100ED00020D0964A90421DD0944A1832904219D0A0
:100EE000924A3032904200E0AFE113D08F4A48324C
:100EF00090420FD08D4A603290420BD08B4A7832AC
:100F0000904207D0894A9032904203D0874AA83253
:100F100090427DD1406910F0800F04D0A960606DCF
:100F200040F00200606594F85C00042100F01F00AE
:100F3000814039423ED02068B04232D0404530D066
:100F400048452ED050452CD058452AD0764A1832E4
:100F5000904226D0744A3032904222D0724A4832AF
:100F600090421ED0714A90421BD0704A1832904273
:100F700017D06E4A3032904213D06C4A48329042B9
:100F80000FD06A4A603290420BD0684A7832904261
:100F900007D0664A9032904203D0644AA832904209
:100FA0004ED1006810F0020F04D0A960606D40F0CF
:100FB0000400606594F85C00102100F01F0081407F
:100FC000394258D02068B04234D0404532D04845EC
:100FD00030D050452ED058452CD0534A183290422C
:100FE00028D0514A3032904224D04F4A4832904261
:100FF00020D04E4A90421DD04C4A1832904219D00F
:101000004A4A3032904215D0484A4832904200E075
:1010100014E00FD0454A603290420BD0434A7832F8
:10102000904207D0414A9032904203D03F4AA832C2
:10103000904207D1006800F0080006E0006872E7FF
:101040000068B7E7006800F00400A0B1A96020685C
:101050000168490304D50068000308D5A16C07E0C6
:101060000168C90503D4016821F008010160216C01
:1010700009B12046884794F85C00202100F01F0049
:101080008140394279D02068B04232D0404530D0DA
:1010900048452ED050452CD058452AD0224A1832E7
:1010A000904226D0204A3032904222D01E4A483206
:1010B00090421ED01D4A90421BD01C4A18329042CA
:1010C00017D01A4A3032904213D0184A4832904210
:1010D0000FD0164A603290420BD0144A78329042B8
:1010E00007D0124A9032904203D0104AA832904260
:1010F00003D1006800F0100002E0006800F0020078
:10110000B0B3A96094F835000428206801680FD0B6
:1011100049037ED5006800032BD4616C2AE00000EF
:10112000100002400C000024700002401004024035
:1011300021F0160101602068416921F080014161C0
:10114000206C08B9A06C20B12068016821F008016A
:10115000016094F85C303F21012003F01F0300225E
:101160009940A96084F8350084F83420216D65E049
:1011700003E0E16B09B120468847606D00287DD00F
:10118000606DC00759D02068042184F83510B04242
:101190002BD0404529D0484527D0504525D058452B
:1011A00023D09D49884220D09B49183188421CD0C9
:1011B00099493031884218D09849884215D09749CA
:1011C0001831884211D09549303188420DD0934969
:1011D0004831884209D091496031884205D08F4911
:1011E0007831884201D08D499031016821F00101A8
:1011F000016020680099019A491C0091914202D82F
:101200000168C907F6D10068C00710D003200FE0BD
:10121000FFE70168C905ACD403680121002223F06F
:101220001003036084F8351084F83420A1E701200E
:1012300084F83500002084F83400E16C00291DD0CA
:1012400002B02046BDE8F05F0847754988421DD0CE
:1012500073491431884219D071492831884215D018
:101260006F493C31884211D06D49503188420DD0D0
:101270006B496431884209D0694900E084E07831E3
:10128000884203D066498C3188427DD194F85C80D5
:101290000427016808F01F0807FA08F717EA0C0F7F
:1012A000009746D04F0744D500980F04686003D5D7
:1012B000C8033CD4A16CC1E7880638D42068B0428A
:1012C0002DD055496039884229D0484527D050450E
:1012D00025D0584523D05049884220D04E49183156
:1012E00088421CD04C493031884218D04B49884242
:1012F00015D04A491831884211D0484930318842C6
:101300000DD046494831884209D0704507D09042F7
:1013100005D0984203D04149A831884203D10168E1
:1013200021F0080102E0016821F004010160216C54
:1013300084E7022707FA08F717EA0C0F00974ED048
:101340008F074CD500980F04686003D5C80344D4B8
:10135000616C73E7880640D42068B0422FD02E49D4
:10136000603988422BD0484529D0504527D0584570
:1013700025D02949884222D02749183188421ED0D9
:1013800025493031884200E044E018D023498842A2
:1013900015D022491831884211D020493031884275
:1013A0000DD01E494831884209D0704507D090427F
:1013B00005D0984203D01949A831884203D1016869
:1013C00021F0140102E0016821F00A01016001210D
:1013D00084F83510002084F83400E16B2EE70822F1
:1013E00002FA08F212EA0C0F14D0090712D50168AC
:1013F00021F00E01016094F85C100120002201F040
:101400001F0100FA01F16960606584F8350084F815
:10141000342012E7BDE8FC9F88000240100402401F
:10142000085402582DE9F05F044600F011FB002C2F
:1014300007467DD0E34E022120684FF00308DFF815
:1014400088934FF00005DFF884A3B042DFF880B343
:1014500034D0DC4A1832904230D048452ED0504526
:101460002CD058452AD0DA4A1832904226D0D84A91
:101470003032904222D0D64A483290421ED0D54ACD
:1014800090421BD0D34A1832904217D0D14A303202
:10149000904213D0CF4A483290420FD0CD4A6032AA
:1014A00090420BD0CB4A7832904207D0C94A903252
:1014B000904203D0C74AA83290427DD184F83510BB
:1014C000B04284F834502ED0BE49183188422AD018
:1014D000484528D0504526D0584524D0BC4918311D
:1014E000884220D0BA49303188421CD0B8494831AE
:1014F000884218D0B749884215D0B6491831884279
:1015000011D0B449303188420DD0B24948318842B7
:1015100009D0B0496031884205D0AE49783188425F
:1015200001D0AC499031016821F00101016008E06F
:1015300027E100BF00F08CFAC01B052801D920214B
:101540001CE120680068C007F4D104F1080021689C
:10155000D4E9053C8E4685C809681043D4E90728BC
:101560001F43636A38439C4F40EA0C0010433940E4
:1015700040EA0800042B40EA010003D1D4E90B1231
:1015800011430843954909686FF30F01B1F1005FFA
:101590000FD36168A1F12902052A08D9163A032A56
:1015A00005D9083A012A02D94F39032901D840F454
:1015B0008010CEF8000000E023E02068676A4069F0
:1015C000042F20F0070047EA00070DD1D4E90A01F3
:1015D000074349B12046FFF791F828B140206065E4
:1015E000012184F83510CCE0206847612046FEF7E1
:1015F000A3FF94F85C203F2102F01F02914081601C
:1016000054E0774A90421BD0754B1433984217D060
:10161000734B2833984213D0714B3C3398420FD010
:101620006F4B503398420BD06D4B6433984207D0C8
:101630006B4B7833984203D0694B8C3398427DD101
:1016400084F8351084F83450664B0168A26801EACA
:10165000030E402A73D0802A72D00022D4E9037886
:10166000D4E9053142EAD70242EAD8085C4AD4E913
:10167000077C48EAD30848EAD10141EAD70152423F
:1016800041EA1C11142341EA0E0101602068104454
:10169000B0FBF3F08000E0652046FEF74DFF94F8C4
:1016A0005C20012102F01F02914041602068B0429D
:1016B00057D044491831884253D0484551D05045FD
:1016C0004FD058454DD042491831884249D0404901
:1016D0003031884245D03E494831884241D03D4969
:1016E00088423ED03B49183188423AD0394930319E
:1016F000884236D037494831884232D03549603146
:1017000088422ED03349783188422AD031499031ED
:10171000884226D02F49A831884222D030498842B9
:101720001FD02F49143188421BD02D4928318842BF
:1017300017D02B493C31884213D002E01DE017E05E
:1017400018E02749503188420BD02549643188423E
:1017500007D023497831884203D021498C3188420F
:1017600029D12046FEF742FFA06880280CD00CE06B
:10177000102273E74FF4804270E74021616584F8DE
:1017800035800120BDE8F09F6560216E20790860FA
:10179000D4E9190141606068401E072808D8204636
:1017A000FEF772FFE06E0560D4E91C01416002E0C3
:1017B000E566256765670120656584F835000020CA
:1017C000E0E70000100002404000024058000240E4
:1017D00070000240100402403F8010FE0010005CC8
:1017E000085402580F00FEFF70B5044600F030F9AF
:1017F0000546601C02D004480078044400F028F933
:10180000401BA042FAD370BD000000242DE9F84F20
:1018100003247D4D00234FF001094FF0B04B4FF0F2
:101820000F0AE9E009FA03F73A4076D00E7906F09C
:101830000306012E01D0022E18D1D0F808C04FEABD
:10184000430ECE6804FA0EF82CEA080C06FA0EF6DF
:1018500046EA0C068660D0F804C00E792CEA070C24
:10186000C6F300169E4046EA0C0646600E79F64323
:10187000B6070BD0C6684FEA43088F6804FA08FC25
:1018800026EA0C0607FA08F73743C7600E7906F018
:101890000306022E12D1DE080F694FEA437C00EBEB
:1018A0008606B646366A4FEADC6C0AFA0CF807FA86
:1018B0000CF726EA08063743CEF820700F79066841
:1018C0004FEA430807F0030704FA08FC07FA08F791
:1018D00026EA0C06374307604E6816F4403F1CD0DA
:1018E0004A4E376847F00207376036689F0706F0B0
:1018F0000206009623F0030606F1B046B6463F0FF7
:10190000D6F80864DFF808810AFA07FC404526EAA1
:101910000C0603D14FF0000C41E06CE0DFF8F4C09E
:10192000604502D14FF0010C39E0DFF8ECC06045B2
:1019300002D14FF0020C32E0DFF8E0C0604502D186
:101940004FF0030C2BE0DFF8D8C0604502D14FF018
:10195000040C24E0DFF8CCC0604502D14FF0050C48
:101960001DE0DFF8C4C0604502D14FF0060C16E060
:10197000DFF8B8C0604502D14FF0070C0FE0DFF888
:10198000B0C0604502D14FF0080C08E0DFF8A4C0F9
:10199000604502D14FF0090C01E04FF00A0C0CFA3F
:1019A00007FC4CEA060CCEF808C44F68DBF8006070
:1019B000FF0226EA020600D516435F46CBF8006018
:1019C000D1F804C0DBF804605FEA8C2C26EA02063A
:1019D00000D516437E606E684F6826EA0206BF0394
:1019E00000D516436E602E684F6826EA0206FF0394
:1019F00000D516432E605B1C0A6832FA03F67FF4AA
:101A000011AFBDE8F88F000080000058F444025880
:101A1000000002580004025800080258000C025846
:101A2000001002580014025800180258001C0258F6
:101A300000200258002402580AB18161704709044D
:101A4000FBE7000001480068000C70470010005CD4
:101A50000148806870470000000000240248816847
:101A6000027811448160704700000024032010B503
:101A700000F0ACF801F010F90F4A1049146813682F
:101A8000C4F3032203F00F038A5CC95C02F01F0257
:101A900001F01F01D0400A4A20FA01F11160094902
:101AA00008600F2000F010F808B1012010BD00F010
:101AB00051F8002010BD0000184402585E4E000886
:101AC000100000240C00002410B5102804468AB031
:101AD0002CD200220146362000F058F8362000F0C3
:101AE00047F8174804601748016841F01001016089
:101AF000006809A900F010000890684601F058F845
:101B00000598B0B101F0A4F840000F4900220F4C35
:101B1000B0FBF1F10E4840F2E7330460C0E9033254
:101B2000491EC0E9011201F047FC28B101200AB0AA
:101B300010BD01F08DF8E8E7054801F06FFCF6E70D
:101B400004000024E844025840420F000010004006
:101B500020010024054808B5016841F00201016038
:101B6000006800F00200009008BD0000F444025834
:101B7000002809DB410900F01F028900012001F162
:101B8000E0219040C1F80001704700000E4BF0B416
:101B90001B680D46C3F30223C3F10706042E00D9C8
:101BA0000426191D072901D2002300E0DB1E0124B1
:101BB00004FA06F19C40491E2940641E99401440D5
:101BC0002143F0BC02F0FDBD0CED00E0064900F041
:101BD000070210B54FF6FF040868044B204040EAA6
:101BE00002201843086010BD0CED00E00000FA056B
:101BF000134970B50A68D243520705D5096801F048
:101C00000701814213D118E00A6822F0070202435B
:101C10000A60FFF71DFF0A4D4FF47A760446083D2F
:101C200007E000BFFFF714FF001BB04201D90120FD
:101C300070BD2868C0438004F4D4002070BD00004B
:101C40000C48025810B500F0E1FF05490968054A43
:101C5000C1F30211515C01F01F01C84010BD00002A
:101C6000204402585E4E00082DE9F04704466048C3
:101C7000021D01680068126801F003055C49C0F3A9
:101C800005381431C2F300100968C1F3CC0111FB0F
:101C900000F002F007FFB8F1000F7CD0554E6FF056
:101CA0000C014FF07E59CDB1534F012D01D0022DC3
:101CB00072D003F07EF805463068C0F3080002F0E9
:101CC000F1FE294602F0A4FD494602F0A1FD0546B9
:101CD000404602F0E7FE0146384635E0444A283ADD
:101CE00013689B061CD5454F1268C2F3C102D7404A
:101CF00003F05FF805463068C0F3080002F0D2FE3A
:101D0000294602F085FD494602F082FD054640461F
:101D100002F0C8FE8046384602F0C4FE414613E099
:101D200003F047F805463068C0F3080002F0BAFE39
:101D3000294602F06DFD494602F06AFD054640461F
:101D400002F0B0FE01462E4802F0CAFD294602F01C
:101D5000BDFE05463068C0F3462002F0A3FE4F46A4
:101D6000494602F055FD0146284602F0B9FD02F051
:101D700079FE20603068C0F3064002F093FE3946D9
:101D800002F046FD0146284602F0AAFD02F06AFE76
:101D90006060306801E026E00DE0C0F3066002F00C
:101DA00081FE394602F034FD0146284602F098FDD6
:101DB00002F058FE14E002F0FCFF05463068C0F364
:101DC000080002F06FFE294602F022FD494602F0AB
:101DD0001FFD0546404602F065FE01460948B3E78F
:101DE000A060BDE8F087002020606060F8E7000098
:101DF00028440258384402580024744A0090D00302
:101E00000024744C20BCBE4B2DE9F04704466048CA
:101E1000021D01680068126801F003055C49C0F307
:101E200005581C31C2F300200968C1F3CC0111FB35
:101E300000F002F037FEB8F1000F7CD0554E6FF085
:101E40000C014FF07E59CDB1534F012D01D0022D21
:101E500072D002F0AEFF05463068C0F3080002F011
:101E600021FE294602F0D4FC494602F0D1FC054689
:101E7000404602F017FE0146384635E0444A283A0B
:101E800013689B061CD5454F1268C2F3C102D740A8
:101E900002F08FFF05463068C0F3080002F002FE32
:101EA000294602F0B5FC494602F0B2FC0546404620
:101EB00002F0F8FD8046384602F0F4FD414613E09A
:101EC00002F077FF05463068C0F3080002F0EAFD33
:101ED000294602F09DFC494602F09AFC0546404620
:101EE00002F0E0FD01462E4802F0FAFC294602F01D
:101EF000EDFD05463068C0F3462002F0D3FD4F46A5
:101F0000494602F085FC0146284602F0E9FC02F051
:101F1000A9FD20603068C0F3064002F0C3FD3946D9
:101F200002F076FC0146284602F0DAFC02F09AFD47
:101F30006060306801E026E00DE0C0F3066002F06A
:101F4000B1FD394602F064FC0146284602F0C8FCA7
:101F500002F088FD14E002F02CFF05463068C0F363
:101F6000080002F09FFD294602F052FC494602F0AB
:101F70004FFC0546404602F095FD01460948B3E78F
:101F8000A060BDE8F087002020606060F8E70000F6
:101F900028440258404402580024744A0090D00358
:101FA0000024744C20BCBE4B2DE9FE4F0546DFF8E3
:101FB000E49350F8081B0024F64FC943019005F143
:101FC0002800264609F12409009008011DD4A86EB6
:101FD00050B1B0F5801F0CD0B0F5001F0ED0B0F599
:101FE000401F1ED001240FE0386840F400303860F4
:101FF00017E00198022101F07BFE03E00098022126
:1020000001F006FF04000CD026462888C043C00516
:1020100023D4A86D05281ED2DFE800F00C11161B92
:102020001B00AA6ED9F8001021F440111143C9F821
:102030000010EAE7386840F40030386009E00198A1
:10204000002101F055FE03E00098002101F0E0FEC0
:10205000044674B100E0012426462888C043800568
:1020600028D4E86D80281ED00CDC90B140280ED119
:1020700014E0AA6DD9F8001021F007011143C9F846
:102080000010EAE7C02813D0B0F5807F10D00124FB
:102090000FE0386840F40030386009E00198002112
:1020A00001F026FE03E00098002101F0B1FE044695
:1020B0009CB126462888DFF8DC82C04308F12C0852
:1020C00040052CD4D5F8A800B0F5800F20D00DDC49
:1020D000A0B1B0F5001F0FD115E0EA6DD9F80010DE
:1020E00021F4E0711143C9F80010E3E7B0F5C00F27
:1020F00013D0B0F5000F10D001240FE0386840F481
:102100000030386009E00198002101F0F1FD03E0A2
:102110000098002101F07CFE04467CB12646288808
:10212000C04300052DD4D5F8AC00B0F1007F21D01C
:102130000EDCA8B1B0F1807F10D116E0D5F8A82050
:10214000D8F8001021F460011143C8F80010E6E748
:10215000B0F1407F13D0B0F1806F10D001240FE0B8
:10216000386840F40030386009E00198002101F03F
:10217000BFFD03E00098002101F04AFE044674B15F
:1021800026462868C04380011FD4E86CD8B11028C7
:102190000FD0202812D0302815D0012414E0D5F813
:1021A000AC20D8F8001021F0E0611143C8F800100D
:1021B000E7E7386840F40030386004E00198022115
:1021C00001F096FD044674B126462888C043C00439
:1021D0002BD4286EB0F5005F20D00DDCA0B1B0F597
:1021E000805F0FD115E06B48EA6C2030016821F068
:1021F000300111430160E8E7B0F5405F13D0B0F55E
:10220000804F10D001240FE0386840F4003038606F
:1022100009E00198002101F06BFD03E00098002126
:1022200001F0F6FD04468CB126462888C0438004A0
:1022300029D4686EB0F5403F23D010DC08B3B0F568
:10224000803F14D0B0F5003F0FD115E02A6ED9F8C9
:10225000001021F4E0411143C9F80010E5E7B0F5A2
:10226000802F0ED0B0F5A02F0BD001240AE00198EA
:10227000012101F03DFD03E00098012101F0C8FDBE
:10228000044694B126462888C04340042AD4D5F891
:10229000B000B0F1405F23D010DC08B3B0F1805F34
:1022A00014D0B0F1005F0FD115E06A6ED9F80010BC
:1022B00021F4E0211143C9F80010E4E7B0F1804FA8
:1022C0000ED0B0F1A04F0BD001240AE001980121FB
:1022D00001F00EFD03E00098012101F099FD044694
:1022E00074B126462888C04300041FD4286FD8B193
:1022F000B0F1805F0ED0B0F1005F10D0012414E087
:10230000D5F8B020D8F8001021F0E0411143C8F80A
:102310000010E7E7386840F40030386004E00198C6
:10232000012101F0E5FC044674B126462868C0434B
:10233000C0011ED4A86CD0B101280ED0022811D043
:10234000032814D0012413E02A6FD9F8001021F0DB
:1023500040511143C9F80010E8E7386840F40030F4
:10236000386004E00198022101F0C2FC0446ACB1DF
:1023700026462868DFF81CB0C043ABF11C0B4002B6
:1023800052D40548016841F480710160FFF760FB99
:10239000824611E02C44025800480258FA48AA6CC0
:1023A000016821F0030111430160E2E7FFF750FBF0
:1023B000A0EB0A00642835D8F4480068C005F5D5BC
:1023C0008CBBDFF8C4A3B5F8B4100AF1240ADAF81C
:1023D000000001F4407100F44070884211D0DAF836
:1023E0000010DAF8002021F4407142F48032CAF87B
:1023F0000020DAF8002022F48032CAF80020CAF85F
:102400000010D5F8B400B0F5807F1AD1FFF720FB9B
:10241000029012E0FFF71CFB0299411A41F288304A
:1024200081420AD9032426462878DFF85CA3C043FA
:102430000AF1080AC00721D03CE0DAF80000800762
:10244000E8D5D5F8B410C1F30120032858460DD0C3
:10245000016821F47C510160B5F8B420DAF800106D
:10246000C2F30B021143CAF80010DDE7C84A036843
:1024700002EA111223F47C511143ECE7E86F1828AB
:1024800016D005DCA0B1082808D0102804D10AE035
:1024900020280DD028280BD001240AE00198012122
:1024A00001F026FC03E00098012101F0B1FC044694
:1024B00064B126462878C04380071ED4A86F06283A
:1024C00019D2DFE800F0160C11161616EA6FDAF8CA
:1024D000001021F038011143CAF80010EAE7019812
:1024E000012101F005FC03E00098012101F090FCBE
:1024F00004467CB100E0012426462878C04340070A
:102500001FD4D5F89400062819D2DFE800F0160C85
:1025100011161616AA6FDAF8001021F00701114300
:10252000CAF80010E9E70198012101F0E1FB03E09E
:102530000098012101F06CFC0446A4B100E00124E4
:1025400026462878C04380062BD4D5F89000B0F1F9
:10255000405F24D011DC10B3B0F1805F15D0B0F132
:10256000005F10D116E0D5F89420D8F8001021F0C3
:1025700007011143C8F80010E3E7B0F1804F0ED017
:10258000B0F1A04F0BD001240AE00198002101F026
:10259000AFFB03E00098022101F03AFC044694B13D
:1025A00026462878C04340062BD4D5F89C00B0F5C9
:1025B000406F24D011DC10B3B0F5806F15D0B0F5AA
:1025C000006F10D116E0D5F89020DAF8001021F055
:1025D000E0411143CAF80010E3E7B0F5805F0ED088
:1025E000B0F5A05F0BD001240AE00198002101F0B2
:1025F0007FFB03E00098022101F00AFC044694B13D
:1026000026462878C04300062BD4D5F8A000B0F5A4
:10261000C04F24D011DC10B3B0F5005F15D0B0F579
:10262000804F10D116E0D5F89C20D8F8001021F486
:10263000E0511143C8F80010E3E7B0F5004F0ED0A9
:10264000B0F5204F0BD001240AE00198002101F0E1
:102650004FFB03E00098022101F0DAFB044654B17D
:1026600026462878C04300071ED4D5F88400B0F56C
:10267000805F0AD00FE0D5F8A020D8F8001021F430
:1026800060411143C8F80010EBE70098022101F007
:10269000BFFB00B10126D5F88420DAF8001021F440
:1026A00040511143CAF800102878C043C00613D423
:1026B000D5F89800B0F5807F05D10098022101F08F
:1026C000A7FB00B10126D5F89820D8F8001021F416
:1026D00040711143C8F800102868C043000316D4A5
:1026E000D5F8A40038B1B0F5803F09D0B0F5003F6F
:1026F0000BD001240AE00198002101F0F9FA03E06F
:102700000098022101F084FB04468CB1264628681B
:10271000C043400322D4D5F88800B0F5801F11D003
:10272000B0F5001F13D0B0F5401F15D0012414E000
:10273000D5F8A420D8F8001021F440311143C8F88E
:102740000010E4E7386840F40030386004E0009896
:10275000012101F05DFB04465CB126462868C043B8
:10276000C00323D4286DA8B1B0F5803F17D0012451
:102770001BE0D5F88820DAF8001021F4401111434D
:10278000CAF80010EAE700004C440258004802581A
:10279000CFFFFF00386840F40030386004E0019853
:1027A000022101F0A5FA0446E4B126462868C04398
:1027B000800005D40098022101F02AFB00B1012617
:1027C0002868C04380031BD4D5F88000B0B1B0F5B1
:1027D000807F0FD0B0F5007F10D0B0F5407F0DD0D6
:1027E00001240CE05A482A6D016821F4803111431C
:1027F0000160DBE7386840F400303860ECB326460F
:102800002868C043C00207D46A6FD9F8001021F0CD
:1028100000411143C9F800102868C043C00008D423
:10282000D5F8B820DBF8001021F480411143CBF833
:1028300000102868C043800207D4EA6ED9F800105F
:1028400021F080711143C9F800102868C04340008E
:102850000CD4DBF8001021F40041CBF80010DBF8B9
:102860000010D5F8BC201143CBF800102868C043F5
:1028700008D437486A6D016800E018E021F0405143
:10288000114301602868C043000208D4D5F88C20A9
:10289000DAF8001021F440011143CAF80010287939
:1028A0000024C04300F0010020430AD00FE0D5F817
:1028B0008020DAF8001021F440711143CAF80010AA
:1028C0009EE70198002101F013FA00B1064628792D
:1028D000C04300F00200204305D10198012101F01E
:1028E00007FA00B106462879C04300F004002043EF
:1028F00005D10198022101F0FBF900B106462879C3
:10290000C04300F00800204305D10098002101F0E9
:102910007FFA00B106462879C04300F0100020433A
:1029200005D10098012101F073FA00B1064628791B
:10293000C04300F02000044304D10098022101F0BC
:1029400067FA00B916B10120BDE8FE8F0020FBE751
:102950004C4402582DE9F05F04000F467ED0DFF8AA
:102960003882D8F8000000F00F00B8420CD2D8F836
:10297000001021F00F013943C8F80010D8F800000A
:1029800000F00F00B84269D12078844D40070AD585
:102990002069296801F07001884204D9296821F072
:1029A00070010143296020787C4E361D00070AD54E
:1029B0006069316801F07001884204D9316821F002
:1029C0007001014331602078C0060AD5A0693168E2
:1029D00001F4E061884204D9316821F4E0610143E7
:1029E00031602078DFF8B4B180060BF1080B0CD50C
:1029F000E1695846DBF8002002F07002914204D9E8
:102A0000026822F070020A430260207880070AD52B
:102A1000E068296801F00F01884204D9296821F093
:102A20000F01014329602078C0073ED05B49A268AE
:102A30002868183920F47060104328606068022804
:102A400018D0032819D00968012819D0490700298E
:102A50004ADADFF848A1AAF1080A00E044E0DAF80F
:102A6000002022F007020243CAF80020FEF7F0FF20
:102A7000814612E009688903E9E709688901E6E708
:102A8000C905E4E7FEF7E4FFA0EB090141F2883055
:102A9000814202D90320BDE8F09F6168DAF80000A6
:102AA00000F03800B0EBC10FECD1207880070AD5D8
:102AB000E068296801F00F01884204D2296821F0FA
:102AC0000F0101432960D8F80010404601F00F01C2
:102AD000B9420BD9016821F00F0139430160006848
:102AE00000F00F00B84201D00120D4E72078400761
:102AF0000AD52069296801F07001884204D229684A
:102B000021F0700101432960207800070AD560692F
:102B1000316801F07001884204D2316821F07001FF
:102B2000014331602078C0060AD5A069316801F4FC
:102B3000E061884204D2316821F4E06101433160F0
:102B4000207880060CD5E1695846DBF8002002F0B9
:102B50007002914204D2026822F070020A430260BD
:102B600000F09AF80E492A682B68C2F3032203F09A
:102B70000F038A5CC95C02F01F0201F01F01D04004
:102B8000084A20FA01F11160074908600748006807
:102B9000BDE8F05FFEF798BF0020005218440258CD
:102BA0005E4E0008100000240C00002404000024E5
:102BB00070B5144C3F220260124A24680832131D7B
:102BC000114D04F00704446016681C1D06F470667D
:102BD0008660166806F00F06C660126802F0700282
:102BE00002611A6802F0700242611A6802F4E0623F
:102BF0008261226802F07002C261286800F00F0052
:102C0000086070BD104402580020005270B500F0FA
:102C100043F80B4A0B490C4B15681468C5F30322A3
:102C200004F00F048A5C095D02F01F0201F01F012D
:102C3000D040064A20FA01F119601060084670BDC4
:102C4000184402585E4E0008100000240C000024B6
:102C500010B5FFF7DBFF05490968054AC1F302110A
:102C6000515C01F01F01C84010BD00001C44025817
:102C70005E4E000810B5FFF7C9FF05490968054A0F
:102C8000C1F30221515C01F01F01C84010BD0000DA
:102C90001C4402585E4E00082DE9F0475D485E4C2A
:102CA00000685C4E103E10F0380141D02011082918
:102CB00046D0102948D0182942D156481830021D54
:102CC00003680168106803F00308C1F30517514950
:102CD00000F0010024310968C1F3CC0111FB00F0C0
:102CE00001F0E0FE002F7CD04C4DB8F1000F6FF0EA
:102CF0000C014FF07E5929D0494CB8F1010F02D098
:102D0000B8F1020F6CD002F054F806462868C0F300
:102D1000080001F0C7FE314601F07AFD494601F096
:102D200077FD0646384601F0BDFE014620462BE001
:102D30003068800606D53068C0F3C10024FA00F080
:102D4000BDE8F0872046FBE73648F9E7326892068F
:102D50001ED53268C2F3C102D44002F02AF80646FA
:102D60002868C0F3080001F09DFE314601F050FDD7
:102D7000494601F04DFD0646384601F093FE0746F0
:102D8000204601F08FFE394601F0AAFD314616E0DB
:102D900002F00FF804462868C0F3080001F082FE34
:102DA000214601F035FD494601F032FD0446384622
:102DB00001F078FE01461C4801F092FD214601F029
:102DC00085FE04462868C0F34620401C01F06AFED8
:102DD0000146204601F084FDBDE8F04701F042BE07
:102DE00000E014E001F0E5FF04462868C0F30800A5
:102DF00001F058FE214601F00BFD494601F008FDA7
:102E00000446384601F04EFE01460848D4E700204B
:102E100096E70000104402580090D0033044025856
:102E20000024744A40787D010024744C20BCBE4BC1
:102E30002DE9F05F04007DD0FF4F2078FE4D18375C
:102E4000DFF8F493103DC00748D0D9F80000396886
:102E500000F03800102815D0182803D101F0030025
:102E600002280FD06068B0F5803F12D010B1B0F5E5
:102E7000A02F18D0286820F480302860286820F41B
:102E8000802009E02868800328D560680028D2D017
:102E900024E0286840F480302860606888B1FEF73C
:102EA000D7FD064609E0286840F480202860F0E756
:102EB000FEF7CEFD801B64286FD828688003F7D505
:102EC0000CE0FEF7C5FD064605E000BFFEF7C0FDBD
:102ED000801B6428F0D828688003F7D4207841F25A
:102EE0000308D54E0C3E800769D5D9F80000396833
:102EF00010F038000ED0182801D188070AD0E068F9
:102F000090B3296821F0190101432960FEF7A0FD63
:102F1000824631E02868400702D5E06800288AD060
:102F2000E168286820F0190008432860FEF790FD4A
:102F3000824607E0DFE000BFFEF78AFDA0EB0A0053
:102F40000228B9D828684007F6D500BFFEF77AFDF9
:102F500040451BD82069402812D0316821F47C31CB
:102F600041EA003030602AE018E000BFFEF770FD53
:102F7000A0EB0A0002289FD828684007F6D5E5E7AD
:102F8000306820F47C3040F40030EBE7207C31687E
:102F900021F0FE4141EA0060E4E70DE1286820F0FD
:102FA00001002860FEF754FD824605E0FEF750FD63
:102FB000A0EB0A0002288DD828684007F6D42078B4
:102FC000C0065DD5D9F80000DFF86CB2396800F0B2
:102FD0003800ABF1040B082810D0182803D101F0F9
:102FE000030001280AD0E0690028286838D040F0A2
:102FF00080002860FEF72CFD824623E02868C0058B
:1030000023D5E069802876D11FE0206A202821D0CE
:10301000316821F0F84141EA8060306030E000BF63
:1030200094F82010DBF8002022F07C5242EA016183
:10303000CBF8001024E000BFFEF70AFDA0EB0A0069
:10304000022898D82868C005F6D5FEF7FBFC404555
:10305000E6D8DAE7306820F0F84040F08040DCE75E
:1030600020F080002860FEF7F3FC064605E000BF74
:10307000FEF7EEFC801B02289DD82868C005F7D417
:103080002078000729D56C486169643000298046A2
:10309000016811D041F001010160FEF7D9FC06463C
:1030A00005E000BFFEF7D4FC801B0228C9D8D8F881
:1030B00000008007F6D510E021F001010160FEF765
:1030C000C7FC064605E000BFFEF7C2FC801B0228D5
:1030D00072D8D8F800008007F6D42078800623D56F
:1030E000A0690028286810D040F480502860FEF7BE
:1030F000AFFC064605E036E1FEF7AAFC801B02287D
:103100005AD828688004F7D50EE020F48050286053
:10311000FEF79EFC064604E0FEF79AFC801B0228A0
:103120004AD828688004F7D4207840074FD5DFF8C4
:103130000C81D8F8001041F48071C8F80010FEF737
:1031400087FC064605E000BFFEF782FC801B642872
:1031500032D8D8F80000C005F6D5374EA0686036E2
:1031600001280AD008B1052813D0306820F00100EA
:103170003060306820F0040002E0306840F0010068
:103180003060A06841F2883A90B1FEF761FC804659
:103190000AE0306840F004003060EEE7FEF758FCCB
:1031A000A0EB0801514507D830688007F6D50EE03E
:1031B000FEF74EFC804607E084E000BFFEF748FCC7
:1031C000A0EB080151457DD830688007F6D4606ACD
:1031D000B0B3DFF86480D9F8001008F120084FF68A
:1031E000F87B08F10409C1F3C2010329A8F1040A1C
:1031F00069D00228286820F08070286003D0FEF78C
:1032000027FC044684E0FEF723FC064605E000BFE9
:10321000FEF71EFC801B022877D828688001F7D4AF
:10322000E26A40F2F331386854F8283F884340EAB4
:1032300002101843386004E0104402580048025855
:10324000B5E0217B434622894FF4FE0C208A4FF0E3
:10325000FE474902267D521E401EA1F50071C2F3B1
:1032600008088AB2761E0CEA004042EA08020243CD
:10327000504607EA06610A431A60DAF8002022F095
:103280000102CAF80020D9F80020266A22EA0B02BF
:1032900042EAC602C9F80020DAF80010A26921F05B
:1032A0000C011143CAF800100168E26921F0020123
:1032B00011430160016841F480310160016841F40B
:1032C000003101E021E027E00160016841F4802144
:1032D0000160016841F001010160286840F08070E0
:1032E0002860FEF7B5FB044605E000BFFEF7B0FB23
:1032F000001B022809D828688001F7D557E000BFD5
:10330000FEF7A6FB001B022802D90320BDE8F09FB0
:1033100028688001F4D44AE039680128D8F8000010
:1033200021D0A26A01F0030393421CD1E26AC1F3E7
:1033300005118A4217D1216BC0F30802491E8A4247
:1033400011D1616BC0F34622491E91420BD1A16B92
:10335000C0F30642491E914205D1E16BC0F30660FD
:10336000491E814201D00120D0E7A16C4E46D9F818
:103370000000C0F3CC00814219D0DAF800005546B5
:1033800020F00100CAF80000FEF762FB4FEA0007D8
:10339000FEF75EFBB842FBD0A26C306820EA0B005F
:1033A00040EAC2003060286840F001002860002038
:1033B000ACE770477047704710B5040003D094F82D
:1033C0003D0010B107E0012010BD002084F83C0052
:1033D000204600F022F8022084F83D002068211DDC
:1033E00000F05AFE012084F8480084F83E0084F87A
:1033F0003F0084F8400084F8410084F8420084F8DB
:10340000430084F8440084F8450084F8460084F8BA
:10341000470084F83D00002010BD704790F83D1033
:10342000012901D001207047174A022180F83D1080
:103430000168CB6843F00103CB600068904214D070
:10344000B0F1804F11D0114988420ED01049884206
:103450000BD01049884208D00F49884205D00F4947
:10346000884202D00E49884207D181680D4A114036
:10347000062906D0B1F5803F03D0016841F0010173
:10348000016000207047000000000140000400407F
:1034900000080040000C00400004014000180040FB
:1034A0000040014007000100704770B50446006805
:1034B00000250169C943890715D4C168C943890733
:1034C00011D4EA1E026101212177206880698007FA
:1034D000204602D0FFF7E8FF04E000F0A7F82046FE
:1034E00000F0A5F8257720680169C943490717D47A
:1034F000C168C943490713D402216FF00402026175
:1035000021772068806910F4407F204602D0FFF7C1
:10351000CBFF04E000F08AF8204600F088F8257719
:1035200020680169C943090716D4C168C94309075E
:1035300012D404216FF00802026121772068C0696B
:103540008007204602D0FFF7AFFF04E000F06EF8DE
:10355000204600F06CF8257720680169C943C90648
:1035600017D4C168C943C90613D408216FF01002EB
:10357000026121772068C06910F4407F204602D0A4
:10358000FFF792FF04E000F051F8204600F04FF8FA
:10359000257720680169C943C90708D1C168C943B3
:1035A000C90704D1891E0161204600F041F8206856
:1035B0000169C943090609D4C168C943090605D48C
:1035C0006FF0800101612046FFF7F4FE2068016979
:1035D000C943C90509D4C168C943090605D46FF4B4
:1035E000807101612046FFF7E4FE20680169C9434C
:1035F000490609D4C168C943490605D46FF04001A2
:103600000161204600F01EF820680169C94389065F
:103610000BD4C168C943890607D46FF0200101614A
:103620002046BDE87040FFF7C6BE70BD70477047CA
:1036300000680349884201D1FEF710BA70470000C4
:1036400000100040704730B590F88410012918D060
:10365000012280F884202421C0F888100022202430
:1036600001680B680D6823F0005325F001050D601B
:10367000426601680B60C0F8884080F884201046DC
:1036800030BD022030BD7047704770B5044690F8D9
:10369000840001281DD0012284F884202420C4F84D
:1036A000880020680568026822F001020260206834
:1036B000826822F060620A438260204600F054FD76
:1036C0002268202100201560C4F8881084F8840046
:1036D00070BD022070BD70B5044690F884000128CA
:1036E0001DD0012284F884202420C4F8880020689A
:1036F0000568026822F0010202602068826822F0F8
:1037000060420A438260204600F02EFD226820219C
:1037100000201560C4F8881084F8840070BD022071
:1037200070BD7047704770472DE9F041076800256C
:10373000044640F60F030226F8693968BA68184251
:103740000AD183067ED501F0200302F0805C53EAA3
:103750000C0377D0616F74E1CF4BDFF840C31340A7
:1037600001EA0C0C53EA0C0C6CD05FEAC07C0CD064
:103770005FEAC15C09D54FF0010CC7F820C0D4F84E
:10378000907047F00107C4F89070870709D5D707F4
:1037900007D027683E62D4F8906046F00406C4F86B
:1037A000906046070AD5D60708D0276804263E62EF
:1037B000D4F8906046F00206C4F8906006070CD575
:1037C00001F020061E4308D0266808233362D4F88F
:1037D000903043F00803C4F8903003050BD54B013B
:1037E00009D526684FF400633362D4F8903043F073
:1037F0002003C4F89030D4F89030002B3DD08006E0
:1038000009D501F0200002F08051084303D0616F18
:1038100009B1204688472168D4F890008968490694
:1038200002D410F0280F2AD0204600F083FD206833
:10383000806840061ED52068083050E8001F21F03F
:10384000400100E021E040E80012002AF3D1D4F862
:10385000800078B192490165D4F88000FDF72CF919
:1038600000280AD0D4F88000016D00E02046BDE8B1
:10387000F04108472046FFF756FFBDE8F08120469B
:10388000FFF751FFC4F89050F7E7D4F86CC020233D
:10389000BCF1010F7ED15FEAC06C7BD55FEAC16CE1
:1038A00078D51020386220688068400673D5D4F837
:1038B00080107C4A0868904234D07A4A183290428C
:1038C00030D0784A303290422CD0764A48329042FA
:1038D00028D0744A6032904224D0724A78329042A2
:1038E00020D0704A903290421CD06E4AA83290424A
:1038F00018D06D4A904215D06B4A1832904211D0C0
:10390000694A303290420DD0674A4832904209D01D
:10391000654A6032904205D0634A7832904201D0C5
:10392000614A903240680004000CA6D0B4F85C20D4
:103930008242A2D9A4F85E00C869B0F5807F2FD07A
:10394000216851E8000F20F4807041E80002002A4D
:10395000F6D12068083050E8001F21F0010140E84E
:103960000012002AF5D12068083050E8001F21F02D
:10397000400140E80012002AF5D1C4F88C30E56619
:10398000216851E8000F20F0100041E80002002AF1
:10399000F6D101E040E00BE0D4F88000FCF7DCFE5B
:1039A0002667B4F85C00B4F85E10401A81B22FE0CC
:1039B000B4F85C00B4F85E10B4F85E20401A81B22E
:1039C000002AB2D00029B0D0226852E8000F20F4BB
:1039D000907042E80007002FF6D1344F206800F1C4
:1039E000080050E8002F02EA070240E8002CBCF172
:1039F000000FF3D1C4F88C30E5666567206850E8A5
:103A0000002F22F0100240E80023002BF6D1266799
:103A10002046FFF738FE30E7C60209D5560207D523
:103A20004FF4801038622046BDE8F041FFF77ABEBF
:103A300006060AD501F0800602F40002164304D0FF
:103A4000A16F00297FF412AF17E7420611D54A068D
:103A50000FD52046026852E8001F21F0400142E8DD
:103A60000014002CF6D1C0F88830856700F0BAF851
:103A700003E7020206D54A0004D52046BDE8F0411E
:103A8000FFF74FBEC001C6D50029C4DA2046BDE805
:103A9000F041FFF7F9BD0000010000102001000413
:103AA0001F4300081000024010040240FEFFFFEF19
:103AB00010B5040003D0D4F8880010B107E001204D
:103AC00010BD002084F88400204600F027F8242050
:103AD000C4F888002068016821F0010101602046D7
:103AE00000F052FC0128EBD0A06A10B1204600F093
:103AF0005DFB2068416821F4904141602068816845
:103B000021F02A0181602068016841F00101016013
:103B10002046BDE8104000F0ADBB000070B5B6B067
:103B20000646142130A8FCF79CFCC0216846FCF72F
:103B300098FC27493068884248D100201E90022115
:103B40000546CDE900106846FEF72EFA08B1FCF7ED
:103B500000FE2048016841F080410160006800F0EB
:103B6000804035901B480838016841F01001016021
:103B7000006830AB022100F0100035904FF4C070A7
:103B8000072283E82300144830A9CDE93352FDF71A
:103B90003DFE124C50211248402284E827000315B4
:103BA0002046C4E90435A561E56125626562FDF73B
:103BB00039FC08B1FCF7CDFD0022F4675220114614
:103BC000A663FDF7E3FF5220FDF7D2FF36B070BDCC
:103BD00000780040E844025800100258A800002471
:103BE000100002407047FEE7094808B5016841F03F
:103BF0000101016000680022114600F00100009000
:103C00000B20FDF7C3FFBDE808400B20FDF7B0BF58
:103C1000D844025810B586B014216846FCF721FC40
:103C20001548016841F010010160016801F01001C0
:103C30000591016841F080010160016801F0800197
:103C40000591016841F001010160006800220B4C00
:103C5000082100F0010005902046FDF7EDFE00214F
:103C60000820009001222046CDE9012103916946F8
:103C7000FDF7CCFD06B010BDE0440258001002581C
:103C80001848002110B5164C0C224FF4E1330460A3
:103C9000C0E90131C160C0E904128161C161016202
:103CA00041628162FFF704FF08B1FCF752FD0D4845
:103CB0000021FFF710FD08B1FCF74BFD094800217A
:103CC000FFF7E3FC08B1FCF744FD0648FFF7BBFC37
:103CD000002803D0BDE81040FCF73BBD10BD00003C
:103CE0000078004014000024FEE7FEE77047000063
:103CF0002DE9F047454D044689464FF0000A2868F3
:103D0000C04380070AD0414E283E306820F08060D2
:103D10003060FDF79DFE0746B04608E00120BDE893
:103D2000F08700BFFDF794FEC01B022867D8D8F8C3
:103D300000000001F6D4206829684FF4FE0721F442
:103D40007C313E0241EA00302860207AA389B4F831
:103D500004C040022D4D2D495B1E227CACF1010CAC
:103D60001035091DA0F5007080B2521ECCF3080C6E
:103D700007EA034340EA0C00184306EA02621043D4
:103D800028600868626920F0C000104308600A6873
:103D9000A06922F0200202430A60281D0A6822F06E
:103DA00010020A6002684FF6F873E4699A4342EA27
:103DB000C40202600868B9F1000F40F010020A6006
:103DC00011D00868B9F1010F11D040F4001008605B
:103DD000D8F80000444640F08060C8F80000FDF7C5
:103DE00037FE05460DE0086840F40020EFE740F498
:103DF0008010ECE7FDF72CFE401B022801D90320C0
:103E00008DE720680001F5D5504688E72844025820
:103E10002DE9F047454D044689464FF0000A2868D1
:103E2000C04380070AD0414E283E306820F08050C1
:103E30003060FDF70DFE0746B04608E00120BDE802
:103E4000F08700BFFDF704FEC01B022867D8D8F832
:103E500000008000F6D4208829684FF4FE0721F086
:103E60007C713E0241EA00502860207AA389B4F8B0
:103E700004C040022D4D2D495B1E227CACF1010C8B
:103E80001835091DA0F5007080B2521ECCF3080C45
:103E900007EA034340EA0C00184306EA02621043B3
:103EA00028600868626920F44060104308600A686E
:103EB000A06922F4007202430A60281D0A6822F4F5
:103EC00080720A6002684FF6F873E4699A4342EA26
:103ED000C40202600868B9F1000F40F480720A6001
:103EE00011D00868B9F1010F11D040F0807008605E
:103EF000D8F80000444640F08050C8F80000FDF7B4
:103F0000A7FD05460DE0086840F48000EFE740F4A7
:103F10000000ECE7FDF79CFD401B022801D90320BF
:103F20008DE720688000F5D5504688E72844025880
:103F30007047704730B59BB04C216846FCF791FA4A
:103F4000202113A8FCF78DFA0220FDF751FE1A4834
:103F500001688904FCD500250220009040240494C7
:103F60000121039104220B923C23CDE90905CDE9FF
:103F70000C300FAB0E900C2183E82300684612959D
:103F8000FEF756FF08B172B6FEE708221A94CDE993
:103F90001624D30113AA3F200321CDE9184382E858
:103FA0002300002113A8FEF7D5FC002801D072B62B
:103FB000FEE71BB030BD0000184802582A4AF0B591
:103FC000106800F00F00072804D2106820F00F00DE
:103FD000C01D106025490020244C10340B68244D6E
:103FE00043F001030B6020600B682B400B601368EB
:103FF00003F00F03072B04D9136823F00F03DB1D15
:1040000013601A4C1B4A18341B4B261D371D2060A9
:10401000164C1A4D28343060261D3860371D236039
:104020003B1D35601C1D3A60251D2E1D1860331D7B
:1040300022602860326018600A680C4B104C22F431
:10404000802260330A60186020686FF30F00B0F1BF
:10405000005F03D20B490120C1F8080143F2D200EE
:1040600009490860F0BD00000020005200440258D9
:104070007FEDF6EA80020101000202020000FF016A
:104080000010005C00800051004000520148FFF722
:104090000CBA0000200100242DE9F047274B4FF017
:1040A000804A274D02689842264E274F274C09D058
:1040B000504507D0A84205D0B04203D0B84201D045
:1040C000A04205D1D1F804C022F070024CEA0202ED
:1040D000DFF87CC0DFF87C809842DFF87C900FD05E
:1040E00050450DD0A8420BD0B04209D0B84207D0FD
:1040F000A04205D0604503D0404501D0484503D1DA
:10410000CD6822F440722A434D6922F080022A438E
:10411000026098428A68C2620A68826207D0A0423E
:1041200005D0604503D0404501D0484501D109691B
:10413000016301214161BDE8F087000000000140FA
:104140000004004000080040000C00400004014052
:104150000040014000440140004801400148FFF791
:10416000E3BA00001400002430B5416EB9B1016813
:104170000D4B03F108048A688968C2F34262490F53
:104180005D5C615C2D01B5FBF1F1A0F86A10995CF2
:10419000A25C0901B1FBF2F1A0F8681030BD012169
:1041A000A0F86A10F8E700004E4E000890F82810BA
:1041B000C90706D00168C36A4A6822F400321A436C
:1041C0004A6090F82810890706D50168036B4A6891
:1041D00022F480321A434A6090F82810490706D525
:1041E0000168436B4A6822F480221A434A6090F8BF
:1041F0002810090706D50168836B4A6822F400423B
:104200001A434A6090F82810C90606D50168C36BA6
:104210008A6822F480521A438A6090F8281089062E
:1042200006D50168036C8A6822F400521A438A603A
:1042300090F82810490611D50168436C4A6822F4A9
:1042400080121A434A60416CB1F5801F06D10168A3
:10425000836C4A6822F4C0021A434A6090F828101E
:10426000090606D50168C26C486820F40020104396
:10427000486070472DE9F84300250446C0F8905087
:10428000FDF7E6FB8046206820266FF07E47006839
:10429000000713D50022434631042046009700F062
:1042A00049FA58B1216851E8000F20F0800041E838
:1042B0000002002AF6D1C4F8886021E02068006876
:1042C000400722D5002243464FF480012046009744
:1042D00000F030FAC8B1206850E8001F21F4907156
:1042E00040E80012002AF6D12068083050E8001F8C
:1042F00021F0010140E80012002AF5D1C4F88C60D9
:10430000032084F88450BDE8F883C4F88860C4F8BA
:104310008C60E5662567002084F88450F3E710B5CB
:10432000806B0021A0F85E10A0F85610FFF7FBF993
:1043300010BD000010B5026852E8001F21F4907112
:1043400042E80013002BF6D10E4B0268083252E807
:10435000001F194042E80014002CF6D1C16E01295B
:1043600008D1026852E8001F21F0100142E8001352
:10437000002BF6D100212022C0F88C20C1664167B5
:1043800010BD0000FEFFFFEF2DE9F04304468068FA
:10439000D84E87B0D84B2168D4E90427D4F81CC084
:1043A00010430A68002547EA0C07384332400243AD
:1043B0000A602068E268416821F44051114341607D
:1043C0002268A1699A4201D0206A01439768DFF808
:1043D0002CC3CB4ECB4807EA0C070F4397602168EC
:1043E000676ACA6A22F00F023A43CA622268B2427E
:1043F0000ED1006800F03800182873D047DCB8B33D
:10440000082879D010286FD178E028287ED17BE069
:10441000BD498A4209D1006800F00700062875D21C
:10442000DFE800F0546A6C6E7072B8498A4209D1B4
:10443000006800F00700062868D2DFE800F0475D5A
:104440005F616365B2498A4209D1006800F00700E4
:1044500006285BD2DFE800F03A5052545658AD4976
:104460008A420BD1006800F0070006284ED200E017
:1044700010E0DFE800F02B4143454749A6498A4256
:104480000AD1006800F03800182839D0B7DD20289C
:10449000BBD13CE001203AE0A0498A4209D1006842
:1044A00000F00700062831D2DFE800F01026282AA5
:1044B0002C2E9B498A420BD1006800F00700062889
:1044C00024D2DFE800F003191B1D1F2100201EE08D
:1044D0009A421BD18B48001D006800F00700062897
:1044E00014D202E00CE007E010E0DFE800F0030582
:1044F00007090B0D02200AE0042008E0082006E06E
:10450000102004E0202002E0402000E080208549C7
:10451000DFF814829A42854A4FF400434FEA21178C
:104520004FF000064ED110281AD006DC022809D020
:1045300004280BD008287CD10DE020283ED040284C
:1045400077D13DE0FDF77EFB014610E06846FDF7C0
:104550008BFB01990BE003A8FDF756FC049906E0DC
:104560001068800605D51068C0F3C100C14000295D
:1045700070D0606A676838F8102007EB4703B1FB1A
:10458000F2F0834255D8B0EB073F52D800230846DB
:104590001946FBF7EFFE02467808130E120243EAB3
:1045A000012110183A4671410023FBF7E3FE604AEF
:1045B000A0F5407191423CD821688FE03946D8E798
:1045C0001946D6E7D4F81CC04FF6EF799C4546D182
:1045D000082819D005DC58B101280CD0042875D161
:1045E0000DE0102815D0202835D040286ED134E0B9
:1045F000FEF72EFB01E0FEF73DFB014610E06846AA
:10460000FDF732FB01990BE003A8FDF7FDFB0499D0
:1046100006E01068800604D51068C0F3C100C140F0
:10462000C1B1636A606838F81330B1FBF3F1490037
:1046300000E04BE001EB5001B1FBF0F0A0F1100104
:10464000494543D84FF6F0732168C0F34202184041
:10465000104343E043E03946E3E71946E1E7082821
:1046600019D005DC58B101280CD004282ED10DE05A
:10467000102815D020282BD0402827D12AE0FEF77B
:10468000E7FA01E0FEF7F6FA014610E06846FDF7AA
:10469000EBFA01990BE003A8FDF7B6FB049906E0DD
:1046A0001068800604D51068C0F3C100C140B1B1E4
:1046B000636A606838F81330B1FBF3F101EB500125
:1046C000B1FBF0F0A0F11001494505D9012506E044
:1046D0003946EDE71946EBE7216880B2C860012052
:1046E000A4F86A00A4F8680028466667A66707B0C1
:1046F000BDE8F083F369FFCF000C0058FFF4FF1111
:10470000001001405444025800440040004800405A
:10471000004C004000500040001401400078004070
:10472000007C00400090D003364E00080044025840
:10473000FFFC0F002DE9F047994617460E46044648
:10474000089D4FF000082FE0681C2DD0FDF780F980
:10475000A0EB0900A84214D89DB120680168490760
:1047600022D5C169C94309070DD408250562204631
:10477000FFF7E0FDC4F89050012084F88480BDE884
:10478000F0870320FBE7C069C04300050CD4216813
:104790004FF4006008622046FFF7CCFD2021C4F8EA
:1047A000901084F88480ECE72068C06936EA000045
:1047B00004D00020B842C7D00020E0E70120F9E78C
:1047C000FEE7090700284FEA116104DB00F1E02051
:1047D00080F80014704700F00F0000F1E02080F82E
:1047E000141D7047FDF742F9FFF7A4FBFFF712FA1B
:1047F000FFF7FAF9FFF744FA044C606980F008000B
:1048000060616420FCF7F0FFF7E700000010025839
:1048100090EA010F48BF81F0004100F12A82421A5C
:104820003CBF801A89184FEAD0524FF07F4C1CEAE7
:10483000410FA2EBD15318BF9CEA026F00F03B80FE
:104840004FF0004C4CEA00204CEA012121FA03FC15
:1048500010EB0C0C1ED202F1FF325FEA1C2040EB81
:10486000C25038BF70471CF07F0F4FEA400C18BF92
:10487000BCF17F4F38BF7047C3F12003994008BF98
:1048800020F00100BCF17F4F38BF7047A0F1C0405D
:1048900000F0E3B94FEA3C00000A40EBC25028BFE9
:1048A0001CF0FF0F4FEA400CE6D018BFBCF17F4F61
:1048B00038BF7047EAE79CEA026F05D010EA5C0F48
:1048C00008BF00F00040704710B500F080F900BF4D
:1048D00064FBBE3E014800F03ABA00BF0000C07F52
:1048E0004FF47F0C1CEAD0121EBF1CEAD11392EACF
:1048F0000C0F93EA0C0F00F0858090EA010F48BF7F
:1049000042F4807240F4000C41F400002CF07F412E
:1049100020F07F4000B58142A2EB03020FF2081C99
:10492000ACEB504EC0F100009EF800E04FEA4E0E96
:1049300000FB0EFC38BF49004FEA2C1C02F5FA02BE
:104940000CFB0EF34FEACE1E4FEA112C4FEAC121A9
:104950000EEB635E42EB22420EFB0CFC4FEA1C5353
:1049600000FB03114FEA112C4FEA01310EFB0CFC46
:104970004FEADC4C00FB0C11C14228BF09184CEB7C
:1049800003335DF804EB10EB410143EBC250B2F589
:104990007C0F38BF704729D512F0F00F1CBF00F113
:1049A000C04000F000407047008182838485868784
:1049B00088898B8C8D8E8F919293959697999A9CDE
:1049C0009D9FA0A2A3A5A7A8AAACAEB0B2B3B5B74D
:1049D000B9BCBEC0C2C5C7C9CCCED1D4D7D9DCDF23
:1049E000E2E6E9ECF0F3F7FAFE0000004FEA400CD3
:1049F0000CF1807CBCF17E4F28BF7047B0F1C04005
:104A000000F02BB990EA010F0CEAD11348BF42F431
:104A10008072624538BF634507D213F47F0F16D00A
:104A200080EA010000F00040704710B500F0CFF8B8
:104A3000097EFC3E00F005B880EA010000F000406D
:104A4000704780EA010000F0004000F006B912F45F
:104A50007F0F04BF0248704780EA010000F0FDB8F4
:104A60000000C07FC10DD1F19E0206DB4FEA00239A
:104A700043F0004323FA02F07047004207D54FEAA3
:104A80004001B1F1FE4F02D24FF00000704710B567
:104A900000F09DF849922480002070476FEA2000C2
:104AA00070470000B0FA80F310FA03F2C3F19D03DF
:104AB0000AD0D90501EB1220530638BF704700F128
:104AC000010008BF20F00100704700004FF47F0C88
:104AD0001CEAD0121EBF1CEAD11392EA0C0F93EA13
:104AE0000C0F00F0478090EA010F48BF42F480723B
:104AF0004FF0004C4CEA00204CEA012102EB03028B
:104B0000A0FB0113A2F50002002918BF43F0010326
:104B10005B0028BF4FEA330342EB22425FEA132CCB
:104B20004CEBC2502EBFBCEB436FB2F57C0F70470D
:104B30004FEA036CBCF1004F08BF20F00100B2F552
:104B40007C0F38BF70470BD582F0FF0212F5803F13
:104B5000C8BF704700F1C040D8BF00F000407047A8
:104B600000F5000C5FEA4C0C48BF7047B0F1C04044
:104B700000F073B890EA010F0CEAD11348BF42F479
:104B80008072624538BF634504D280EA010000F0BC
:104B90000040704710B500F01AF800BF8900013ED0
:104BA00000F007B800F009B85FEA410C5FEA1C6C3E
:104BB00008D080EA010000F050B85FEA400C5FEADC
:104BC0001C6CF6D14FF00040A0F5800070470EF14C
:104BD000020E2EF0030E5EF8044B244204D44FEA7A
:104BE0004102B2F17F4F11D84FEA4003B3F17F4F3A
:104BF0000CD80ED14FEAD07CB2F17F4F0CEB4C0CAD
:104C00000CF1020C08BF4CEBD17C04E04FF0080C17
:104C100001E04FEAD17C0CEB4C0324FA03F404F0DE
:104C20000704B4F1040C06D20EEB840CBDE810406E
:104C30004CF0010C6047DFE80CF0070802024FF06F
:104C40000040A0F5800010BD0846420018BFD2F118
:104C5000807288BF00F0004010BDFF2141EAD050B3
:104C6000C005704790EA010F48BF81F000413FF551
:104C7000D6AD421A04D882F00042A0EB02001144E3
:104C80004FEAD0524FF07F4C1CEA410FA2EBD153B8
:104C900018BF9CEA026F4AD04FF0004C4CEA00204B
:104CA0004CEA012121FA03FCB0EB0C0C0FD412F0FA
:104CB000FE0F36D05FEA4C001DD5001240EBC2500B
:104CC00038BF70471CF03F0F18BF70470BE0A2F1D0
:104CD00001025FEA1C2040EBC25038BF70471CF055
:104CE0007F0F18BF7047C3F12003994014BF401EC7
:104CF00020F00100704780084FEA122308BF704778
:104D0000B0FA80FCA2EB0C02CCF1280C60FA0CF09B
:104D100093EA122F04BF00EBC25070474FEAC370F2
:104D20007047130A5FEADC1008BF7047F6E79CEA99
:104D3000026F04D010EA5C0F08BF0020704710B566
:104D4000FFF745FF40DFF63E81F0004070470CF072
:104D50000F03092B08BF082000F051800A2B0BD04D
:104D6000082B18BF704708BF1CF0400F0AD04FF047
:104D700000004FF0000170471CF0400F18BF4FF0CB
:104D8000004070471CF0100F08D020F0704300F076
:104D90007F4242EAD3014FEA4370704700F060401F
:104DA00021F07F4242EA000201F07F4040EA727047
:104DB00070474FF0FF0212EAD0521CBF92F0FF037F
:104DC0008B42C2BFD14200EBC1507047002A0AD0CB
:104DD000002B0BD0002900F00040A4BF40F0FE40A3
:104DE00040F40000704700F00040704743024FF06D
:104DF0000B0C18BF4CF0806C7FF46CAD70471CF44A
:104E0000801F11D01CF4E02F03D06FEACC31490091
:104E100070474FF04050EFF3008222F0704242EAB8
:104E2000000282F3008870474FF0000070470006D0
:104E3000101600061016010002000400060008000B
:104E40000A000C0010002000400080000001010159
:104E50000103070100000804020408010101000029
:104E60000000010203040102030406070809000010
:104E7000904E00080000002414000000D402000836
:104E8000A44E000814000024BC430000F0020008F7
:104E90000100000010000000000000000090D0039E
:044EA0000090D003AB
:040000050800029954
:00000001FF
