:020000040800F2
:10000000C80600200101000807260008C1210008D9
:100010000526000879060008152B000800000000DE
:100020000000000000000000000000000B26000897
:100030009506000800000000092600080D260008AB
:100040001B0100081B0100081B0100081B01000820
:100050001B0100081B0100081B0100081B01000810
:10006000AD060008B3060008B90600081B01000829
:100070001B0100081B0100087D0600088906000816
:100080001B0100081B0100081B0100081B010008E0
:100090001B0100081B0100081B010008BF06000827
:1000A0001B010008712600081B0100081B01000845
:1000B0007D2600081B0100081B0100081B01000829
:1000C0001B0100081B0100081B0100081B010008A0
:1000D0001B010008092B00081B0100081B01000878
:1000E000970600081B0100081B010008DFF80CD070
:1000F00000F08AF900480047912D0008C80600204A
:100100000648804706480047FEE7FEE7FEE7FEE7B1
:10011000FEE7FEE7FEE7FEE7FEE7FEE76F260008E4
:10012000ED000008D2B201E000F8012B491EFBD21D
:1001300070470022F6E710B513460A4604461946F2
:10014000FFF7F0FF204610BD70B50F4D00B92868CD
:10015000002412E00A4602E09E4203D0521C1378AB
:10016000002BF9D1DAB2224305D02BB124B1002102
:1001700000F8011B04E00446401C0678002EE9D17B
:100180002860204670BD00002000002070B50646A3
:1001900002F0E2FC046805460A220021304600F025
:1001A000C4F82C6070BDF0B480EA0102D40F4200A4
:1001B000B2EB410F02D20246084611464A0042D035
:1001C000C30DDDB2C1F3C752AD1A202D35DAC1F32C
:1001D000160141F4000204B15242C5F1200602FAB0
:1001E00006F12A411044B3EBD05F23D0C4B1012DF6
:1001F000A0EBC35009DCF0BC4FF0004202EAC3524E
:10020000DBB200F5000000F0D1B8400000F18070D2
:1002100000EBC350A0F1807040EAD170490009E0C2
:10022000490841EAC071A0EBC35000F50000400846
:1002300000EBC350F0BC00F0B0B86142012202EB09
:100240004101001BF6E7F0BC704781F00041AAE7CE
:1002500080F00040A7E780EA010210B502F00043F9
:10026000400022D04A001FD0010E01EB1261C0F302
:100270005600C2F3560240F4000042F40002A0FB14
:10028000022000047F39140400D0401C50EA1240C0
:1002900001D44000491EC2B20C0604EBD010401C31
:1002A0004008802A02D003E0002010BD20F00100A9
:1002B000002900DA0020184310BDC10F80EAE07069
:1002C0000844CA079623002100F070B800F00042ED
:1002D00020F00040C10DC0F3160040F400007F295B
:1002E00001DA00207047962903DCC1F19601C8406D
:1002F00001E096398840002AF4D04042704730B57A
:100300000B46014600202022012409E021FA02F5D3
:100310009D4205D303FA02F5491B04FA02F528446D
:10032000151EA2F10102F1DC30BD2DE9F047914626
:100330000F4680460446002614F8015B2DB100F0FC
:1003400075F80068405DC007F6D12B2D02D02D2D29
:1003500018D0641E4A463946204600F06BF827B193
:100360003968A14201D1C7F8008071054FF002043D
:100370000BD54042002803DD02F0EEFB0460A0072D
:10038000BDE8F08746F48066E4E70028F8DA02F07A
:10039000E3FB04606FF00040F2E70029A8BF70475C
:1003A000401C490008BF20F00100704710B4B0FAAB
:1003B00080FC00FA0CF050EA010404BF10BC704746
:1003C00049B1CCF1200421FA04F411FA0CF118BF60
:1003D000012121430843A3EB0C01CB1D4FEA00612F
:1003E0004FEA102042BF002010BC704700EBC35002
:1003F00010440029A4BF10BC7047401C490008BF2E
:1004000020F0010010BC7047064C074D06E0E06884
:1004100040F0010394E8070098471034AC42F6D34B
:10042000FFF768FEA42F0008C42F0008004870479B
:10043000A02F00082DE9F05F8246007800271546BE
:100440008B460AF10104B946302801D09DB113E072
:1004500014F8010B0127782803D0582801D045B1A2
:100460000AE00DB1102D07D10027102514F8010B5B
:1004700002E0082500E00A250026B0460EE005FB54
:10048000080005FB06F1012701EB10461FFA80F872
:10049000B6F5803F00D3B94614F8010B294600F0A9
:1004A00018F80028EBDABBF1000F05D00FB1641E7D
:1004B00000E05446CBF80040B9F1000F06D002F03E
:1004C0004BFB02210160C81EBDE8F09F48EA0640D0
:1004D000FAE73A2800D2303820F02002412A01D32E
:1004E000A2F13700884201D34FF0FF30704700007F
:1004F00070B500250126304B4C42304A012811D0FE
:10050000022824D02E4B032836D004281ED1D06CCC
:1005100000281BD11868002943DA40F40050186005
:10052000D46042E0106C002810D11868002904DA69
:1005300040F010001860146003E020F01000186014
:100540001160106A166408441561106270BD506C29
:100550000028FBD11868002904DA40F02000186058
:10056000546003E020F0200018605160566455612B
:10057000506A0844506270BD906C0028FBD1186826
:10058000002904DA40F480501860946003E020F4FD
:1005900080501860916096649561906A08449062FA
:1005A00070BD20F400501860D160D664D561D06A67
:1005B0000844D06270BD00000C0801402C000020EF
:1005C0000C0C01402DE9F041294C2A4E0D46012A20
:1005D00027D0002A49D1616B401AFFF76EFE07460B
:1005E000E06B281AFFF769FE044601463846FFF71C
:1005F0002CFE3146FFF72FFEFFF768FE0146032071
:10060000FFF776FF39462046FFF71FFE3146FFF71A
:1006100022FEFFF75BFE01460420BDE8F041FFF734
:1006200067BF216B401AFFF748FE0746A06B401BCF
:10063000FFF743FE044601463846FFF706FE314603
:10064000FFF709FEFFF742FE01460120FFF750FFCA
:1006500084F000403946FFF7F8FD3146FFF7FBFD17
:10066000FFF734FE01460220D7E7BDE8F081000025
:100670002C0000208104353FFEE70000014800F017
:1006800093B8000040020020014800F08DB800003F
:1006900084020020704710B54FF4006000F0C2F9EA
:1006A000BDE810404FF4805000F0BCB9042000F0C9
:1006B000B9B9082000F0B6B9102000F0B3B94FF472
:1006C000807000F0AFB972B6FEE710B590F8211057
:1006D0000022022905D00421816380F82020012016
:1006E00010BD01680B6823F00E030B6001680B68F6
:1006F00023F001030B6090F84030C46B012101FA34
:1007000003F3636080F8211080F82020104610BDAC
:1007100010B590F821100024022903D00421816330
:1007200001243DE001680A6822F00E020A600168B7
:100730000A6822F001020A601A4A0168914201D156
:10074000012121E0174A1432914201D110211BE00E
:10075000144A2832914201D1891515E0114A3C32E0
:10076000914201D189140FE00E4A5032914202D1D8
:100770004FF4803108E00B4A6432914202D14FF4C9
:10078000801101E04FF08071064A083A5160012162
:1007900080F82110002180F82010416B01B18847BA
:1007A000204610BD080002402DE9F05FC16B0C68C7
:1007B00001680B68D0F840C0042202FA0CF2494DDF
:1007C000DFF824A1494E4A4FDFF828B1DFF828E1CD
:1007D00022422CD05A072AD50A68920603D40A6806
:1007E00022F004020A600168A94201D1042219E042
:1007F000514501D1402215E0B14202D14FF480624F
:1008000010E0B94202D14FF480420BE0594502D1C9
:100810004FF4802206E0714502D14FF4800201E0DE
:100820004FF080622F4908394A60C16A3BE04FF0BF
:10083000020808FA0CF818EA040F4FF000094FF00C
:10084000010235D05FEA837832D50B689B0605D468
:100850000B6823F00A030B6080F821200168A9428D
:1008600001D1022219E0514501D1202215E0B14207
:1008700002D14FF4007210E0B94202D14FF400529D
:100880000BE0594502D14FF4003206E0714502D128
:100890004FF4001201E04FF00072124908394A602B
:1008A00080F82090816A00291AD0BDE8F05F0847DF
:1008B000082505FA0CF5254212D01B0710D50B6848
:1008C00023F00E030B6090F84010C36B02FA01F1A5
:1008D0005960826380F8212080F82090016BE2E764
:1008E000BDE8F09F080002401C00024030000240BA
:1008F00044000240580002406C00024030B528B36A
:1009000008C8134914221944B1FBF2F18900C163EC
:1009100010498163022141771A6843F6F0718A43D6
:10092000D0E900142143D0E902452C432143046956
:100930002143446921438469214311431960002103
:100940004163012242770177084630BD012030BD66
:10095000F8FFFDBF0000024070B5044600F064F9E6
:100960000546601C02D004480078044400F05CF99D
:10097000401BA042FAD370BD1000002070B50026C5
:10098000254CB0F5807F34D032DC042830D1234DA3
:10099000286840072CD40A2002F0E0F928684007B4
:1009A00026D428684007FCD522784FF4FA618B10D2
:1009B00040F2DC50062A1AD2DFE802F00307090BE6
:1009C0000F120122002108460DE001220BE0012256
:1009D00008E001224FF47A7105E00122084602E0A6
:1009E0000122C8211846BDE87040FFF7EBBD267014
:1009F00070BD0B4D2868C005FAD40A2002F0AEF98C
:100A00002868C005F4D42868C005FCD520780628DD
:100A1000EDD8401C207070BD0C000020080C014077
:100A200008080140044910B50A68024202D0086073
:100A3000FFF7A4FF10BD0000140401402DE9F84F9A
:100A4000DFF8B891002409F1040A0AF1040B2346E7
:100A50000F270BF1040EC9E00125A5402A40AA4248
:100A60007DD1674ED1F804C0ACEB0608B44532D056
:100A700014DCBCF1030F3AD009DCBCF1000F2AD022
:100A8000BCF1010F1CD0BCF1020F31D11DE0BCF153
:100A9000110F17D0BCF1120F2AD119E0B8F5881F39
:100AA00019D006DCB8F5803F15D0B8F5801F1FD1EE
:100AB00011E0B8F5001F0ED0B8F5041F18D10AE0F8
:100AC000CB6815E0CB681B1D12E0CB6808330FE044
:100AD000CB680C330CE08B682BB1012B4FF0080373
:100AE00003D0456104E0042302E0056100E0002337
:100AF000FF2A01D8064601E000F104064FEA84050A
:100B000001D9A5F12005D6F8008007FA05FC28EAEE
:100B10000C0803FA05F548EA0508C6F800804D6898
:100B2000ED0062D5374DAE6946F00106AE61AD69A4
:100B300024F0030605F001050095334D06EB050C86
:100B4000DCF80850A607360F07FA06F825EA08056C
:100B5000DFF8B880404503D14FF0000817E044E0CB
:100B6000DFF8AC80404502D14FF001080FE0DFF81C
:100B7000A480404502D14FF0020808E0DFF89880D9
:100B8000404502D14FF0030801E04FF0040808FA95
:100B900006F848EA0508CCF808804D68D9F80060E6
:100BA000ED034D4601D5164300E096432E604D6897
:100BB000DAF80060AD03554601D5164300E09643D0
:100BC0002E604D68DBF80060ED025D4601D51643EE
:100BD00000E096432E604D68DEF80060AD02754679
:100BE00001D5164300E096432E60641C0D682A462A
:100BF000E5407FF431AFBDE8F88F0000000401400C
:100C000000001110001002400000014000080140E7
:100C1000000C014000100140001401400AB10161C4
:100C200070470904FBE70000014880687047000036
:100C30001000002070B5040025D094F83D00002578
:100C400020B984F83C50204600F0B8F8242084F8FD
:100C50003D002068016821F0010101602068016801
:100C600041F4004101602068016821F40041016005
:100C700000F002FA4D4A6168914201D84C4900E007
:100C80004C49884201D2012070BD4B492368B0FB1A
:100C9000F1F15E6826F03F060E435E6063689342A2
:100CA00006D94FF4967359434FF47A73B1FBF3F1BD
:100CB0002368491C1E6A26F03F06314319626168A9
:100CC000914210D84900401EB0FBF1F2521CC2F311
:100CD0000B02042A01D2042022E0B0FBF1F0401CF8
:100CE000C0F30B001CE0A268F2B301EBC10303EBFD
:100CF0000116431EB3FBF6F35B1C43F480431B0554
:100D000049D092B301EBC10202EB0111401EB0FBCE
:100D1000F1F0401CC0F30B0040F4804040F4004070
:100D20002168CA694CF6FF739A431043C861D4E93D
:100D3000071001432068026822F0C00211430160DD
:100D4000D4E9030101432068826848F2FF339A43E3
:100D500011438160D4E9050108432168CA6822F083
:100D6000FF021043C86001E00EE016E02068016851
:100D700041F0010101602564202084F83D002563D5
:100D800084F83E50002070BD01EB4106431EB3FBCA
:100D9000F6F35B1CB3E70120C2E701EB4101401E03
:100DA000B0FBF1F0401CC0F30B00B7E7A0860100D8
:100DB00080841E0000093D0040420F0010B586B03F
:100DC000002100910191029103910068104988422D
:100DD0001BD1104CA06940F00800A061A0696946D1
:100DE00000F0080004904FF4406000901220019041
:100DF000032003900848FFF721FEE06940F48000DB
:100E0000E061E06900F48000049006B010BD0000CD
:100E10000058004000100240000C01400248816868
:100E2000027811448160704710000020074810B517
:100E3000016841F010010160032000F075F8002006
:100E400000F006F800F024F8002010BD0020024059
:100E500070B50D4D04464FF47A712878B1FBF0F06F
:100E60000A490968B1FBF0F000F0ECFA48B9102C1F
:100E700007D200222146501E00F036F800206C6098
:100E800070BD012070BD0000100000201C0000207B
:100E90000C4808B5816941F001018161816901F067
:100EA00001010091C16941F08051C161C06900F048
:100EB000805000900448416821F0E06141F00071E9
:100EC000416008BD0010024000000140002809DB1D
:100ED00000F01F02012191404009800000F1E02054
:100EE000C0F8001170470000F0B40E4B1B680C46B0
:100EF000C3F30223C3F10705042D00D90425191DEE
:100F0000072901D2002300E0DB1E012606FA05F1C5
:100F1000491E214099409E40761E16403143F0BC48
:100F200001F00ABE0CED00E0064900F00702086877
:100F30004FF6FF03184040EA0220034A10430860BE
:100F4000704700000CED00E00000FA052DE9F047C5
:100F50000F46050061D0434E306800F00700B842EC
:100F600009D2306820F0070038433060306800F064
:100F70000700B84251D128683B4C810712D5400781
:100F800003D5606840F4E06060602878000703D50E
:100F9000606840F4605060606068A96820F0F0000C
:100FA000084360602878C00728D06868012810D0FE
:100FB0002168022810D0890700292EDA616821F003
:100FC000030101436160FFF72FFE804641F288393B
:100FD0000DE021688903EFE78901EDE7FFF724FEC3
:100FE000A0EB0801494502D90320BDE8F0876068FD
:100FF000696800F00C00B0EB810FEFD1306800F0B1
:101000000700B8420BD9306820F007003843306041
:10101000306800F00700B84201D00120E5E72878E9
:10102000400705D56068E96820F4E0600843606027
:101030002878000706D56068296920F4605040EAE6
:10104000C100606000F038F86168084AC1F303111C
:10105000515CC8400649086006480068FFF7F8FE82
:101060000020C2E70020024000100240042F0008C8
:101070001C0000201400002004480549006849684D
:10108000044AC1F30221515CC84070471C00002093
:1010900000100240142F0008044805490068496800
:1010A000044AC1F3C221515CC84070471C000020B3
:1010B00000100240142F000812A185B00FC98DE85E
:1010C0000F0014A0144A006804905168134801F0FE
:1010D0000C03042B10D0082B0ED1C1F38343C9039A
:1010E0001DF803000AD5516804AAC1F34041515CC0
:1010F0000A4A5043B0FBF1F005B070470849484335
:10110000FAE7000002030405060708090A0B0C0DA4
:101110000E0F1010010200000010024000127A00B1
:1011200000093D002DE9F84F040070D02078C04D33
:10113000C00749D06868C0F38100012807D06868FB
:10114000C0F38100022809D16868C00306D5286869
:10115000800339D560680028E7D035E06068B0F5D5
:10116000803F0BD010B1B0F5A02F11D0286820F42B
:1011700080302860286820F4802002E0286840F44D
:1011800080302860606890B1FFF74EFD06460AE0A7
:10119000286840F480202860F0E700BFFFF744FD96
:1011A000801B642873D828688003F7D50CE0FFF70C
:1011B0003BFD064605E000BFFFF736FD801B6428B7
:1011C000F0D828688003F7D420789A4E80074FF033
:1011D00001094FF0000839D5686810F00C0F07D0EE
:1011E0006868C0F38100022809D16868C00306D48A
:1011F0002868800714D52069012808D110E02069EB
:10120000B0B1C6F80090FFF70FFD074605E00AE110
:10121000FFF70AFDC01B0228C4D828688007F7D54D
:101220002868616920F0F80040EAC10028600DE0FC
:10123000C6F80080FFF7F8FC074604E0FFF7F4FC6F
:10124000C01B022823D828688007F7D4207800071D
:101250002CD57948A169D9B1C0F80090FFF7E4FC1A
:10126000074604E0FFF7E0FCC01B02280FD8686ABD
:101270008007F7D571484FF4FA510068B0FBF1F0E0
:10128000009000BF0098411E0091FAD20EE080E06D
:10129000C0F80080FFF7C8FC074604E0FFF7C4FC75
:1012A000C01B022875D8686A8007F7D420784007E9
:1012B00060D5E8690027C00008D4E86940F0805094
:1012C000E861E869012700F0805000905C480168FF
:1012D000C90513D40168834641F480710160FFF7AA
:1012E000A3FC824606E000BFFFF79EFCA0EB0A00CD
:1012F00064284ED8DBF80000C005F5D5E068012869
:101300000AD008B1052813D0286A20F0010028620D
:10131000286A20F0040002E0286A40F001002862F8
:10132000E06841F2883B98B1FFF77EFC82460BE013
:10133000286A40F004002862EEE700BFFFF774FC63
:10134000A0EB0A0159455AD8286A8007F6D50CE067
:10135000FFF76AFC824605E0FFF766FCA0EB0A0196
:1013600059454CD8286A8007F6D41FB1E86920F0A7
:101370008050E861E06988B36968C1F3810102299E
:1013800044D00228C6F8608004D0FFF74DFC044624
:1013900038E034E0FFF748FC074604E0FFF744FC80
:1013A000C01B02282BD828688001F7D4206AB0F52A
:1013B000803F05D16868A16820F400300843686068
:1013C000D4E908010843696821F47411084368608E
:1013D000C6F86090FFF728FC044606E025E000BF51
:1013E000FFF722FC001B022809D828688001F7D5E6
:1013F0001BE000BFFFF718FC001B022802D90320E6
:10140000BDE8F88F28688001F4D40EE00128F7D0F9
:101410006868226A00F48031914204D1616A00F464
:101420007010884201D00120EAE70020E8E70000C0
:101430000010024000004242800442421C00002092
:101440000070004010B5401EB0F1807F01D3012034
:1014500010BD4FF0E02460610F21601701F06CFBBC
:101460000020A06107202061002010BD7047704758
:1014700070B590F83C20012A26D0012480F83C4029
:10148000022280F83D2003685A689D6822F07006A9
:101490000A6832435A600D4B02689A4208D0B2F192
:1014A000804F05D00A4B9A4202D00A4B9A4204D18F
:1014B000496825F080031943916080F83D40002180
:1014C00080F83C10084670BD022070BD002C014021
:1014D000000400400008004010B5040003D094F858
:1014E0003D0010B107E0012010BD002084F83C0051
:1014F000204600F01FF8022084F83D00211D2068DE
:1015000001F0C2F8012084F8460084F83E0084F817
:101510003F0084F8400084F8410084F8420084F8D9
:10152000430084F8440084F8450084F83D0000201E
:1015300010BD000008B500680B49884212D10B4865
:10154000816941F4006181618069002200F40060DA
:10155000009005211920FFF7C7FCBDE808401920BD
:10156000FFF7B4BC08BD0000002C01400010024091
:1015700090F83D10012901D001207047022180F828
:101580003D100168CA6842F00102CA6000680B4958
:10159000884208D0B0F1804F05D00949884202D076
:1015A0000849884204D1816801F00701062903D067
:1015B000016841F00101016000207047002C0140EA
:1015C000000400400008004070B5044690F83C005C
:1015D000012817D0012584F83C50022084F83D00F2
:1015E0002068826822F0770222F47F4282600868D5
:1015F000502830D00DDC20284DD005DC98B31028C1
:101600003BD148E0022070BD302844D0402834D17E
:1016100039E0602828D0702806D0B0F5805F2CD043
:10162000B0F5005F29D10AE0CB68D1E9012120683B
:1016300001F06DF82068816841F0770109E0CB681E
:10164000D1E90121206801F062F82068816841F445
:101650008041816011E0CA684968206801F00CF996
:101660005021206807E016E0CA684968206801F048
:1016700014F96021206801F054F884F83D500020EE
:1016800084F83C0070BDCA684968206801F0F4F82D
:1016900040212068EFE7226801461046EBE77047DB
:1016A00070B50446006801694FF00005C943890719
:1016B00015D4C168C943890711D4E91E016101200D
:1016C0002077206880698007204602D0FFF7E7FF77
:1016D00004E000F0F5F8204600F0BAF9257720681C
:1016E0000169C943490717D4C168C943490713D4DD
:1016F0006FF004010161022020772068806910F4F6
:10170000407F204602D0FFF7CAFF04E000F0D8F87F
:10171000204600F09DF9257720680169C943090733
:1017200016D4C168C943090712D46FF008010161DA
:10173000042020772068C0698007204602D0FFF788
:10174000AEFF04E000F0BCF8204600F081F92577F8
:1017500020680169C943C90617D4C168C943C906CD
:1017600013D46FF010010161082020772068C06950
:1017700010F4407F204602D0FFF791FF04E000F014
:101780009FF8204600F064F9257720680169C94375
:10179000C90708D1C168C943C90704D1891E0161BD
:1017A000204600F06FFA20680169C943090609D490
:1017B000C168C943090605D46FF080010161204664
:1017C000FFF754FE20680169C943490609D4C1687E
:1017D000C943490605D46FF040010161204600F07D
:1017E000A9FA20680169C94389060BD4C168C943B5
:1017F000890607D46FF0200101612046BDE87040E2
:10180000FFF735BE70BD000030B585B000210091F6
:10181000019102910391006824490224244AB0F105
:10182000804F1DD0234B244D98422BD1886940F026
:1018300004008861886900F004000490886940F021
:10184000080088618869694600F008000490C0209B
:10185000CDE9000410460394FFF7F0F803201EE0E2
:10186000886940F0040088618869694600F00400D6
:1018700004900F20CDE9000410460394FFF7DEF832
:1018800005B030BD0D4A9042FAD1886940F0080099
:101890008861886900F0080004904FF47070CDE909
:1018A0000004694628460394E8E70000001002405F
:1018B0000008014000040040000C01400008004006
:1018C000704770B5044690F83C000D4601280AD0D8
:1018D000012084F83C0042B1042A18D0082A2AD0FA
:1018E0000C2A4DD139E0022070BD206800F022FFA3
:1018F0002068816941F0080181612068816921F0D7
:1019000004018161206881692A69114311E020681E
:1019100000F038FF2068816941F40061816120682E
:10192000816921F480618161206881692A6941EAC5
:101930000221816124E0206800F050FF2068C16925
:1019400041F00801C1612068C16921F00401C16151
:101950002068C1692A69114311E0206800F06AFF1C
:101960002068C16941F40061C1612068C16921F446
:101970008061C1612068C1692A6941EA0221C161AF
:10198000002084F83C0070BD10B5040003D094F82A
:101990003D0010B107E0012010BD002084F83C009C
:1019A000204600F01FF8022084F83D00211D206829
:1019B00000F06AFE012084F8460084F83E0084F8B6
:1019C0003F0084F8400084F8410084F8420084F825
:1019D000430084F8440084F8450084F83D0000206A
:1019E00010BD000008B501681648B1F1804F0AD05B
:1019F000154A914219D1C16941F00201C161C06922
:101A000000F002001BE0C16941F00101C161C06941
:101A1000002200F00100009004211C20FFF764FA6E
:101A2000BDE808401C20FFF751BA084A914207D18F
:101A3000C16941F00401C161C06900F00400009077
:101A400008BD0000001002400004004000080040F3
:101A5000F0B500684FF08043984257D12D480124DB
:101A60002D4A07684FF41675002197B10669761C58
:101A7000066192F800C0BCF1000F01D05D631170E7
:101A8000BE4207DB016001615963244E147034705B
:101A900000E00164476897B14669761C466192F898
:101AA00001C0BCF1000F01D09D635170BE4207DB45
:101AB0004160416199631A4E5470347000E0416492
:101AC000876887B18669761C866192F802C0BCF18E
:101AD000000F01D0DD639170BE4205DB8160816142
:101AE000D963947000E08164C66886B1C7697F1CC1
:101AF000C76192F803C0BCF1000F01D01D64D17022
:101B0000B74203DBC160C1611964D470F0BDC16428
:101B1000F0BD00002C000020080000200D00002077
:101B20000E00002010B50446022249B104290ED04F
:101B3000082913D094F84100012816D0012010BDC7
:101B400094F83E000128F9D184F83E200FE094F883
:101B50003F000128F2D184F83F2008E094F84000CB
:101B60000128EBD184F8402001E084F841200122D3
:101B7000206800F0BFFD0F492068884203D1426C05
:101B800042F4004242642068884208D0B0F1804F9D
:101B900005D00949884202D00849884204D18168A9
:101BA00001F00701062903D0016841F0010101603D
:101BB000002010BD002C014000040040000800403F
:101BC00010B50446022249B1042912D008291CD0BC
:101BD00094F84100012823D0012010BD94F83E0064
:101BE0000128F9D184F83E202068C26842F0020240
:101BF00009E094F83F000128EED184F83F202068E6
:101C0000C26842F00402C2600EE094F8400001286D
:101C1000E2D184F840202068C26842F00802F2E76E
:101C200084F841200C2922D00122206800F062FDB6
:101C300011492068884203D1426C42F40042426458
:101C40002068884208D0B0F1804F05D00B49884207
:101C500002D00B49884204D1816801F007010629AE
:101C600003D0016841F001010160002010BD20682F
:101C7000C26842F01002C6E7002C01400004004098
:101C8000000800402DE9F04100682549884244D110
:101C900024484168491C4160B1F57A7F01D900218F
:101CA0004160214C206AFEF708FB204E3146FEF7CA
:101CB000D2FA0546606AFEF700FB07461C49FEF7AC
:101CC000CAFA2946FEF76FFAFEF700FB2063384692
:101CD0003146FEF7C0FA01462846FEF764FAFEF7E1
:101CE000F5FAA063E06AFEF7E8FA3146FEF7B3FAC8
:101CF0000546A06AFEF7E1FA3146FEF7ACFA064661
:101D00002946FEF750FAFEF7E1FA606329463046AD
:101D1000FEF79BFAFEF7DAFAE063BDE8F081000017
:101D2000002C0140000000202C0000208104353FE1
:101D3000810435BF7047704770470000F8B50268EE
:101D400004461068D168536910F00F0F4FF000057A
:101D500053D003F0010601F4907737435FD0C207F8
:101D600005D0CA0503D5226C42F001022264420765
:101D700005D5DA0703D0226C42F002022264820702
:101D800005D5DA0703D0226C42F004022264020770
:101D900007D501F02002324303D0226C42F0080242
:101DA0002264226C002A34D0800604D5880602D52D
:101DB000204600F0A4FD20684069216CC0F380102B
:101DC000090700D430B3204600F081FD2068416946
:101DD00049061BD5416921F040014161A06BA8B1C2
:101DE00058494163A06BFEF793FC002811D0A06B0B
:101DF000416B01B0BDE8F040084783060FD58B0664
:101E00000DD52046BDE8F84000F079BD2046FFF72B
:101E100093FFF8BD2046FFF78FFF2564F8BD266BC2
:101E20002023012E52D1C60650D5CE064ED51068BD
:101E300050680090506940062AD5A16B0868406838
:101E40000004000CEAD0A68D8642E7D9E0858869B7
:101E5000202818D0D06820F48070D06020684169B4
:101E600021F0010141612068416921F04001416197
:101E700084F83E3025632068C16821F01001C160FC
:101E8000A06BFEF722FCA08DE18D401A81B219E013
:101E9000A08DE18D401A81B2E08D0028BED00029CE
:101EA000BCD0D06820F49070D0602068426922F0E5
:101EB0000102426184F83E3025632068C26822F046
:101EC0001002C2602046FFF736FFF8BD05062BD58D
:101ED0000D0629D594F83D002128F6D1A068B0F56B
:101EE000805F01D12069B0B1206A411C2162216864
:101EF00000784860E08C401E0004000CE084E4D1CF
:101F00002068C16821F08001C1602068C16841F08B
:101F10004001C160F8BD206A0088C0F3080050602D
:101F2000206A801C2062E5E74006F3D54806F1D51B
:101F3000D168204621F04001D16084F83D3000F0A6
:101F40003EF9F8BDBF28000870B5040004D094F82D
:101F50003D00002510B106E0012070BD84F83C5022
:101F6000204600F023F8242084F83D002068C16852
:101F700021F40051C160204600F01CFD2068016979
:101F800021F4904101612068416921F02A014161F9
:101F90002068C16841F40051C1602564202084F8A4
:101FA0003D0084F83E00002070BD0000F0B585B013
:101FB00000240646009401940294039400682C497E
:101FC000884253D12B48816941F480418161816904
:101FD00001F480410491816941F0040181618069CB
:101FE000254D00F0040004904FF400700090022092
:101FF00001900320039069462846FEF71FFD28152F
:10200000CDE90004694628460294FEF717FD1C4DF1
:102010001A48802701C5102091C5194845F8104974
:102020006C61AC61EC61FEF769FC08B1FEF74BFB3B
:1020300075636E62124D114844351430C5E90004D1
:10204000C5E902472C616C61AC612846EC61FEF782
:1020500055FC08B1FEF737FBB563002205212520AA
:102060006E62FEF741FF2520FEF730FF05B0F0BDA0
:1020700000380140001002400008014044000240C6
:102080004002002090F83E30202B0ED159B152B1C1
:1020900090F83C30012B08D0012380F83C3000231D
:1020A000036300F0E3BC012070470220704700008A
:1020B00070B5124C104D00262078295C0A2916D0E4
:1020C000401CC0B220700A2809D30DA000F024FDE6
:1020D0006423227808490C4800F018F8267020780C
:1020E0002918BDE8704001220748FFF7CBBF02481E
:1020F00000F0F0FDECE700007C0000200000002074
:102100006572726F72310A00FC0100202DE9F843FC
:10211000044690F83D001F4616460D4620284CD137
:10212000C5B1BEB194F83C00012846D0012084F826
:102130003C004FF00008C4F84080212084F83D00A6
:10214000FEF772FDA6848146E684A068B0F5805F44
:1021500003D004E00120BDE8F883206928B12E46B1
:102160005FF0000584F83C800EE00026FAE780214D
:10217000204600F096FCA0B9AEB116F8010B21681C
:102180004860E08C401EE084E08C4B464FF000023B
:1021900000970028EBD14FF04001204600F081FC71
:1021A00030B10320D7E735F8020BC0F30800E6E7AB
:1021B000202084F83D000020CDE70220CBE77047C7
:1021C000FEE700000D4808B5416941F00101416199
:1021D0004069002200F00100009005210E20FEF76A
:1021E00083FE0E20FEF772FE002205210F20FEF76F
:1021F0007BFEBDE808400F20FEF768BE00100240DD
:102200002DE9F04786B000254948009501950295D3
:102210000395816941F010018161816901F010012C
:102220000491816941F020018161816901F02001FF
:102230000491816941F004018161816901F0040127
:102240000491816941F0080181618069394F00F092
:1022500008004FF460440490002221463846FEF7FF
:10226000DDFCDFF8D4A0002230215046FEF7D6FC7A
:10227000DFF8C8904FF44058002241464846FEF728
:10228000CDFC009401AA0124022682E87000694670
:102290003846FEF7D3FB30208DE871006946504682
:1022A000FEF7CCFB264F1C20CDE9000769460294BF
:1022B0004846FEF7C3FB01AACDF8008082E8700013
:1022C00069464846FEF7BAFB4FF4C850CDE900070F
:1022D000694602945046FEF7B1FB00220421082013
:1022E000FEF702FE0820FEF7F1FD0022042109207E
:1022F000FEF7FAFD0920FEF7E9FD002204210A207D
:10230000FEF7F2FD0A20FEF7E1FD0022042117206E
:10231000FEF7EAFD1720FEF7D9FD0022114628201E
:10232000FEF7E2FD2820FEF7D1FD06B0BDE8F087FC
:10233000001002400010014000080140000C014064
:10234000000021100D4810B50B4901600C49416097
:1023500000214FF480428160C0E903124161816134
:10236000C1610162FEF766FC002803D0BDE81040A1
:10237000FEF7A9B910BD00000058004088000020F9
:10238000A086010010B586B000241748009401947F
:102390000294039404941349059401604721C0E911
:1023A000011440F2E731C0E9031444618461FFF78E
:1023B00093F808B1FEF787F94FF480500090694612
:1023C0000948FFF701F908B1FEF77DF9049404A963
:1023D00005480594FFF74CF8002801D0FEF773F983
:1023E00006B010BD002C0140DC00002010B58AB002
:1023F000002407941C2168460894FDF79AFE2248A1
:102400004FF0804101604721C0E9011440F2E731FB
:10241000C0E903148461FFF7B7FA08B1FEF753F976
:10242000079407A918480894FFF722F808B1FEF7A7
:102430004AF96020CDE9000402940022694612485E
:102440000494FFF73EFA08B1FEF73DF9042269460D
:102450000D48FFF736FA08B1FEF735F9082269464C
:102460000948FFF72EFA08B1FEF72DF90C2269464C
:102470000548FFF726FA08B1FEF725F90248FFF7ED
:10248000C3F90AB010BD00002401002010B58AB0C5
:10249000002407941C2168460894FDF74AFE224850
:1024A000204901602321C0E9011444F61F61C0E9FD
:1024B00003148461FFF768FA08B1FEF704F9079482
:1024C00007A919480894FEF7D3FF08B1FEF7FBF8F7
:1024D0006020CDE900040294002269461248049469
:1024E000FFF7EFF908B1FEF7EEF8042269460E484F
:1024F000FFF7E7F908B1FEF7E6F8082269460A484F
:10250000FFF7DFF908B1FEF7DEF80C22694606484E
:10251000FFF7D7F908B1FEF7D6F80348FFF774F9CB
:102520000AB010BD000400406C01002010B58AB054
:10253000002407941C2168460894FDF7FAFD224800
:10254000204901602321C0E9011444F61F61C0E95C
:1025500003148461FFF718FA08B1FEF7B4F8079482
:1025600007A919480894FEF783FF08B1FEF7ABF8F6
:102570006020CDE9000402940022694612480494C8
:10258000FFF79FF908B1FEF79EF8042269460E484E
:10259000FFF797F908B1FEF796F8082269460A484E
:1025A000FFF78FF908B1FEF78EF80C22694606484E
:1025B000FFF787F908B1FEF786F80348FFF724F91B
:1025C0000AB010BD00080040B40100200C4810B54E
:1025D0000A4901604FF4E1314160002181600C2221
:1025E000C160C0E904128161C161FFF7ADFC002840
:1025F00003D0BDE81040FEF766B810BD00380140BA
:10260000FC010020FEE7FEE770477047FEF706BCBE
:1026100030B58FB028216846FDF78BFD14210AA83C
:10262000FDF787FD01210804CDE900100024029484
:1026300002250491CDE907504FF4E0100990684657
:10264000FEF770FD08B172B6FEE70F20CDE90A056E
:102650004FF48060CDE90C4002210AA80E94FEF7E9
:1026600075FC002801D072B6FEE70FB030BD704790
:102670000148FFF715B80000DC0000200148FFF713
:102680000FB8000024010020F0B50268164B174C6B
:10269000174D4FF08047984205D0B84203D0A04272
:1026A00001D0A84203D122F070064A683243984212
:1026B00005D0B84203D0A04201D0A84203D122F4F1
:1026C0004074CA6822434C6922F0800222430260AF
:1026D0008A68C2620A688262984201D1096901630C
:1026E00001214161F0BD0000002C014000040040C8
:1026F0000008004010B501F01F030121046A994051
:102700008C430462016A9A401143016210BD10B506
:10271000846842EA032224F47F440A43224382600D
:1027200010BD826822F070020A4342F00701816006
:102730007047000030B5026A22F001020262026AAC
:102740004368846924F073050C682C4322F0020569
:102750008A682A430A4DA8420BD122F00805CA68AC
:1027600023F440732A434D6922F004021D438B6910
:102770002B434360846149684163026230BD0000BD
:10278000002C014030B5026A22F010020262026A97
:10279000436884690D6824F4E64444EA05248D689E
:1027A00022F0200242EA05120B4DA8420ED1CD685C
:1027B00022F0800242EA05124D6923F4406343EAA5
:1027C00085038D6922F0400243EA850343608461FA
:1027D00049688163026230BD002C014030B5026A55
:1027E00022F480720262036A4268C46923F40073AF
:1027F00024F073050C682C438D6843EA05230C4DC7
:10280000A8420ED1CD6823F4006343EA05234D6945
:1028100022F4405242EA05128D6923F4806342EAB1
:1028200005124260C4614968C163036230BD0000A3
:10283000002C014030B5026A22F480520262046A20
:102840004268C3690D6823F4E64343EA05238D68B3
:1028500024F4005444EA0534064DA84204D14D69DD
:1028600022F4804242EA85124260C36149680164F1
:10287000046230BD002C014010B5036A046A24F0E4
:1028800001040462846924F0F00444EA021423F091
:102890000A020A438461026210BD10B5036A23F084
:1028A000100303628369046A23F4704343EA02322B
:1028B00024F0A00343EA01118261016210BD10B54A
:1028C000406A0021C185C184FFF736FA10BD016856
:1028D000CA6822F49072CA6001684A6922F0010253
:1028E0004A61016B012904D10168CA6822F0100213
:1028F000CA60202180F83E1000210163704708B5AE
:1029000090F83E10222901D0022008BD82684FF4C1
:1029100080539A4201D1016921B1816A9A421BD048
:102920004AB10AE00268816A5268C2F308020A806A
:10293000816A891C08E0026972B10268526802F07B
:102940007F020A70816A491C8162C18D491E090497
:10295000090CC18503D019E002685268F1E70168EB
:10296000CA6822F02002CA600168CA6822F4807234
:10297000CA6001684A6922F001024A61202180F898
:102980003E10016B012903D0FFF792FB002008BD28
:10299000002101630168CA6822F01002CA60016860
:1029A0000A68D20602D50A6849680091818DFFF74E
:1029B000C2F9EBE770B5044600680169E26821F4EA
:1029C0004051114301612169A068084361690843CE
:1029D0002168CA6841F20C639A430243CA602068C6
:1029E0004169A26921F44071114341611E49206887
:1029F000884202D1FEF750FB01E0FEF73DFB00EB01
:102A0000C00101EB0012606864218000B2FBF0F3AA
:102A1000B3FBF1F36FF018067343B2FBF0F5B2FBB2
:102A2000F0F605EB8305322303EB0515B5FBF1F555
:102A3000B6FBF1F605F0F00505EB0615B2FBF0F676
:102A4000B2FBF0F0B0FBF1F06FF01802504306EB70
:102A5000800003EB0010B0FBF1F0216800F00F00E4
:102A60002844886070BD0000003801408162828582
:102A7000C28500210164222280F83E2080F83C10AB
:102A80000168CA6842F48072CA6001684A6942F00B
:102A900001024A610068C16841F02001C160002064
:102AA00070472DE9F041984617460E460446069DAC
:102AB0001DE0681C1BD02DB1FEF7B6F8A0EB080096
:102AC000A84214D92068C16821F4D071C16020687F
:102AD000416921F001014161202084F83D0084F822
:102AE0003E00002084F83C000320BDE8F08120680F
:102AF000006836EA000004D00020B842D9D0002097
:102B0000F3E70120F9E700000148FFF717B90000DB
:102B1000FC010020FEE700000FB4054B10B503A92F
:102B2000044A029800F02CF810BC5DF814FB000079
:102B3000792D0008240000200907090E002804DB75
:102B400000F1E02080F80014704700F00F0000F161
:102B5000E02080F8141D70470048704728000020CE
:102B600002E008C8121F08C1002AFAD17047704756
:102B7000002001E001C1121F002AFBD170470000B4
:102B80002DE9FF4F89B09B460446002506E0252825
:102B90000BD05A460B999047641C6D1C2078002876
:102BA000F5D10DB02846BDE8F08F0027B8460122C8
:102BB000474900E0074314F8013F203B02FA03F0C5
:102BC0000842F7D120782E2819D114F8010F47F0C8
:102BD00004072A280ED06FF02F022078A0F13001D0
:102BE00009290CD808EB880102EB410100EB010830
:102BF000641CF2E70A98641C50F8048B0A90207851
:102C00000028CED0642808D0692806D075281ED0A8
:102C10005A460B9990476D1C58E00A994FF00A09E3
:102C200001C90A91002802DA40422D2102E039054B
:102C300004D52B218DF82010012103E0F90704D0E1
:102C40002021F7E78A4608AE0DE00021FAE70A994D
:102C50004FF00A0901C90A91F7E74946FDF74FFB12
:102C6000303106F8011D0028F7D1ADEB060000F168
:102C70002009780701D44FF00108C84502DDA8EB10
:102C8000090000E000208046002706E008A85A4618
:102C9000C05D0B9990476D1C7F1C5745F6DB04E027
:102CA00030205A460B9990476D1CB8F10001A8F1ED
:102CB0000108F5DC05E016F8010B5A460B99904720
:102CC0006D1CB9F10001A9F10109F4DC641C65E790
:102CD000092801001CB5002101E0491CC9B2425C71
:102CE0000A2A01D00A29F8D30C2901D315A01CE027
:102CF000002444546A4601A900F0F0F80199002923
:102D0000084600DA40424FF47A63984206DC009AA3
:102D1000002A104600DA4042984209DD0BA0009AD2
:102D2000FFF7FAFE00940BA00194FFF7F5FE1CBD1F
:102D300006A0FFF7F1FEDDE900100122FDF742FCDD
:102D40001CBD00006572726F72320A0025642C256A
:102D5000640A00006572726F72330A0010B50021B8
:102D600048F6A04405E0224602235B1C9342FCD3B4
:102D7000491C8142F7D310BD04490A685206FCD5AC
:102D8000024AC1B2121D11607047000000380140B4
:102D9000FEF74CF8FFF73CFCFFF732FAFFF712FAA8
:102DA000FFF714FCFFF7CEFAFFF7ECFAFFF71EFB74
:102DB000FFF76CFBFFF7BAFB00214048FEF700FF6E
:102DC00004213E48FEF7FCFE3D48FEF7D1FB012200
:102DD0003C493D48FFF756F900213C48FEF7A2FE6A
:102DE00004213A48FEF79EFE08213848FEF79AFE75
:102DF000374F4FF416663E6007F10408C8F80060CC
:102E000008F10409C9F80060324C334D4FF0000A54
:102E10002878062835D2DFE800F0030714182028A8
:102E2000E06820F4005002E0E06840F40050E06008
:102E3000E06820F48040E060E06820F40040E0605A
:102E400021E0E06820F400500AE0E06820F400503F
:102E5000E060E06820F480400EE0E06840F400505C
:102E6000E060E06840F48040E5E7E06840F400504E
:102E7000E060E06840F48040E060E06840F40040DA
:102E8000DDE785F800A068780128C1D1A87801287D
:102E9000BED140F2DC503860C8F80000C9F800002C
:102EA0004FF47A70FDF758FD3E60C8F80060C9F82D
:102EB000006085F802A085F801A0A9E724010020A0
:102EC000DC0000207C000020FC0100206C010020C0
:102ED00034040040001001400C00002070B50D4685
:102EE000144607A1FDF730F9FDF750F9286004A159
:102EF0000020FDF729F9FDF749F9206070BD0000B9
:102F00002C0000000000000000000000010203048B
:102F100006070809000000000102030400404040C9
:102F2000404040404040414141414140404040409C
:102F30004040404040404040404040404005020248
:102F40000202020202020202020202020220202007
:102F50002020202020202002020202020202909063
:102F60009090909010101010101010101010101061
:102F700010101010101010100202020202028888B5
:102F800088888888080808080808080808080808C1
:102F900008080808080808080202020240000000A9
:102FA0001D2F0008C42F0008000000202C00000086
:102FB000602B0008F02F00082C0000209C06000069
:102FC000702B00080000000000000000010101015A
:102FD00000000000010000001000000000000000E0
:102FE0000024F400000000000000000000000000C9
:04000005080000ED02
:00000001FF
