:020000040800F2
:10000000800C0020A90100088B160008E9140008E4
:1000100089160008B5020008D51900080000000084
:100020000000000000000000000000008F16000823
:1000300069030008000000008D16000891160008F2
:10004000C3010008C3010008C3010008C301000880
:10005000C3010008C3010008C3010008C301000870
:10006000C3010008C3010008C3010008C301000860
:10007000C3010008C3010008C3010008C301000850
:10008000C3010008C3010008C3010008000000000C
:10009000000000000000000000000000C301000894
:1000A00045170008C3010008C3010008C301000888
:1000B000C3010008C3010008C3010008C301000810
:1000C000C3010008C3010008C3010008C301000800
:1000D000C3010008C3010008C301000800000000BC
:1000E0006D030008C3010008C30100080000000000
:1000F000000000000000000000000000C301000834
:1001000000000000C3010008C3010008C30100088B
:1001100000000000000000000000000000000000DF
:10012000C3010008B9020008C3010008C3010008A8
:10013000C3010008000000000000000000000000F3
:10014000000000000000000000000000C3010008E3
:10015000C3010008C3010008C3010008C30100086F
:10016000C3010008C30100080000000000000000F7
:10017000000000000000000000000000000000007F
:1001800000000000C30100080000000000000000A3
:10019000C3010008DFF80CD000F07AF800480047EF
:1001A000151A0008800C00200648804706480047C2
:1001B000FEE7FEE7FEE7FEE7FEE7FEE7FEE7FEE717
:1001C000FEE7FEE729170008950100082DE9F05F1A
:1001D0000546002092469B468846064681464024B6
:1001E0001BE0284641464746224600F041F8534668
:1001F0005A46C01A914110D311461846224600F0C3
:1002000028F82D1A67EB01084F46224601200021ED
:1002100000F01FF817EB00094E41201EA4F1010465
:10022000DFDC484631462A464346BDE8F09FD2B25D
:1002300001E000F8012B491EFBD270470022F6E7CF
:1002400010B513460A4604461946FFF7F0FF20464C
:1002500010BD202A04DB203A00FA02F1002070478A
:100260009140C2F1200320FA03F3194390407047F4
:10027000202A04DB203A21FA02F00021704721FAFB
:1002800002F3D040C2F12002914008431946704762
:10029000064C074D06E0E06840F0010394E80700D3
:1002A00098471034AC42F6D3FFF778FF981A00084D
:1002B000B81A0008FEE70000014800F08DB8000001
:1002C0002008002001681823CAB2103AB2FBF3F2EA
:1002D000054B6FF30901032A9B5CC36500D9091D17
:1002E0008165084670470000801A000810B5014675
:1002F00000208B698A6A4FF0C07453B1B3F5005F78
:1003000015D072B1012A0CD0022A0AD0032A09D1D1
:1003100004E01AB1012A06D0022A03D1C96AC90130
:1003200000D5012010BDC96AA142FAD010BD002A33
:10033000F7D0012AF2D0022AF3D0032AF3D010BD5D
:1003400030B50468256825F480252560046863605D
:100350008368402B036803D099600068C26030BD99
:100360009A600068C16030BD7047000070B50D4DE7
:100370004FF400542146284600F08AFA60B921461D
:10038000284600F085FA0028F9D04FF47A73064A1F
:100390000021064800F0CCFF2046BDE8704000F088
:1003A000A1B900000008024010000020E007002072
:1003B00072B6FEE790F83510022903D0802141651E
:1003C00001207047052180F835100068016821F090
:1003D00001010160002070472DE9F84304464FF009
:1003E0000009CDF8009063484FF41651A56D0068E0
:1003F000B0FBF1F72E6894F85C10082000FA01F1C8
:1004000031420FD021680A6852070BD50A6822F0E2
:1004100004020A6094F85C108840A860606D40F0A7
:100420000100606594F85C104FF0010808FA01F0D3
:10043000304208D021684969090604D5A860606D7A
:1004400040F00200606594F85C100420884030425F
:1004500008D021680968890704D5A860606D40F05C
:100460000400606594F85C1010208840304218D079
:1004700021680968090714D5A86020680168490344
:1004800004D50068000308D5A16C07E00168C90520
:1004900003D4016821F008010160216C09B12046F4
:1004A000884794F85C1020208840304231D0216881
:1004B0000968C9062DD5A86094F83500052820687C
:1004C000016806D0490347D5006800031DD4616C5C
:1004D0001CE021F0160101602068416921F08001D3
:1004E0004161206C08B9A06C20B12068016821F03E
:1004F0000801016094F85C103F208840A86084F8EF
:10050000349084F83580216D1FE0E16B09B12046FD
:100510008847606D00282BD0606DC00714D005207F
:1005200084F835002068016821F00101016000981D
:10053000401C0090B84203D820680068C007F6D17C
:1005400084F8349084F83580E16C002910D001B033
:100550002046BDE8F04308470168C905D5D40168C5
:1005600021F01001016084F8349084F83580CCE7E4
:10057000BDE8F8830C0000202DE9F041044600F0AE
:1005800091F906465CB1002584F83450022084F8C5
:1005900035002068016821F0010101600DE00120B3
:1005A000BDE8F08100F07EF9801B052805D92020E8
:1005B0006065032084F83500F2E720680068C00712
:1005C000F0D12268116820480140D4E901031843A2
:1005D000D4E903363343184363691843A3691843C6
:1005E000E3691843236A18430843616A042903D165
:1005F000D4E90B1319430843106020684069666A08
:1006000020F0070130460E43012704280CD1A06AD0
:100610000643E06A40B12046FFF768FE20B1402063
:10062000606584F83570BAE7206846612046FFF7B8
:1006300049FE94F85C203F2191408160656584F813
:1006400035700020ACE700003F8010F02DE9F0414C
:100650000446866D90F83400002501280DD0012055
:1006600084F8340094F835700020012F07D084F806
:10067000340002252846BDE8F0810220FBE702276E
:1006800084F8357060652046FFF75AFE94F85C10D8
:100690003F208840B0602068016841F01601016089
:1006A000206C20B12068016841F0080101602068D9
:1006B000016841F001010160DCE7000070B504460B
:1006C00000F0F0F80546601C02D0044800780444AD
:1006D00000F0E8F8401BA042FAD370BD00000020F3
:1006E00070470000044910B50A68024202D0086051
:1006F000FFF7F6FF10BD0000143C01402DE9F84F54
:1007000000224FF0010803254FF00F0E0B6808FA86
:1007100002F42340A34271D14E68012E05D0022E6F
:1007200003D0112E01D0122E15D18668570005FA7C
:1007300007FC26EA0C06D1F80CC00CFA07FC4CEAC0
:10074000060CC0F808C04668A6430C79C4F3001430
:10075000944034434460C668570005FA07FC8C682F
:1007600026EA0C06BC403443C4604C68022C01D01D
:10077000122C13D1D40800EB8404A346D4F82090A3
:1007800054074FEAD46A0EFA0AF629EA06090E69F6
:1007900006FA0AF646EA0906CBF8206004680E79E4
:1007A00024EA0C0406F00306BE40264306604C68AB
:1007B000E40056D52E4C266846F480462660246810
:1007C00022F0030604F4804400942A4C3444A446E6
:1007D000D4F808489607370F0EFA07F6B443264EAA
:1007E000B04201D1002615E0244EB04201D10126CD
:1007F00010E0234EB04202D102260BE031E0214E40
:10080000B04201D1032605E01F4EB04201D10426BB
:1008100000E00726BE402643CCF808681B4E34682B
:100820004F689C43FF0300D51C433460174E361DB0
:1008300034684F689C43BF0300D51C433460134E9B
:10084000083634684F689C43FF0200D51C4334606F
:100850000E4E0C3634684F689C43BF0200D51C43D3
:100860003460521C102AFFF451AFBDE8F88F00002D
:1008700044380240003001400000024000040240C1
:1008800000080240000C024000100240003C014001
:100890000069084000D0012070470AB181617047AB
:1008A0000904FBE701488068704700000000002051
:1008B000024881680278114481607047000000207E
:1008C0000B4810B5016841F400710160016841F402
:1008D00080610160016841F480710160032000F0D3
:1008E0006FF8002000F006F800F024F8002010BD9A
:1008F000003C024070B50D4D04464FF47A712878E3
:10090000B1FBF0F00A490968B1FBF0F000F0E4FA3D
:1009100048B9102C07D200222146501E00F030F8B2
:1009200000206C6070BD012070BD00000000002040
:100930000C0000200A4808B5016841F480410160BC
:10094000006800F4804000900548001F016841F0F5
:1009500080510160006800F08050009008BD0000E8
:1009600044380240002809DB00F01F0201219140B9
:100970004009800000F1E020C0F80011704700003D
:10098000F0B40E4B1B680C46C3F30223C3F10705FA
:10099000042D00D90425191D072901D2002300E0E8
:1009A000DB1E012606FA05F1491E214099409E40B2
:1009B000761E16403143F0BC01F00DB80CED00E09E
:1009C000064900F0070208684FF6FF03184040EAA6
:1009D0000220034A10430860704700000CED00E05D
:1009E0000000FA052DE9F0470E46050065D0DFF856
:1009F0001481D8F80000F7B200F00F00B04207D21F
:100A000088F80070D8F8000000F00F00B04254D110
:100A100028683D4C810712D5400703D5206840F473
:100A2000E05020602878000703D5206840F460403B
:100A300020602068A96820F0F00008432060287832
:100A4000C0072DD0304968680839012812D0022823
:100A500013D0032811D00968890700292DDA2168ED
:100A600021F0030101432160FFF71CFF814641F2A1
:100A7000883A0EE009688903EFE709688901ECE725
:100A8000FFF710FFA0EB0901514502D90320BDE893
:100A9000F0872068696800F00C00B0EB810FEFD19F
:100AA000D8F80010404601F00F01B14207D9077095
:100AB000006800F00F00B04201D00120E7E728787D
:100AC000400705D52068E96820F4E050084320601D
:100AD0002878000706D52068296920F4604040EA9C
:100AE000C100206000F018F82168084AC1F3031122
:100AF000515CC8400649086006480068FFF7FAFEE6
:100B00000020C4E7003C024008380240881A000870
:100B10000C00002004000020154810B5006810F0FB
:100B20000C02144813D01449042A0FD0082A0ED1FD
:100B30000F4C241F2268236802F03F025B0207D596
:100B40002068C0F38810A0FB010106E0084610BD34
:100B50002168C1F38811A1FB00010023FFF736FBD8
:100B60002168C1F30141491C4900B0FBF1F010BDFF
:100B7000083802400024F400001BB7002DE9F84FAC
:100B800004006ED02078DFF83C93C007A9F104057B
:100B90004AD009F104000168C1F38101012908D09C
:100BA0000068C0F3810002280AD1D9F80000400291
:100BB00006D52868800337D560680028E1D033E087
:100BC0006068B0F5803F10D0B0F5A02F286810D035
:100BD00020F480302860286820F480202860606835
:100BE000A8B1FFF75FFE06460DE0286840F48030AC
:100BF000F4E740F480202860F7E700BFFFF752FEDB
:100C0000801B642873D828688003F7D50CE0FFF7B1
:100C100049FE064605E000BFFFF744FE801B64283E
:100C2000F0D828688003F7D42078DFF89C8280070A
:100C30004FF0000A3ED5A348001D016811F00C0FCB
:100C400008D00068C0F3810002280BD1D9F8000059
:100C5000400207D42868800716D5E068012800D133
:100C600012E02BE1E068B8B10120C8F80000FFF7FE
:100C700019FE064605E000BFFFF714FE801B0228A0
:100C8000C0D828688007F7D52868216920F0F800C7
:100C900040EAC10028600DE0C8F800A0FFF702FE9E
:100CA000064604E0FFF7FEFD801B02281FD82868D7
:100CB0008007F7D42078000722D5824E83486169E7
:100CC000703671B101210160FFF7ECFD074604E0C9
:100CD000FFF7E8FDC01B022809D830688007F7D568
:100CE0000EE0C0F800A0FFF7DDFD074605E082E05A
:100CF000FFF7D8FDC01B02287DD830688007F7D4E5
:100D00002078400768D5DFF8BCB100270BF13C0B19
:100D1000DBF80000C0000BD4DBF8001041F080517C
:100D2000CBF80010DBF80000012700F080500090A5
:100D3000674E3068C00510D4306840F48070306071
:100D4000FFF7B0FD009005E0FFF7ACFD0099401AF9
:100D5000022850D83068C005F6D55A4EA0686C36C7
:100D600001280FD00528306810D020F00100306035
:100D7000306820F004003060A068B8B1FFF792FD41
:100D800000900FE0306840F00100F4E740F004000C
:100D90003060F7E7FFF786FD0099411A41F288308D
:100DA000814266D830688007F4D50EE0FFF77AFDFF
:100DB000009007E0FFF776FD0099411A41F2883074
:100DC000814256D830688007F4D42FB1DBF8001088
:100DD00021F08051CBF80010A069C8B33949091D32
:100DE0000968C1F3810102294AD00228504607D080
:100DF000C8F8600000E03CE0FFF754FD04463BE02B
:100E00004746C8F86000FFF74DFD064605E000BF05
:100E1000FFF748FD801B02282BD828688001F7D4F3
:100E2000D4E907010843A16A2A4A490802EB0141B3
:100E3000626A41EA8211084394F82C1040EA016189
:100E4000C9F8001001203866FFF72CFD044606E0C3
:100E500036E000BFFFF726FD001B022809D82868EE
:100E60008001F7D52CE000BFFFF71CFD001B022816
:100E700002D90320BDE8F88F28688001F4D41FE070
:100E80000128F7D0D9F80000E26900F4800191420E
:100E900014D1226A00F03F0191420FD147F6C07190
:100EA000626A0140914209D1A26A00F44031914244
:100EB00004D1E16A00F07060884201D00120D9E7D6
:100EC0000020D7E70438024000004742800E474226
:100ED000007000400000FFFF10B5401EB0F1807FA1
:100EE00001D3012010BD4FF0E02460610F21601795
:100EF00000F071FD0020A06107202061002010BDDE
:100F00007047704710B590F83C20012A22D001228A
:100F100080F83C20CA688C6822F4407222434C68F6
:100F200022F4806222430C6822F4006222430C699E
:100F300022F4805222434C6922F400522243C969B0
:100F4000002322F480420A4301684A6480F83C305E
:100F5000002010BD022010BD70B590F83C20012A81
:100F60002CD0012480F83C40022280F83D20036808
:100F70005A689D6822F070060A6832435A60104B26
:100F800002689A420ED0B2F1804F0BD00D4B9A42BC
:100F900008D00D4B9A4205D00C4B9A4202D00C4B14
:100FA0009A4204D1496825F080031943916080F882
:100FB0003D40002180F83C10084670BD022070BD05
:100FC000000001400004004000080040000C004008
:100FD000004001407047704770B5044600680169E1
:100FE0004FF00005C943890715D4C168C943890773
:100FF00011D4E91E016101202077206880698007F3
:10100000204602D0FFF7E7FF04E000F0C3F82046D7
:1010100000F082F9257720680169C943490717D490
:10102000C168C943490713D46FF00401016102206C
:1010300020772068806910F4407F204602D0FFF7B7
:10104000CAFF04E000F0A6F8204600F065F9257715
:1010500020680169C943090716D4C168C943090753
:1010600012D46FF008010161042020772068C06964
:101070008007204602D0FFF7AEFF04E000F08AF8B8
:10108000204600F049F9257720680169C943C9065F
:1010900017D4C168C943C90613D46FF010010161A8
:1010A000082020772068C06910F4407F204602D0D5
:1010B000FFF791FF04E000F06DF8204600F02CF9F6
:1010C000257720680169C943C90708D1C168C943A8
:1010D000C90704D1891E0161204600F003FA206887
:1010E0000169C943090609D4C168C943090605D481
:1010F0006FF0800101612046FFF702FF206801695F
:10110000C943490609D4C168C943490605D46FF0EB
:1011100040010161204600F0E6F920680169C943F9
:1011200089060BD4C168C943890607D46FF0200132
:1011300001612046BDE87040FFF7E3BE70BD0000CE
:1011400010B586B0044614216846FFF777F80E49BB
:101150002068884216D10D480021026842F0010241
:101160000260006800F0010005904FF4807000906C
:101170000220CDE901010120CDE9031069460448B0
:10118000FFF7BCFA06B010BD000001403038024045
:1011900000000240704770B5044690F83C000D46D0
:1011A00001280DD0012684F83C60022084F83D001F
:1011B00042B1042A18D0082A2AD00C2A4DD139E08D
:1011C000022070BD206800F063FB2068816941F057
:1011D000080181612068816921F004018161206832
:1011E00081692A69114311E0206800F079FB2068C9
:1011F000816941F4006181612068816921F4806125
:101200008161206881692A6941EA0221816124E0C3
:10121000206800F091FB2068C16941F00801C161BC
:101220002068C16921F00401C1612068C1692A698F
:10123000114311E0206800F0ABFB2068C16941F464
:101240000061C1612068C16921F48061C1612068C9
:10125000C1692A6941EA0221C16184F83D60002028
:1012600084F83C0070BD10B5040003D094F83D0034
:1012700010B107E0012010BD002084F83C0020469A
:1012800000F00CF8022084F83D00211D206800F0D9
:101290005FFA012084F83D00002010BD38B50546F6
:1012A0000068194988422DD118480021026842F08F
:1012B000010202600068174C00F001000090144821
:1012C00020604FF04060C4E901014FF40070C4E9B0
:1012D0000301800060618000C4E9060121622046AC
:1012E0006162FFF749F908B1FFF762F86C6200220A
:1012F00011461820A563FFF743FBBDE838401820CE
:10130000FFF730BB38BD0000000001404438024008
:10131000286402402008002003490020096848632F
:101320000146014800F090B8E00700207047000037
:101330002DE9F041044690F83D0017460D4602287D
:1013400050D094F83D00012805D10FB9002B6BD186
:10135000022084F83D0038483849394E35B1042D13
:1013600016D0082D41D00C2D24D150E0626AD063F4
:10137000606A0164606A3946C6642268606A343211
:10138000FFF764F980BB2068C16841F4007110E088
:10139000A26AD063A06A0164A06A3946C664226862
:1013A000A06A3832FFF752F9F0B92068C16841F4F9
:1013B0008061C16001222946206800F015FA2149A8
:1013C0002068884203D1416C41F4004141642068A7
:1013D000816801F00701062903D0016841F001018D
:1013E00001600020BDE8F0811EE0E26AD063E06A9F
:1013F0000164E06A3946C6642268E06A3C32FFF75D
:1014000025F988B92068C16841F40061D1E7226BF1
:10141000D063206B0164206B3946C6642268206B60
:101420004032FFF713F908B10120DBE72068C168FB
:1014300041F48051BDE7000003180008411800087E
:101440007F1800080000014070B5044600680D00D8
:1014500006D0042D0AD0082D35D00C2D0DD138E042
:10146000C16821F40071C160606A04E0C16821F4C0
:101470008061C160A06AFEF79DFF002229462068B6
:1014800000F0B2F9164B41F2111120688A1098420F
:1014900009D1036A0B4206D1036A134203D1436C9C
:1014A00023F4004343642068036A0B4206D1016AB7
:1014B000114203D1016821F001010160012084F88B
:1014C0003D00002070BDC16821F40061C160E06A88
:1014D000D1E7C16821F48051C160206BCBE70000E7
:1014E0000000014070477047FEE70000094808B55A
:1014F000016841F4800101600068002200F480006E
:10150000009011463920FFF73BFABDE8084039202A
:10151000FFF728BA303802402DE9F04186B0142197
:101520006846FEF78BFE2B480024016841F0040159
:101530000160016801F004010591016841F080013A
:101540000160016801F080010591016841F001012D
:101550000160016801F001010591016841F002019B
:10156000016000681C4F00F0020005900022072176
:101570003846FFF792F9DFF86480BE140022314646
:101580004046FFF78AF97000009015480125CDE923
:10159000010569461348FFF7B1F807200090CDE92F
:1015A0000154694638460394FFF7A8F80096CDE940
:1015B0000154694640460394FFF7A0F80022012138
:1015C0002820FFF7DDF92820FFF7CCF906B0BDE8A9
:1015D000F081000030380240000002400004024068
:1015E000000021100008024010B592B000240F94B2
:1015F0001C2108A81094FEF721FE20216846FEF762
:101600001DFE20481E4901601421C0E9011440F26A
:10161000E731C0E9031444618461FFF724FE08B197
:10162000FEF7C6FE0F940FA916481094FFF794FC1E
:1016300008B1FEF7BDFE6020CDE908040A940B94C2
:101640000C940D94002208A90E480E94FFF7A3FDF8
:1016500008B1FEF7ADFE00944FF40050CDE9044010
:10166000029401940394694606480794FFF74AFCE4
:1016700008B1FEF79DFE0348FFF762FD12B010BDF2
:1016800000000140E0070020FEE7FEE770477047DA
:10169000FFF70EB930B593B030216846FEF7CEFDA6
:1016A00014210CA8FEF7CAFD1D480024016841F072
:1016B00080510160006800F0805011901948016865
:1016C00021F4404141F4004101600068022500F42A
:1016D0004040119001200390102004900095069541
:1016E0000820CDE907405420CDE9090504200B90DE
:1016F0006846FFF743FA08B172B6FEE70F20CDE95E
:101700000C054FF48050CDE90E4002210CA8109436
:10171000FFF768F9002801D072B6FEE713B030BDBC
:1017200040380240007000400548016841F47001F3
:10173000016003494FF00060803908607047000085
:1017400088ED00E00148FFF747BC0000E0070020FB
:10175000F0B502681D4B1E4C9F031E4D1E4E984255
:1017600007D0B84205D0A04203D0A84201D0B04271
:1017700004D122F0700C4A6842EA0C02984210D060
:10178000B8420ED0A0420CD0A8420AD0B04208D035
:10179000124CA04205D0124CA04202D0114CA042E3
:1017A00003D122F44074CA6822434C6922F08002BB
:1017B000224302608A68C2620A688262984201D14A
:1017C0000969016301214161F0BD00000000014091
:1017D0000004004000080040000C004000400140B0
:1017E000004401400048014010B501F01F030121F1
:1017F000046A99408C430462016A9A401143016271
:1018000010BD10B5846B012184F83D10626A8242DC
:1018100001D121770EE0A16A814201D1022008E0C6
:10182000E16A814201D1042003E0216B814201D1B0
:10183000082020772046FFF76FFD0020207710BD9D
:1018400010B5846B012184F83D10626A824201D197
:1018500021770EE0A16A814201D1022008E0E16A0D
:10186000814201D1042003E0216B814201D1082093
:1018700020772046FFF75AFD0020207710BD10B5D5
:10188000806B012180F83D10FFF7A4FB10BD000024
:1018900030B5026A22F001020262026A436884697A
:1018A00024F073050C682C4322F002058A682A4351
:1018B0000A4DA8420BD122F00805CA6823F44073F0
:1018C0002A434D6922F004021D438B692B43436078
:1018D000846149684163026230BD0000000001403C
:1018E00030B5026A22F010020262026A436884691B
:1018F0000D6824F4E64444EA05248D6822F02002B1
:1019000042EA05120B4DA8420ED1CD6822F08002AA
:1019100042EA05124D6923F4406343EA85038D6969
:1019200022F0400243EA8503436084614968816391
:10193000026230BD0000014030B5026A22F48072BC
:101940000262036A4268C46923F4007324F07305D9
:101950000C682C438D6843EA05230C4DA8420ED138
:10196000CD6823F4006343EA05234D6922F4405215
:1019700042EA05128D6923F4806342EA051242604F
:10198000C4614968C163036230BD000000000140CA
:1019900030B5026A22F480520262046A4268C36966
:1019A0000D6823F4E64343EA05238D6824F40054CC
:1019B00044EA0534064DA84204D14D6922F4804220
:1019C00042EA85124260C36149680164046230BD25
:1019D00000000140FEE70907090E002804DB00F1C2
:1019E000E02080F80014704700F00F0000F1E020C4
:1019F00080F8141D704702E008C8121F08C1002AB1
:101A0000FAD170477047002001E001C1121F002A7F
:101A1000FBD17047FEF754FFFFF73CFEFFF77CFD5C
:101A2000FFF764FDFFF7E0FD00201249C8224FF4E4
:101A30007A7500BF21F81020401CA842FADB0E4C3A
:101A4000606980F002006061606980F0040060619C
:101A50006420FEF733FE2B46064A00210748FFF7B5
:101A600067FC606980F0010060616420FEF726FE7B
:101A7000F7E700001000002000000240E00700200F
:101A800000061016000610160000000000000000FE
:101A90000102030406070809B81A00080000002024
:101AA00010000000F6190008C81A000810000020F5
:101AB000700C0000061A0008010000001000000071
:081AC000000000000024F40006
:040000050800019559
:00000001FF
