:020000040800F2
:10000000A805002001010008FF1C0008551A00087F
:10001000FD1C00087D0200083D21000800000000D2
:10002000000000000000000000000000031D0008A8
:10003000A502000800000000011D0008051D0008C1
:100040001B0100081B0100081B0100081B01000820
:100050001B0100081B0100081B0100081B01000810
:10006000A70200081B0100081B010008810200080C
:100070001B0100081B0100088D02000899020008FE
:100080001B0100081B0100086D0100081B0100088E
:100090001B0100081B0100081B010008AD0200083D
:1000A0001B0100081B0100081B0100081B010008C0
:1000B000A91D00081B0100081B0100081B01000806
:1000C0001B0100081B0100081B0100081B010008A0
:1000D0001B010008312100081B0100081B0100085A
:1000E0001B0100081B0100081B010008DFF80CD0F1
:1000F00000F02AF8004800477D210008A8050020EC
:100100000648804706480047FEE7FEE7FEE7FEE7B1
:10011000FEE7FEE7FEE7FEE7FEE7FEE7A51D0008B7
:10012000ED000008D2B201E000F8012B491EFBD21D
:1001300070470022F6E710B513460A4604461946F2
:10014000FFF7F0FF204610BD064C074D06E0E068C3
:1001500040F0010394E8070098471034AC42F6D30E
:10016000FFF7C8FFEC2100080C220008014800F04E
:1001700024B900002000002070B5044600688168A2
:10018000C943C90717D1816821F00101816000F0DE
:10019000C5FC05460AE000BF00F0C0FC401B022879
:1001A00004D920688068C043C00706D020688068F2
:1001B000C043C007F0D0002070BDA06A40F010001E
:1001C000A062E06A40F00100E062012070BD000022
:1001D00070B5274B4242274C4FF0804501290FD084
:1001E0004FF4FA7602291CD0234B032929D0042985
:1001F00016D1002834DD196841F40051196034E04B
:10020000002804DD196841F01001196004E0186845
:1002100020F010001860104620804FF416706863BC
:1002200070BD002804DD196841F02001196004E068
:10023000186820F020001860104680006080AE63CF
:1002400070BD002804DD196841F48051196004E094
:10025000186820F4805018601046A080EE6370BDCE
:10026000186820F4005018601046E0802E6470BDBD
:100270000C080140140000200C0C0140FEE70000B7
:10028000014800F05DBA000050000020014800F075
:1002900057BA000020010020014800F051BA0000C8
:1002A000640100207047042000F036BB4FF48070DA
:1002B00000F032BB72B6FEE770470000F8B50024CC
:1002C000009490F824202546012A12D0012280F8BB
:1002D00024204A681F23072A0DD20668776B521E16
:1002E00002EB820293409F430B6893401F43776366
:1002F00019E00220F8BD06680D2A0AD2376BD21F1A
:1003000002EB820293409F430B6893401F43376385
:1003100009E0F76A0D3A02EB820293409F430B68B3
:1003200093401F43F7620A68072306680A2A0AD324
:10033000F7680A3A02EB420293409F438B6893406E
:100340001F43F76008E0376902EB420293409F4386
:100350008B6893401F4337610A68102A01D0112A25
:1003600020D1124B02689A4217D193681B0219D40C
:10037000936843F4000393600968102912D10C4973
:100380000C4A0968B1FBF2F101EB8101490000E080
:10039000491E00910029FBD104E0816A41F020014F
:1003A0008162012480F824502046F8BD00240140D9
:1003B0001000002040420F00704710B5044600684E
:1003C0004168890626D50168890723D5A16AC9062F
:1003D00003D4A16A41F40071A1628168C1F3424172
:1003E000072910D1217B71B9416821F020014160BA
:1003F000A06A20F48070A062A06AC00403D4A06A3E
:1004000040F00100A0622046FFF7D6FF21686FF0A0
:10041000120008602068416809062ED50168490766
:100420002BD5A16AC90603D4A16A41F40051A16287
:100430008168C1F30231072909D04168490515D403
:100440008168C1F34241072910D1217B71B941680C
:1004500021F080014160A06A20F48050A062A06A6F
:10046000C00503D4A06A40F00100A0622046FFF757
:1004700023FF21686FF00C0008602068416849067E
:100480000DD50068C0070AD0A06A40F48030A06291
:10049000204600F093F821686FF00100086010BD5D
:1004A0002DE9F0414FF0000704003D467ED0A06AE0
:1004B000002628B9E66284F82460204600F080F81F
:1004C0002046FFF759FEA16AC90600D420B1A06AF0
:1004D00040F01000A06269E0A16A21F4885141F067
:1004E0000201A1626268E169237B0A4347EA430192
:1004F0000A43A1684FF48077B94209D0012907D097
:100500005FF0000194F814C0BCF1010F02D00AE0C2
:100510003946F7E7F3B1A36A43F02003A362E36A25
:1005200043F00103E3622368D3F804C02CF4694C60
:100530004CEA010CC3F804C021688B68DFF870C076
:1005400003EA0C0313438B60A168B9420BD0012965
:1005500009D00CE0DFF85CC0A3690CEB43330B431C
:1005600043F40061DFE7218A0D05A5F580152168B8
:10057000CB6A23F470032B43CB62216889680E4B4E
:100580001940914208D1E662A16A21F0020141F0CE
:100590000101A162BDE8F081A06A20F0020040F0F4
:1005A0001000A062E06A40F00100E0620120F1E783
:1005B000FDF7E1FF00E0FFFFFE0E1FFF70470000A8
:1005C00070B586B000250646009501950295039505
:1005D00000681E49884236D11D49886940F4007080
:1005E0008861886900F400700490886940F0040014
:1005F00088618869694600F004000490C02000907A
:1006000003200190134800F093F9144C1248C4E9F8
:1006100000058020C4E902508000206180006061F4
:100620002020C4E90605204600F034F908B1FFF7A0
:1006300041FE3462002205211220666200F0DAFADF
:10064000122000F0C9FA06B070BD0000002401407D
:100650000010024000080140080002405000002045
:1006600010B590F821100022022905D004218163E1
:1006700080F82020012010BD01680B6823F00E03D4
:100680000B6001680B6823F001030B6090F84030A9
:10069000C46B012101FA03F3636080F8211080F834
:1006A0002020104610BD000010B590F82110002445
:1006B000022903D00421816301243DE001680A6816
:1006C00022F00E020A6001680A6822F001020A6044
:1006D0001A4A0168914201D1012121E0174A1432DE
:1006E000914201D110211BE0144A2832914201D1DC
:1006F000891515E0114A3C32914201D189140FE06D
:100700000E4A5032914202D14FF4803108E00B4A38
:100710006432914202D14FF4801101E04FF08071B8
:10072000064A083A5160012180F82110002180F822
:100730002010416B01B18847204610BD08000240DF
:100740002DE9F05FC16B0C6801680B68D0F840C000
:10075000042202FA0CF2494DDFF824A1494E4A4F17
:10076000DFF828B1DFF828E122422CD05A072AD539
:100770000A68920603D40A6822F004020A6001683B
:10078000A94201D1042219E0514501D1402215E0CE
:10079000B14202D14FF4806210E0B94202D14FF46D
:1007A00080420BE0594502D14FF4802206E07145AA
:1007B00002D14FF4800201E04FF080622F490839E6
:1007C0004A60C16A3BE04FF0020808FA0CF818EAE8
:1007D000040F4FF000094FF0010235D05FEA837833
:1007E00032D50B689B0605D40B6823F00A030B6017
:1007F00080F821200168A94201D1022219E0514567
:1008000001D1202215E0B14202D14FF4007210E074
:10081000B94202D14FF400520BE0594502D14FF4D6
:10082000003206E0714502D14FF4001201E04FF0B2
:100830000072124908394A6080F82090816A0029C4
:100840001AD0BDE8F05F0847082505FA0CF52542E7
:1008500012D01B0710D50B6823F00E030B6090F825
:100860004010C36B02FA01F15960826380F82120C5
:1008700080F82090016BE2E7BDE8F09F080002409D
:100880001C00024030000240440002405800024078
:100890006C00024030B528B308C81349142219442B
:1008A000B1FBF2F18900C1631049816302214177F4
:1008B0001A6843F6F0718A43D0E900142143D0E965
:1008C00002452C432143046921434469214384693F
:1008D00021431143196000214163012242770177CE
:1008E000084630BD012030BDF8FFFDBF00000240CA
:1008F00070B5044600F012F90546601C02D00448A9
:100900000078044400F00AF9401BA042FAD370BDFD
:100910000400002070470000044910B50A68024234
:1009200002D00860FFF7F6FF10BD0000140401407C
:100930002DE9F84FDFF8B891002409F1040A0AF113
:10094000040B23460F270BF1040EC9E00125A54037
:100950002A40AA427DD1674ED1F804C0ACEB06080C
:10096000B44532D014DCBCF1030F3AD009DCBCF141
:10097000000F2AD0BCF1010F1CD0BCF1020F31D105
:100980001DE0BCF1110F17D0BCF1120F2AD119E0F4
:10099000B8F5881F19D006DCB8F5803F15D0B8F53A
:1009A000801F1FD111E0B8F5001F0ED0B8F5041F4D
:1009B00018D10AE0CB6815E0CB681B1D12E0CB68AC
:1009C00008330FE0CB680C330CE08B682BB1012BA4
:1009D0004FF0080303D0456104E0042302E0056101
:1009E00000E00023FF2A01D8064601E000F10406DA
:1009F0004FEA840501D9A5F12005D6F8008007FA51
:100A000005FC28EA0C0803FA05F548EA0508C6F8CB
:100A100000804D68ED0062D5374DAE6946F00106A5
:100A2000AE61AD6924F0030605F001050095334D74
:100A300006EB050CDCF80850A607360F07FA06F897
:100A400025EA0805DFF8B880404503D14FF00008DB
:100A500017E044E0DFF8AC80404502D14FF00108D8
:100A60000FE0DFF8A480404502D14FF0020808E013
:100A7000DFF89880404502D14FF0030801E04FF0C5
:100A8000040808FA06F848EA0508CCF808804D681A
:100A9000D9F80060ED034D4601D5164300E09643BA
:100AA0002E604D68DAF80060AD03554601D5164357
:100AB00000E096432E604D68DBF80060ED025D4675
:100AC00001D5164300E096432E604D68DEF80060C5
:100AD000AD02754601D5164300E096432E60641CB6
:100AE0000D682A46E5407FF431AFBDE8F88F00007D
:100AF00000040140000011100010024000000140FD
:100B000000080140000C01400010014000140140A9
:100B10000AB1016170470904FBE7000001488068E1
:100B200070470000040000200248816802781144E8
:100B30008160704704000020074810B5016841F04B
:100B400010010160032000F075F8002000F006F8A5
:100B500000F024F8002010BD0020024070B50D4DBB
:100B600004464FF47A712878B1FBF0F00A4909681D
:100B7000B1FBF0F000F062FB48B9102C07D2002264
:100B80002146501E00F036F800206C6070BD012038
:100B900070BD000004000020100000200C4808B5C3
:100BA000816941F001018161816901F001010091D8
:100BB000C16941F08051C161C06900F0805000906E
:100BC0000448416821F0E06141F00071416008BDD6
:100BD0000010024000000140002809DB00F01F0265
:100BE000012191404009800000F1E020C0F800118F
:100BF00070470000F0B40E4B1B680C46C3F3022391
:100C0000C3F10705042D00D90425191D072901D2B8
:100C1000002300E0DB1E012606FA05F1491E2140F3
:100C200099409E40761E16403143F0BC01F087BAD1
:100C30000CED00E0064900F0070208684FF6FF03DC
:100C4000184040EA0220034A104308607047000041
:100C50000CED00E00000FA052DE9F84305460078A8
:100C6000354CC00754D0E0690026C00008D4E069C4
:100C700040F08050E061E069012600F08050009073
:100C80002E480168C90512D40168804641F480717C
:100C90000160FFF743FF074605E000BFFFF73EFF97
:100CA000C01B642823D8D8F80000C005F6D5206AF8
:100CB00010F4407021D0A98801F4407181421CD009
:100CC000206A1F49012220F440700A6000220A6055
:100CD0002062C00711D0FFF721FF074641F2883894
:100CE00008E000BFFFF71AFFC11B414502D90320EE
:100CF000BDE8F883206A8007F4D5206A696820F48B
:100D00004070084320621EB1E06920F08050E0612D
:100D10002878800705D56068A96820F4404008431A
:100D200060602878C00605D56068E96820F4800016
:100D3000084360600020DBE70010024000700040C4
:100D4000400442422DE9F0470F46050061D0434E72
:100D5000306800F00700B84209D2306820F0070080
:100D600038433060306800F00700B84251D128683D
:100D70003B4C810712D5400703D5606840F4E06022
:100D800060602878000703D5606840F460506060B8
:100D90006068A96820F0F000084360602878C00708
:100DA00028D06868012810D02168022810D089074F
:100DB00000292EDA616821F0030101436160FFF729
:100DC000ADFE804641F288390DE021688903EFE7E6
:100DD0008901EDE7FFF7A2FEA0EB0801494502D922
:100DE0000320BDE8F0876068696800F00C00B0EB94
:100DF000810FEFD1306800F00700B8420BD930689E
:100E000020F0070038433060306800F00700B84237
:100E100001D00120E5E72878400705D56068E9683A
:100E200020F4E060084360602878000706D5606819
:100E3000296920F4605040EAC100606000F038F891
:100E40006168084AC1F30311515CC8400649086053
:100E500006480068FFF782FE0020C2E7002002403B
:100E600000100240D42100081000002008000020DB
:100E70000448054900684968044AC1F30221515CED
:100E8000C84070471000002000100240E421000814
:100E90000448054900684968044AC1F3C221515C0D
:100EA000C84070471000002000100240E4210008F4
:100EB00012A185B00FC98DE80F0014A0144A006874
:100EC00004905168134801F00C03042B10D0082B38
:100ED0000ED1C1F38343C9031DF803000AD551683D
:100EE00004AAC1F34041515C0A4A5043B0FBF1F0FF
:100EF00005B0704708494843FAE7000002030405BB
:100F0000060708090A0B0C0D0E0F10100102000055
:100F10000010024000127A0000093D002DE9F84F50
:100F2000040070D02078C04DC00749D06868C0F375
:100F30008100012807D06868C0F38100022809D128
:100F40006868C00306D52868800339D56068002822
:100F5000E7D035E06068B0F5803F0BD010B1B0F558
:100F6000A02F11D0286820F480302860286820F451
:100F7000802002E0286840F480302860606890B1EA
:100F8000FFF7CCFD06460AE0286840F48020286080
:100F9000F0E700BFFFF7C2FD801B642873D8286804
:100FA0008003F7D50CE0FFF7B9FD064605E000BF6A
:100FB000FFF7B4FD801B6428F0D828688003F7D4BD
:100FC00020789A4E80074FF001094FF0000839D57C
:100FD000686810F00C0F07D06868C0F38100022821
:100FE00009D16868C00306D42868800714D5206931
:100FF000012808D110E02069B0B1C6F80090FFF7D1
:101000008DFD074605E00AE1FFF788FDC01B0228B9
:10101000C4D828688007F7D52868616920F0F800EF
:1010200040EAC10028600DE0C6F80080FFF776FDB9
:10103000074604E0FFF772FDC01B022823D828688A
:101040008007F7D4207800072CD57948A169D9B159
:10105000C0F80090FFF762FD074604E0FFF75EFD71
:10106000C01B02280FD8686A8007F7D571484FF473
:10107000FA510068B0FBF1F0009000BF0098411EEB
:101080000091FAD20EE080E0C0F80080FFF746FD44
:10109000074604E0FFF742FDC01B022875D8686AC6
:1010A0008007F7D42078400760D5E8690027C000A2
:1010B00008D4E86940F08050E861E869012700F051
:1010C000805000905C480168C90513D401688346CC
:1010D00041F480710160FFF721FD824606E000BF08
:1010E000FFF71CFDA0EB0A0064284ED8DBF80000D7
:1010F000C005F5D5E06801280AD008B1052813D04D
:10110000286A20F001002862286A20F0040002E02A
:10111000286A40F001002862E06841F2883B98B1FB
:10112000FFF7FCFC82460BE0286A40F004002862CE
:10113000EEE700BFFFF7F2FCA0EB0A0159455AD8D1
:10114000286A8007F6D50CE0FFF7E8FC824605E048
:10115000FFF7E4FCA0EB0A0159454CD8286A800748
:10116000F6D41FB1E86920F08050E861E06988B3E7
:101170006968C1F38101022944D00228C6F8608061
:1011800004D0FFF7CBFC044638E034E0FFF7C6FCA0
:10119000074604E0FFF7C2FCC01B02282BD82868D2
:1011A0008001F7D4206AB0F5803F05D16868A16856
:1011B00020F4003008436860D4E9080108436968F6
:1011C00021F4741108436860C6F86090FFF7A6FC2C
:1011D000044606E025E000BFFFF7A0FC001B022844
:1011E00009D828688001F7D51BE000BFFFF796FCFF
:1011F000001B022802D90320BDE8F88F286880016F
:10120000F4D40EE00128F7D06868226A00F4803137
:10121000914204D1616A00F47010884201D001202B
:10122000EAE70020E8E70000001002400000424228
:1012300080044242100000200070004010B5401EA3
:10124000B0F1807F01D3012010BD4FF0E024606138
:101250000F21601700F073FF0020A06107202061BC
:10126000002010BD7047704770B590F83C20012AEF
:1012700026D0012480F83C40022280F83D200368FB
:101280005A689D6822F070060A6832435A600D4B16
:1012900002689A4208D0B2F1804F05D00A4B9A42B8
:1012A00002D00A4B9A4204D1496825F080031943C1
:1012B000916080F83D40002180F83C10084670BDE8
:1012C000022070BD002C01400004004000080040D6
:1012D000704770B50446006801694FF00005C943C6
:1012E000890715D4C168C943890711D4E91E016172
:1012F00001202077206880698007204602D0FFF710
:10130000E7FF04E000F0BCF8204600F067F925771D
:1013100020680169C943490717D4C168C94349070F
:1013200013D46FF0040101610220207720688069E6
:1013300010F4407F204602D0FFF7CAFF04E000F01F
:101340009FF8204600F04AF9257720680169C943D3
:10135000090716D4C168C943090712D46FF0080100
:101360000161042020772068C0698007204602D0F0
:10137000FFF7AEFF04E000F083F8204600F02EF9FE
:10138000257720680169C943C90617D4C168C943D4
:10139000C90613D46FF0100101610820207720687E
:1013A000C06910F4407F204602D0FFF791FF04E0AF
:1013B00000F066F8204600F011F9257720680169F1
:1013C000C943C90708D1C168C943C90704D1891EE7
:1013D0000161204600F094F920680169C9430906BB
:1013E00009D4C168C943090605D46FF080010161C1
:1013F0002046FFF737FF20680169C943490609D431
:10140000C168C943490605D46FF040010161204617
:1014100000F077F920680169C94389060BD4C168D7
:10142000C943890607D46FF0200101612046BDE859
:101430007040FFF718BF70BD00B585B00021009166
:101440000191029103910068B0F1804F11D10A48D7
:10145000816941F0040181618069694600F00400FE
:1014600004900F2000900220019003900348FFF7A2
:101470005FFA05B000BD0000001002400008014006
:10148000704770B5044690F83C000D4601280AD01C
:10149000012084F83C0042B1042A18D0082A2AD03E
:1014A0000C2A4DD139E0022070BD206800F0C6FC46
:1014B0002068816941F0080181612068816921F01B
:1014C00004018161206881692A69114311E0206863
:1014D00000F0DCFC2068816941F4006181612068D2
:1014E000816921F480618161206881692A6941EA0A
:1014F0000221816124E0206800F0F4FC2068C169C9
:1015000041F00801C1612068C16921F00401C16195
:101510002068C1692A69114311E0206800F00EFDBE
:101520002068C16941F40061C1612068C16921F48A
:101530008061C1612068C1692A6941EA0221C161F3
:10154000002084F83C0070BD10B5040003D094F86E
:101550003D0010B107E0012010BD002084F83C00E0
:10156000204600F01FF8022084F83D00211D20686D
:1015700000F020FC012084F8460084F83E0084F846
:101580003F0084F8400084F8410084F8420084F869
:10159000430084F8440084F8450084F83D000020AE
:1015A00010BD000008B50068B0F1804F12D10A48A4
:1015B000C16941F00101C161C069002200F0010070
:1015C000009005211C20FFF715FBBDE808401C20FA
:1015D000FFF702BB08BD0000001002401549884219
:1015E00024D1154900204FF08042B1F90030002B82
:1015F00002DD5B1E0B8001E050630872B1F902301E
:10160000002B02DD5B1E4B8001E090634872B1F954
:101610000430002B02DD5B1E8B8001E0D0638872FA
:10162000B1F90630002B02DD5B1ECB8070471064E1
:10163000C8727047940000201400002010B50446C2
:10164000022249B1042912D008291CD094F8410083
:10165000012823D0012010BD94F83E000128F9D1C3
:1016600084F83E202068C26842F0020209E094F843
:101670003F000128EED184F83F202068C26842F084
:101680000402C2600EE094F840000128E2D184F820
:1016900040202068C26842F00802F2E784F8412046
:1016A0000C2922D00122206800F0BAFB11492068E1
:1016B000884203D1426C42F400424264206888426E
:1016C00008D0B0F1804F05D00B49884202D00B49B9
:1016D000884204D1816801F00701062903D001681E
:1016E00041F001010160002010BD2068C26842F095
:1016F0001002C6E7002C0140000400400008004032
:101700007047704770477047F8B502680446106824
:10171000D168536910F00F0F4FF0000553D003F05C
:10172000010601F4907737435FD0C20705D0CA05A0
:1017300003D5226C42F001022264420705D5DA0784
:1017400003D0226C42F002022264820705D5DA0738
:1017500003D0226C42F004022264020707D501F094
:101760002002324303D0226C42F008022264226C31
:10177000002A34D0800604D5880602D5204600F021
:101780001FFC20684069216CC0F38010090700D459
:1017900030B3204600F0FCFB2068416949061BD5A8
:1017A000416921F040014161A06BA8B158494163F2
:1017B000A06BFEF779FF002811D0A06B416B01B040
:1017C000BDE8F040084783060FD58B060DD52046AF
:1017D000BDE8F84000F0F4BB2046FFF794FFF8BDE9
:1017E0002046FFF790FF2564F8BD266B2023012ECD
:1017F00052D1C60650D5CE064ED51068506800901E
:10180000506940062AD5A16B086840680004000CA6
:10181000EAD0A68D8642E7D9E0858869202818D0CD
:10182000D06820F48070D0602068416921F0010107
:1018300041612068416921F04001416184F83E30F6
:1018400025632068C16821F01001C160A06BFEF71C
:1018500007FFA08DE18D401A81B219E0A08DE18DC6
:10186000401A81B2E08D0028BED00029BCD0D068DB
:1018700020F49070D0602068426922F00102426139
:1018800084F83E3025632068C26822F01002C260EE
:101890002046FFF737FFF8BD05062BD50D0629D5E5
:1018A00094F83D002128F6D1A068B0F5805F01D101
:1018B0002069B0B1206A411C21622168007848602B
:1018C000E08C401E0004000CE084E4D12068C16874
:1018D00021F08001C1602068C16841F04001C16011
:1018E000F8BD206A0088C0F308005060206A801CA0
:1018F0002062E5E74006F3D54806F1D5D1682046D9
:1019000021F04001D16084F83D3000F0A2F8F8BD2C
:10191000811F000870B5040004D094F83D00002534
:1019200010B106E0012070BD84F83C50204600F064
:1019300023F8242084F83D002068C16821F4005178
:10194000C160204600F098FB2068016921F49041B5
:1019500001612068416921F02A0141612068C16864
:1019600041F40051C1602564202084F83D0084F8D2
:101970003E00002070BD0000F0B585B00024064692
:10198000009401940294039400682C49884253D136
:101990002B48816941F480418161816901F4804172
:1019A0000491816941F0040181618069254D00F055
:1019B000040004904FF40070009002200190032076
:1019C000039069462846FEF7B3FF2815CDE90004C9
:1019D000694628460294FEF7ABFF1C4D1A48802743
:1019E00001C5102091C5194845F810496C61AC61DA
:1019F000EC61FEF74FFF08B1FEF75CFC75636E62A9
:101A0000124D114844351430C5E90004C5E90247B8
:101A10002C616C61AC612846EC61FEF73BFF08B1BC
:101A2000FEF748FCB5630022062125206E62FFF711
:101A3000E1F82520FFF7D0F805B0F0BD00380140EF
:101A40000010024000080140440002402001002034
:101A500070477047FEE700003EB50021174800912F
:101A60000191154A0291026092158260012404736B
:101A7000017502254FF460220561C2614160FEF7E5
:101A80000FFD08B1FEF716FC0620CDE90004052085
:101A9000029069460948FEF711FC08B1FEF70AFCFE
:101AA0000720CDE9000569460448FEF707FC002839
:101AB00001D0FEF7FFFB3EBD0024014020000020C6
:101AC000114808B5416941F00101416140690022B6
:101AD00000F00100009005210B20FFF78BF80B2090
:101AE000FFF77AF8002211460E20FFF783F80E2048
:101AF000FFF772F8002211460F20FFF77BF8BDE8D0
:101B000008400F20FFF768B8001002402DE9F047A9
:101B100086B000253D4800950195029503958169A1
:101B200041F010018161816901F010010491816926
:101B300041F020018161816901F0200104918169F6
:101B400041F004018161816901F00401049181691E
:101B500041F00801816180692D4F00F008004FF4C9
:101B600060440490002221463846FEF7D1FFDFF89A
:101B7000A4A0002230215046FEF7CAFFDFF898905B
:101B80004FF44058002241464846FEF7C1FF0094FA
:101B900001AA0124022682E8700069463846FEF751
:101BA000C7FE30208DE8710069465046FEF7C0FE42
:101BB0001A4F0420CDE90007694602944846FEF713
:101BC000B7FE01AACDF8008082E870006946484659
:101BD000FEF7AEFE2002CDE90007694602945046AA
:101BE000FEF7A6FE002204210820FFF703F80820D4
:101BF000FEF7F2FF002204211720FEF7FBFF17205B
:101C0000FEF7EAFF06B0BDE8F087000000100240D2
:101C10000010014000080140000C014000002110AC
:101C200010B58AB0002407941C2168460894FEF77A
:101C300080FA23484FF0804101604721C0E9011438
:101C400040F2E731C0E903148461FFF77DFC08B17D
:101C5000FEF730FB079407A919480894FFF704FB27
:101C600008B1FEF727FB602000904FF4FA70CDE931
:101C700001040022694612480494FFF702FC08B1EF
:101C8000FEF718FB042269460D48FFF7FAFB08B17E
:101C9000FEF710FB082269460948FFF7F2FB08B17E
:101CA000FEF708FB0C2269460548FFF7EAFB08B17E
:101CB000FEF700FB0248FFF7BFFB0AB010BD0000B3
:101CC000940000200C4810B50A4901604FF4E1313E
:101CD0004160002181600C22C160C0E90412816171
:101CE000C161FFF717FE002803D0BDE81040FEF7E2
:101CF000E1BA10BD00380140DC000020FEE7FEE73D
:101D00007047704707480188642906D90649CA68A0
:101D100082F40052CA600021018089B2491C01800E
:101D2000FEF702BF000000200010014030B593B064
:101D300028216846FEF7FDF914210AA8FEF7F9F9F3
:101D4000002501200F9510951195010412958DE83D
:101D5000230004904FF4E010CDE90810022407940A
:101D60006846FFF7DBF808B172B6FEE70AA90F2054
:101D700081E831004FF48060CDE90D0502210AA809
:101D8000FEF7E0FF08B172B6FEE74FF40040119095
:101D90000F940FA8FEF760FF002801D072B6FEE78F
:101DA00013B030BD704700000148FFF792BA000041
:101DB00094000020F0B50268164B174C174D4FF0F9
:101DC0008047984205D0B84203D0A04201D0A84233
:101DD00003D122F070064A683243984205D0B842D7
:101DE00003D0A04201D0A84203D122F44074CA68B3
:101DF00022434C6922F08002224302608A68C26258
:101E00000A688262984201D1096901630121416136
:101E1000F0BD0000002C014000040040000800401C
:101E200010B501F01F030121046A99408C4304623C
:101E3000016A9A401143016210BD000030B5026A88
:101E400022F001020262026A4368846924F0730589
:101E50000C682C4322F002058A682A430A4DA842E6
:101E60000BD122F00805CA6823F440732A434D6958
:101E700022F004021D438B692B434360846149684F
:101E80004163026230BD0000002C014030B5026A9F
:101E900022F010020262026A436884690D6824F429
:101EA000E64444EA05248D6822F0200242EA051245
:101EB0000B4DA8420ED1CD6822F0800242EA0512F5
:101EC0004D6923F4406343EA85038D6922F04002A3
:101ED00043EA85034360846149688163026230BDDF
:101EE000002C014030B5026A22F480720262036A5B
:101EF0004268C46923F4007324F073050C682C4312
:101F00008D6843EA05230C4DA8420ED1CD6823F419
:101F1000006343EA05234D6922F4405242EA051268
:101F20008D6923F4806342EA05124260C461496806
:101F3000C163036230BD0000002C014030B5026A6D
:101F400022F480520262046A4268C3690D6823F475
:101F5000E64343EA05238D6824F4005444EA05343B
:101F6000064DA84204D14D6922F4804242EA85120E
:101F70004260C36149680164046230BD002C0140C5
:101F800010B5406A0021C185C184FFF7BCFB10BDBC
:101F90000168CA6822F49072CA6001684A6922F036
:101FA00001024A61016B012904D10168CA6822F06B
:101FB0001002CA60202180F83E10002101637047A2
:101FC00008B590F83E10222901D0022008BD826891
:101FD0004FF480539A4201D1016921B1816A9A423A
:101FE0001BD04AB10AE00268816A5268C2F3080253
:101FF0000A80816A891C08E0026972B1026852682D
:1020000002F07F020A70816A491C8162C18D491EFB
:102010000904090CC18503D019E002685268F1E790
:102020000168CA6822F02002CA600168CA6822F406
:102030008072CA6001684A6922F001024A61202167
:1020400080F83E10016B012903D0FFF701FD00204D
:1020500008BD002101630168CA6822F01002CA604D
:1020600001680A68D20602D50A6849680091818D24
:10207000FFF748FBEBE7000070B504460068016914
:10208000E26821F44051114301612169A0680843CD
:10209000616908432168CA6841F20C639A430243AC
:1020A000CA6020684169A26921F44071114341610D
:1020B0001E492068884202D1FEF7EAFE01E0FEF7E1
:1020C000D7FE00EBC00101EB0012606864218000C4
:1020D000B2FBF0F3B3FBF1F36FF018067343B2FBFE
:1020E000F0F5B2FBF0F605EB8305322303EB0515A3
:1020F000B5FBF1F5B6FBF1F605F0F00505EB0615BD
:10210000B2FBF0F6B2FBF0F0B0FBF1F06FF01802AA
:10211000504306EB800003EB0010B0FBF1F02168A8
:1021200000F00F002844886070BD000000380140B6
:102130000148FFF7E9BA0000DC000020FEE70907CC
:10214000090E002804DB00F1E02080F8001470473D
:1021500000F00F0000F1E02080F8141D704702E04D
:1021600008C8121F08C1002AFAD170477047002022
:1021700001E001C1121F002AFBD17047FEF7DCFC11
:10218000FFF7D4FDFFF7C2FCFFF79AFCFFF748FD0D
:10219000FFF798FDFFF760FC4FF0804440F2EE201F
:1021A000A06200210A48FFF749FA40F215254FF4D2
:1021B0007A6601212846FEF70BF80120FEF798FB0E
:1021C000606B0028FCD13046FEF792FBF1E700007F
:1021D0009400002000000000000000000102030441
:1021E0000607080900000000010203040C22000891
:1021F00000000020140000005E21000820220008DA
:1022000014000020940500006E210008000000006A
:102210000100000010000000000000000024F40095
:04000005080000ED02
:00000001FF
